{
  "contractName": "GiaoDichMuaBanLua",
  "abi": [
    {
      "anonymous": false,
      "inputs": [
        {
          "indexed": false,
          "internalType": "uint256",
          "name": "id_XaVien",
          "type": "uint256"
        },
        {
          "indexed": false,
          "internalType": "uint256",
          "name": "id_ThuongLai",
          "type": "uint256"
        },
        {
          "indexed": false,
          "internalType": "uint256",
          "name": "id_GiaoDich",
          "type": "uint256"
        },
        {
          "indexed": false,
          "internalType": "uint256",
          "name": "id_LoHangLua",
          "type": "uint256"
        },
        {
          "indexed": false,
          "internalType": "uint256",
          "name": "GiaLoHang",
          "type": "uint256"
        },
        {
          "indexed": false,
          "internalType": "uint256",
          "name": "ThoiGianGiaoDich",
          "type": "uint256"
        }
      ],
      "name": "SuKienGiaoDich",
      "type": "event"
    },
    {
      "inputs": [
        {
          "internalType": "uint256",
          "name": "",
          "type": "uint256"
        }
      ],
      "name": "DanhSachGiaoDich",
      "outputs": [
        {
          "internalType": "uint256",
          "name": "id_XaVien",
          "type": "uint256"
        },
        {
          "internalType": "uint256",
          "name": "id_ThuongLai",
          "type": "uint256"
        },
        {
          "internalType": "uint256",
          "name": "id_GiaoDich",
          "type": "uint256"
        },
        {
          "internalType": "uint256",
          "name": "id_LoHangLua",
          "type": "uint256"
        },
        {
          "internalType": "uint256",
          "name": "GiaLoHang",
          "type": "uint256"
        },
        {
          "internalType": "uint256",
          "name": "ThoiGianGiaoDich",
          "type": "uint256"
        }
      ],
      "stateMutability": "view",
      "type": "function",
      "constant": true
    },
    {
      "inputs": [
        {
          "internalType": "uint256",
          "name": "",
          "type": "uint256"
        }
      ],
      "name": "DanhSachIdGiaoDich",
      "outputs": [
        {
          "internalType": "uint256",
          "name": "",
          "type": "uint256"
        }
      ],
      "stateMutability": "view",
      "type": "function",
      "constant": true
    },
    {
      "inputs": [],
      "name": "maxLength",
      "outputs": [
        {
          "internalType": "uint256",
          "name": "",
          "type": "uint256"
        }
      ],
      "stateMutability": "view",
      "type": "function",
      "constant": true
    },
    {
      "inputs": [
        {
          "internalType": "uint256[]",
          "name": "intProperties",
          "type": "uint256[]"
        },
        {
          "internalType": "bool[]",
          "name": "boolProperties",
          "type": "bool[]"
        },
        {
          "internalType": "address[]",
          "name": "addressProperties",
          "type": "address[]"
        }
      ],
      "name": "ThemGiaoDich",
      "outputs": [
        {
          "internalType": "bool",
          "name": "",
          "type": "bool"
        }
      ],
      "stateMutability": "nonpayable",
      "type": "function"
    },
    {
      "inputs": [
        {
          "internalType": "uint256",
          "name": "id_GiaoDich",
          "type": "uint256"
        }
      ],
      "name": "LayThongTinGiaoDich",
      "outputs": [
        {
          "components": [
            {
              "internalType": "uint256",
              "name": "id_XaVien",
              "type": "uint256"
            },
            {
              "internalType": "uint256",
              "name": "id_ThuongLai",
              "type": "uint256"
            },
            {
              "internalType": "uint256",
              "name": "id_GiaoDich",
              "type": "uint256"
            },
            {
              "internalType": "uint256",
              "name": "id_LoHangLua",
              "type": "uint256"
            },
            {
              "internalType": "uint256",
              "name": "GiaLoHang",
              "type": "uint256"
            },
            {
              "internalType": "uint256",
              "name": "ThoiGianGiaoDich",
              "type": "uint256"
            }
          ],
          "internalType": "struct GiaoDichMuaBanLua.GiaoDichMuaBanLua_Struct",
          "name": "",
          "type": "tuple"
        }
      ],
      "stateMutability": "view",
      "type": "function",
      "constant": true
    }
  ],
  "bytecode": "0x6080604052600060025534801561001557600080fd5b50611245806100256000396000f3fe608060405234801561001057600080fd5b50600436106100575760003560e01c806311ab09b21461005c5780632d914b7e1461008c5780633f283d07146100bc5780637faea675146100f1578063d06a89a414610121575b600080fd5b61007660048036038101906100719190610778565b61013f565b604051610083919061082f565b60405180910390f35b6100a660048036038101906100a19190610778565b6101a7565b6040516100b39190610859565b60405180910390f35b6100d660048036038101906100d19190610778565b6101bf565b6040516100e896959493929190610874565b60405180910390f35b61010b60048036038101906101069190610c4a565b6101fb565b6040516101189190610d00565b60405180910390f35b6101296104f1565b6040516101369190610859565b60405180910390f35b6101476106f8565b6000808381526020019081526020016000206040518060c001604052908160008201548152602001600182015481526020016002820154815260200160038201548152602001600482015481526020016005820154815250509050919050565b60016020528060005260406000206000915090505481565b60006020528060005260406000206000915090508060000154908060010154908060020154908060030154908060040154908060050154905086565b60008360028151811061021157610210610d1b565b5b602002602001015160008060008381526020019081526020016000206002015414610271576040517f08c379a000000000000000000000000000000000000000000000000000000000815260040161026890610da7565b60405180910390fd5b838060008151811061028657610285610d1b565b5b602002602001015180156102b25750806001815181106102a9576102a8610d1b565b5b60200260200101515b80156102d65750806002815181106102cd576102cc610d1b565b5b60200260200101515b610315576040517f08c379a000000000000000000000000000000000000000000000000000000000815260040161030c90610e13565b60405180910390fd5b8560038151811061032957610328610d1b565b5b60200260200101518460008151811061034557610344610d1b565b5b60200260200101516000819050828173ffffffffffffffffffffffffffffffffffffffff1663d5c07c70856040518263ffffffff1660e01b815260040161038c9190610859565b600060405180830381865afa1580156103a9573d6000803e3d6000fd5b505050506040513d6000823e3d601f19601f820116820180604052508101906103d29190610ffb565b6020015114610416576040517f08c379a000000000000000000000000000000000000000000000000000000000815260040161040d90611090565b60405180910390fd5b8860038151811061042a57610429610d1b565b5b6020026020010151600080600190505b6002548210156104915760006001600084815260200190815260200160002054905083600080838152602001908152602001600020600301540361047d57600091505b508180610489906110df565b92505061043a565b806104d1576040517f08c379a00000000000000000000000000000000000000000000000000000000081526004016104c890611199565b60405180910390fd5b60006104dc8d6104f7565b90508099505050505050505050509392505050565b60025481565b60006105016106f8565b60008360008151811061051757610516610d1b565b5b6020026020010151905060008460018151811061053757610536610d1b565b5b6020026020010151905060008560028151811061055757610556610d1b565b5b6020026020010151905060008660038151811061057757610576610d1b565b5b6020026020010151905060008760048151811061059757610596610d1b565b5b602002602001015190506000886005815181106105b7576105b6610d1b565b5b602002602001015190506040518060c00160405280878152602001868152602001858152602001848152602001838152602001828152509650866000808b60028151811061060857610607610d1b565b5b60200260200101518152602001908152602001600020600082015181600001556020820151816001015560408201518160020155606082015181600301556080820151816004015560a082015181600501559050508860028151811061067157610670610d1b565b5b60200260200101516001600060025481526020019081526020016000208190555060016002546106a191906111b9565b6002819055507f1c0098f777de6aa81dde66740fb1b27742a11d75f966d585c8f941d5f4e367348686868686866040516106e096959493929190610874565b60405180910390a16001975050505050505050919050565b6040518060c001604052806000815260200160008152602001600081526020016000815260200160008152602001600081525090565b6000604051905090565b600080fd5b600080fd5b6000819050919050565b61075581610742565b811461076057600080fd5b50565b6000813590506107728161074c565b92915050565b60006020828403121561078e5761078d610738565b5b600061079c84828501610763565b91505092915050565b6107ae81610742565b82525050565b60c0820160008201516107ca60008501826107a5565b5060208201516107dd60208501826107a5565b5060408201516107f060408501826107a5565b50606082015161080360608501826107a5565b50608082015161081660808501826107a5565b5060a082015161082960a08501826107a5565b50505050565b600060c08201905061084460008301846107b4565b92915050565b61085381610742565b82525050565b600060208201905061086e600083018461084a565b92915050565b600060c082019050610889600083018961084a565b610896602083018861084a565b6108a3604083018761084a565b6108b0606083018661084a565b6108bd608083018561084a565b6108ca60a083018461084a565b979650505050505050565b600080fd5b6000601f19601f8301169050919050565b7f4e487b7100000000000000000000000000000000000000000000000000000000600052604160045260246000fd5b610923826108da565b810181811067ffffffffffffffff82111715610942576109416108eb565b5b80604052505050565b600061095561072e565b9050610961828261091a565b919050565b600067ffffffffffffffff821115610981576109806108eb565b5b602082029050602081019050919050565b600080fd5b60006109aa6109a584610966565b61094b565b905080838252602082019050602084028301858111156109cd576109cc610992565b5b835b818110156109f657806109e28882610763565b8452602084019350506020810190506109cf565b5050509392505050565b600082601f830112610a1557610a146108d5565b5b8135610a25848260208601610997565b91505092915050565b600067ffffffffffffffff821115610a4957610a486108eb565b5b602082029050602081019050919050565b60008115159050919050565b610a6f81610a5a565b8114610a7a57600080fd5b50565b600081359050610a8c81610a66565b92915050565b6000610aa5610aa084610a2e565b61094b565b90508083825260208201905060208402830185811115610ac857610ac7610992565b5b835b81811015610af15780610add8882610a7d565b845260208401935050602081019050610aca565b5050509392505050565b600082601f830112610b1057610b0f6108d5565b5b8135610b20848260208601610a92565b91505092915050565b600067ffffffffffffffff821115610b4457610b436108eb565b5b602082029050602081019050919050565b600073ffffffffffffffffffffffffffffffffffffffff82169050919050565b6000610b8082610b55565b9050919050565b610b9081610b75565b8114610b9b57600080fd5b50565b600081359050610bad81610b87565b92915050565b6000610bc6610bc184610b29565b61094b565b90508083825260208201905060208402830185811115610be957610be8610992565b5b835b81811015610c125780610bfe8882610b9e565b845260208401935050602081019050610beb565b5050509392505050565b600082601f830112610c3157610c306108d5565b5b8135610c41848260208601610bb3565b91505092915050565b600080600060608486031215610c6357610c62610738565b5b600084013567ffffffffffffffff811115610c8157610c8061073d565b5b610c8d86828701610a00565b935050602084013567ffffffffffffffff811115610cae57610cad61073d565b5b610cba86828701610afb565b925050604084013567ffffffffffffffff811115610cdb57610cda61073d565b5b610ce786828701610c1c565b9150509250925092565b610cfa81610a5a565b82525050565b6000602082019050610d156000830184610cf1565b92915050565b7f4e487b7100000000000000000000000000000000000000000000000000000000600052603260045260246000fd5b600082825260208201905092915050565b7f4944206769616f206469636820646120746f6e20746169000000000000000000600082015250565b6000610d91601783610d4a565b9150610d9c82610d5b565b602082019050919050565b60006020820190508181036000830152610dc081610d84565b9050919050565b7f4769616f2064696368206368756120646f6e6720746875616e00000000000000600082015250565b6000610dfd601983610d4a565b9150610e0882610dc7565b602082019050919050565b60006020820190508181036000830152610e2c81610df0565b9050919050565b600080fd5b600080fd5b600081519050610e4c8161074c565b92915050565b600080fd5b600067ffffffffffffffff821115610e7257610e716108eb565b5b610e7b826108da565b9050602081019050919050565b60005b83811015610ea6578082015181840152602081019050610e8b565b83811115610eb5576000848401525b50505050565b6000610ece610ec984610e57565b61094b565b905082815260208101848484011115610eea57610ee9610e52565b5b610ef5848285610e88565b509392505050565b600082601f830112610f1257610f116108d5565b5b8151610f22848260208601610ebb565b91505092915050565b600060e08284031215610f4157610f40610e33565b5b610f4b60e061094b565b90506000610f5b84828501610e3d565b6000830152506020610f6f84828501610e3d565b6020830152506040610f8384828501610e3d565b6040830152506060610f9784828501610e3d565b6060830152506080610fab84828501610e3d565b60808301525060a0610fbf84828501610e3d565b60a08301525060c082015167ffffffffffffffff811115610fe357610fe2610e38565b5b610fef84828501610efd565b60c08301525092915050565b60006020828403121561101157611010610738565b5b600082015167ffffffffffffffff81111561102f5761102e61073d565b5b61103b84828501610f2b565b91505092915050565b7f4c6f2068616e67206c7561206368756120746f6e207461690000000000000000600082015250565b600061107a601883610d4a565b915061108582611044565b602082019050919050565b600060208201905081810360008301526110a98161106d565b9050919050565b7f4e487b7100000000000000000000000000000000000000000000000000000000600052601160045260246000fd5b60006110ea82610742565b91507fffffffffffffffffffffffffffffffffffffffffffffffffffffffffffffffff820361111c5761111b6110b0565b5b600182019050919050565b7f4c6f2068616e67206c7561206e61792064612064756f63206769616f2064696360008201527f6800000000000000000000000000000000000000000000000000000000000000602082015250565b6000611183602183610d4a565b915061118e82611127565b604082019050919050565b600060208201905081810360008301526111b281611176565b9050919050565b60006111c482610742565b91506111cf83610742565b9250827fffffffffffffffffffffffffffffffffffffffffffffffffffffffffffffffff03821115611204576112036110b0565b5b82820190509291505056fea26469706673582212202dbbbed6d2b4002d7ce037abaea36ee5de1ce48248d3b12eaf136b91938d31f064736f6c634300080d0033",
  "immutableReferences": {},
  "source": "// SPDX-License-Identifier: MIT\npragma solidity >=0.5.16 <0.9.0;\n\nimport \"./LoHangLua.sol\";\n\ncontract GiaoDichMuaBanLua {\n    //--------data-------//\n    struct GiaoDichMuaBanLua_Struct {\n        uint    id_XaVien;\n        uint    id_ThuongLai;\n        uint    id_GiaoDich;\n        uint    id_LoHangLua;\n        uint    GiaLoHang;\n        uint    ThoiGianGiaoDich;\n    }\n\n    mapping ( uint => GiaoDichMuaBanLua_Struct ) public DanhSachGiaoDich;\n\n    mapping ( uint => uint ) public DanhSachIdGiaoDich;\n\n    uint public maxLength = 0;\n\n    //-------event-------//\n\n    event SuKienGiaoDich (\n        uint    id_XaVien,\n        uint    id_ThuongLai,\n        uint    id_GiaoDich,\n        uint    id_LoHangLua,\n        uint    GiaLoHang,\n        uint    ThoiGianGiaoDich\n    );\n\n    //------modifier-----//\n\n    modifier KiemTraXacNhan ( bool[] memory boolProperties ) {\n        require(\n            boolProperties[0] && boolProperties[1] && boolProperties[2],\n            \"Giao dich chua dong thuan\"\n        );\n\n        _;\n    }\n\n    modifier KiemTraGiaoDich ( uint id_GiaoDich ) {\n        require( \n            DanhSachGiaoDich[ id_GiaoDich ].id_GiaoDich == 0,\n            \"ID giao dich da ton tai\"\n        );\n        \n        _;\n    }\n\n    modifier KiemTraLoHangDaTonTai( uint id_LoHangLua, address addr ) {\n        LoHangLua _loHangLua = LoHangLua(addr);\n\n        require(\n            _loHangLua.LayThongTinLoHangLua( id_LoHangLua ).id_LoHangLua == id_LoHangLua,\n            \"Lo hang lua chua ton tai\"\n        );\n\n        _;\n    }\n\n    modifier KiemTraLoHangDaGiaoDich( uint id_LoHangLua ) {\n        uint index = 0;\n        bool kiemTraLoHangLua = true;\n\n        for ( index; index < maxLength; index ++ ) {\n            uint id_GiaoDichTemp = DanhSachIdGiaoDich[ index ];\n\n            if ( DanhSachGiaoDich[ id_GiaoDichTemp ].id_LoHangLua == id_LoHangLua ) {\n                kiemTraLoHangLua = false;\n            }\n        }\n\n        require(\n            kiemTraLoHangLua,\n            \"Lo hang lua nay da duoc giao dich\"\n        );\n\n        _;\n    }\n   \n\n    //-------handle------//\n    /*\n    intProperties [\n        0: uint id_XaVien;\n        1: uint id_ThuongLai;\n        2: uint id_GiaoDich;\n        3: uint id_LoHangLua;\n        4: uint GiaLoHang;\n        5: uint ThoiGianGiaoDich;\n    ]\n\n    stringProperties [\n        0: string  TenGiongLua\n    ]\n    */\n    function ThemGiaoDich (\n        uint[]      memory intProperties,\n        bool[]      memory boolProperties,\n        address[]   memory addressProperties\n    )\n    KiemTraGiaoDich( intProperties[2] )\n    KiemTraXacNhan( boolProperties )\n    KiemTraLoHangDaTonTai( intProperties[3],  addressProperties[0])\n    KiemTraLoHangDaGiaoDich(intProperties[3])\n    public\n    returns (bool) \n    {\n\n        bool result = LuuThongTinGiaoDich( intProperties );\n        \n        return result;\n    } \n\n    function LayThongTinGiaoDich (\n        uint id_GiaoDich\n    )\n    external view\n    returns ( GiaoDichMuaBanLua_Struct memory ) {\n        return DanhSachGiaoDich[ id_GiaoDich ];\n    } \n\n    function LuuThongTinGiaoDich (\n        uint[] memory intProperties\n    ) \n    internal \n    returns (bool)\n    {\n\n        GiaoDichMuaBanLua_Struct memory GiaoDichMuaBanVatTuMemory;\n\n        uint id_XaVien         =  intProperties[0];\n        uint id_ThuongLai      =  intProperties[1];\n        uint id_GiaoDich       =  intProperties[2];\n        uint id_LoHangLua      =  intProperties[3];\n        uint GiaLoHang         =  intProperties[4];\n        uint ThoiGianGiaoDich  =  intProperties[5];\n        \n\n        GiaoDichMuaBanVatTuMemory = GiaoDichMuaBanLua_Struct (\n            id_XaVien,\n            id_ThuongLai,\n            id_GiaoDich,\n            id_LoHangLua,\n            GiaLoHang,\n            ThoiGianGiaoDich\n        );\n\n        DanhSachGiaoDich[ intProperties[2] ] = GiaoDichMuaBanVatTuMemory;\n\n        DanhSachIdGiaoDich[ maxLength ] = intProperties[2];\n        maxLength = maxLength + 1;\n\n        emit SuKienGiaoDich (\n            id_XaVien,\n            id_ThuongLai,\n            id_GiaoDich,\n            id_LoHangLua,\n            GiaLoHang,\n            ThoiGianGiaoDich\n        );\n\n        return true;\n    }  \n}",
  "sourcePath": "/Users/trongnhan/Dev/supply-chain-for-agriculture/blockchain/contracts/GiaoDichMuaBanLua.sol",
  "compiler": {
    "name": "solc",
    "version": "0.8.13+commit.abaa5c0e.Emscripten.clang"
  },
  "schemaVersion": "3.4.7",
  "updatedAt": "2022-11-27T11:05:32.506Z",
  "networkType": "ethereum",
  "devdoc": {
    "kind": "dev",
    "methods": {},
    "version": 1
  },
  "userdoc": {
    "kind": "user",
    "methods": {},
    "version": 1
  }
}