{
  "contractName": "GiaoDichMuaBanSanPham",
  "abi": [
    {
      "anonymous": false,
      "inputs": [
        {
          "indexed": false,
          "internalType": "uint256",
          "name": "id_GiaoDich",
          "type": "uint256"
        },
        {
          "indexed": false,
          "internalType": "uint256",
          "name": "id_NguoiTieuDung",
          "type": "uint256"
        },
        {
          "indexed": false,
          "internalType": "uint256",
          "name": "id_NguoiBan",
          "type": "uint256"
        },
        {
          "indexed": false,
          "internalType": "uint256",
          "name": "id_LoHang",
          "type": "uint256"
        },
        {
          "indexed": false,
          "internalType": "uint256",
          "name": "GiaLoHang",
          "type": "uint256"
        },
        {
          "indexed": false,
          "internalType": "uint256",
          "name": "ThoiGianGiaoDich",
          "type": "uint256"
        },
        {
          "indexed": false,
          "internalType": "uint256",
          "name": "id_GiaoDichMuaBanLua",
          "type": "uint256"
        }
      ],
      "name": "SuKienThemGiaoDich",
      "type": "event"
    },
    {
      "inputs": [
        {
          "internalType": "uint256",
          "name": "",
          "type": "uint256"
        }
      ],
      "name": "DanhSachGiaoDich",
      "outputs": [
        {
          "internalType": "uint256",
          "name": "id_GiaoDich",
          "type": "uint256"
        },
        {
          "internalType": "uint256",
          "name": "id_NguoiTieuDung",
          "type": "uint256"
        },
        {
          "internalType": "uint256",
          "name": "id_NguoiBan",
          "type": "uint256"
        },
        {
          "internalType": "uint256",
          "name": "id_LoHang",
          "type": "uint256"
        },
        {
          "internalType": "uint256",
          "name": "GiaLoHang",
          "type": "uint256"
        },
        {
          "internalType": "uint256",
          "name": "ThoiGianGiaoDich",
          "type": "uint256"
        },
        {
          "internalType": "uint256",
          "name": "id_GiaoDichMuaBanLua",
          "type": "uint256"
        }
      ],
      "stateMutability": "view",
      "type": "function",
      "constant": true
    },
    {
      "inputs": [
        {
          "internalType": "uint256",
          "name": "",
          "type": "uint256"
        }
      ],
      "name": "DanhSachIdGiaoDich",
      "outputs": [
        {
          "internalType": "uint256",
          "name": "",
          "type": "uint256"
        }
      ],
      "stateMutability": "view",
      "type": "function",
      "constant": true
    },
    {
      "inputs": [],
      "name": "maxLength",
      "outputs": [
        {
          "internalType": "uint256",
          "name": "",
          "type": "uint256"
        }
      ],
      "stateMutability": "view",
      "type": "function",
      "constant": true
    },
    {
      "inputs": [
        {
          "internalType": "uint256[]",
          "name": "intProperties",
          "type": "uint256[]"
        },
        {
          "internalType": "bool[]",
          "name": "boolProperties",
          "type": "bool[]"
        },
        {
          "internalType": "address[]",
          "name": "addressProperties",
          "type": "address[]"
        }
      ],
      "name": "ThemGiaoDich",
      "outputs": [
        {
          "internalType": "bool",
          "name": "",
          "type": "bool"
        }
      ],
      "stateMutability": "nonpayable",
      "type": "function"
    }
  ],
  "bytecode": "0x6080604052600060025534801561001557600080fd5b5061123b806100256000396000f3fe608060405234801561001057600080fd5b506004361061004c5760003560e01c80632d914b7e146100515780633f283d07146100815780637faea675146100b7578063d06a89a4146100e7575b600080fd5b61006b6004803603810190610066919061081f565b610105565b604051610078919061085b565b60405180910390f35b61009b6004803603810190610096919061081f565b61011d565b6040516100ae9796959493929190610876565b60405180910390f35b6100d160048036038101906100cc9190610c5a565b61015f565b6040516100de9190610d10565b60405180910390f35b6100ef610579565b6040516100fc919061085b565b60405180910390f35b60016020528060005260406000206000915090505481565b60006020528060005260406000206000915090508060000154908060010154908060020154908060030154908060040154908060050154908060060154905087565b6000828060008151811061017657610175610d2b565b5b602002602001015180156101a257508060018151811061019957610198610d2b565b5b60200260200101515b6101e1576040517f08c379a00000000000000000000000000000000000000000000000000000000081526004016101d890610db7565b60405180910390fd5b84836000815181106101f6576101f5610d2b565b5b6020026020010151600081905060008290508360038151811061021c5761021b610d2b565b5b60200260200101518173ffffffffffffffffffffffffffffffffffffffff1663e2e3dc9a8660038151811061025457610253610d2b565b5b60200260200101516040518263ffffffff1660e01b8152600401610278919061085b565b60a060405180830381865afa158015610295573d6000803e3d6000fd5b505050506040513d601f19601f820116820180604052508101906102b99190610e7d565b60000151146102fd576040517f08c379a00000000000000000000000000000000000000000000000000000000081526004016102f490610ef6565b60405180910390fd5b600080600190505b600254821015610377576000600160008481526020019081526020016000205490508660038151811061033b5761033a610d2b565b5b6020026020010151600080838152602001908152602001600020600301540361036357600091505b50818061036f90610f45565b925050610305565b600091506000600190505b6002548310156103f457600060016000858152602001908152602001600020549050876006815181106103b8576103b7610d2b565b5b602002602001015160008083815260200190815260200160002060060154036103e057600091505b5082806103ec90610f45565b935050610382565b80610434576040517f08c379a000000000000000000000000000000000000000000000000000000000815260040161042b90610fff565b60405180910390fd5b81610474576040517f08c379a000000000000000000000000000000000000000000000000000000000815260040161046b90611091565b60405180910390fd5b8660028151811061048857610487610d2b565b5b6020026020010151876001815181106104a4576104a3610d2b565b5b6020026020010151036104ec576040517f08c379a00000000000000000000000000000000000000000000000000000000081526004016104e390611123565b60405180910390fd5b60008060008960008151811061050557610504610d2b565b5b60200260200101518152602001908152602001600020600001541461055f576040517f08c379a00000000000000000000000000000000000000000000000000000000081526004016105569061118f565b60405180910390fd5b6105688c61057f565b985050505050505050509392505050565b60025481565b6000610589610798565b60008360008151811061059f5761059e610d2b565b5b602002602001015190506000846001815181106105bf576105be610d2b565b5b602002602001015190506000856002815181106105df576105de610d2b565b5b602002602001015190506000866003815181106105ff576105fe610d2b565b5b6020026020010151905060008760048151811061061f5761061e610d2b565b5b6020026020010151905060008860058151811061063f5761063e610d2b565b5b6020026020010151905060008960068151811061065f5761065e610d2b565b5b602002602001015190506040518060e0016040528088815260200187815260200186815260200185815260200184815260200183815260200182815250975087600080898152602001908152602001600020600082015181600001556020820151816001015560408201518160020155606082015181600301556080820151816004015560a0820151816005015560c082015181600601559050508960028151811061070e5761070d610d2b565b5b602002602001015160016000600254815260200190815260200160002081905550600160025461073e91906111af565b6002819055507fccee03bd6d2a547808232668ff503c34de5181ad321fa8600c038667264d38b88787878787878760405161077f9796959493929190610876565b60405180910390a1600198505050505050505050919050565b6040518060e00160405280600081526020016000815260200160008152602001600081526020016000815260200160008152602001600081525090565b6000604051905090565b600080fd5b600080fd5b6000819050919050565b6107fc816107e9565b811461080757600080fd5b50565b600081359050610819816107f3565b92915050565b600060208284031215610835576108346107df565b5b60006108438482850161080a565b91505092915050565b610855816107e9565b82525050565b6000602082019050610870600083018461084c565b92915050565b600060e08201905061088b600083018a61084c565b610898602083018961084c565b6108a5604083018861084c565b6108b2606083018761084c565b6108bf608083018661084c565b6108cc60a083018561084c565b6108d960c083018461084c565b98975050505050505050565b600080fd5b6000601f19601f8301169050919050565b7f4e487b7100000000000000000000000000000000000000000000000000000000600052604160045260246000fd5b610933826108ea565b810181811067ffffffffffffffff82111715610952576109516108fb565b5b80604052505050565b60006109656107d5565b9050610971828261092a565b919050565b600067ffffffffffffffff821115610991576109906108fb565b5b602082029050602081019050919050565b600080fd5b60006109ba6109b584610976565b61095b565b905080838252602082019050602084028301858111156109dd576109dc6109a2565b5b835b81811015610a0657806109f2888261080a565b8452602084019350506020810190506109df565b5050509392505050565b600082601f830112610a2557610a246108e5565b5b8135610a358482602086016109a7565b91505092915050565b600067ffffffffffffffff821115610a5957610a586108fb565b5b602082029050602081019050919050565b60008115159050919050565b610a7f81610a6a565b8114610a8a57600080fd5b50565b600081359050610a9c81610a76565b92915050565b6000610ab5610ab084610a3e565b61095b565b90508083825260208201905060208402830185811115610ad857610ad76109a2565b5b835b81811015610b015780610aed8882610a8d565b845260208401935050602081019050610ada565b5050509392505050565b600082601f830112610b2057610b1f6108e5565b5b8135610b30848260208601610aa2565b91505092915050565b600067ffffffffffffffff821115610b5457610b536108fb565b5b602082029050602081019050919050565b600073ffffffffffffffffffffffffffffffffffffffff82169050919050565b6000610b9082610b65565b9050919050565b610ba081610b85565b8114610bab57600080fd5b50565b600081359050610bbd81610b97565b92915050565b6000610bd6610bd184610b39565b61095b565b90508083825260208201905060208402830185811115610bf957610bf86109a2565b5b835b81811015610c225780610c0e8882610bae565b845260208401935050602081019050610bfb565b5050509392505050565b600082601f830112610c4157610c406108e5565b5b8135610c51848260208601610bc3565b91505092915050565b600080600060608486031215610c7357610c726107df565b5b600084013567ffffffffffffffff811115610c9157610c906107e4565b5b610c9d86828701610a10565b935050602084013567ffffffffffffffff811115610cbe57610cbd6107e4565b5b610cca86828701610b0b565b925050604084013567ffffffffffffffff811115610ceb57610cea6107e4565b5b610cf786828701610c2c565b9150509250925092565b610d0a81610a6a565b82525050565b6000602082019050610d256000830184610d01565b92915050565b7f4e487b7100000000000000000000000000000000000000000000000000000000600052603260045260246000fd5b600082825260208201905092915050565b7f4769616f2064696368206368756120646f6e6720746875616e00000000000000600082015250565b6000610da1601983610d5a565b9150610dac82610d6b565b602082019050919050565b60006020820190508181036000830152610dd081610d94565b9050919050565b600080fd5b600081519050610deb816107f3565b92915050565b600060a08284031215610e0757610e06610dd7565b5b610e1160a061095b565b90506000610e2184828501610ddc565b6000830152506020610e3584828501610ddc565b6020830152506040610e4984828501610ddc565b6040830152506060610e5d84828501610ddc565b6060830152506080610e7184828501610ddc565b60808301525092915050565b600060a08284031215610e9357610e926107df565b5b6000610ea184828501610df1565b91505092915050565b7f4c6f2068616e672073616e207068616d206368756120746f6e20746169000000600082015250565b6000610ee0601d83610d5a565b9150610eeb82610eaa565b602082019050919050565b60006020820190508181036000830152610f0f81610ed3565b9050919050565b7f4e487b7100000000000000000000000000000000000000000000000000000000600052601160045260246000fd5b6000610f50826107e9565b91507fffffffffffffffffffffffffffffffffffffffffffffffffffffffffffffffff8203610f8257610f81610f16565b5b600182019050919050565b7f4769616f2064696368206d75612062616e206c7561206e617920646120746f6e60008201527f2074616900000000000000000000000000000000000000000000000000000000602082015250565b6000610fe9602483610d5a565b9150610ff482610f8d565b604082019050919050565b6000602082019050818103600083015261101881610fdc565b9050919050565b7f4c6f2068616e672073616e207068616d206e61792064612064756f632067696160008201527f6f20646963680000000000000000000000000000000000000000000000000000602082015250565b600061107b602683610d5a565b91506110868261101f565b604082019050919050565b600060208201905081810360008301526110aa8161106e565b9050919050565b7f4964206e67756f6920746965752064756e67207661206e67756f692062616e2060008201527f6b686f6e6720746865207472756e67206e686175000000000000000000000000602082015250565b600061110d603483610d5a565b9150611118826110b1565b604082019050919050565b6000602082019050818103600083015261113c81611100565b9050919050565b7f4944206769616f206469636820646120746f6e20746169000000000000000000600082015250565b6000611179601783610d5a565b915061118482611143565b602082019050919050565b600060208201905081810360008301526111a88161116c565b9050919050565b60006111ba826107e9565b91506111c5836107e9565b9250827fffffffffffffffffffffffffffffffffffffffffffffffffffffffffffffffff038211156111fa576111f9610f16565b5b82820190509291505056fea264697066735822122036ac74829a4519b17abaa0555c3a1ade49bdce90e1f01f39fb8a48bdacd352b464736f6c634300080d0033",
  "immutableReferences": {},
  "source": "// SPDX-License-Identifier: MIT\npragma solidity >=0.5.16 <0.9.0;\n\nimport \"./LoHangLua.sol\";\nimport \"./LoHangSanPham.sol\";\nimport \"./GiaoDichMuaBanLua.sol\";\n\ncontract GiaoDichMuaBanSanPham {\n    struct GiaoDichMuaBanSanPham_Struct {\n        uint256 id_GiaoDich;\n        uint256 id_NguoiTieuDung;\n        uint256 id_NguoiBan;\n        uint256 id_LoHang;\n        uint256 GiaLoHang;\n        uint256 ThoiGianGiaoDich;\n        uint256 id_GiaoDichMuaBanLua;\n    }\n\n    mapping(uint256 => GiaoDichMuaBanSanPham_Struct) public DanhSachGiaoDich;\n\n    mapping(uint256 => uint256) public DanhSachIdGiaoDich;\n\n    uint256 public maxLength = 0;\n\n    event SuKienThemGiaoDich(\n        uint256 id_GiaoDich,\n        uint256 id_NguoiTieuDung,\n        uint256 id_NguoiBan,\n        uint256 id_LoHang,\n        uint256 GiaLoHang,\n        uint256 ThoiGianGiaoDich,\n        uint256 id_GiaoDichMuaBanLua\n    );\n\n    modifier KiemTraXacNhan(bool[] memory boolProperties) {\n        require(\n            (boolProperties[0] && boolProperties[1]),\n            \"Giao dich chua dong thuan\"\n        );\n\n        _;\n    }\n\n    modifier KiemTraGiaTriSo(\n        uint256[] memory intProperties,\n        address addr\n    ) {\n        // kiem tra lo hang da ton tai\n        LoHangLua _loHangLua = LoHangLua(addr);\n        LoHangSanPham _loHangSanPham = LoHangSanPham(addr);\n         require(\n            _loHangSanPham.LayThongTinSanPham(intProperties[3]).id_LoHangSanPham == intProperties[3],\n            \"Lo hang san pham chua ton tai\"\n            );\n        // kiem tra lo hang da giao dich\n        uint256 index = 0;\n        bool kiemTraLoHang = true;\n\n        for (index; index < maxLength; index++) {\n            uint256 id_GiaoDichTemp = DanhSachIdGiaoDich[index];\n\n            if (DanhSachGiaoDich[id_GiaoDichTemp].id_LoHang == intProperties[3]) {\n                kiemTraLoHang = false;\n            }\n        }\n\n        //Kiem tra giao dich mua ban lua da ton tai\n        index = 0;\n        bool kiemTraGiaoDichMuaBanLua = true;\n\n        for ( index; index < maxLength; index ++ ) {\n            uint id_GiaoDichTemp = DanhSachIdGiaoDich[ index ];\n\n            if ( DanhSachGiaoDich[ id_GiaoDichTemp ].id_GiaoDichMuaBanLua == intProperties[6] ) {\n                kiemTraGiaoDichMuaBanLua = false;\n            }\n        }\n\n        require(\n            kiemTraGiaoDichMuaBanLua,\n            \"Giao dich mua ban lua nay da ton tai\"\n        );\n\n        require(kiemTraLoHang, \"Lo hang san pham nay da duoc giao dich\");\n\n        // kiem tra cac ben lien quan\n        require(\n            intProperties[1] != intProperties[2],\n            \"Id nguoi tieu dung va nguoi ban khong the trung nhau\"\n        );\n\n        // kiem tra giao dich\n        require(\n            DanhSachGiaoDich[intProperties[0]].id_GiaoDich == 0,\n            \"ID giao dich da ton tai\"\n        );\n\n        _;\n    }\n\n    /**\n        intProperties [\n            0: id_GiaoDich,\n            1: id_NguoiTieuDung,\n            2: id_NguoiBan,\n            3: id_LoHang,\n            4: GiaLoHang,\n            5: ThoiGianGiaoDich\n            6: id_GiaoDichMuaBanLua\n        ]\n\n        boolProperties [\n            0: id_NguoiTieuDung,\n            1: id_XaVien\n            2: id_HTX\n        ]\n     */\n\n    function LuuThongTinGiaoDich(\n        uint256[] memory intProperties\n    ) internal returns (bool) {\n        GiaoDichMuaBanSanPham_Struct memory GiaoDich;\n        uint256 id_GiaoDich = intProperties[0];\n        uint256 id_NguoiTieuDung = intProperties[1];\n        uint256 id_NguoiBan = intProperties[2];\n        uint256 id_LoHang = intProperties[3];\n        uint256 GiaLoHang = intProperties[4];\n        uint256 ThoiGianGiaoDich = intProperties[5];\n        uint256 id_GiaoDichMuaBanLua = intProperties[6];\n\n        GiaoDich = GiaoDichMuaBanSanPham_Struct(\n            id_GiaoDich,\n            id_NguoiTieuDung,\n            id_NguoiBan,\n            id_LoHang,\n            GiaLoHang,\n            ThoiGianGiaoDich,\n            id_GiaoDichMuaBanLua\n        );\n\n        DanhSachGiaoDich[id_GiaoDich] = GiaoDich;\n\n        DanhSachIdGiaoDich[maxLength] = intProperties[2];\n        maxLength = maxLength + 1;\n\n        emit SuKienThemGiaoDich(\n            id_GiaoDich,\n            id_NguoiTieuDung,\n            id_NguoiBan,\n            id_LoHang,\n            GiaLoHang,\n            ThoiGianGiaoDich,\n            id_GiaoDichMuaBanLua\n        );\n        return true;\n    }\n\n    function ThemGiaoDich(\n        uint256[] memory intProperties,\n        bool[] memory boolProperties,\n        address[] memory addressProperties\n    )\n        public\n        KiemTraXacNhan(boolProperties)\n        KiemTraGiaTriSo(\n            intProperties,\n            addressProperties[0]\n        )\n        returns (bool)\n    {\n        return LuuThongTinGiaoDich(intProperties);\n    }\n}\n",
  "sourcePath": "/Users/trongnhan/Dev/supply-chain-for-agriculture/blockchain/contracts/GiaoDichMuaBanSanPham.sol",
  "compiler": {
    "name": "solc",
    "version": "0.8.13+commit.abaa5c0e.Emscripten.clang"
  },
  "schemaVersion": "3.4.7",
  "updatedAt": "2022-11-26T04:00:28.672Z",
  "networkType": "ethereum",
  "devdoc": {
    "kind": "dev",
    "methods": {},
    "version": 1
  },
  "userdoc": {
    "kind": "user",
    "methods": {},
    "version": 1
  }
}