{
  "contractName": "HoatDongNhatKy",
  "abi": [
    {
      "anonymous": false,
      "inputs": [
        {
          "indexed": false,
          "internalType": "uint256",
          "name": "id_NhatKyDongRuong",
          "type": "uint256"
        },
        {
          "indexed": false,
          "internalType": "uint256",
          "name": "id_LichMuaVu",
          "type": "uint256"
        },
        {
          "indexed": false,
          "internalType": "uint256",
          "name": "id_ThuaDat",
          "type": "uint256"
        },
        {
          "indexed": false,
          "internalType": "uint256",
          "name": "id_XaVien",
          "type": "uint256"
        },
        {
          "indexed": false,
          "internalType": "uint256",
          "name": "id_HoatDongMuaVu",
          "type": "uint256"
        },
        {
          "indexed": false,
          "internalType": "uint256",
          "name": "ThoiGian",
          "type": "uint256"
        }
      ],
      "name": "SuKienThemHoatDongNhatKy",
      "type": "event"
    },
    {
      "inputs": [
        {
          "internalType": "uint256",
          "name": "",
          "type": "uint256"
        }
      ],
      "name": "DanhSachHoatDongNhatKy",
      "outputs": [
        {
          "internalType": "uint256",
          "name": "id_NhatKyDongRuong",
          "type": "uint256"
        },
        {
          "internalType": "uint256",
          "name": "id_LichMuaVu",
          "type": "uint256"
        },
        {
          "internalType": "uint256",
          "name": "id_ThuaDat",
          "type": "uint256"
        },
        {
          "internalType": "uint256",
          "name": "id_XaVien",
          "type": "uint256"
        },
        {
          "internalType": "uint256",
          "name": "id_HoatDongMuaVu",
          "type": "uint256"
        },
        {
          "internalType": "uint256",
          "name": "ThoiGian",
          "type": "uint256"
        }
      ],
      "stateMutability": "view",
      "type": "function",
      "constant": true
    },
    {
      "inputs": [
        {
          "internalType": "uint256[]",
          "name": "intProperties",
          "type": "uint256[]"
        },
        {
          "internalType": "bool[]",
          "name": "boolProperties",
          "type": "bool[]"
        }
      ],
      "name": "ThemHoatDongNhatKy",
      "outputs": [
        {
          "internalType": "bool",
          "name": "",
          "type": "bool"
        }
      ],
      "stateMutability": "nonpayable",
      "type": "function"
    },
    {
      "inputs": [
        {
          "internalType": "uint256",
          "name": "id_HoatDongNhatKy",
          "type": "uint256"
        }
      ],
      "name": "LayThongTinHoatDongNhatKy",
      "outputs": [
        {
          "components": [
            {
              "internalType": "uint256",
              "name": "id_NhatKyDongRuong",
              "type": "uint256"
            },
            {
              "internalType": "uint256",
              "name": "id_LichMuaVu",
              "type": "uint256"
            },
            {
              "internalType": "uint256",
              "name": "id_ThuaDat",
              "type": "uint256"
            },
            {
              "internalType": "uint256",
              "name": "id_XaVien",
              "type": "uint256"
            },
            {
              "internalType": "uint256",
              "name": "id_HoatDongMuaVu",
              "type": "uint256"
            },
            {
              "internalType": "uint256",
              "name": "ThoiGian",
              "type": "uint256"
            }
          ],
          "internalType": "struct HoatDongNhatKy.HoatDongNhatKy_Struct",
          "name": "",
          "type": "tuple"
        }
      ],
      "stateMutability": "view",
      "type": "function",
      "constant": true
    }
  ],
  "bytecode": "0x608060405234801561001057600080fd5b50610a3e806100206000396000f3fe608060405234801561001057600080fd5b50600436106100415760003560e01c80633e2db8c91461004657806363be608214610076578063f310875f146100a6575b600080fd5b610060600480360381019061005b91906106e6565b6100db565b60405161006d919061076d565b60405180910390f35b610090600480360381019061008b9190610788565b61036e565b60405161009d919061083f565b60405180910390f35b6100c060048036038101906100bb9190610788565b6103d6565b6040516100d296959493929190610869565b60405180910390f35b6000826000815181106100f1576100f06108ca565b5b602002602001015160008060008381526020019081526020016000206000015414610151576040517f08c379a00000000000000000000000000000000000000000000000000000000081526004016101489061097c565b60405180910390fd5b8280600081518110610166576101656108ca565b5b60200260200101518015610192575080600181518110610189576101886108ca565b5b60200260200101515b6101d1576040517f08c379a00000000000000000000000000000000000000000000000000000000081526004016101c8906109e8565b60405180910390fd5b6000856000815181106101e7576101e66108ca565b5b60200260200101519050600086600181518110610207576102066108ca565b5b60200260200101519050600087600281518110610227576102266108ca565b5b60200260200101519050600088600381518110610247576102466108ca565b5b60200260200101519050600089600481518110610267576102666108ca565b5b6020026020010151905060008a600581518110610287576102866108ca565b5b60200260200101519050610299610412565b6040518060c0016040528088815260200187815260200186815260200185815260200184815260200183815250905080600080898152602001908152602001600020600082015181600001556020820151816001015560408201518160020155606082015181600301556080820151816004015560a082015181600501559050507f5c4d2b129d89858f43e9fa6a9d2363dce34079be222ff59a722c5fba859e410487878787878760405161035396959493929190610869565b60405180910390a16001995050505050505050505092915050565b610376610412565b6000808381526020019081526020016000206040518060c001604052908160008201548152602001600182015481526020016002820154815260200160038201548152602001600482015481526020016005820154815250509050919050565b60006020528060005260406000206000915090508060000154908060010154908060020154908060030154908060040154908060050154905086565b6040518060c001604052806000815260200160008152602001600081526020016000815260200160008152602001600081525090565b6000604051905090565b600080fd5b600080fd5b600080fd5b6000601f19601f8301169050919050565b7f4e487b7100000000000000000000000000000000000000000000000000000000600052604160045260246000fd5b6104aa82610461565b810181811067ffffffffffffffff821117156104c9576104c8610472565b5b80604052505050565b60006104dc610448565b90506104e882826104a1565b919050565b600067ffffffffffffffff82111561050857610507610472565b5b602082029050602081019050919050565b600080fd5b6000819050919050565b6105318161051e565b811461053c57600080fd5b50565b60008135905061054e81610528565b92915050565b6000610567610562846104ed565b6104d2565b9050808382526020820190506020840283018581111561058a57610589610519565b5b835b818110156105b3578061059f888261053f565b84526020840193505060208101905061058c565b5050509392505050565b600082601f8301126105d2576105d161045c565b5b81356105e2848260208601610554565b91505092915050565b600067ffffffffffffffff82111561060657610605610472565b5b602082029050602081019050919050565b60008115159050919050565b61062c81610617565b811461063757600080fd5b50565b60008135905061064981610623565b92915050565b600061066261065d846105eb565b6104d2565b9050808382526020820190506020840283018581111561068557610684610519565b5b835b818110156106ae578061069a888261063a565b845260208401935050602081019050610687565b5050509392505050565b600082601f8301126106cd576106cc61045c565b5b81356106dd84826020860161064f565b91505092915050565b600080604083850312156106fd576106fc610452565b5b600083013567ffffffffffffffff81111561071b5761071a610457565b5b610727858286016105bd565b925050602083013567ffffffffffffffff81111561074857610747610457565b5b610754858286016106b8565b9150509250929050565b61076781610617565b82525050565b6000602082019050610782600083018461075e565b92915050565b60006020828403121561079e5761079d610452565b5b60006107ac8482850161053f565b91505092915050565b6107be8161051e565b82525050565b60c0820160008201516107da60008501826107b5565b5060208201516107ed60208501826107b5565b50604082015161080060408501826107b5565b50606082015161081360608501826107b5565b50608082015161082660808501826107b5565b5060a082015161083960a08501826107b5565b50505050565b600060c08201905061085460008301846107c4565b92915050565b6108638161051e565b82525050565b600060c08201905061087e600083018961085a565b61088b602083018861085a565b610898604083018761085a565b6108a5606083018661085a565b6108b2608083018561085a565b6108bf60a083018461085a565b979650505050505050565b7f4e487b7100000000000000000000000000000000000000000000000000000000600052603260045260246000fd5b600082825260208201905092915050565b7f4964206e686174206b7920646f6e672072756f6e672070686169206c6120647560008201527f79206e6861740000000000000000000000000000000000000000000000000000602082015250565b60006109666026836108f9565b91506109718261090a565b604082019050919050565b6000602082019050818103600083015261099581610959565b9050919050565b7f4769616f2064696368206368756120646f6e6720746875616e00000000000000600082015250565b60006109d26019836108f9565b91506109dd8261099c565b602082019050919050565b60006020820190508181036000830152610a01816109c5565b905091905056fea26469706673582212200a96afd8706514b951626d6ac0e8191fd1a472aadb3d84b396a7fe088f69602564736f6c634300080d0033",
  "immutableReferences": {},
  "source": "// SPDX-License-Identifier: MIT\npragma solidity >=0.5.16 <0.9.0;\n\ncontract HoatDongNhatKy {\n    //--------data-------//\n    struct HoatDongNhatKy_Struct {\n        uint id_NhatKyDongRuong;\n        uint id_LichMuaVu;\n        uint id_ThuaDat;\n        uint id_XaVien;\n        uint id_HoatDongMuaVu;\n        uint ThoiGian;\n    }\n\n    mapping( uint => HoatDongNhatKy_Struct ) public DanhSachHoatDongNhatKy;\n\n    //-------event-------//\n    event SuKienThemHoatDongNhatKy(\n        uint id_NhatKyDongRuong,\n        uint id_LichMuaVu,\n        uint id_ThuaDat,\n        uint id_XaVien,\n        uint id_HoatDongMuaVu,\n        uint ThoiGian\n    );\n\n    //------modifier-----//\n    modifier KiemTraIDNhatKyDongRuong(uint id_NhatKyDongRuong) {\n        require(\n            DanhSachHoatDongNhatKy[id_NhatKyDongRuong].id_NhatKyDongRuong == 0,\n            \"Id nhat ky dong ruong phai la duy nhat\"\n        );\n\n        _;\n    }\n\n   modifier KiemTraXacNhan ( bool[] memory boolProperties ) {\n        require(\n            boolProperties[0] && boolProperties[1],\n            \"Giao dich chua dong thuan\"\n        );\n\n        _;\n    }\n\n    //-------handle------//\n    \n    function ThemHoatDongNhatKy (\n        uint[] memory intProperties,\n        bool[] memory boolProperties\n    )\n    public\n    KiemTraIDNhatKyDongRuong(intProperties[0])\n    KiemTraXacNhan( boolProperties )\n    returns ( bool ) {\n        uint id_NhatKyDongRuong = intProperties[0];\n        uint id_LichMuaVu = intProperties[1];\n        uint id_ThuaDat = intProperties[2];\n        uint id_XaVien = intProperties[3];\n        uint id_HoatDongMuaVu = intProperties[4];\n        uint ThoiGian = intProperties[5];\n\n        HoatDongNhatKy_Struct memory HoatDongNhatKyMemory;\n        HoatDongNhatKyMemory = HoatDongNhatKy_Struct(\n            id_NhatKyDongRuong,\n            id_LichMuaVu,\n            id_ThuaDat,\n            id_XaVien,\n            id_HoatDongMuaVu,\n            ThoiGian\n        );\n\n        DanhSachHoatDongNhatKy[ id_NhatKyDongRuong ] = HoatDongNhatKyMemory;\n\n        emit SuKienThemHoatDongNhatKy(\n            id_NhatKyDongRuong,\n            id_LichMuaVu,\n            id_ThuaDat,\n            id_XaVien,\n            id_HoatDongMuaVu,\n            ThoiGian\n        );\n\n        return true;\n    }\n\n    function LayThongTinHoatDongNhatKy ( uint id_HoatDongNhatKy )\n    external view\n    returns ( HoatDongNhatKy_Struct memory ) {\n        return DanhSachHoatDongNhatKy[ id_HoatDongNhatKy ];\n    }\n}",
  "sourcePath": "/Users/trongnhan/Dev/supply-chain-for-agriculture/blockchain/contracts/HoatDongNhatKy.sol",
  "compiler": {
    "name": "solc",
    "version": "0.8.13+commit.abaa5c0e.Emscripten.clang"
  },
  "schemaVersion": "3.4.7",
  "updatedAt": "2022-11-26T04:00:28.639Z",
  "networkType": "ethereum",
  "devdoc": {
    "kind": "dev",
    "methods": {},
    "version": 1
  },
  "userdoc": {
    "kind": "user",
    "methods": {},
    "version": 1
  }
}