{
  "contractName": "LoHangLua",
  "abi": [
    {
      "anonymous": false,
      "inputs": [
        {
          "indexed": false,
          "internalType": "uint256",
          "name": "id_XaVien",
          "type": "uint256"
        },
        {
          "indexed": false,
          "internalType": "uint256",
          "name": "id_LoHangLua",
          "type": "uint256"
        },
        {
          "indexed": false,
          "internalType": "uint256",
          "name": "id_GiongLua",
          "type": "uint256"
        },
        {
          "indexed": false,
          "internalType": "uint256",
          "name": "id_LichMuaVu",
          "type": "uint256"
        },
        {
          "indexed": false,
          "internalType": "uint256",
          "name": "SoLuong",
          "type": "uint256"
        },
        {
          "indexed": false,
          "internalType": "uint256",
          "name": "ThoiGian",
          "type": "uint256"
        },
        {
          "indexed": false,
          "internalType": "string",
          "name": "TenGiongLua",
          "type": "string"
        }
      ],
      "name": "SuKienThemLoHang",
      "type": "event"
    },
    {
      "inputs": [
        {
          "internalType": "uint256",
          "name": "",
          "type": "uint256"
        }
      ],
      "name": "DanhSachIdNhatKyDongRuong",
      "outputs": [
        {
          "internalType": "uint256",
          "name": "",
          "type": "uint256"
        }
      ],
      "stateMutability": "view",
      "type": "function",
      "constant": true
    },
    {
      "inputs": [
        {
          "internalType": "uint256",
          "name": "",
          "type": "uint256"
        }
      ],
      "name": "DanhSachLoHangLua",
      "outputs": [
        {
          "internalType": "uint256",
          "name": "id_XaVien",
          "type": "uint256"
        },
        {
          "internalType": "uint256",
          "name": "id_LoHangLua",
          "type": "uint256"
        },
        {
          "internalType": "uint256",
          "name": "id_GiongLua",
          "type": "uint256"
        },
        {
          "internalType": "uint256",
          "name": "id_LichMuaVu",
          "type": "uint256"
        },
        {
          "internalType": "uint256",
          "name": "SoLuong",
          "type": "uint256"
        },
        {
          "internalType": "uint256",
          "name": "ThoiGian",
          "type": "uint256"
        },
        {
          "internalType": "string",
          "name": "TenGiongLua",
          "type": "string"
        }
      ],
      "stateMutability": "view",
      "type": "function",
      "constant": true
    },
    {
      "inputs": [],
      "name": "maxLength",
      "outputs": [
        {
          "internalType": "uint256",
          "name": "",
          "type": "uint256"
        }
      ],
      "stateMutability": "view",
      "type": "function",
      "constant": true
    },
    {
      "inputs": [
        {
          "internalType": "uint256[]",
          "name": "intProperties",
          "type": "uint256[]"
        },
        {
          "internalType": "string[]",
          "name": "stringProperties",
          "type": "string[]"
        }
      ],
      "name": "ThemLoHangLua",
      "outputs": [
        {
          "internalType": "bool",
          "name": "",
          "type": "bool"
        }
      ],
      "stateMutability": "nonpayable",
      "type": "function"
    },
    {
      "inputs": [
        {
          "internalType": "uint256",
          "name": "id_LoHangLua",
          "type": "uint256"
        }
      ],
      "name": "LayThongTinLoHangLua",
      "outputs": [
        {
          "components": [
            {
              "internalType": "uint256",
              "name": "id_XaVien",
              "type": "uint256"
            },
            {
              "internalType": "uint256",
              "name": "id_LoHangLua",
              "type": "uint256"
            },
            {
              "internalType": "uint256",
              "name": "id_GiongLua",
              "type": "uint256"
            },
            {
              "internalType": "uint256",
              "name": "id_LichMuaVu",
              "type": "uint256"
            },
            {
              "internalType": "uint256",
              "name": "SoLuong",
              "type": "uint256"
            },
            {
              "internalType": "uint256",
              "name": "ThoiGian",
              "type": "uint256"
            },
            {
              "internalType": "string",
              "name": "TenGiongLua",
              "type": "string"
            }
          ],
          "internalType": "struct LoHangLua.LoHangLua_Struct",
          "name": "",
          "type": "tuple"
        }
      ],
      "stateMutability": "view",
      "type": "function",
      "constant": true
    }
  ],
  "bytecode": "0x6080604052600060025534801561001557600080fd5b50610fae806100256000396000f3fe608060405234801561001057600080fd5b50600436106100575760003560e01c80638ae608961461005c578063a61e61be14610092578063d06a89a4146100c2578063d5c07c70146100e0578063d7d1a38314610110575b600080fd5b61007660048036038101906100719190610783565b610140565b6040516100899796959493929190610858565b60405180910390f35b6100ac60048036038101906100a79190610783565b61020a565b6040516100b991906108ce565b60405180910390f35b6100ca610222565b6040516100d791906108ce565b60405180910390f35b6100fa60048036038101906100f59190610783565b610228565b60405161010791906109de565b60405180910390f35b61012a60048036038101906101259190610cde565b610322565b6040516101379190610d71565b60405180910390f35b600060205280600052604060002060009150905080600001549080600101549080600201549080600301549080600401549080600501549080600601805461018790610dbb565b80601f01602080910402602001604051908101604052809291908181526020018280546101b390610dbb565b80156102005780601f106101d557610100808354040283529160200191610200565b820191906000526020600020905b8154815290600101906020018083116101e357829003601f168201915b5050505050905087565b60016020528060005260406000206000915090505481565b60025481565b610230610659565b6000808381526020019081526020016000206040518060e001604052908160008201548152602001600182015481526020016002820154815260200160038201548152602001600482015481526020016005820154815260200160068201805461029990610dbb565b80601f01602080910402602001604051908101604052809291908181526020018280546102c590610dbb565b80156103125780601f106102e757610100808354040283529160200191610312565b820191906000526020600020905b8154815290600101906020018083116102f557829003601f168201915b5050505050815250509050919050565b60008260018151811061033857610337610dec565b5b602002602001015160008060008381526020019081526020016000206001015414610398576040517f08c379a000000000000000000000000000000000000000000000000000000000815260040161038f90610e67565b60405180910390fd5b836004815181106103ac576103ab610dec565b5b6020026020010151600081116103f7576040517f08c379a00000000000000000000000000000000000000000000000000000000081526004016103ee90610ed3565b60405180910390fd5b60006104038686610411565b905080935050505092915050565b600061041b610659565b60008460008151811061043157610430610dec565b5b6020026020010151905060008560018151811061045157610450610dec565b5b6020026020010151905060008660028151811061047157610470610dec565b5b6020026020010151905060008760038151811061049157610490610dec565b5b602002602001015190506000886004815181106104b1576104b0610dec565b5b602002602001015190506000896005815181106104d1576104d0610dec565b5b602002602001015190506000896000815181106104f1576104f0610dec565b5b602002602001015190506040518060e00160405280888152602001878152602001868152602001858152602001848152602001838152602001828152509750876000808d60018151811061054857610547610dec565b5b60200260200101518152602001908152602001600020600082015181600001556020820151816001015560408201518160020155606082015181600301556080820151816004015560a0820151816005015560c08201518160060190805190602001906105b6929190610696565b509050508a6001815181106105ce576105cd610dec565b5b60200260200101516001600060025481526020019081526020016000208190555060016002546105fe9190610f22565b6002819055507f43f7066a052077ee14280327c8834c3338a33593f87ecec2054f8d7d3fb220f68787878787878760405161063f9796959493929190610858565b60405180910390a160019850505050505050505092915050565b6040518060e00160405280600081526020016000815260200160008152602001600081526020016000815260200160008152602001606081525090565b8280546106a290610dbb565b90600052602060002090601f0160209004810192826106c4576000855561070b565b82601f106106dd57805160ff191683800117855561070b565b8280016001018555821561070b579182015b8281111561070a5782518255916020019190600101906106ef565b5b509050610718919061071c565b5090565b5b8082111561073557600081600090555060010161071d565b5090565b6000604051905090565b600080fd5b600080fd5b6000819050919050565b6107608161074d565b811461076b57600080fd5b50565b60008135905061077d81610757565b92915050565b60006020828403121561079957610798610743565b5b60006107a78482850161076e565b91505092915050565b6107b98161074d565b82525050565b600081519050919050565b600082825260208201905092915050565b60005b838110156107f95780820151818401526020810190506107de565b83811115610808576000848401525b50505050565b6000601f19601f8301169050919050565b600061082a826107bf565b61083481856107ca565b93506108448185602086016107db565b61084d8161080e565b840191505092915050565b600060e08201905061086d600083018a6107b0565b61087a60208301896107b0565b61088760408301886107b0565b61089460608301876107b0565b6108a160808301866107b0565b6108ae60a08301856107b0565b81810360c08301526108c0818461081f565b905098975050505050505050565b60006020820190506108e360008301846107b0565b92915050565b6108f28161074d565b82525050565b600082825260208201905092915050565b6000610914826107bf565b61091e81856108f8565b935061092e8185602086016107db565b6109378161080e565b840191505092915050565b600060e08301600083015161095a60008601826108e9565b50602083015161096d60208601826108e9565b50604083015161098060408601826108e9565b50606083015161099360608601826108e9565b5060808301516109a660808601826108e9565b5060a08301516109b960a08601826108e9565b5060c083015184820360c08601526109d18282610909565b9150508091505092915050565b600060208201905081810360008301526109f88184610942565b905092915050565b600080fd5b7f4e487b7100000000000000000000000000000000000000000000000000000000600052604160045260246000fd5b610a3d8261080e565b810181811067ffffffffffffffff82111715610a5c57610a5b610a05565b5b80604052505050565b6000610a6f610739565b9050610a7b8282610a34565b919050565b600067ffffffffffffffff821115610a9b57610a9a610a05565b5b602082029050602081019050919050565b600080fd5b6000610ac4610abf84610a80565b610a65565b90508083825260208201905060208402830185811115610ae757610ae6610aac565b5b835b81811015610b105780610afc888261076e565b845260208401935050602081019050610ae9565b5050509392505050565b600082601f830112610b2f57610b2e610a00565b5b8135610b3f848260208601610ab1565b91505092915050565b600067ffffffffffffffff821115610b6357610b62610a05565b5b602082029050602081019050919050565b600080fd5b600067ffffffffffffffff821115610b9457610b93610a05565b5b610b9d8261080e565b9050602081019050919050565b82818337600083830152505050565b6000610bcc610bc784610b79565b610a65565b905082815260208101848484011115610be857610be7610b74565b5b610bf3848285610baa565b509392505050565b600082601f830112610c1057610c0f610a00565b5b8135610c20848260208601610bb9565b91505092915050565b6000610c3c610c3784610b48565b610a65565b90508083825260208201905060208402830185811115610c5f57610c5e610aac565b5b835b81811015610ca657803567ffffffffffffffff811115610c8457610c83610a00565b5b808601610c918982610bfb565b85526020850194505050602081019050610c61565b5050509392505050565b600082601f830112610cc557610cc4610a00565b5b8135610cd5848260208601610c29565b91505092915050565b60008060408385031215610cf557610cf4610743565b5b600083013567ffffffffffffffff811115610d1357610d12610748565b5b610d1f85828601610b1a565b925050602083013567ffffffffffffffff811115610d4057610d3f610748565b5b610d4c85828601610cb0565b9150509250929050565b60008115159050919050565b610d6b81610d56565b82525050565b6000602082019050610d866000830184610d62565b92915050565b7f4e487b7100000000000000000000000000000000000000000000000000000000600052602260045260246000fd5b60006002820490506001821680610dd357607f821691505b602082108103610de657610de5610d8c565b5b50919050565b7f4e487b7100000000000000000000000000000000000000000000000000000000600052603260045260246000fd5b7f4c6f2068616e67206c756120646120746f6e2074616900000000000000000000600082015250565b6000610e516016836107ca565b9150610e5c82610e1b565b602082019050919050565b60006020820190508181036000830152610e8081610e44565b9050919050565b7f536f206c756f6e672070686169206c6f6e20686f6e2030000000000000000000600082015250565b6000610ebd6017836107ca565b9150610ec882610e87565b602082019050919050565b60006020820190508181036000830152610eec81610eb0565b9050919050565b7f4e487b7100000000000000000000000000000000000000000000000000000000600052601160045260246000fd5b6000610f2d8261074d565b9150610f388361074d565b9250827fffffffffffffffffffffffffffffffffffffffffffffffffffffffffffffffff03821115610f6d57610f6c610ef3565b5b82820190509291505056fea26469706673582212208fafec810215249d3908856516f96ce7ea90dd0f94ea5b5772e77e101a350d9b64736f6c634300080d0033",
  "immutableReferences": {},
  "source": "// SPDX-License-Identifier: MIT\npragma solidity >=0.5.16 <0.9.0;\n\ncontract LoHangLua {\n    //--------data-------//\n    struct LoHangLua_Struct {\n        uint    id_XaVien;\n        uint    id_LoHangLua;\n        uint    id_GiongLua;\n        uint    id_LichMuaVu;\n        uint    SoLuong;\n        uint    ThoiGian;\n        string  TenGiongLua;\n    }\n\n    mapping ( uint => LoHangLua_Struct ) public DanhSachLoHangLua;\n\n    mapping ( uint => uint ) public DanhSachIdNhatKyDongRuong;\n\n    uint public maxLength = 0;\n\n    //-------event-------//\n    event SuKienThemLoHang (\n        uint    id_XaVien,\n        uint    id_LoHangLua,\n        uint    id_GiongLua,\n        uint    id_LichMuaVu,\n        uint    SoLuong,\n        uint    ThoiGian,\n        string  TenGiongLua\n    );\n\n    //------modifier-----//\n    modifier KiemTraIdLoHangLua (  uint id_LoHangLua ) {\n        require(\n            DanhSachLoHangLua[ id_LoHangLua ].id_LoHangLua == 0,\n            \"Lo hang lua da ton tai\"\n        );\n\n        _;\n    }\n\n    modifier KiemTraSoLuong ( uint SoLuong ) {\n        require(\n            SoLuong > 0,\n            \"So luong phai lon hon 0\"\n        );\n        _;\n    }\n\n    /*\n        intProperties[]\n        0: uint    id_XaVien;\n        1: uint    id_LoHangLua;\n        2: uint    id_GiongLua;\n        3: uint    id_LichMuaVu;\n        4: uint    SoLuong;\n        5: uint    ThoiGian;\n\n        stringProperties[]\n        0: string TenGiongLua\n    */\n\n    //-------handle------//\n    function ThemLoHangLua (\n        uint[]      memory intProperties,\n        string[]    memory stringProperties\n    )\n    public \n    KiemTraIdLoHangLua( intProperties[1] )\n    KiemTraSoLuong( intProperties[4] )\n    returns (bool) \n    {\n        bool result = LuuThongTinLoHangLua( intProperties, stringProperties );\n        \n        return result;\n    }\n\n    function LayThongTinLoHangLua(\n        uint id_LoHangLua\n    )\n    external\n    view\n    returns (LoHangLua_Struct memory) {\n        return DanhSachLoHangLua[ id_LoHangLua ];\n    }\n\n    function LuuThongTinLoHangLua (\n        uint[] memory intProperties,\n        string[] memory stringProperties\n    ) \n    internal \n    returns (bool)\n    {\n\n        LoHangLua_Struct memory LoHangLuaMemory;\n\n        uint id_XaVien            =  intProperties[0];\n        uint id_LoHangLua         =  intProperties[1];\n        uint id_GiongLua          =  intProperties[2];\n        uint id_LichMuaVu   =  intProperties[3];\n        uint SoLuong              =  intProperties[4];\n        uint ThoiGian             =  intProperties[5];\n        string memory TenGiongLua =  stringProperties[0];\n        \n\n        LoHangLuaMemory = LoHangLua_Struct (\n            id_XaVien,\n            id_LoHangLua,\n            id_GiongLua,\n            id_LichMuaVu,\n            SoLuong,\n            ThoiGian,\n            TenGiongLua\n        );\n\n        DanhSachLoHangLua[ intProperties[1] ] = LoHangLuaMemory;\n\n        DanhSachIdNhatKyDongRuong[ maxLength ] = intProperties[1];\n        maxLength = maxLength + 1;\n\n        emit SuKienThemLoHang (\n            id_XaVien,\n            id_LoHangLua,\n            id_GiongLua,\n            id_LichMuaVu,\n            SoLuong,\n            ThoiGian,\n            TenGiongLua\n        );\n\n        return true;\n    }  \n}",
  "sourcePath": "/Users/trongnhan/Dev/supply-chain-for-agriculture/blockchain/contracts/LoHangLua.sol",
  "compiler": {
    "name": "solc",
    "version": "0.8.13+commit.abaa5c0e.Emscripten.clang"
  },
  "schemaVersion": "3.4.7",
  "updatedAt": "2022-11-27T09:34:03.078Z",
  "networkType": "ethereum",
  "devdoc": {
    "kind": "dev",
    "methods": {},
    "version": 1
  },
  "userdoc": {
    "kind": "user",
    "methods": {},
    "version": 1
  }
}