{
  "contractName": "LoHangLua",
  "abi": [
    {
      "anonymous": false,
      "inputs": [
        {
          "indexed": false,
          "internalType": "string",
          "name": "duongDan",
          "type": "string"
        },
        {
          "indexed": false,
          "internalType": "uint256",
          "name": "id_LoHangLua",
          "type": "uint256"
        }
      ],
      "name": "SuKienDuongDanTruyXuat",
      "type": "event"
    },
    {
      "inputs": [
        {
          "internalType": "uint256",
          "name": "",
          "type": "uint256"
        }
      ],
      "name": "DanhSachDuongDanTruyXuat",
      "outputs": [
        {
          "internalType": "string",
          "name": "duongDanTruyXuat",
          "type": "string"
        }
      ],
      "stateMutability": "view",
      "type": "function",
      "constant": true
    },
    {
      "inputs": [],
      "name": "maxLength",
      "outputs": [
        {
          "internalType": "uint256",
          "name": "",
          "type": "uint256"
        }
      ],
      "stateMutability": "view",
      "type": "function",
      "constant": true
    },
    {
      "inputs": [
        {
          "internalType": "string",
          "name": "duongDan",
          "type": "string"
        },
        {
          "internalType": "uint256",
          "name": "id_LoHangLua",
          "type": "uint256"
        }
      ],
      "name": "ThemDuongDan",
      "outputs": [
        {
          "internalType": "bool",
          "name": "",
          "type": "bool"
        }
      ],
      "stateMutability": "nonpayable",
      "type": "function"
    }
  ],
  "bytecode": "0x6080604052600060015534801561001557600080fd5b50610687806100256000396000f3fe608060405234801561001057600080fd5b50600436106100415760003560e01c8063d06a89a414610046578063d83f9dd214610064578063f70ec82b14610094575b600080fd5b61004e6100c4565b60405161005b91906102b7565b60405180910390f35b61007e60048036038101906100799190610312565b6100ca565b60405161008b91906103d8565b60405180910390f35b6100ae60048036038101906100a9919061052f565b610170565b6040516100bb91906105a6565b60405180910390f35b60015481565b60006020528060005260406000206000915090508060000180546100ed906105f0565b80601f0160208091040260200160405190810160405280929190818152602001828054610119906105f0565b80156101665780601f1061013b57610100808354040283529160200191610166565b820191906000526020600020905b81548152906001019060200180831161014957829003601f168201915b5050505050905081565b60008060405180602001604052808581525090508060008085815260200190815260200160002060008201518160000190805190602001906101b39291906101fb565b509050507f9c78a499d09407bd75977598a8da9d4129b172f2069df76c08c16c21c8018e7184846040516101e8929190610621565b60405180910390a1600191505092915050565b828054610207906105f0565b90600052602060002090601f0160209004810192826102295760008555610270565b82601f1061024257805160ff1916838001178555610270565b82800160010185558215610270579182015b8281111561026f578251825591602001919060010190610254565b5b50905061027d9190610281565b5090565b5b8082111561029a576000816000905550600101610282565b5090565b6000819050919050565b6102b18161029e565b82525050565b60006020820190506102cc60008301846102a8565b92915050565b6000604051905090565b600080fd5b600080fd5b6102ef8161029e565b81146102fa57600080fd5b50565b60008135905061030c816102e6565b92915050565b600060208284031215610328576103276102dc565b5b6000610336848285016102fd565b91505092915050565b600081519050919050565b600082825260208201905092915050565b60005b8381101561037957808201518184015260208101905061035e565b83811115610388576000848401525b50505050565b6000601f19601f8301169050919050565b60006103aa8261033f565b6103b4818561034a565b93506103c481856020860161035b565b6103cd8161038e565b840191505092915050565b600060208201905081810360008301526103f2818461039f565b905092915050565b600080fd5b600080fd5b7f4e487b7100000000000000000000000000000000000000000000000000000000600052604160045260246000fd5b61043c8261038e565b810181811067ffffffffffffffff8211171561045b5761045a610404565b5b80604052505050565b600061046e6102d2565b905061047a8282610433565b919050565b600067ffffffffffffffff82111561049a57610499610404565b5b6104a38261038e565b9050602081019050919050565b82818337600083830152505050565b60006104d26104cd8461047f565b610464565b9050828152602081018484840111156104ee576104ed6103ff565b5b6104f98482856104b0565b509392505050565b600082601f830112610516576105156103fa565b5b81356105268482602086016104bf565b91505092915050565b60008060408385031215610546576105456102dc565b5b600083013567ffffffffffffffff811115610564576105636102e1565b5b61057085828601610501565b9250506020610581858286016102fd565b9150509250929050565b60008115159050919050565b6105a08161058b565b82525050565b60006020820190506105bb6000830184610597565b92915050565b7f4e487b7100000000000000000000000000000000000000000000000000000000600052602260045260246000fd5b6000600282049050600182168061060857607f821691505b60208210810361061b5761061a6105c1565b5b50919050565b6000604082019050818103600083015261063b818561039f565b905061064a60208301846102a8565b939250505056fea26469706673582212206679593a29edc9cef301fea904913cda8e3fb1184b9c31e4b503c8b48dfc5c5664736f6c634300080d0033",
  "immutableReferences": {},
  "source": "// SPDX-License-Identifier: MIT\npragma solidity >=0.5.16 <0.9.0;\n\ncontract LoHangLua {\n    //--------data-------//\n    struct duongDanTruyXuat_Struct {\n        string duongDanTruyXuat;\n    }\n\n    mapping ( uint => duongDanTruyXuat_Struct ) public DanhSachDuongDanTruyXuat;\n\n    uint public maxLength = 0;\n\n    //-------event-------//\n    event SuKienDuongDanTruyXuat (\n        string duongDan,\n        uint id_LoHangLua\n    );\n\n    /*\n        intProperties[]\n        0: string    id_XaVien;\n    */\n\n    //-------handle------//\n    function ThemDuongDan (\n        string memory duongDan,\n        uint id_LoHangLua\n    )\n    public \n    returns (bool) \n    {\n        duongDanTruyXuat_Struct memory duongDangTruyXuat = duongDanTruyXuat_Struct(duongDan);\n        DanhSachDuongDanTruyXuat[id_LoHangLua] = duongDangTruyXuat;\n        emit SuKienDuongDanTruyXuat(\n            duongDan,\n            id_LoHangLua\n        );\n        return true;\n    }\n}",
  "sourcePath": "/Users/trongnhan/Dev/supply-chain-for-agriculture/blockchain/contracts/DuongDan.sol",
  "compiler": {
    "name": "solc",
    "version": "0.8.13+commit.abaa5c0e.Emscripten.clang"
  },
  "schemaVersion": "3.4.7",
  "updatedAt": "2022-11-26T04:00:28.633Z",
  "networkType": "ethereum",
  "devdoc": {
    "kind": "dev",
    "methods": {},
    "version": 1
  },
  "userdoc": {
    "kind": "user",
    "methods": {},
    "version": 1
  }
}