{
  "contractName": "VatTuSuDung",
  "abi": [
    {
      "anonymous": false,
      "inputs": [
        {
          "indexed": false,
          "internalType": "uint256",
          "name": "id_VatTuSuDung",
          "type": "uint256"
        },
        {
          "indexed": false,
          "internalType": "uint256",
          "name": "id_HoatDongNhatKy",
          "type": "uint256"
        },
        {
          "indexed": false,
          "internalType": "uint256",
          "name": "id_VatTu",
          "type": "uint256"
        },
        {
          "indexed": false,
          "internalType": "uint256",
          "name": "id_LoHangVatTu",
          "type": "uint256"
        },
        {
          "indexed": false,
          "internalType": "uint256",
          "name": "ThoiGianVatTu",
          "type": "uint256"
        },
        {
          "indexed": false,
          "internalType": "uint256",
          "name": "soLuong",
          "type": "uint256"
        },
        {
          "indexed": false,
          "internalType": "string",
          "name": "TenVatTu",
          "type": "string"
        }
      ],
      "name": "SuKienThemVatTuNongNghiep",
      "type": "event"
    },
    {
      "inputs": [
        {
          "internalType": "uint256",
          "name": "",
          "type": "uint256"
        }
      ],
      "name": "DanhSachVatTuSuDung",
      "outputs": [
        {
          "internalType": "uint256",
          "name": "id_VatTuSuDung",
          "type": "uint256"
        },
        {
          "internalType": "uint256",
          "name": "id_HoatDongNhatKy",
          "type": "uint256"
        },
        {
          "internalType": "uint256",
          "name": "id_VatTu",
          "type": "uint256"
        },
        {
          "internalType": "uint256",
          "name": "id_LoHangVatTu",
          "type": "uint256"
        },
        {
          "internalType": "uint256",
          "name": "ThoiGianVatTu",
          "type": "uint256"
        },
        {
          "internalType": "uint256",
          "name": "soLuong",
          "type": "uint256"
        },
        {
          "internalType": "string",
          "name": "TenVatTu",
          "type": "string"
        }
      ],
      "stateMutability": "view",
      "type": "function",
      "constant": true
    },
    {
      "inputs": [
        {
          "internalType": "uint256[]",
          "name": "intProperties",
          "type": "uint256[]"
        },
        {
          "internalType": "string[]",
          "name": "stringProperties",
          "type": "string[]"
        },
        {
          "internalType": "address[]",
          "name": "addressProperties",
          "type": "address[]"
        }
      ],
      "name": "ThemVatTuNongNghiep",
      "outputs": [
        {
          "internalType": "bool",
          "name": "",
          "type": "bool"
        }
      ],
      "stateMutability": "nonpayable",
      "type": "function"
    }
  ],
  "bytecode": "0x6080604052600060015534801561001557600080fd5b506113ca806100256000396000f3fe608060405234801561001057600080fd5b50600436106100365760003560e01c8063458512021461003b578063aba622fa14610071575b600080fd5b6100556004803603810190610050919061082d565b6100a1565b6040516100689796959493929190610902565b60405180910390f35b61008b60048036038101906100869190610d77565b61016b565b6040516100989190610e39565b60405180910390f35b60006020528060005260406000206000915090508060000154908060010154908060020154908060030154908060040154908060050154908060060180546100e890610e83565b80601f016020809104026020016040519081016040528092919081815260200182805461011490610e83565b80156101615780601f1061013657610100808354040283529160200191610161565b820191906000526020600020905b81548152906001019060200180831161014457829003601f168201915b5050505050905087565b60008360008151811061018157610180610eb4565b5b6020026020010151600080600083815260200190815260200160002060000154146101e1576040517f08c379a00000000000000000000000000000000000000000000000000000000081526004016101d890610f2f565b60405180910390fd5b846003815181106101f5576101f4610eb4565b5b60200260200101518360008151811061021157610210610eb4565b5b60200260200101516000819050828173ffffffffffffffffffffffffffffffffffffffff16630a313f5f856040518263ffffffff1660e01b81526004016102589190610f4f565b600060405180830381865afa158015610275573d6000803e3d6000fd5b505050506040513d6000823e3d601f19601f8201168201806040525081019061029e91906110b5565b60000151146102e2576040517f08c379a00000000000000000000000000000000000000000000000000000000081526004016102d99061114a565b60405180910390fd5b876001815181106102f6576102f5610eb4565b5b60200260200101518660018151811061031257610311610eb4565b5b60200260200101516000819050828173ffffffffffffffffffffffffffffffffffffffff166363be6082856040518263ffffffff1660e01b81526004016103599190610f4f565b60c060405180830381865afa158015610376573d6000803e3d6000fd5b505050506040513d601f19601f8201168201806040525081019061039a919061120a565b60000151146103de576040517f08c379a00000000000000000000000000000000000000000000000000000000081526004016103d590611283565b60405180910390fd5b8a6005815181106103f2576103f1610eb4565b5b60200260200101516000811161043d576040517f08c379a0000000000000000000000000000000000000000000000000000000008152600401610434906112ef565b60405180910390fd5b60006104498d8d61045e565b90508099505050505050505050509392505050565b6000610468610703565b6040518060e001604052808560008151811061048757610486610eb4565b5b60200260200101518152602001856001815181106104a8576104a7610eb4565b5b60200260200101518152602001856002815181106104c9576104c8610eb4565b5b60200260200101518152602001856003815181106104ea576104e9610eb4565b5b602002602001015181526020018560048151811061050b5761050a610eb4565b5b602002602001015181526020018560058151811061052c5761052b610eb4565b5b602002602001015181526020018460008151811061054d5761054c610eb4565b5b60200260200101518152509050806000808660008151811061057257610571610eb4565b5b60200260200101518152602001908152602001600020600082015181600001556020820151816001015560408201518160020155606082015181600301556080820151816004015560a0820151816005015560c08201518160060190805190602001906105e0929190610740565b50905050600180546105f2919061133e565b6001819055507ff4976adf4ee313ee283527c0b557d29804df2848db4bdbc4b8eeea935e32bbb08460008151811061062d5761062c610eb4565b5b60200260200101518560018151811061064957610648610eb4565b5b60200260200101518660028151811061066557610664610eb4565b5b60200260200101518760038151811061068157610680610eb4565b5b60200260200101518860048151811061069d5761069c610eb4565b5b6020026020010151896005815181106106b9576106b8610eb4565b5b6020026020010151896000815181106106d5576106d4610eb4565b5b60200260200101516040516106f09796959493929190610902565b60405180910390a1600191505092915050565b6040518060e00160405280600081526020016000815260200160008152602001600081526020016000815260200160008152602001606081525090565b82805461074c90610e83565b90600052602060002090601f01602090048101928261076e57600085556107b5565b82601f1061078757805160ff19168380011785556107b5565b828001600101855582156107b5579182015b828111156107b4578251825591602001919060010190610799565b5b5090506107c291906107c6565b5090565b5b808211156107df5760008160009055506001016107c7565b5090565b6000604051905090565b600080fd5b600080fd5b6000819050919050565b61080a816107f7565b811461081557600080fd5b50565b60008135905061082781610801565b92915050565b600060208284031215610843576108426107ed565b5b600061085184828501610818565b91505092915050565b610863816107f7565b82525050565b600081519050919050565b600082825260208201905092915050565b60005b838110156108a3578082015181840152602081019050610888565b838111156108b2576000848401525b50505050565b6000601f19601f8301169050919050565b60006108d482610869565b6108de8185610874565b93506108ee818560208601610885565b6108f7816108b8565b840191505092915050565b600060e082019050610917600083018a61085a565b610924602083018961085a565b610931604083018861085a565b61093e606083018761085a565b61094b608083018661085a565b61095860a083018561085a565b81810360c083015261096a81846108c9565b905098975050505050505050565b600080fd5b7f4e487b7100000000000000000000000000000000000000000000000000000000600052604160045260246000fd5b6109b5826108b8565b810181811067ffffffffffffffff821117156109d4576109d361097d565b5b80604052505050565b60006109e76107e3565b90506109f382826109ac565b919050565b600067ffffffffffffffff821115610a1357610a1261097d565b5b602082029050602081019050919050565b600080fd5b6000610a3c610a37846109f8565b6109dd565b90508083825260208201905060208402830185811115610a5f57610a5e610a24565b5b835b81811015610a885780610a748882610818565b845260208401935050602081019050610a61565b5050509392505050565b600082601f830112610aa757610aa6610978565b5b8135610ab7848260208601610a29565b91505092915050565b600067ffffffffffffffff821115610adb57610ada61097d565b5b602082029050602081019050919050565b600080fd5b600067ffffffffffffffff821115610b0c57610b0b61097d565b5b610b15826108b8565b9050602081019050919050565b82818337600083830152505050565b6000610b44610b3f84610af1565b6109dd565b905082815260208101848484011115610b6057610b5f610aec565b5b610b6b848285610b22565b509392505050565b600082601f830112610b8857610b87610978565b5b8135610b98848260208601610b31565b91505092915050565b6000610bb4610baf84610ac0565b6109dd565b90508083825260208201905060208402830185811115610bd757610bd6610a24565b5b835b81811015610c1e57803567ffffffffffffffff811115610bfc57610bfb610978565b5b808601610c098982610b73565b85526020850194505050602081019050610bd9565b5050509392505050565b600082601f830112610c3d57610c3c610978565b5b8135610c4d848260208601610ba1565b91505092915050565b600067ffffffffffffffff821115610c7157610c7061097d565b5b602082029050602081019050919050565b600073ffffffffffffffffffffffffffffffffffffffff82169050919050565b6000610cad82610c82565b9050919050565b610cbd81610ca2565b8114610cc857600080fd5b50565b600081359050610cda81610cb4565b92915050565b6000610cf3610cee84610c56565b6109dd565b90508083825260208201905060208402830185811115610d1657610d15610a24565b5b835b81811015610d3f5780610d2b8882610ccb565b845260208401935050602081019050610d18565b5050509392505050565b600082601f830112610d5e57610d5d610978565b5b8135610d6e848260208601610ce0565b91505092915050565b600080600060608486031215610d9057610d8f6107ed565b5b600084013567ffffffffffffffff811115610dae57610dad6107f2565b5b610dba86828701610a92565b935050602084013567ffffffffffffffff811115610ddb57610dda6107f2565b5b610de786828701610c28565b925050604084013567ffffffffffffffff811115610e0857610e076107f2565b5b610e1486828701610d49565b9150509250925092565b60008115159050919050565b610e3381610e1e565b82525050565b6000602082019050610e4e6000830184610e2a565b92915050565b7f4e487b7100000000000000000000000000000000000000000000000000000000600052602260045260246000fd5b60006002820490506001821680610e9b57607f821691505b602082108103610eae57610ead610e54565b5b50919050565b7f4e487b7100000000000000000000000000000000000000000000000000000000600052603260045260246000fd5b7f4944207661742074752073752064756e6720646120746f6e2074616900000000600082015250565b6000610f19601c83610874565b9150610f2482610ee3565b602082019050919050565b60006020820190508181036000830152610f4881610f0c565b9050919050565b6000602082019050610f64600083018461085a565b92915050565b600080fd5b600080fd5b600081519050610f8381610801565b92915050565b6000610f9c610f9784610af1565b6109dd565b905082815260208101848484011115610fb857610fb7610aec565b5b610fc3848285610885565b509392505050565b600082601f830112610fe057610fdf610978565b5b8151610ff0848260208601610f89565b91505092915050565b600060c0828403121561100f5761100e610f6a565b5b61101960c06109dd565b9050600061102984828501610f74565b600083015250602061103d84828501610f74565b602083015250604061105184828501610f74565b604083015250606061106584828501610f74565b606083015250608061107984828501610f74565b60808301525060a082015167ffffffffffffffff81111561109d5761109c610f6f565b5b6110a984828501610fcb565b60a08301525092915050565b6000602082840312156110cb576110ca6107ed565b5b600082015167ffffffffffffffff8111156110e9576110e86107f2565b5b6110f584828501610ff9565b91505092915050565b7f4c6f2068616e6720766174207475206368756120746f6e207461690000000000600082015250565b6000611134601b83610874565b915061113f826110fe565b602082019050919050565b6000602082019050818103600083015261116381611127565b9050919050565b600060c082840312156111805761117f610f6a565b5b61118a60c06109dd565b9050600061119a84828501610f74565b60008301525060206111ae84828501610f74565b60208301525060406111c284828501610f74565b60408301525060606111d684828501610f74565b60608301525060806111ea84828501610f74565b60808301525060a06111fe84828501610f74565b60a08301525092915050565b600060c082840312156112205761121f6107ed565b5b600061122e8482850161116a565b91505092915050565b7f486f617420646f6e67206e686174206b79206368756120746f6e207461690000600082015250565b600061126d601e83610874565b915061127882611237565b602082019050919050565b6000602082019050818103600083015261129c81611260565b9050919050565b7f536f206c756f6e672070686169206c6f6e20686f6e2030000000000000000000600082015250565b60006112d9601783610874565b91506112e4826112a3565b602082019050919050565b60006020820190508181036000830152611308816112cc565b9050919050565b7f4e487b7100000000000000000000000000000000000000000000000000000000600052601160045260246000fd5b6000611349826107f7565b9150611354836107f7565b9250827fffffffffffffffffffffffffffffffffffffffffffffffffffffffffffffffff038211156113895761138861130f565b5b82820190509291505056fea2646970667358221220a8d8d756ef4a5bb1490a0ce34aca4ec3ef8a653f8d28ad9385d9461e6687a69064736f6c634300080d0033",
  "immutableReferences": {},
  "source": "// SPDX-License-Identifier: MIT\npragma solidity >=0.5.16 <0.9.0;\nimport \"./LoHangVatTu.sol\";\nimport \"./HoatDongNhatKy.sol\";\n\ncontract VatTuSuDung {\n    //--------data-------//\n    struct VatTuSuDung_Struct {\n        uint    id_VatTuSuDung;\n        uint    id_HoatDongNhatKy;\n        uint    id_VatTu;\n        uint    id_LoHangVatTu;\n        uint    ThoiGianVatTu;\n        uint    soLuong;\n        string  TenVatTu;\n    }\n\n    mapping( uint => VatTuSuDung_Struct )\n    public DanhSachVatTuSuDung;\n\n    uint maxLength = 0;\n\n    //-------event-------//\n    event SuKienThemVatTuNongNghiep (\n        uint    id_VatTuSuDung,\n        uint    id_HoatDongNhatKy,\n        uint    id_VatTu,\n        uint    id_LoHangVatTu,\n        uint    ThoiGianVatTu,\n        uint    soLuong,\n        string  TenVatTu\n    );\n\n    //------modifier-----//\n    modifier KiemTraIdVatTuSuDung( uint id_VatTuSuDung ) {\n        require( \n            DanhSachVatTuSuDung[ id_VatTuSuDung ].id_VatTuSuDung == 0,\n            \"ID vat tu su dung da ton tai\"\n        );\n        \n        _;\n    }\n\n    modifier KiemTraVatTuSuDung ( uint id_LoHangVatTu, address addr ) {\n        LoHangVatTu _loHangVatTu = LoHangVatTu(addr);\n        require(\n            _loHangVatTu.LayThongTinVatTu( id_LoHangVatTu ).id_LoHangVatTu == id_LoHangVatTu,\n            \"Lo hang vat tu chua ton tai\"\n        );\n        \n        _;\n    }\n\n    modifier KiemTraHoatDongNhatKy ( uint id_HoatDongNhatKy, address addr ) {\n        HoatDongNhatKy _hoatDongNhatKy = HoatDongNhatKy(addr);\n        require(\n            _hoatDongNhatKy.LayThongTinHoatDongNhatKy( id_HoatDongNhatKy ).id_NhatKyDongRuong == id_HoatDongNhatKy,\n            \"Hoat dong nhat ky chua ton tai\"\n        );\n\n        _;\n    }\n\n    modifier KiemTraSoLuong ( uint soLuong ) {\n        require(\n            soLuong > 0,\n            \"So luong phai lon hon 0\"    \n        );\n        \n        _;\n    }\n\n    /*\n    intProperties [\n        0: uint            id_VatTuSuDung\n        1: uint            id_HoatDongNhatKy,\n        2: uint            id_VatTu,\n        3: uint            id_LoHangVatTu,\n        4: uint            ThoiGianVatTu\n        5: uint            soLuong\n    ]\n\n    stringProperties [\n        0: string memory   TenVatTu\n    ]\n\n    addressProperties [\n        0: address addContractGiaoDichMuaBanLua\n        1: address ContractHoatDongNhatKy\n    ]\n    */\n\n    //-------handle------//\n    function ThemVatTuNongNghiep (\n       uint[]    memory intProperties,\n       string[]  memory stringProperties,\n       address[] memory addressProperties\n    )\n    public\n    KiemTraIdVatTuSuDung( intProperties[0] )\n    KiemTraVatTuSuDung( intProperties[3], addressProperties[0] )\n    KiemTraHoatDongNhatKy( intProperties[1], addressProperties[1] )\n    KiemTraSoLuong( intProperties[5] )\n    returns (bool)\n    {\n        bool result = LuuThongTinVatTuNongNghiep(\n            intProperties,\n            stringProperties\n        );\n\n        return result;\n    }\n\n    function LuuThongTinVatTuNongNghiep (\n        uint[]    memory intProperties,\n        string[]  memory stringProperties\n    ) internal returns ( bool ) {\n        VatTuSuDung_Struct memory VatTuSuDungMemory;\n        VatTuSuDungMemory = VatTuSuDung_Struct(\n            intProperties[0],\n            intProperties[1],\n            intProperties[2],\n            intProperties[3],\n            intProperties[4],\n            intProperties[5],\n            stringProperties[0]\n        );\n\n        DanhSachVatTuSuDung[intProperties[0]] = VatTuSuDungMemory;\n        maxLength = maxLength + 1;\n\n        emit SuKienThemVatTuNongNghiep(\n            intProperties[0],\n            intProperties[1],\n            intProperties[2],\n            intProperties[3],\n            intProperties[4],\n            intProperties[5],\n            stringProperties[0]\n        );\n\n        return true;\n    }\n\n}",
  "sourcePath": "/Users/trongnhan/Dev/supply-chain-for-agriculture/blockchain/contracts/VatTuSuDung.sol",
  "compiler": {
    "name": "solc",
    "version": "0.8.13+commit.abaa5c0e.Emscripten.clang"
  },
  "schemaVersion": "3.4.7",
  "updatedAt": "2022-11-26T04:00:28.661Z",
  "networkType": "ethereum",
  "devdoc": {
    "kind": "dev",
    "methods": {},
    "version": 1
  },
  "userdoc": {
    "kind": "user",
    "methods": {},
    "version": 1
  }
}