{
  "contractName": "GiaoDichMuaBanVatTu",
  "abi": [
    {
      "anonymous": false,
      "inputs": [
        {
          "indexed": false,
          "internalType": "uint256",
          "name": "id_XaVien",
          "type": "uint256"
        },
        {
          "indexed": false,
          "internalType": "uint256",
          "name": "id_NhaCungCap",
          "type": "uint256"
        },
        {
          "indexed": false,
          "internalType": "uint256",
          "name": "id_GiaoDich",
          "type": "uint256"
        }
      ],
      "name": "SuKienGiaoDich1",
      "type": "event"
    },
    {
      "anonymous": false,
      "inputs": [
        {
          "indexed": false,
          "internalType": "uint256",
          "name": "id_XaVien",
          "type": "uint256"
        },
        {
          "indexed": false,
          "internalType": "uint256",
          "name": "id_LoHangVatTu",
          "type": "uint256"
        },
        {
          "indexed": false,
          "internalType": "uint256",
          "name": "GiaHoHang",
          "type": "uint256"
        },
        {
          "indexed": false,
          "internalType": "uint256",
          "name": "ThoiGianGiaoDich",
          "type": "uint256"
        }
      ],
      "name": "SuKienGiaoDich2",
      "type": "event"
    },
    {
      "inputs": [
        {
          "internalType": "uint256",
          "name": "",
          "type": "uint256"
        }
      ],
      "name": "DanhSachGiaoDich",
      "outputs": [
        {
          "internalType": "uint256",
          "name": "id_XaVien",
          "type": "uint256"
        },
        {
          "internalType": "uint256",
          "name": "id_NhaCungCap",
          "type": "uint256"
        },
        {
          "internalType": "uint256",
          "name": "id_GiaoDich",
          "type": "uint256"
        },
        {
          "internalType": "uint256",
          "name": "id_LoHangVatTu",
          "type": "uint256"
        },
        {
          "internalType": "uint256",
          "name": "GiaHoHang",
          "type": "uint256"
        },
        {
          "internalType": "uint256",
          "name": "ThoiGianGiaoDich",
          "type": "uint256"
        }
      ],
      "stateMutability": "view",
      "type": "function",
      "constant": true
    },
    {
      "inputs": [],
      "name": "maxLength",
      "outputs": [
        {
          "internalType": "uint256",
          "name": "",
          "type": "uint256"
        }
      ],
      "stateMutability": "view",
      "type": "function",
      "constant": true
    },
    {
      "inputs": [
        {
          "internalType": "uint256[]",
          "name": "intProperties",
          "type": "uint256[]"
        },
        {
          "internalType": "bool[]",
          "name": "boolProperties",
          "type": "bool[]"
        },
        {
          "internalType": "address[]",
          "name": "addressProperties",
          "type": "address[]"
        }
      ],
      "name": "ThemGiaoDich",
      "outputs": [
        {
          "internalType": "bool",
          "name": "",
          "type": "bool"
        }
      ],
      "stateMutability": "nonpayable",
      "type": "function"
    },
    {
      "inputs": [
        {
          "internalType": "uint256",
          "name": "id_GiaoDich",
          "type": "uint256"
        }
      ],
      "name": "LayThongTinGiaoDich",
      "outputs": [
        {
          "components": [
            {
              "internalType": "uint256",
              "name": "id_XaVien",
              "type": "uint256"
            },
            {
              "internalType": "uint256",
              "name": "id_NhaCungCap",
              "type": "uint256"
            },
            {
              "internalType": "uint256",
              "name": "id_GiaoDich",
              "type": "uint256"
            },
            {
              "internalType": "uint256",
              "name": "id_LoHangVatTu",
              "type": "uint256"
            },
            {
              "internalType": "uint256",
              "name": "GiaHoHang",
              "type": "uint256"
            },
            {
              "internalType": "uint256",
              "name": "ThoiGianGiaoDich",
              "type": "uint256"
            }
          ],
          "internalType": "struct GiaoDichMuaBanVatTu.GiaoDichMuaBanVatTu_Struct",
          "name": "",
          "type": "tuple"
        }
      ],
      "stateMutability": "view",
      "type": "function",
      "constant": true
    }
  ],
  "bytecode": "0x6080604052600060025534801561001557600080fd5b5061139f806100256000396000f3fe608060405234801561001057600080fd5b506004361061004c5760003560e01c806311ab09b2146100515780633f283d07146100815780637faea675146100b6578063d06a89a4146100e6575b600080fd5b61006b600480360381019061006691906107d8565b610104565b604051610078919061088f565b60405180910390f35b61009b600480360381019061009691906107d8565b61016c565b6040516100ad969594939291906108b9565b60405180910390f35b6100d060048036038101906100cb9190610c8f565b6101a8565b6040516100dd9190610d45565b60405180910390f35b6100ee61051a565b6040516100fb9190610d60565b60405180910390f35b61010c610758565b6000808381526020019081526020016000206040518060c001604052908160008201548152602001600182015481526020016002820154815260200160038201548152602001600482015481526020016005820154815250509050919050565b60006020528060005260406000206000915090508060000154908060010154908060020154908060030154908060040154908060050154905086565b6000836000815181106101be576101bd610d7b565b5b6020026020010151846001815181106101da576101d9610d7b565b5b6020026020010151808203610224576040517f08c379a000000000000000000000000000000000000000000000000000000000815260040161021b90610e2d565b60405180910390fd5b8560028151811061023857610237610d7b565b5b602002602001015160008060008381526020019081526020016000206002015414610298576040517f08c379a000000000000000000000000000000000000000000000000000000000815260040161028f90610e99565b60405180910390fd5b866003815181106102ac576102ab610d7b565b5b6020026020010151600080600190505b600254821015610313576000600160008481526020019081526020016000205490508360008083815260200190815260200160002060030154036102ff57600091505b50818061030b90610ee8565b9250506102bc565b80610353576040517f08c379a000000000000000000000000000000000000000000000000000000000815260040161034a90610fa2565b60405180910390fd5b8960038151811061036757610366610d7b565b5b60200260200101518860008151811061038357610382610d7b565b5b60200260200101516000819050828173ffffffffffffffffffffffffffffffffffffffff16630a313f5f856040518263ffffffff1660e01b81526004016103ca9190610d60565b600060405180830381865afa1580156103e7573d6000803e3d6000fd5b505050506040513d6000823e3d601f19601f820116820180604052508101906104109190611176565b6000015114610454576040517f08c379a000000000000000000000000000000000000000000000000000000000815260040161044b9061120b565b60405180910390fd5b8b8060008151811061046957610468610d7b565b5b6020026020010151801561049557508060018151811061048c5761048b610d7b565b5b60200260200101515b80156104b95750806002815181106104b0576104af610d7b565b5b60200260200101515b6104f8576040517f08c379a00000000000000000000000000000000000000000000000000000000081526004016104ef90611277565b60405180910390fd5b60006105038f610520565b9050809b5050505050505050505050509392505050565b60025481565b600061052a610758565b6000836000815181106105405761053f610d7b565b5b602002602001015190506000846001815181106105605761055f610d7b565b5b602002602001015190506000856002815181106105805761057f610d7b565b5b602002602001015190506000866003815181106105a05761059f610d7b565b5b602002602001015190506000876004815181106105c0576105bf610d7b565b5b602002602001015190506000886005815181106105e0576105df610d7b565b5b602002602001015190506040518060c00160405280878152602001868152602001858152602001848152602001838152602001828152509650866000808b60028151811061063157610630610d7b565b5b60200260200101518152602001908152602001600020600082015181600001556020820151816001015560408201518160020155606082015181600301556080820151816004015560a082015181600501559050508860028151811061069a57610699610d7b565b5b60200260200101516001600060025481526020019081526020016000208190555060016002546106ca9190611297565b6002819055507f3809b650066b75e0e12ce34db39caa0e3363b709a097f031e0589e4a1ae1e7cf868686604051610703939291906112ed565b60405180910390a17fa722772db009246fb5fd2c2ffb251ec0950a1d2e71a078128a8f096880f8089e868484846040516107409493929190611324565b60405180910390a16001975050505050505050919050565b6040518060c001604052806000815260200160008152602001600081526020016000815260200160008152602001600081525090565b6000604051905090565b600080fd5b600080fd5b6000819050919050565b6107b5816107a2565b81146107c057600080fd5b50565b6000813590506107d2816107ac565b92915050565b6000602082840312156107ee576107ed610798565b5b60006107fc848285016107c3565b91505092915050565b61080e816107a2565b82525050565b60c08201600082015161082a6000850182610805565b50602082015161083d6020850182610805565b5060408201516108506040850182610805565b5060608201516108636060850182610805565b5060808201516108766080850182610805565b5060a082015161088960a0850182610805565b50505050565b600060c0820190506108a46000830184610814565b92915050565b6108b3816107a2565b82525050565b600060c0820190506108ce60008301896108aa565b6108db60208301886108aa565b6108e860408301876108aa565b6108f560608301866108aa565b61090260808301856108aa565b61090f60a08301846108aa565b979650505050505050565b600080fd5b6000601f19601f8301169050919050565b7f4e487b7100000000000000000000000000000000000000000000000000000000600052604160045260246000fd5b6109688261091f565b810181811067ffffffffffffffff8211171561098757610986610930565b5b80604052505050565b600061099a61078e565b90506109a6828261095f565b919050565b600067ffffffffffffffff8211156109c6576109c5610930565b5b602082029050602081019050919050565b600080fd5b60006109ef6109ea846109ab565b610990565b90508083825260208201905060208402830185811115610a1257610a116109d7565b5b835b81811015610a3b5780610a2788826107c3565b845260208401935050602081019050610a14565b5050509392505050565b600082601f830112610a5a57610a5961091a565b5b8135610a6a8482602086016109dc565b91505092915050565b600067ffffffffffffffff821115610a8e57610a8d610930565b5b602082029050602081019050919050565b60008115159050919050565b610ab481610a9f565b8114610abf57600080fd5b50565b600081359050610ad181610aab565b92915050565b6000610aea610ae584610a73565b610990565b90508083825260208201905060208402830185811115610b0d57610b0c6109d7565b5b835b81811015610b365780610b228882610ac2565b845260208401935050602081019050610b0f565b5050509392505050565b600082601f830112610b5557610b5461091a565b5b8135610b65848260208601610ad7565b91505092915050565b600067ffffffffffffffff821115610b8957610b88610930565b5b602082029050602081019050919050565b600073ffffffffffffffffffffffffffffffffffffffff82169050919050565b6000610bc582610b9a565b9050919050565b610bd581610bba565b8114610be057600080fd5b50565b600081359050610bf281610bcc565b92915050565b6000610c0b610c0684610b6e565b610990565b90508083825260208201905060208402830185811115610c2e57610c2d6109d7565b5b835b81811015610c575780610c438882610be3565b845260208401935050602081019050610c30565b5050509392505050565b600082601f830112610c7657610c7561091a565b5b8135610c86848260208601610bf8565b91505092915050565b600080600060608486031215610ca857610ca7610798565b5b600084013567ffffffffffffffff811115610cc657610cc561079d565b5b610cd286828701610a45565b935050602084013567ffffffffffffffff811115610cf357610cf261079d565b5b610cff86828701610b40565b925050604084013567ffffffffffffffff811115610d2057610d1f61079d565b5b610d2c86828701610c61565b9150509250925092565b610d3f81610a9f565b82525050565b6000602082019050610d5a6000830184610d36565b92915050565b6000602082019050610d7560008301846108aa565b92915050565b7f4e487b7100000000000000000000000000000000000000000000000000000000600052603260045260246000fd5b600082825260208201905092915050565b7f4944207861207669656e2070686169206b686163204944207468756f6e67206c60008201527f6169000000000000000000000000000000000000000000000000000000000000602082015250565b6000610e17602283610daa565b9150610e2282610dbb565b604082019050919050565b60006020820190508181036000830152610e4681610e0a565b9050919050565b7f4944206769616f206469636820646120746f6e20746169000000000000000000600082015250565b6000610e83601783610daa565b9150610e8e82610e4d565b602082019050919050565b60006020820190508181036000830152610eb281610e76565b9050919050565b7f4e487b7100000000000000000000000000000000000000000000000000000000600052601160045260246000fd5b6000610ef3826107a2565b91507fffffffffffffffffffffffffffffffffffffffffffffffffffffffffffffffff8203610f2557610f24610eb9565b5b600182019050919050565b7f4c6f2068616e6720766174207475206e61792064612064756f63206769616f2060008201527f6469636800000000000000000000000000000000000000000000000000000000602082015250565b6000610f8c602483610daa565b9150610f9782610f30565b604082019050919050565b60006020820190508181036000830152610fbb81610f7f565b9050919050565b600080fd5b600080fd5b600081519050610fdb816107ac565b92915050565b600080fd5b600067ffffffffffffffff82111561100157611000610930565b5b61100a8261091f565b9050602081019050919050565b60005b8381101561103557808201518184015260208101905061101a565b83811115611044576000848401525b50505050565b600061105d61105884610fe6565b610990565b90508281526020810184848401111561107957611078610fe1565b5b611084848285611017565b509392505050565b600082601f8301126110a1576110a061091a565b5b81516110b184826020860161104a565b91505092915050565b600060c082840312156110d0576110cf610fc2565b5b6110da60c0610990565b905060006110ea84828501610fcc565b60008301525060206110fe84828501610fcc565b602083015250604061111284828501610fcc565b604083015250606061112684828501610fcc565b606083015250608061113a84828501610fcc565b60808301525060a082015167ffffffffffffffff81111561115e5761115d610fc7565b5b61116a8482850161108c565b60a08301525092915050565b60006020828403121561118c5761118b610798565b5b600082015167ffffffffffffffff8111156111aa576111a961079d565b5b6111b6848285016110ba565b91505092915050565b7f4c6f2068616e6720766174207475206368756120746f6e207461690000000000600082015250565b60006111f5601b83610daa565b9150611200826111bf565b602082019050919050565b60006020820190508181036000830152611224816111e8565b9050919050565b7f4769616f2064696368206368756120646f6e6720746875616e00000000000000600082015250565b6000611261601983610daa565b915061126c8261122b565b602082019050919050565b6000602082019050818103600083015261129081611254565b9050919050565b60006112a2826107a2565b91506112ad836107a2565b9250827fffffffffffffffffffffffffffffffffffffffffffffffffffffffffffffffff038211156112e2576112e1610eb9565b5b828201905092915050565b600060608201905061130260008301866108aa565b61130f60208301856108aa565b61131c60408301846108aa565b949350505050565b600060808201905061133960008301876108aa565b61134660208301866108aa565b61135360408301856108aa565b61136060608301846108aa565b9594505050505056fea2646970667358221220890756d0b50245163f31d986b2c8ff3708b79531e533159ff4af2d674cb13aa464736f6c634300080d0033",
  "immutableReferences": {},
  "source": "// SPDX-License-Identifier: MIT\npragma solidity >=0.5.16 <0.9.0;\n\nimport \"./LoHangVatTu.sol\";\n\ncontract GiaoDichMuaBanVatTu {\n    //--------data-------//\n    struct GiaoDichMuaBanVatTu_Struct {\n        uint    id_XaVien;\n        uint    id_NhaCungCap;  \n        uint    id_GiaoDich;\n        uint    id_LoHangVatTu;\n        uint    GiaHoHang;\n        uint    ThoiGianGiaoDich;\n    }\n\n    mapping ( uint => GiaoDichMuaBanVatTu_Struct ) \n    public DanhSachGiaoDich;\n\n    mapping ( uint => uint ) DanhSachIdGiaoDich;\n\n    uint public maxLength = 0;\n\n    //-------event-------//\n    event SuKienGiaoDich1 (\n        uint    id_XaVien,\n        uint    id_NhaCungCap,  \n        uint    id_GiaoDich\n    );\n\n    event SuKienGiaoDich2 (\n        uint    id_XaVien,\n        uint    id_LoHangVatTu,\n        uint    GiaHoHang,\n        uint    ThoiGianGiaoDich\n    );\n\n    //------modifier-----//\n    modifier KiemTraIdCacBenLienQuan (\n        uint id_XaVien,\n        uint id_NhaCungCap\n    ) {\n        require( \n            id_XaVien != id_NhaCungCap,\n            \"ID xa vien phai khac ID thuong lai\"\n        );\n\n        _;\n    }\n\n    modifier KiemTraXacNhan ( bool[] memory boolProperties ) {\n        require(\n            boolProperties[0] && boolProperties[1] && boolProperties[2],\n            \"Giao dich chua dong thuan\"\n        );\n\n        _;\n    }\n\n    modifier KiemTraGiaoDich ( uint id_GiaoDich ) {\n        require( \n            DanhSachGiaoDich[ id_GiaoDich ].id_GiaoDich == 0,\n            \"ID giao dich da ton tai\"\n        );\n        \n        _;\n    }\n\n    modifier KiemTraLoHangDaTonTai( uint id_LoHangVatTu, address addr ) {\n        LoHangVatTu _loHangVatTu = LoHangVatTu(addr);\n\n        require(\n            _loHangVatTu.LayThongTinVatTu( id_LoHangVatTu ).id_LoHangVatTu == id_LoHangVatTu,\n            \"Lo hang vat tu chua ton tai\"\n        );\n\n        _;\n    }\n\n    modifier KiemTraLoHangDaGiaoDich( uint id_LoHangVatTu ) {\n        uint index = 0;\n        bool kiemTraLoHangVatTu = true;\n\n        for ( index; index < maxLength; index ++ ) {\n            uint id_GiaoDichTemp = DanhSachIdGiaoDich[ index ];\n\n            if ( DanhSachGiaoDich[ id_GiaoDichTemp ].id_LoHangVatTu == id_LoHangVatTu ) {\n                kiemTraLoHangVatTu = false;\n            }\n        }\n\n        require(\n            kiemTraLoHangVatTu,\n            \"Lo hang vat tu nay da duoc giao dich\"\n        );\n\n        _;\n    }\n\n    //-------handle------//\n    /*\n    intProperties [\n        0: uint id_XaVien;\n        1: uint id_NhaCungCap;\n        2: uint id_GiaoDich;\n        3: uint id_LoHangVatTu;\n        4: uint GiaHoHang;\n        5: uint ThoiGianGiaoDich;\n    ]\n\n    boolProperties [\n        0: bool xaVienXacNhan;\n        1: bool nhaCungCapXacNhan;\n        2: bool HTXXacNhan;\n    ]\n\n    */\n    function ThemGiaoDich (\n        uint[]      memory intProperties,\n        bool[]      memory boolProperties,\n        address[]   memory addressProperties\n    ) \n    public\n    KiemTraIdCacBenLienQuan( intProperties[0], intProperties[1] )\n    KiemTraGiaoDich( intProperties[2] )\n    KiemTraLoHangDaGiaoDich( intProperties[3] )\n    KiemTraLoHangDaTonTai( intProperties[3], addressProperties[0] )\n    KiemTraXacNhan( boolProperties )\n    returns (bool) \n    {\n        bool result = LuuThongTinGiaoDich( intProperties );\n        \n        return result;\n    }    \n\n    function LayThongTinGiaoDich (\n        uint id_GiaoDich\n    )\n    external view\n    returns ( GiaoDichMuaBanVatTu_Struct memory ) {\n        return DanhSachGiaoDich[ id_GiaoDich ];\n    }\n\n    /*\n    intProperties [\n        0: uint id_XaVien;\n        1: uint id_NhaCungCap;\n        2: uint id_GiaoDich;\n        3: uint id_LoHangVatTu;\n        4: uint GiaHoHang;\n        5: uint ThoiGianGiaoDich;\n    ]\n    */\n    function LuuThongTinGiaoDich (\n        uint[] memory intProperties\n    ) \n    internal \n    returns (bool)\n    {\n\n        GiaoDichMuaBanVatTu_Struct memory GiaoDichMuaBanVatTuMemory;\n\n        uint id_XaVien          =  intProperties[0];\n        uint id_NhaCungCap      =  intProperties[1];\n        uint id_GiaoDich        =  intProperties[2];\n        uint id_LoHangVatTu     =  intProperties[3];\n        uint GiaHoHang          =  intProperties[4];\n        uint ThoiGianGiaoDich   =  intProperties[5];\n        \n\n        GiaoDichMuaBanVatTuMemory = GiaoDichMuaBanVatTu_Struct (\n            id_XaVien,\n            id_NhaCungCap,\n            id_GiaoDich,\n            id_LoHangVatTu,\n            GiaHoHang,\n            ThoiGianGiaoDich\n        );\n\n        DanhSachGiaoDich[ intProperties[2] ] = GiaoDichMuaBanVatTuMemory;\n\n        DanhSachIdGiaoDich[ maxLength ] = intProperties[2];\n        maxLength = maxLength + 1;\n\n        emit SuKienGiaoDich1 (\n            id_XaVien,\n            id_NhaCungCap,\n            id_GiaoDich\n        );\n\n        emit SuKienGiaoDich2 (\n            id_XaVien,\n            id_LoHangVatTu,\n            GiaHoHang,\n            ThoiGianGiaoDich\n        );\n\n        return true;\n    }\n}",
  "sourcePath": "/Users/trongnhan/Dev/supply-chain-for-agriculture/blockchain/contracts/GiaoDichMuaBanVatTu.sol",
  "compiler": {
    "name": "solc",
    "version": "0.8.13+commit.abaa5c0e.Emscripten.clang"
  },
  "schemaVersion": "3.4.7",
  "updatedAt": "2022-07-10T17:07:26.167Z",
  "networkType": "ethereum",
  "devdoc": {
    "kind": "dev",
    "methods": {},
    "version": 1
  },
  "userdoc": {
    "kind": "user",
    "methods": {},
    "version": 1
  }
}