{
  "contractName": "GiaoDichMuaBanLuaGiong",
  "abi": [
    {
      "anonymous": false,
      "inputs": [
        {
          "indexed": false,
          "internalType": "uint256",
          "name": "id_GiaoDichLuaGiong",
          "type": "uint256"
        },
        {
          "indexed": false,
          "internalType": "uint256",
          "name": "id_XaVien",
          "type": "uint256"
        },
        {
          "indexed": false,
          "internalType": "uint256",
          "name": "id_NhaCungCapVatTu",
          "type": "uint256"
        },
        {
          "indexed": false,
          "internalType": "uint256",
          "name": "id_LichMuaVu",
          "type": "uint256"
        },
        {
          "indexed": false,
          "internalType": "uint256",
          "name": "id_GiongLua",
          "type": "uint256"
        },
        {
          "indexed": false,
          "internalType": "uint256",
          "name": "SoLuong",
          "type": "uint256"
        },
        {
          "indexed": false,
          "internalType": "string",
          "name": "TenGiongLua",
          "type": "string"
        },
        {
          "indexed": false,
          "internalType": "uint256",
          "name": "ThoiGian",
          "type": "uint256"
        }
      ],
      "name": "SuKienGiaoDichMuaBanLuaGiong",
      "type": "event"
    },
    {
      "inputs": [
        {
          "internalType": "uint256",
          "name": "",
          "type": "uint256"
        }
      ],
      "name": "DanhSachGiaoDichMuaBanLuaGiong",
      "outputs": [
        {
          "internalType": "uint256",
          "name": "id_GiaoDichLuaGiong",
          "type": "uint256"
        },
        {
          "internalType": "uint256",
          "name": "id_XaVien",
          "type": "uint256"
        },
        {
          "internalType": "uint256",
          "name": "id_NhaCungCapVatTu",
          "type": "uint256"
        },
        {
          "internalType": "uint256",
          "name": "id_LichMuaVu",
          "type": "uint256"
        },
        {
          "internalType": "uint256",
          "name": "id_GiongLua",
          "type": "uint256"
        },
        {
          "internalType": "uint256",
          "name": "SoLuong",
          "type": "uint256"
        },
        {
          "internalType": "string",
          "name": "TenGiongLua",
          "type": "string"
        },
        {
          "internalType": "uint256",
          "name": "ThoiGian",
          "type": "uint256"
        }
      ],
      "stateMutability": "view",
      "type": "function",
      "constant": true
    },
    {
      "inputs": [
        {
          "internalType": "uint256",
          "name": "",
          "type": "uint256"
        }
      ],
      "name": "DanhSachIdGiaoDichMuaBanGiongLua",
      "outputs": [
        {
          "internalType": "uint256",
          "name": "",
          "type": "uint256"
        }
      ],
      "stateMutability": "view",
      "type": "function",
      "constant": true
    },
    {
      "inputs": [],
      "name": "maxLength",
      "outputs": [
        {
          "internalType": "uint256",
          "name": "",
          "type": "uint256"
        }
      ],
      "stateMutability": "view",
      "type": "function",
      "constant": true
    },
    {
      "inputs": [
        {
          "internalType": "uint256[]",
          "name": "intProperties",
          "type": "uint256[]"
        },
        {
          "internalType": "string[]",
          "name": "stringProperties",
          "type": "string[]"
        }
      ],
      "name": "ThemGiaoDich",
      "outputs": [
        {
          "internalType": "bool",
          "name": "",
          "type": "bool"
        }
      ],
      "stateMutability": "nonpayable",
      "type": "function"
    },
    {
      "inputs": [
        {
          "internalType": "uint256",
          "name": "id_LichMuaVu",
          "type": "uint256"
        }
      ],
      "name": "LayThongTinGiongLuaBangLichMuaVu",
      "outputs": [
        {
          "components": [
            {
              "internalType": "uint256",
              "name": "id_GiaoDichLuaGiong",
              "type": "uint256"
            },
            {
              "internalType": "uint256",
              "name": "id_XaVien",
              "type": "uint256"
            },
            {
              "internalType": "uint256",
              "name": "id_NhaCungCapVatTu",
              "type": "uint256"
            },
            {
              "internalType": "uint256",
              "name": "id_LichMuaVu",
              "type": "uint256"
            },
            {
              "internalType": "uint256",
              "name": "id_GiongLua",
              "type": "uint256"
            },
            {
              "internalType": "uint256",
              "name": "SoLuong",
              "type": "uint256"
            },
            {
              "internalType": "string",
              "name": "TenGiongLua",
              "type": "string"
            },
            {
              "internalType": "uint256",
              "name": "ThoiGian",
              "type": "uint256"
            }
          ],
          "internalType": "struct GiaoDichMuaBanLuaGiong.GiaoDichMuaBanLuaGiong_Struct",
          "name": "",
          "type": "tuple"
        }
      ],
      "stateMutability": "view",
      "type": "function",
      "constant": true
    }
  ],
  "bytecode": "0x6080604052600060025534801561001557600080fd5b506110a5806100256000396000f3fe608060405234801561001057600080fd5b50600436106100575760003560e01c8063106afe6a1461005c5780632e7e29c71461008c578063a20b21fa146100bc578063d049f433146100ec578063d06a89a414610123575b600080fd5b610076600480360381019061007191906107e9565b610141565b6040516100839190610825565b60405180910390f35b6100a660048036038101906100a19190610b2f565b610159565b6040516100b39190610bc2565b60405180910390f35b6100d660048036038101906100d191906107e9565b610474565b6040516100e39190610d24565b60405180910390f35b610106600480360381019061010191906107e9565b6105e1565b60405161011a989796959493929190610d90565b60405180910390f35b61012b6106b1565b6040516101389190610825565b60405180910390f35b60016020528060005260406000206000915090505481565b60008260008151811061016f5761016e610e15565b5b6020026020010151600080600083815260200190815260200160002060000154146101cf576040517f08c379a00000000000000000000000000000000000000000000000000000000081526004016101c690610eb6565b60405180910390fd5b836005815181106101e3576101e2610e15565b5b60200260200101516000811161022e576040517f08c379a000000000000000000000000000000000000000000000000000000000815260040161022590610f22565b60405180910390fd5b6102366106b7565b60008660008151811061024c5761024b610e15565b5b6020026020010151905060008760018151811061026c5761026b610e15565b5b6020026020010151905060008860028151811061028c5761028b610e15565b5b602002602001015190506000896003815181106102ac576102ab610e15565b5b6020026020010151905060008a6004815181106102cc576102cb610e15565b5b6020026020010151905060008b6005815181106102ec576102eb610e15565b5b6020026020010151905060008c60068151811061030c5761030b610e15565b5b6020026020010151905060008c60008151811061032c5761032b610e15565b5b60200260200101519050604051806101000160405280898152602001888152602001878152602001868152602001858152602001848152602001828152602001838152509850886000808a8152602001908152602001600020600082015181600001556020820151816001015560408201518160020155606082015181600301556080820151816004015560a0820151816005015560c08201518160060190805190602001906103dd9291906106fc565b5060e08201518160070155905050876001600060025481526020019081526020016000208190555060016002546104149190610f71565b6002819055507f93b91e4b68248d240b497e6542a92e3b6b521829c7597112abdd50c66279f2e18888888888888789604051610457989796959493929190610d90565b60405180910390a160019b50505050505050505050505092915050565b61047c6106b7565b60006104866106b7565b5b6002548210156105d7576000600160008481526020019081526020016000205490508460008083815260200190815260200160002060030154036105c3576000808281526020019081526020016000206040518061010001604052908160008201548152602001600182015481526020016002820154815260200160038201548152602001600482015481526020016005820154815260200160068201805461052f90610ff6565b80601f016020809104026020016040519081016040528092919081815260200182805461055b90610ff6565b80156105a85780601f1061057d576101008083540402835291602001916105a8565b820191906000526020600020905b81548152906001019060200180831161058b57829003601f168201915b505050505081526020016007820154815250509150506105d7565b5081806105cf90611027565b925050610487565b8092505050919050565b600060205280600052604060002060009150905080600001549080600101549080600201549080600301549080600401549080600501549080600601805461062890610ff6565b80601f016020809104026020016040519081016040528092919081815260200182805461065490610ff6565b80156106a15780601f10610676576101008083540402835291602001916106a1565b820191906000526020600020905b81548152906001019060200180831161068457829003601f168201915b5050505050908060070154905088565b60025481565b60405180610100016040528060008152602001600081526020016000815260200160008152602001600081526020016000815260200160608152602001600081525090565b82805461070890610ff6565b90600052602060002090601f01602090048101928261072a5760008555610771565b82601f1061074357805160ff1916838001178555610771565b82800160010185558215610771579182015b82811115610770578251825591602001919060010190610755565b5b50905061077e9190610782565b5090565b5b8082111561079b576000816000905550600101610783565b5090565b6000604051905090565b600080fd5b600080fd5b6000819050919050565b6107c6816107b3565b81146107d157600080fd5b50565b6000813590506107e3816107bd565b92915050565b6000602082840312156107ff576107fe6107a9565b5b600061080d848285016107d4565b91505092915050565b61081f816107b3565b82525050565b600060208201905061083a6000830184610816565b92915050565b600080fd5b6000601f19601f8301169050919050565b7f4e487b7100000000000000000000000000000000000000000000000000000000600052604160045260246000fd5b61088e82610845565b810181811067ffffffffffffffff821117156108ad576108ac610856565b5b80604052505050565b60006108c061079f565b90506108cc8282610885565b919050565b600067ffffffffffffffff8211156108ec576108eb610856565b5b602082029050602081019050919050565b600080fd5b6000610915610910846108d1565b6108b6565b90508083825260208201905060208402830185811115610938576109376108fd565b5b835b81811015610961578061094d88826107d4565b84526020840193505060208101905061093a565b5050509392505050565b600082601f8301126109805761097f610840565b5b8135610990848260208601610902565b91505092915050565b600067ffffffffffffffff8211156109b4576109b3610856565b5b602082029050602081019050919050565b600080fd5b600067ffffffffffffffff8211156109e5576109e4610856565b5b6109ee82610845565b9050602081019050919050565b82818337600083830152505050565b6000610a1d610a18846109ca565b6108b6565b905082815260208101848484011115610a3957610a386109c5565b5b610a448482856109fb565b509392505050565b600082601f830112610a6157610a60610840565b5b8135610a71848260208601610a0a565b91505092915050565b6000610a8d610a8884610999565b6108b6565b90508083825260208201905060208402830185811115610ab057610aaf6108fd565b5b835b81811015610af757803567ffffffffffffffff811115610ad557610ad4610840565b5b808601610ae28982610a4c565b85526020850194505050602081019050610ab2565b5050509392505050565b600082601f830112610b1657610b15610840565b5b8135610b26848260208601610a7a565b91505092915050565b60008060408385031215610b4657610b456107a9565b5b600083013567ffffffffffffffff811115610b6457610b636107ae565b5b610b708582860161096b565b925050602083013567ffffffffffffffff811115610b9157610b906107ae565b5b610b9d85828601610b01565b9150509250929050565b60008115159050919050565b610bbc81610ba7565b82525050565b6000602082019050610bd76000830184610bb3565b92915050565b610be6816107b3565b82525050565b600081519050919050565b600082825260208201905092915050565b60005b83811015610c26578082015181840152602081019050610c0b565b83811115610c35576000848401525b50505050565b6000610c4682610bec565b610c508185610bf7565b9350610c60818560208601610c08565b610c6981610845565b840191505092915050565b600061010083016000830151610c8d6000860182610bdd565b506020830151610ca06020860182610bdd565b506040830151610cb36040860182610bdd565b506060830151610cc66060860182610bdd565b506080830151610cd96080860182610bdd565b5060a0830151610cec60a0860182610bdd565b5060c083015184820360c0860152610d048282610c3b565b91505060e0830151610d1960e0860182610bdd565b508091505092915050565b60006020820190508181036000830152610d3e8184610c74565b905092915050565b600082825260208201905092915050565b6000610d6282610bec565b610d6c8185610d46565b9350610d7c818560208601610c08565b610d8581610845565b840191505092915050565b600061010082019050610da6600083018b610816565b610db3602083018a610816565b610dc06040830189610816565b610dcd6060830188610816565b610dda6080830187610816565b610de760a0830186610816565b81810360c0830152610df98185610d57565b9050610e0860e0830184610816565b9998505050505050505050565b7f4e487b7100000000000000000000000000000000000000000000000000000000600052603260045260246000fd5b7f4964206769616f2064696368206d75612062616e2067696f6e67206c7561207060008201527f686169206c6120647579206e6861740000000000000000000000000000000000602082015250565b6000610ea0602f83610d46565b9150610eab82610e44565b604082019050919050565b60006020820190508181036000830152610ecf81610e93565b9050919050565b7f536f206c756f6e672070686169206c6f6e20686f6e2030000000000000000000600082015250565b6000610f0c601783610d46565b9150610f1782610ed6565b602082019050919050565b60006020820190508181036000830152610f3b81610eff565b9050919050565b7f4e487b7100000000000000000000000000000000000000000000000000000000600052601160045260246000fd5b6000610f7c826107b3565b9150610f87836107b3565b9250827fffffffffffffffffffffffffffffffffffffffffffffffffffffffffffffffff03821115610fbc57610fbb610f42565b5b828201905092915050565b7f4e487b7100000000000000000000000000000000000000000000000000000000600052602260045260246000fd5b6000600282049050600182168061100e57607f821691505b60208210810361102157611020610fc7565b5b50919050565b6000611032826107b3565b91507fffffffffffffffffffffffffffffffffffffffffffffffffffffffffffffffff820361106457611063610f42565b5b60018201905091905056fea2646970667358221220cc70991602388dd1d9c8294919c070200d609961ac2579cf51d3a733b3a4a6b264736f6c634300080d0033",
  "immutableReferences": {},
  "source": "// SPDX-License-Identifier: MIT\npragma solidity >=0.5.16 <0.9.0;\n\ncontract GiaoDichMuaBanLuaGiong {\n    //---------data---------//\n    struct GiaoDichMuaBanLuaGiong_Struct {\n        uint    id_GiaoDichLuaGiong;\n        uint    id_XaVien;\n        uint    id_NhaCungCapVatTu;\n        uint    id_LichMuaVu;\n        uint    id_GiongLua;\n        uint    SoLuong;\n        string  TenGiongLua;\n        uint    ThoiGian;\n    }\n\n    mapping(uint => GiaoDichMuaBanLuaGiong_Struct) public DanhSachGiaoDichMuaBanLuaGiong;\n\n    mapping(uint => uint) public DanhSachIdGiaoDichMuaBanGiongLua;\n    uint public maxLength = 0;\n\n    //---------event--------//\n    event SuKienGiaoDichMuaBanLuaGiong(\n        uint    id_GiaoDichLuaGiong,\n        uint    id_XaVien,\n        uint    id_NhaCungCapVatTu,\n        uint    id_LichMuaVu,\n        uint    id_GiongLua,\n        uint    SoLuong,\n        string  TenGiongLua,\n        uint    ThoiGian\n    );\n\n    //--------modifier------//\n    modifier KiemTraIdGiaoDich(uint id_GiaoDichLuaGiong) {\n        require(\n            DanhSachGiaoDichMuaBanLuaGiong[id_GiaoDichLuaGiong].id_GiaoDichLuaGiong == 0,\n            \"Id giao dich mua ban giong lua phai la duy nhat\"\n        );\n\n        _;\n    }\n\n    modifier KiemTraSoLuong(uint SoLuong) {\n        require(\n            SoLuong > 0,\n            \"So luong phai lon hon 0\"\n        );\n        \n        _;\n    }\n\n\n    //---------handle-------//\n    /*\n    intProperties [\n        0: uint id_GiaoDichLuaGiong,\n        1: uint id_XaVien,\n        2: uint id_NhaCungCapVatTu,\n        3: uint id_LichMuaVu,\n        4: uint id_GiongLua,\n        5: uint SoLuong,\n        6: uint ThoiGian\n    ]\n\n    stringProperties [\n        0: string TenGiongLua\n    ]\n    */\n    function ThemGiaoDich(\n        uint[]      memory intProperties,\n        string[]    memory stringProperties\n    ) \n    KiemTraIdGiaoDich(intProperties[0])\n    KiemTraSoLuong(intProperties[5])\n    public returns(bool) {\n        GiaoDichMuaBanLuaGiong_Struct memory GiaoDichMuaBanLuaGiongTemp;\n\n        uint id_GiaoDichLuaGiong    = intProperties[0];\n        uint id_XaVien              = intProperties[1];\n        uint id_NhaCungCapVatTu     = intProperties[2];\n        uint id_LichMuaVu           = intProperties[3];\n        uint id_GiongLua            = intProperties[4];\n        uint SoLuong                = intProperties[5];\n        uint ThoiGian               = intProperties[6];\n\n        string memory TenGiongLua   = stringProperties[0];\n\n        GiaoDichMuaBanLuaGiongTemp = GiaoDichMuaBanLuaGiong_Struct(\n            id_GiaoDichLuaGiong,\n            id_XaVien,\n            id_NhaCungCapVatTu,\n            id_LichMuaVu,\n            id_GiongLua,\n            SoLuong,\n            TenGiongLua,\n            ThoiGian\n        );\n\n        DanhSachGiaoDichMuaBanLuaGiong[id_GiaoDichLuaGiong] = GiaoDichMuaBanLuaGiongTemp;\n        DanhSachIdGiaoDichMuaBanGiongLua[maxLength] = id_GiaoDichLuaGiong;\n        maxLength = maxLength + 1;\n\n        emit SuKienGiaoDichMuaBanLuaGiong(\n            id_GiaoDichLuaGiong,\n            id_XaVien,\n            id_NhaCungCapVatTu,\n            id_LichMuaVu,\n            id_GiongLua,\n            SoLuong,\n            TenGiongLua,\n            ThoiGian\n        );\n\n        return true;\n    }\n\n    function LayThongTinGiongLuaBangLichMuaVu(uint id_LichMuaVu)\n    public view returns (GiaoDichMuaBanLuaGiong_Struct memory) {\n        uint index = 0;\n        GiaoDichMuaBanLuaGiong_Struct memory GiaoDichMuaBanGiongLuaData;\n        for ( index; index < maxLength; index++ ) {\n            uint id_GiaoDichLuaGiong = DanhSachIdGiaoDichMuaBanGiongLua[index];\n\n            if (DanhSachGiaoDichMuaBanLuaGiong[id_GiaoDichLuaGiong].id_LichMuaVu == id_LichMuaVu) {\n                GiaoDichMuaBanGiongLuaData = DanhSachGiaoDichMuaBanLuaGiong[id_GiaoDichLuaGiong];\n                break;\n            }\n        }\n\n        return GiaoDichMuaBanGiongLuaData;\n    }\n}",
  "sourcePath": "/Users/trongnhan/Dev/supply-chain-for-agriculture/blockchain/contracts/GiaoDichMuaBanLuaGiong.sol",
  "compiler": {
    "name": "solc",
    "version": "0.8.13+commit.abaa5c0e.Emscripten.clang"
  },
  "schemaVersion": "3.4.7",
  "updatedAt": "2022-11-20T07:22:32.963Z",
  "networkType": "ethereum",
  "devdoc": {
    "kind": "dev",
    "methods": {},
    "version": 1
  },
  "userdoc": {
    "kind": "user",
    "methods": {},
    "version": 1
  }
}