{
  "contractName": "GiaoDichMuaBanLua",
  "abi": [
    {
      "anonymous": false,
      "inputs": [
        {
          "indexed": false,
          "internalType": "uint256",
          "name": "id_XaVien",
          "type": "uint256"
        },
        {
          "indexed": false,
          "internalType": "uint256",
          "name": "id_ThuongLai",
          "type": "uint256"
        },
        {
          "indexed": false,
          "internalType": "uint256",
          "name": "id_GiaoDich",
          "type": "uint256"
        },
        {
          "indexed": false,
          "internalType": "uint256",
          "name": "id_GiongLua",
          "type": "uint256"
        },
        {
          "indexed": false,
          "internalType": "uint256",
          "name": "id_NhatKyDongRuong",
          "type": "uint256"
        }
      ],
      "name": "SuKienGiaoDich1",
      "type": "event"
    },
    {
      "anonymous": false,
      "inputs": [
        {
          "indexed": false,
          "internalType": "uint256",
          "name": "id_GiaoDich",
          "type": "uint256"
        },
        {
          "indexed": false,
          "internalType": "uint256",
          "name": "GiaLoHang",
          "type": "uint256"
        },
        {
          "indexed": false,
          "internalType": "uint256",
          "name": "SoLuong",
          "type": "uint256"
        },
        {
          "indexed": false,
          "internalType": "uint256",
          "name": "ThoiGianGiaoDich",
          "type": "uint256"
        },
        {
          "indexed": false,
          "internalType": "uint256",
          "name": "ThoiGianLoHang",
          "type": "uint256"
        },
        {
          "indexed": false,
          "internalType": "string",
          "name": "TenGiongLua",
          "type": "string"
        }
      ],
      "name": "SuKienGiaoDich2",
      "type": "event"
    },
    {
      "inputs": [
        {
          "internalType": "uint256",
          "name": "",
          "type": "uint256"
        }
      ],
      "name": "DanhSachGiaoDich",
      "outputs": [
        {
          "internalType": "uint256",
          "name": "id_XaVien",
          "type": "uint256"
        },
        {
          "internalType": "uint256",
          "name": "id_ThuongLai",
          "type": "uint256"
        },
        {
          "internalType": "uint256",
          "name": "id_GiaoDich",
          "type": "uint256"
        },
        {
          "internalType": "uint256",
          "name": "id_GiongLua",
          "type": "uint256"
        },
        {
          "internalType": "uint256",
          "name": "id_NhatKyDongRuong",
          "type": "uint256"
        },
        {
          "internalType": "uint256",
          "name": "GiaLoHang",
          "type": "uint256"
        },
        {
          "internalType": "uint256",
          "name": "SoLuong",
          "type": "uint256"
        },
        {
          "internalType": "uint256",
          "name": "ThoiGianGiaoDich",
          "type": "uint256"
        },
        {
          "internalType": "uint256",
          "name": "ThoiGianLoHang",
          "type": "uint256"
        },
        {
          "internalType": "string",
          "name": "TenGiongLua",
          "type": "string"
        }
      ],
      "stateMutability": "view",
      "type": "function",
      "constant": true
    },
    {
      "inputs": [
        {
          "internalType": "uint256[]",
          "name": "intProperties",
          "type": "uint256[]"
        },
        {
          "internalType": "string[]",
          "name": "stringProperties",
          "type": "string[]"
        },
        {
          "internalType": "bool[]",
          "name": "boolProperties",
          "type": "bool[]"
        }
      ],
      "name": "ThemGiaoDich",
      "outputs": [
        {
          "internalType": "bool",
          "name": "",
          "type": "bool"
        }
      ],
      "stateMutability": "nonpayable",
      "type": "function"
    }
  ],
  "bytecode": "0x608060405234801561001057600080fd5b5061122f806100206000396000f3fe608060405234801561001057600080fd5b50600436106100365760003560e01c80633f283d071461003b578063c984931014610074575b600080fd5b61005560048036038101906100509190610891565b6100a4565b60405161006b9a99989796959493929190610966565b60405180910390f35b61008e60048036038101906100899190610de2565b610180565b60405161009b9190610e98565b60405180910390f35b60006020528060005260406000206000915090508060000154908060010154908060020154908060030154908060040154908060050154908060060154908060070154908060080154908060090180546100fd90610ee2565b80601f016020809104026020016040519081016040528092919081815260200182805461012990610ee2565b80156101765780601f1061014b57610100808354040283529160200191610176565b820191906000526020600020905b81548152906001019060200180831161015957829003601f168201915b505050505090508a565b60008360008151811061019657610195610f13565b5b6020026020010151846001815181106101b2576101b1610f13565b5b60200260200101518082036101fc576040517f08c379a00000000000000000000000000000000000000000000000000000000081526004016101f390610fb4565b60405180910390fd5b856002815181106102105761020f610f13565b5b602002602001015160008060008381526020019081526020016000206002015414610270576040517f08c379a000000000000000000000000000000000000000000000000000000000815260040161026790611020565b60405180910390fd5b8660078151811061028457610283610f13565b5b6020026020010151876008815181106102a05761029f610f13565b5b60200260200101518082116102ea576040517f08c379a00000000000000000000000000000000000000000000000000000000081526004016102e1906110b2565b60405180910390fd5b86806000815181106102ff576102fe610f13565b5b6020026020010151801561032b57508060018151811061032257610321610f13565b5b60200260200101515b801561034f57508060028151811061034657610345610f13565b5b60200260200101515b61038e576040517f08c379a00000000000000000000000000000000000000000000000000000000081526004016103859061111e565b60405180910390fd5b610396610751565b6040518061014001604052808c6000815181106103b6576103b5610f13565b5b602002602001015181526020018c6001815181106103d7576103d6610f13565b5b602002602001015181526020018c6002815181106103f8576103f7610f13565b5b602002602001015181526020018c60038151811061041957610418610f13565b5b602002602001015181526020018c60048151811061043a57610439610f13565b5b602002602001015181526020018c60058151811061045b5761045a610f13565b5b602002602001015181526020018c60068151811061047c5761047b610f13565b5b602002602001015181526020018c60078151811061049d5761049c610f13565b5b602002602001015181526020018c6008815181106104be576104bd610f13565b5b602002602001015181526020018b6000815181106104df576104de610f13565b5b60200260200101518152509050806000808d60028151811061050457610503610f13565b5b60200260200101518152602001908152602001600020600082015181600001556020820151816001015560408201518160020155606082015181600301556080820151816004015560a0820151816005015560c0820151816006015560e0820151816007015561010082015181600801556101208201518160090190805190602001906105929291906107a4565b509050507fa1ba4c6be6d65507e9a60b419a345c80d52978f33d83468c500d1ed3064824de8b6000815181106105cb576105ca610f13565b5b60200260200101518c6001815181106105e7576105e6610f13565b5b60200260200101518d60028151811061060357610602610f13565b5b60200260200101518e60038151811061061f5761061e610f13565b5b60200260200101518f60048151811061063b5761063a610f13565b5b602002602001015160405161065495949392919061113e565b60405180910390a17f214c70883b5e696972721de6c0578bec3046f7c34c99450064181aab1454ceb38b60028151811061069157610690610f13565b5b60200260200101518c6005815181106106ad576106ac610f13565b5b60200260200101518d6006815181106106c9576106c8610f13565b5b60200260200101518e6007815181106106e5576106e4610f13565b5b60200260200101518f60088151811061070157610700610f13565b5b60200260200101518f60008151811061071d5761071c610f13565b5b602002602001015160405161073796959493929190611191565b60405180910390a160019750505050505050509392505050565b604051806101400160405280600081526020016000815260200160008152602001600081526020016000815260200160008152602001600081526020016000815260200160008152602001606081525090565b8280546107b090610ee2565b90600052602060002090601f0160209004810192826107d25760008555610819565b82601f106107eb57805160ff1916838001178555610819565b82800160010185558215610819579182015b828111156108185782518255916020019190600101906107fd565b5b509050610826919061082a565b5090565b5b8082111561084357600081600090555060010161082b565b5090565b6000604051905090565b600080fd5b600080fd5b6000819050919050565b61086e8161085b565b811461087957600080fd5b50565b60008135905061088b81610865565b92915050565b6000602082840312156108a7576108a6610851565b5b60006108b58482850161087c565b91505092915050565b6108c78161085b565b82525050565b600081519050919050565b600082825260208201905092915050565b60005b838110156109075780820151818401526020810190506108ec565b83811115610916576000848401525b50505050565b6000601f19601f8301169050919050565b6000610938826108cd565b61094281856108d8565b93506109528185602086016108e9565b61095b8161091c565b840191505092915050565b60006101408201905061097c600083018d6108be565b610989602083018c6108be565b610996604083018b6108be565b6109a3606083018a6108be565b6109b060808301896108be565b6109bd60a08301886108be565b6109ca60c08301876108be565b6109d760e08301866108be565b6109e56101008301856108be565b8181036101208301526109f8818461092d565b90509b9a5050505050505050505050565b600080fd5b7f4e487b7100000000000000000000000000000000000000000000000000000000600052604160045260246000fd5b610a468261091c565b810181811067ffffffffffffffff82111715610a6557610a64610a0e565b5b80604052505050565b6000610a78610847565b9050610a848282610a3d565b919050565b600067ffffffffffffffff821115610aa457610aa3610a0e565b5b602082029050602081019050919050565b600080fd5b6000610acd610ac884610a89565b610a6e565b90508083825260208201905060208402830185811115610af057610aef610ab5565b5b835b81811015610b195780610b05888261087c565b845260208401935050602081019050610af2565b5050509392505050565b600082601f830112610b3857610b37610a09565b5b8135610b48848260208601610aba565b91505092915050565b600067ffffffffffffffff821115610b6c57610b6b610a0e565b5b602082029050602081019050919050565b600080fd5b600067ffffffffffffffff821115610b9d57610b9c610a0e565b5b610ba68261091c565b9050602081019050919050565b82818337600083830152505050565b6000610bd5610bd084610b82565b610a6e565b905082815260208101848484011115610bf157610bf0610b7d565b5b610bfc848285610bb3565b509392505050565b600082601f830112610c1957610c18610a09565b5b8135610c29848260208601610bc2565b91505092915050565b6000610c45610c4084610b51565b610a6e565b90508083825260208201905060208402830185811115610c6857610c67610ab5565b5b835b81811015610caf57803567ffffffffffffffff811115610c8d57610c8c610a09565b5b808601610c9a8982610c04565b85526020850194505050602081019050610c6a565b5050509392505050565b600082601f830112610cce57610ccd610a09565b5b8135610cde848260208601610c32565b91505092915050565b600067ffffffffffffffff821115610d0257610d01610a0e565b5b602082029050602081019050919050565b60008115159050919050565b610d2881610d13565b8114610d3357600080fd5b50565b600081359050610d4581610d1f565b92915050565b6000610d5e610d5984610ce7565b610a6e565b90508083825260208201905060208402830185811115610d8157610d80610ab5565b5b835b81811015610daa5780610d968882610d36565b845260208401935050602081019050610d83565b5050509392505050565b600082601f830112610dc957610dc8610a09565b5b8135610dd9848260208601610d4b565b91505092915050565b600080600060608486031215610dfb57610dfa610851565b5b600084013567ffffffffffffffff811115610e1957610e18610856565b5b610e2586828701610b23565b935050602084013567ffffffffffffffff811115610e4657610e45610856565b5b610e5286828701610cb9565b925050604084013567ffffffffffffffff811115610e7357610e72610856565b5b610e7f86828701610db4565b9150509250925092565b610e9281610d13565b82525050565b6000602082019050610ead6000830184610e89565b92915050565b7f4e487b7100000000000000000000000000000000000000000000000000000000600052602260045260246000fd5b60006002820490506001821680610efa57607f821691505b602082108103610f0d57610f0c610eb3565b5b50919050565b7f4e487b7100000000000000000000000000000000000000000000000000000000600052603260045260246000fd5b7f4944207468756f6e67206c61692070686169206b68616320494420786120766960008201527f656e000000000000000000000000000000000000000000000000000000000000602082015250565b6000610f9e6022836108d8565b9150610fa982610f42565b604082019050919050565b60006020820190508181036000830152610fcd81610f91565b9050919050565b7f4944206769616f206469636820646120746f6e20746169000000000000000000600082015250565b600061100a6017836108d8565b915061101582610fd4565b602082019050919050565b6000602082019050818103600083015261103981610ffd565b9050919050565b7f54686f69206769616e206769616f20646963682070686169207361752074686f60008201527f69206769616e206c6f2068616e67000000000000000000000000000000000000602082015250565b600061109c602e836108d8565b91506110a782611040565b604082019050919050565b600060208201905081810360008301526110cb8161108f565b9050919050565b7f4769616f2064696368206368756120646f6e6720746875616e00000000000000600082015250565b60006111086019836108d8565b9150611113826110d2565b602082019050919050565b60006020820190508181036000830152611137816110fb565b9050919050565b600060a08201905061115360008301886108be565b61116060208301876108be565b61116d60408301866108be565b61117a60608301856108be565b61118760808301846108be565b9695505050505050565b600060c0820190506111a660008301896108be565b6111b360208301886108be565b6111c060408301876108be565b6111cd60608301866108be565b6111da60808301856108be565b81810360a08301526111ec818461092d565b905097965050505050505056fea26469706673582212200272d4ddad56cdf3d32d6c6d5fc2ce09cf95e2d4896a94bc694b9660632ebb5e64736f6c634300080d0033",
  "immutableReferences": {},
  "source": "// SPDX-License-Identifier: MIT\npragma solidity >=0.5.16 <0.9.0;\n\ncontract GiaoDichMuaBanLua {\n    //--------data-------//\n    struct GiaoDichMuaBanLua_Struct {\n        uint    id_XaVien;\n        uint    id_ThuongLai;\n        uint    id_GiaoDich;\n        uint    id_GiongLua;\n        uint    id_NhatKyDongRuong;\n        uint    GiaLoHang;\n        uint    SoLuong;\n        uint    ThoiGianGiaoDich;\n        uint    ThoiGianLoHang;\n        string  TenGiongLua;\n    }\n\n    mapping ( uint => GiaoDichMuaBanLua_Struct ) \n    public DanhSachGiaoDich;\n\n    //-------event-------//\n\n    event SuKienGiaoDich1 (\n        uint    id_XaVien,\n        uint    id_ThuongLai,\n        uint    id_GiaoDich,\n        uint    id_GiongLua,\n        uint    id_NhatKyDongRuong\n    );\n\n    event SuKienGiaoDich2 (\n        uint    id_GiaoDich,\n        uint    GiaLoHang,\n        uint    SoLuong,\n        uint    ThoiGianGiaoDich,\n        uint    ThoiGianLoHang,\n        string  TenGiongLua\n    );\n\n    //------modifier-----//\n    modifier KiemTraCacBenLienQuan (\n        uint    id_XaVien,\n        uint    id_ThuongLai\n    ) {\n        require(\n            id_XaVien != id_ThuongLai,\n            'ID thuong lai phai khac ID xa vien'\n        );\n\n        _;\n    }\n\n    modifier KiemTraIdGiaoDich ( uint id_GiaoDich ) {\n        require( \n            DanhSachGiaoDich[ id_GiaoDich ].id_GiaoDich == 0,\n            \"ID giao dich da ton tai\"\n        );\n\n        _;\n    }\n\n    modifier KiemTraThoiGian ( uint ThoiGianGiaoDich, uint ThoiGianLoHang ) {\n        require(\n            ThoiGianGiaoDich > ThoiGianLoHang,\n            \"Thoi gian giao dich phai sau thoi gian lo hang\"\n        );\n\n        _;\n    } \n\n    modifier KiemTraXacNhan ( bool[] memory boolProperties ) {\n        require(\n            boolProperties[0] && boolProperties[1] && boolProperties[2],\n            \"Giao dich chua dong thuan\"\n        );\n\n        _;\n    }\n   \n\n    //-------handle------//\n    /*\n    intProperties [\n        0: uint id_XaVien;\n        1: uint id_ThuongLai;\n        2: uint id_GiaoDich;\n        3: uint id_GiongLua;\n        4: uint id_NhatKyDongRuong;\n        5: uint GiaLoHang;\n        6: uint SoLuong;\n        7: uint ThoiGianGiaoDich;\n        8: uint ThoiGianLoHang;\n    ]\n\n    stringProperties [\n        0: string  TenGiongLua\n    ]\n    */\n    function ThemGiaoDich (\n        uint[]      memory intProperties,\n        string[]    memory stringProperties,\n        bool[]      memory boolProperties\n    )\n    KiemTraCacBenLienQuan( intProperties[0], intProperties[1] )\n    KiemTraIdGiaoDich( intProperties[2] )\n    KiemTraThoiGian( intProperties[7], intProperties[8] )\n    KiemTraXacNhan( boolProperties )\n    public\n    returns (bool) \n    {\n        GiaoDichMuaBanLua_Struct memory GiaoDichMuaBanLuaMemory;\n\n        GiaoDichMuaBanLuaMemory = GiaoDichMuaBanLua_Struct (\n            intProperties[0],   //id xa vien\n            intProperties[1],   //id_ThuongLai\n            intProperties[2],   //id giao dich\n            intProperties[3],   //id giong lua\n            intProperties[4],   //id nhat ky dong ruong\n            intProperties[5],   //gia lo hang\n            intProperties[6],   //so luong\n            intProperties[7],   //thoi gian giao dich\n            intProperties[8],   //thoi gian lo hang\n            stringProperties[0] //ten giong lua\n        );\n\n        DanhSachGiaoDich[ intProperties[2] ] = GiaoDichMuaBanLuaMemory;\n\n        emit SuKienGiaoDich1 (\n            intProperties[0],   //id xa vien\n            intProperties[1],   //id xa vien\n            intProperties[2],   //id giao dich\n            intProperties[3],   //id giong lua\n            intProperties[4]    //id nhat ky dong ruong\n        );\n\n        emit SuKienGiaoDich2 (\n            intProperties[2],   //gia lo hang\n            intProperties[5],   //gia lo hang\n            intProperties[6],   //so luong\n            intProperties[7],   //thoi gian giao dich\n            intProperties[8],   //thoi gian lo hang\n            stringProperties[0] //ten giong lua\n        );\n\n        return true;\n    }    \n}",
  "sourcePath": "/Users/trongnhan/Dev/supply-chain-for-agriculture/blockchain/contracts/GiaoDichMuaBanLua.sol",
  "compiler": {
    "name": "solc",
    "version": "0.8.13+commit.abaa5c0e.Emscripten.clang"
  },
  "schemaVersion": "3.4.7",
  "updatedAt": "2022-07-11T15:41:21.649Z",
  "networkType": "ethereum",
  "devdoc": {
    "kind": "dev",
    "methods": {},
    "version": 1
  },
  "userdoc": {
    "kind": "user",
    "methods": {},
    "version": 1
  }
}