{
  "contractName": "GiaoDichMuaBan_VatTu",
  "abi": [
    {
      "anonymous": false,
      "inputs": [
        {
          "indexed": false,
          "internalType": "uint256",
          "name": "id_giaodichmuaban_vattu",
          "type": "uint256"
        },
        {
          "indexed": false,
          "internalType": "address",
          "name": "nhacungcap",
          "type": "address"
        },
        {
          "indexed": false,
          "internalType": "address",
          "name": "xavien",
          "type": "address"
        }
      ],
      "name": "SuKienThemGiaoDich",
      "type": "event"
    },
    {
      "constant": true,
      "inputs": [
        {
          "internalType": "uint256",
          "name": "",
          "type": "uint256"
        }
      ],
      "name": "list_giaodich",
      "outputs": [
        {
          "internalType": "uint256",
          "name": "id_giaodichmuaban_vattu",
          "type": "uint256"
        },
        {
          "internalType": "address",
          "name": "nhacungcapvattu",
          "type": "address"
        },
        {
          "internalType": "address",
          "name": "xavien",
          "type": "address"
        }
      ],
      "payable": false,
      "stateMutability": "view",
      "type": "function"
    },
    {
      "constant": false,
      "inputs": [
        {
          "internalType": "address",
          "name": "nhacungcap",
          "type": "address"
        },
        {
          "internalType": "uint256",
          "name": "id_giaodichmuaban_vattu",
          "type": "uint256"
        },
        {
          "internalType": "bool",
          "name": "xacnhan",
          "type": "bool"
        }
      ],
      "name": "themGiaoDich",
      "outputs": [
        {
          "internalType": "bool",
          "name": "",
          "type": "bool"
        }
      ],
      "payable": false,
      "stateMutability": "nonpayable",
      "type": "function"
    }
  ],
  "bytecode": "0x608060405234801561001057600080fd5b50610516806100206000396000f3fe608060405234801561001057600080fd5b50600436106100365760003560e01c806310b326f01461003b578063c53a9152146100ad575b600080fd5b6100936004803603606081101561005157600080fd5b81019080803573ffffffffffffffffffffffffffffffffffffffff16906020019092919080359060200190929190803515159060200190929190505050610155565b604051808215151515815260200191505060405180910390f35b6100d9600480360360208110156100c357600080fd5b8101908080359060200190929190505050610405565b604051808481526020018373ffffffffffffffffffffffffffffffffffffffff1673ffffffffffffffffffffffffffffffffffffffff1681526020018273ffffffffffffffffffffffffffffffffffffffff1673ffffffffffffffffffffffffffffffffffffffff168152602001935050505060405180910390f35b60008160011515811515146101d2576040517f08c379a000000000000000000000000000000000000000000000000000000000815260040180806020018281038252601d8152602001807f4769616f206469636820636875612064756f6320786163206e68616e2e00000081525060200191505060405180910390fd5b843373ffffffffffffffffffffffffffffffffffffffff168173ffffffffffffffffffffffffffffffffffffffff161415610258576040517f08c379a00000000000000000000000000000000000000000000000000000000081526004018080602001828103825260258152602001806104bd6025913960400191505060405180910390fd5b61026061046f565b60405180606001604052808781526020018873ffffffffffffffffffffffffffffffffffffffff1681526020013373ffffffffffffffffffffffffffffffffffffffff1681525090507fef613a621ad47b434c89a6a78a4eee7c09d319187219fa44610888151e60e8ad868833604051808481526020018373ffffffffffffffffffffffffffffffffffffffff1673ffffffffffffffffffffffffffffffffffffffff1681526020018273ffffffffffffffffffffffffffffffffffffffff1673ffffffffffffffffffffffffffffffffffffffff168152602001935050505060405180910390a180600160008881526020019081526020016000206000820151816000015560208201518160010160006101000a81548173ffffffffffffffffffffffffffffffffffffffff021916908373ffffffffffffffffffffffffffffffffffffffff16021790555060408201518160020160006101000a81548173ffffffffffffffffffffffffffffffffffffffff021916908373ffffffffffffffffffffffffffffffffffffffff160217905550905050600193505050509392505050565b60016020528060005260406000206000915090508060000154908060010160009054906101000a900473ffffffffffffffffffffffffffffffffffffffff16908060020160009054906101000a900473ffffffffffffffffffffffffffffffffffffffff16905083565b604051806060016040528060008152602001600073ffffffffffffffffffffffffffffffffffffffff168152602001600073ffffffffffffffffffffffffffffffffffffffff168152509056fe4944206e68612063756e67206361702070686169206b686163204944206e6f6e672064616ea265627a7a72315820a9a037e5fe38dde0aee54c662dfed5b2bf931defe7f7c0a8b456b2da5903418564736f6c63430005100032",
  "source": "// SPDX-License-Identifier: MIT\npragma solidity >=0.5.16 <0.9.0;\n\ncontract GiaoDichMuaBan_VatTu {\n    uint256 private length;\n\n    struct Giaodich {\n        uint256 id_giaodichmuaban_vattu;\n        address nhacungcapvattu;\n        address xavien;\n    }\n\n    event SuKienThemGiaoDich(\n        uint256 id_giaodichmuaban_vattu,\n        address nhacungcap,\n        address xavien\n    );\n\n    mapping(uint256 => Giaodich) public list_giaodich;\n\n    modifier kiemtraXacNhan(bool xacnhan) {\n        require(xacnhan == true, \"Giao dich chua duoc xac nhan.\");\n\n        _;\n    }\n\n    modifier kiemtraNhaCungCap(address nhacungcap) {\n        require(\n            nhacungcap != msg.sender,\n            \"ID nha cung cap phai khac ID nong dan\"\n        );\n\n        _;\n    }\n\n    function themGiaoDich(\n        address nhacungcap,\n        uint256 id_giaodichmuaban_vattu,\n        bool xacnhan\n    )\n        public\n        kiemtraXacNhan(xacnhan)\n        kiemtraNhaCungCap(nhacungcap)\n        returns (bool)\n    {\n        Giaodich memory giaodich;\n\n        giaodich = Giaodich(\n            id_giaodichmuaban_vattu, \n            nhacungcap, \n            msg.sender\n        );\n\n        emit SuKienThemGiaoDich(\n            id_giaodichmuaban_vattu, \n            nhacungcap, \n            msg.sender\n        );\n\n        list_giaodich[id_giaodichmuaban_vattu] = giaodich;\n\n        return true;\n    }\n}\n",
  "sourcePath": "/Users/trongnhan/Dev/supply-chain-for-agriculture/blockchain/contracts/giaodichmuaban_vattu.sol",
  "compiler": {
    "name": "solc",
    "version": "0.5.16+commit.9c3226ce.Emscripten.clang"
  },
  "schemaVersion": "3.4.7",
  "updatedAt": "2022-06-15T15:16:48.306Z",
  "networkType": "ethereum",
  "devdoc": {
    "methods": {}
  },
  "userdoc": {
    "methods": {}
  }
}