{
  "contractName": "GiaoDichMuaBanLua",
  "abi": [
    {
      "anonymous": false,
      "inputs": [
        {
          "indexed": false,
          "internalType": "uint256",
          "name": "id_GiaoDich",
          "type": "uint256"
        },
        {
          "indexed": false,
          "internalType": "uint256",
          "name": "id_LoHangLua",
          "type": "uint256"
        },
        {
          "indexed": false,
          "internalType": "uint256",
          "name": "id_XaVien",
          "type": "uint256"
        },
        {
          "indexed": false,
          "internalType": "uint256",
          "name": "id_ThuongLai",
          "type": "uint256"
        }
      ],
      "name": "SuKienGiaoDich",
      "type": "event"
    },
    {
      "inputs": [
        {
          "internalType": "uint256",
          "name": "",
          "type": "uint256"
        }
      ],
      "name": "DanhSachGiaoDich",
      "outputs": [
        {
          "internalType": "uint256",
          "name": "id_XaVien",
          "type": "uint256"
        },
        {
          "internalType": "uint256",
          "name": "id_ThuongLai",
          "type": "uint256"
        },
        {
          "internalType": "uint256",
          "name": "id_LoHangLua",
          "type": "uint256"
        },
        {
          "internalType": "uint256",
          "name": "id_GiaoDich",
          "type": "uint256"
        }
      ],
      "stateMutability": "view",
      "type": "function",
      "constant": true
    },
    {
      "inputs": [],
      "name": "maxLength",
      "outputs": [
        {
          "internalType": "uint256",
          "name": "",
          "type": "uint256"
        }
      ],
      "stateMutability": "view",
      "type": "function",
      "constant": true
    },
    {
      "inputs": [
        {
          "internalType": "uint256",
          "name": "id_XaVien",
          "type": "uint256"
        },
        {
          "internalType": "uint256",
          "name": "id_ThuongLai",
          "type": "uint256"
        },
        {
          "internalType": "uint256",
          "name": "id_LoHangLua",
          "type": "uint256"
        },
        {
          "internalType": "uint256",
          "name": "id_GiaoDich",
          "type": "uint256"
        }
      ],
      "name": "ThemGiaoDich",
      "outputs": [
        {
          "internalType": "bool",
          "name": "",
          "type": "bool"
        }
      ],
      "stateMutability": "nonpayable",
      "type": "function"
    }
  ],
  "bytecode": "0x6080604052600060015534801561001557600080fd5b506108f6806100256000396000f3fe608060405234801561001057600080fd5b50600436106100415760003560e01c80633f283d0714610046578063d06a89a414610079578063d50947d314610097575b600080fd5b610060600480360381019061005b91906103ce565b6100c7565b604051610070949392919061040a565b60405180910390f35b6100816100f7565b60405161008e919061044f565b60405180910390f35b6100b160048036038101906100ac919061046a565b6100fd565b6040516100be91906104ec565b60405180910390f35b60006020528060005260406000206000915090508060000154908060010154908060020154908060030154905084565b60015481565b60008484808203610143576040517f08c379a000000000000000000000000000000000000000000000000000000000815260040161013a9061058a565b60405180910390fd5b8484600080600190506000600190505b6001548310156101b25783600080858152602001908152602001600020600301540361017e57600090505b84600080858152602001908152602001600020600201540361019f57600091505b82806101aa906105d9565b935050610153565b80806101bb5750815b6040516020016101ca906106c4565b6040516020818303038152906040529061021a576040517f08c379a00000000000000000000000000000000000000000000000000000000081526004016102119190610770565b60405180910390fd5b508061025b576040517f08c379a0000000000000000000000000000000000000000000000000000000008152600401610252906107de565b60405180910390fd5b8161029b576040517f08c379a00000000000000000000000000000000000000000000000000000000081526004016102929061084a565b60405180910390fd5b6102a361036b565b60405180608001604052808e81526020018d81526020018c81526020018b81525090508060008060015481526020019081526020016000206000820151816000015560208201518160010155604082015181600201556060820151816003015590505060018054610314919061086a565b6001819055507ff3b4e8031f7f1f4334dc93fff660ca58881b57817f7f8c34838ea8e4d22e70268b8e8e8d60405161034f949392919061040a565b60405180910390a1600198505050505050505050949350505050565b6040518060800160405280600081526020016000815260200160008152602001600081525090565b600080fd5b6000819050919050565b6103ab81610398565b81146103b657600080fd5b50565b6000813590506103c8816103a2565b92915050565b6000602082840312156103e4576103e3610393565b5b60006103f2848285016103b9565b91505092915050565b61040481610398565b82525050565b600060808201905061041f60008301876103fb565b61042c60208301866103fb565b61043960408301856103fb565b61044660608301846103fb565b95945050505050565b600060208201905061046460008301846103fb565b92915050565b6000806000806080858703121561048457610483610393565b5b6000610492878288016103b9565b94505060206104a3878288016103b9565b93505060406104b4878288016103b9565b92505060606104c5878288016103b9565b91505092959194509250565b60008115159050919050565b6104e6816104d1565b82525050565b600060208201905061050160008301846104dd565b92915050565b600082825260208201905092915050565b7f4944207861207669656e2070686169206b686163204944207468756f6e67206c60008201527f6169000000000000000000000000000000000000000000000000000000000000602082015250565b6000610574602283610507565b915061057f82610518565b604082019050919050565b600060208201905081810360008301526105a381610567565b9050919050565b7f4e487b7100000000000000000000000000000000000000000000000000000000600052601160045260246000fd5b60006105e482610398565b91507fffffffffffffffffffffffffffffffffffffffffffffffffffffffffffffffff8203610616576106156105aa565b5b600182019050919050565b600081905092915050565b7f4944206c6f206769616f20646963682070686169206c6120647579206e68617460008201527f2000000000000000000000000000000000000000000000000000000000000000602082015250565b6000610688602183610621565b91506106938261062c565b602182019050919050565b7f4944206c6f2068616e67206c75612070686169206c6120647579206e68617400815250565b60006106cf8261067b565b91506106da8261069e565b601f82019150819050919050565b600081519050919050565b60005b838110156107115780820151818401526020810190506106f6565b83811115610720576000848401525b50505050565b6000601f19601f8301169050919050565b6000610742826106e8565b61074c8185610507565b935061075c8185602086016106f3565b61076581610726565b840191505092915050565b6000602082019050818103600083015261078a8184610737565b905092915050565b7f4944206c6f206769616f20646963682070686169206c6120647579206e686174600082015250565b60006107c8602083610507565b91506107d382610792565b602082019050919050565b600060208201905081810360008301526107f7816107bb565b9050919050565b7f4944206c6f2068616e67206c75612070686169206c6120647579206e68617400600082015250565b6000610834601f83610507565b915061083f826107fe565b602082019050919050565b6000602082019050818103600083015261086381610827565b9050919050565b600061087582610398565b915061088083610398565b9250827fffffffffffffffffffffffffffffffffffffffffffffffffffffffffffffffff038211156108b5576108b46105aa565b5b82820190509291505056fea2646970667358221220b64486332986fe63d84844790d22dfd01777541323d0873256e2aed3165471c164736f6c634300080d0033",
  "immutableReferences": {},
  "source": "// SPDX-License-Identifier: MIT\npragma solidity >=0.5.16 <0.9.0;\n\ncontract GiaoDichMuaBanLua {\n    //--------data-------//\n    struct GiaoDichMuaBanLua_Struct {\n        uint id_XaVien;\n        uint id_ThuongLai;  \n        uint id_LoHangLua;\n        uint id_GiaoDich;\n    }\n\n    mapping ( uint => GiaoDichMuaBanLua_Struct ) \n    public DanhSachGiaoDich;\n\n    uint public maxLength = 0;\n\n    //-------event-------//\n    event SuKienGiaoDich (\n        uint id_GiaoDich,\n        uint id_LoHangLua,\n        uint id_XaVien,\n        uint id_ThuongLai\n    );\n\n    //------modifier-----//\n    modifier KiemTraIdCacBenLienQuan (\n        uint id_XaVien,\n        uint id_ThuongLai\n    ) {\n        require( \n            id_XaVien != id_ThuongLai,\n            \"ID xa vien phai khac ID thuong lai\"\n        );\n\n        _;\n    }\n\n    modifier KiemTraLoHangLua ( uint id_LoHangLua, uint id_GiaoDich ) {\n        uint index            = 0;\n        bool checkIdLoHangLua = true;\n        bool checkIdGiaoDich  = true;\n\n        for ( index; index < maxLength; index ++ ) {\n            if ( DanhSachGiaoDich[ index ].id_GiaoDich == id_GiaoDich ) {\n                checkIdGiaoDich = false;\n            }\n\n            if ( DanhSachGiaoDich[ index ].id_LoHangLua == id_LoHangLua ) {\n                checkIdLoHangLua = false;\n            }\n        }\n\n        require(\n            checkIdGiaoDich || checkIdLoHangLua,\n            string.concat(\n                \"ID lo giao dich phai la duy nhat \",\n                \"ID lo hang lua phai la duy nhat\"\n            )\n        );\n\n        require (\n            checkIdGiaoDich,\n            \"ID lo giao dich phai la duy nhat\"\n        );\n\n        require (\n            checkIdLoHangLua,\n            \"ID lo hang lua phai la duy nhat\"\n        );\n\n        _;\n    }\n\n    //-------handle------//\n    function ThemGiaoDich (\n        uint id_XaVien,\n        uint id_ThuongLai,\n        uint id_LoHangLua,\n        uint id_GiaoDich\n    ) \n    public\n    KiemTraIdCacBenLienQuan(id_XaVien, id_ThuongLai)\n    KiemTraLoHangLua( id_LoHangLua, id_GiaoDich )\n    returns (bool) \n    {\n        GiaoDichMuaBanLua_Struct memory GiaoDichMuaBanLuaMemory;\n\n        GiaoDichMuaBanLuaMemory = GiaoDichMuaBanLua_Struct (\n            id_XaVien,\n            id_ThuongLai,\n            id_LoHangLua,\n            id_GiaoDich\n        );\n\n        DanhSachGiaoDich[maxLength] = GiaoDichMuaBanLuaMemory;\n        maxLength = maxLength + 1;\n\n        emit SuKienGiaoDich(\n            id_LoHangLua,\n            id_XaVien,\n            id_ThuongLai,\n            id_GiaoDich\n        );\n\n        return true;\n    }    \n}",
  "sourcePath": "/Users/trongnhan/Dev/supply-chain-for-agriculture/blockchain/contracts/GiaoDichMuaBanLua.sol",
  "compiler": {
    "name": "solc",
    "version": "0.8.13+commit.abaa5c0e.Emscripten.clang"
  },
  "schemaVersion": "3.4.7",
  "updatedAt": "2022-07-02T17:30:55.642Z",
  "networkType": "ethereum",
  "devdoc": {
    "kind": "dev",
    "methods": {},
    "version": 1
  },
  "userdoc": {
    "kind": "user",
    "methods": {},
    "version": 1
  }
}