{
  "contractName": "GiaoDichMuaBan_Lua",
  "abi": [
    {
      "anonymous": false,
      "inputs": [
        {
          "indexed": false,
          "internalType": "address",
          "name": "nongdang",
          "type": "address"
        },
        {
          "indexed": false,
          "internalType": "address",
          "name": "thuonglai",
          "type": "address"
        },
        {
          "indexed": false,
          "internalType": "uint256",
          "name": "id_giaodichmuaban_lua",
          "type": "uint256"
        }
      ],
      "name": "giaoDichEvent",
      "type": "event"
    },
    {
      "constant": true,
      "inputs": [
        {
          "internalType": "uint256",
          "name": "",
          "type": "uint256"
        }
      ],
      "name": "ListGiaoDich",
      "outputs": [
        {
          "internalType": "uint256",
          "name": "id_giaodichmuaban_lua",
          "type": "uint256"
        },
        {
          "internalType": "address",
          "name": "thuonglai",
          "type": "address"
        },
        {
          "internalType": "address",
          "name": "nongdan",
          "type": "address"
        }
      ],
      "payable": false,
      "stateMutability": "view",
      "type": "function"
    },
    {
      "constant": false,
      "inputs": [
        {
          "internalType": "address",
          "name": "thuonglai",
          "type": "address"
        },
        {
          "internalType": "uint256",
          "name": "id_giaodichmuaban_lua",
          "type": "uint256"
        },
        {
          "internalType": "bool",
          "name": "xacnhan",
          "type": "bool"
        }
      ],
      "name": "themGiaoDich",
      "outputs": [
        {
          "internalType": "bool",
          "name": "",
          "type": "bool"
        }
      ],
      "payable": false,
      "stateMutability": "nonpayable",
      "type": "function"
    }
  ],
  "bytecode": "0x608060405234801561001057600080fd5b506105a0806100206000396000f3fe608060405234801561001057600080fd5b50600436106100365760003560e01c806310b326f01461003b5780638551a8c7146100ad575b600080fd5b6100936004803603606081101561005157600080fd5b81019080803573ffffffffffffffffffffffffffffffffffffffff16906020019092919080359060200190929190803515159060200190929190505050610155565b604051808215151515815260200191505060405180910390f35b6100d9600480360360208110156100c357600080fd5b8101908080359060200190929190505050610491565b604051808481526020018373ffffffffffffffffffffffffffffffffffffffff1673ffffffffffffffffffffffffffffffffffffffff1681526020018273ffffffffffffffffffffffffffffffffffffffff1673ffffffffffffffffffffffffffffffffffffffff168152602001935050505060405180910390f35b6000833373ffffffffffffffffffffffffffffffffffffffff168173ffffffffffffffffffffffffffffffffffffffff1614156101dd576040517f08c379a00000000000000000000000000000000000000000000000000000000081526004018080602001828103825260238152602001806105496023913960400191505060405180910390fd5b8380600080838152602001908152602001600020600001541415610269576040517f08c379a00000000000000000000000000000000000000000000000000000000081526004018080602001828103825260188152602001807f6964206769616f2064696368206c6120647579206e686174000000000000000081525060200191505060405180910390fd5b8360011515811515146102e4576040517f08c379a000000000000000000000000000000000000000000000000000000000815260040180806020018281038252601d8152602001807f4769616f206469636820636875612064756f6320786163206e68616e2e00000081525060200191505060405180910390fd5b6102ec6104fb565b60405180606001604052808881526020018973ffffffffffffffffffffffffffffffffffffffff1681526020013373ffffffffffffffffffffffffffffffffffffffff168152509050806000808981526020019081526020016000206000820151816000015560208201518160010160006101000a81548173ffffffffffffffffffffffffffffffffffffffff021916908373ffffffffffffffffffffffffffffffffffffffff16021790555060408201518160020160006101000a81548173ffffffffffffffffffffffffffffffffffffffff021916908373ffffffffffffffffffffffffffffffffffffffff1602179055509050507faa90803b5e9f36f1fd6c643347950b26222f511c239b2b3f5034e39585556b50338989604051808473ffffffffffffffffffffffffffffffffffffffff1673ffffffffffffffffffffffffffffffffffffffff1681526020018373ffffffffffffffffffffffffffffffffffffffff1673ffffffffffffffffffffffffffffffffffffffff168152602001828152602001935050505060405180910390a160019450505050509392505050565b60006020528060005260406000206000915090508060000154908060010160009054906101000a900473ffffffffffffffffffffffffffffffffffffffff16908060020160009054906101000a900473ffffffffffffffffffffffffffffffffffffffff16905083565b604051806060016040528060008152602001600073ffffffffffffffffffffffffffffffffffffffff168152602001600073ffffffffffffffffffffffffffffffffffffffff168152509056fe4944207468756f6e67206c61692070686169206b686163206964206e6f6e672064616ea265627a7a723158205fc360c344561c43dc8382a0bcc90538f3948d23f8e5ffb198a75ce35ecc274764736f6c63430005100032",
  "source": "// SPDX-License-Identifier: MIT\npragma solidity >=0.5.16 <0.9.0;\n\ncontract GiaoDichMuaBan_Lua {\n    \n    //-------------data--------------//\n    struct GiaoDich {\n        uint id_giaodichmuaban_lua;\n        address thuonglai;\n        address nongdan;\n    }\n\n    mapping(uint => GiaoDich) public ListGiaoDich;\n\n\n    //---------------event------------//\n    event giaoDichEvent(\n        address nongdang, \n        address thuonglai, \n        uint id_giaodichmuaban_lua\n    );\n\n\n    //--------modifier function-------//\n    modifier checkThuongLai(address thuonglai) {\n        require(\n            thuonglai != msg.sender, \n            \"ID thuong lai phai khac id nong dan\"\n        );\n\n        _;\n    }\n\n    modifier checkIdGiaoDichMuaBanLua(uint id_giaodichmuaban_lua) {\n        require(\n            ListGiaoDich[id_giaodichmuaban_lua]\n            .id_giaodichmuaban_lua != id_giaodichmuaban_lua, \n            \"id giao dich la duy nhat\");\n\n        _;\n    }\n\n    modifier kiemtraXacNhan(bool xacnhan) {\n        require(xacnhan == true, \"Giao dich chua duoc xac nhan.\");\n\n        _;\n    }\n\n    //-------handle function--------//\n\n    function themGiaoDich(\n        address thuonglai, \n        uint id_giaodichmuaban_lua,\n        bool xacnhan\n    ) public \n    checkThuongLai(thuonglai) \n    checkIdGiaoDichMuaBanLua(id_giaodichmuaban_lua) \n    kiemtraXacNhan(xacnhan)\n    returns (bool) {\n\n        GiaoDich memory giaoDich;\n        giaoDich = GiaoDich(\n            id_giaodichmuaban_lua,\n            thuonglai,\n            msg.sender\n        );\n\n        ListGiaoDich[id_giaodichmuaban_lua] = giaoDich;\n\n        emit giaoDichEvent(\n            msg.sender, \n            thuonglai, \n            id_giaodichmuaban_lua\n        );\n        \n        return true;\n    }\n}",
  "sourcePath": "/Users/trongnhan/Dev/supply-chain-for-agriculture/blockchain/contracts/giaodichmuaban_lua.sol",
  "compiler": {
    "name": "solc",
    "version": "0.5.16+commit.9c3226ce.Emscripten.clang"
  },
  "schemaVersion": "3.4.7",
  "updatedAt": "2022-06-17T12:58:56.430Z",
  "networkType": "ethereum",
  "devdoc": {
    "methods": {}
  },
  "userdoc": {
    "methods": {}
  }
}