{
  "contractName": "GiaoDichMuaBanLua",
  "abi": [
    {
      "anonymous": false,
      "inputs": [
        {
          "indexed": false,
          "internalType": "uint256",
          "name": "id_XaVien",
          "type": "uint256"
        },
        {
          "indexed": false,
          "internalType": "uint256",
          "name": "id_ThuongLai",
          "type": "uint256"
        },
        {
          "indexed": false,
          "internalType": "uint256",
          "name": "id_GiaoDich",
          "type": "uint256"
        },
        {
          "indexed": false,
          "internalType": "uint256",
          "name": "id_LoHangLua",
          "type": "uint256"
        },
        {
          "indexed": false,
          "internalType": "uint256",
          "name": "GiaLoHang",
          "type": "uint256"
        },
        {
          "indexed": false,
          "internalType": "uint256",
          "name": "ThoiGianGiaoDich",
          "type": "uint256"
        }
      ],
      "name": "SuKienGiaoDich",
      "type": "event"
    },
    {
      "inputs": [
        {
          "internalType": "uint256",
          "name": "",
          "type": "uint256"
        }
      ],
      "name": "DanhSachGiaoDich",
      "outputs": [
        {
          "internalType": "uint256",
          "name": "id_XaVien",
          "type": "uint256"
        },
        {
          "internalType": "uint256",
          "name": "id_ThuongLai",
          "type": "uint256"
        },
        {
          "internalType": "uint256",
          "name": "id_GiaoDich",
          "type": "uint256"
        },
        {
          "internalType": "uint256",
          "name": "id_LoHangLua",
          "type": "uint256"
        },
        {
          "internalType": "uint256",
          "name": "GiaLoHang",
          "type": "uint256"
        },
        {
          "internalType": "uint256",
          "name": "ThoiGianGiaoDich",
          "type": "uint256"
        }
      ],
      "stateMutability": "view",
      "type": "function",
      "constant": true
    },
    {
      "inputs": [
        {
          "internalType": "uint256",
          "name": "",
          "type": "uint256"
        }
      ],
      "name": "DanhSachIdGiaoDich",
      "outputs": [
        {
          "internalType": "uint256",
          "name": "",
          "type": "uint256"
        }
      ],
      "stateMutability": "view",
      "type": "function",
      "constant": true
    },
    {
      "inputs": [],
      "name": "maxLength",
      "outputs": [
        {
          "internalType": "uint256",
          "name": "",
          "type": "uint256"
        }
      ],
      "stateMutability": "view",
      "type": "function",
      "constant": true
    },
    {
      "inputs": [
        {
          "internalType": "uint256[]",
          "name": "intProperties",
          "type": "uint256[]"
        },
        {
          "internalType": "bool[]",
          "name": "boolProperties",
          "type": "bool[]"
        },
        {
          "internalType": "address[]",
          "name": "addressProperties",
          "type": "address[]"
        }
      ],
      "name": "ThemGiaoDich",
      "outputs": [
        {
          "internalType": "bool",
          "name": "",
          "type": "bool"
        }
      ],
      "stateMutability": "nonpayable",
      "type": "function"
    },
    {
      "inputs": [
        {
          "internalType": "uint256",
          "name": "id_GiaoDich",
          "type": "uint256"
        }
      ],
      "name": "LayThongTinGiaoDich",
      "outputs": [
        {
          "components": [
            {
              "internalType": "uint256",
              "name": "id_XaVien",
              "type": "uint256"
            },
            {
              "internalType": "uint256",
              "name": "id_ThuongLai",
              "type": "uint256"
            },
            {
              "internalType": "uint256",
              "name": "id_GiaoDich",
              "type": "uint256"
            },
            {
              "internalType": "uint256",
              "name": "id_LoHangLua",
              "type": "uint256"
            },
            {
              "internalType": "uint256",
              "name": "GiaLoHang",
              "type": "uint256"
            },
            {
              "internalType": "uint256",
              "name": "ThoiGianGiaoDich",
              "type": "uint256"
            }
          ],
          "internalType": "struct GiaoDichMuaBanLua.GiaoDichMuaBanLua_Struct",
          "name": "",
          "type": "tuple"
        }
      ],
      "stateMutability": "view",
      "type": "function",
      "constant": true
    }
  ],
  "bytecode": "0x6080604052600060025534801561001557600080fd5b50611353806100256000396000f3fe608060405234801561001057600080fd5b50600436106100575760003560e01c806311ab09b21461005c5780632d914b7e1461008c5780633f283d07146100bc5780637faea675146100f1578063d06a89a414610121575b600080fd5b610076600480360381019061007191906107f4565b61013f565b60405161008391906108ab565b60405180910390f35b6100a660048036038101906100a191906107f4565b6101a7565b6040516100b391906108d5565b60405180910390f35b6100d660048036038101906100d191906107f4565b6101bf565b6040516100e8969594939291906108f0565b60405180910390f35b61010b60048036038101906101069190610cc6565b6101fb565b6040516101189190610d7c565b60405180910390f35b61012961056d565b60405161013691906108d5565b60405180910390f35b610147610774565b6000808381526020019081526020016000206040518060c001604052908160008201548152602001600182015481526020016002820154815260200160038201548152602001600482015481526020016005820154815250509050919050565b60016020528060005260406000206000915090505481565b60006020528060005260406000206000915090508060000154908060010154908060020154908060030154908060040154908060050154905086565b60008360008151811061021157610210610d97565b5b60200260200101518460018151811061022d5761022c610d97565b5b6020026020010151808203610277576040517f08c379a000000000000000000000000000000000000000000000000000000000815260040161026e90610e49565b60405180910390fd5b8560028151811061028b5761028a610d97565b5b6020026020010151600080600083815260200190815260200160002060020154146102eb576040517f08c379a00000000000000000000000000000000000000000000000000000000081526004016102e290610eb5565b60405180910390fd5b8580600081518110610300576102ff610d97565b5b6020026020010151801561032c57508060018151811061032357610322610d97565b5b60200260200101515b801561035057508060028151811061034757610346610d97565b5b60200260200101515b61038f576040517f08c379a000000000000000000000000000000000000000000000000000000000815260040161038690610f21565b60405180910390fd5b876003815181106103a3576103a2610d97565b5b6020026020010151866000815181106103bf576103be610d97565b5b60200260200101516000819050828173ffffffffffffffffffffffffffffffffffffffff1663d5c07c70856040518263ffffffff1660e01b815260040161040691906108d5565b600060405180830381865afa158015610423573d6000803e3d6000fd5b505050506040513d6000823e3d601f19601f8201168201806040525081019061044c9190611109565b6020015114610490576040517f08c379a00000000000000000000000000000000000000000000000000000000081526004016104879061119e565b60405180910390fd5b8a6003815181106104a4576104a3610d97565b5b6020026020010151600080600190505b60025482101561050b576000600160008481526020019081526020016000205490508360008083815260200190815260200160002060030154036104f757600091505b508180610503906111ed565b9250506104b4565b8061054b576040517f08c379a0000000000000000000000000000000000000000000000000000000008152600401610542906112a7565b60405180910390fd5b60006105568f610573565b9050809b5050505050505050505050509392505050565b60025481565b600061057d610774565b60008360008151811061059357610592610d97565b5b602002602001015190506000846001815181106105b3576105b2610d97565b5b602002602001015190506000856002815181106105d3576105d2610d97565b5b602002602001015190506000866003815181106105f3576105f2610d97565b5b6020026020010151905060008760048151811061061357610612610d97565b5b6020026020010151905060008860058151811061063357610632610d97565b5b602002602001015190506040518060c00160405280878152602001868152602001858152602001848152602001838152602001828152509650866000808b60028151811061068457610683610d97565b5b60200260200101518152602001908152602001600020600082015181600001556020820151816001015560408201518160020155606082015181600301556080820151816004015560a08201518160050155905050886002815181106106ed576106ec610d97565b5b602002602001015160016000600254815260200190815260200160002081905550600160025461071d91906112c7565b6002819055507f1c0098f777de6aa81dde66740fb1b27742a11d75f966d585c8f941d5f4e3673486868686868660405161075c969594939291906108f0565b60405180910390a16001975050505050505050919050565b6040518060c001604052806000815260200160008152602001600081526020016000815260200160008152602001600081525090565b6000604051905090565b600080fd5b600080fd5b6000819050919050565b6107d1816107be565b81146107dc57600080fd5b50565b6000813590506107ee816107c8565b92915050565b60006020828403121561080a576108096107b4565b5b6000610818848285016107df565b91505092915050565b61082a816107be565b82525050565b60c0820160008201516108466000850182610821565b5060208201516108596020850182610821565b50604082015161086c6040850182610821565b50606082015161087f6060850182610821565b5060808201516108926080850182610821565b5060a08201516108a560a0850182610821565b50505050565b600060c0820190506108c06000830184610830565b92915050565b6108cf816107be565b82525050565b60006020820190506108ea60008301846108c6565b92915050565b600060c08201905061090560008301896108c6565b61091260208301886108c6565b61091f60408301876108c6565b61092c60608301866108c6565b61093960808301856108c6565b61094660a08301846108c6565b979650505050505050565b600080fd5b6000601f19601f8301169050919050565b7f4e487b7100000000000000000000000000000000000000000000000000000000600052604160045260246000fd5b61099f82610956565b810181811067ffffffffffffffff821117156109be576109bd610967565b5b80604052505050565b60006109d16107aa565b90506109dd8282610996565b919050565b600067ffffffffffffffff8211156109fd576109fc610967565b5b602082029050602081019050919050565b600080fd5b6000610a26610a21846109e2565b6109c7565b90508083825260208201905060208402830185811115610a4957610a48610a0e565b5b835b81811015610a725780610a5e88826107df565b845260208401935050602081019050610a4b565b5050509392505050565b600082601f830112610a9157610a90610951565b5b8135610aa1848260208601610a13565b91505092915050565b600067ffffffffffffffff821115610ac557610ac4610967565b5b602082029050602081019050919050565b60008115159050919050565b610aeb81610ad6565b8114610af657600080fd5b50565b600081359050610b0881610ae2565b92915050565b6000610b21610b1c84610aaa565b6109c7565b90508083825260208201905060208402830185811115610b4457610b43610a0e565b5b835b81811015610b6d5780610b598882610af9565b845260208401935050602081019050610b46565b5050509392505050565b600082601f830112610b8c57610b8b610951565b5b8135610b9c848260208601610b0e565b91505092915050565b600067ffffffffffffffff821115610bc057610bbf610967565b5b602082029050602081019050919050565b600073ffffffffffffffffffffffffffffffffffffffff82169050919050565b6000610bfc82610bd1565b9050919050565b610c0c81610bf1565b8114610c1757600080fd5b50565b600081359050610c2981610c03565b92915050565b6000610c42610c3d84610ba5565b6109c7565b90508083825260208201905060208402830185811115610c6557610c64610a0e565b5b835b81811015610c8e5780610c7a8882610c1a565b845260208401935050602081019050610c67565b5050509392505050565b600082601f830112610cad57610cac610951565b5b8135610cbd848260208601610c2f565b91505092915050565b600080600060608486031215610cdf57610cde6107b4565b5b600084013567ffffffffffffffff811115610cfd57610cfc6107b9565b5b610d0986828701610a7c565b935050602084013567ffffffffffffffff811115610d2a57610d296107b9565b5b610d3686828701610b77565b925050604084013567ffffffffffffffff811115610d5757610d566107b9565b5b610d6386828701610c98565b9150509250925092565b610d7681610ad6565b82525050565b6000602082019050610d916000830184610d6d565b92915050565b7f4e487b7100000000000000000000000000000000000000000000000000000000600052603260045260246000fd5b600082825260208201905092915050565b7f4944207861207669656e2070686169206b686163204944207468756f6e67206c60008201527f6169000000000000000000000000000000000000000000000000000000000000602082015250565b6000610e33602283610dc6565b9150610e3e82610dd7565b604082019050919050565b60006020820190508181036000830152610e6281610e26565b9050919050565b7f4944206769616f206469636820646120746f6e20746169000000000000000000600082015250565b6000610e9f601783610dc6565b9150610eaa82610e69565b602082019050919050565b60006020820190508181036000830152610ece81610e92565b9050919050565b7f4769616f2064696368206368756120646f6e6720746875616e00000000000000600082015250565b6000610f0b601983610dc6565b9150610f1682610ed5565b602082019050919050565b60006020820190508181036000830152610f3a81610efe565b9050919050565b600080fd5b600080fd5b600081519050610f5a816107c8565b92915050565b600080fd5b600067ffffffffffffffff821115610f8057610f7f610967565b5b610f8982610956565b9050602081019050919050565b60005b83811015610fb4578082015181840152602081019050610f99565b83811115610fc3576000848401525b50505050565b6000610fdc610fd784610f65565b6109c7565b905082815260208101848484011115610ff857610ff7610f60565b5b611003848285610f96565b509392505050565b600082601f8301126110205761101f610951565b5b8151611030848260208601610fc9565b91505092915050565b600060e0828403121561104f5761104e610f41565b5b61105960e06109c7565b9050600061106984828501610f4b565b600083015250602061107d84828501610f4b565b602083015250604061109184828501610f4b565b60408301525060606110a584828501610f4b565b60608301525060806110b984828501610f4b565b60808301525060a06110cd84828501610f4b565b60a08301525060c082015167ffffffffffffffff8111156110f1576110f0610f46565b5b6110fd8482850161100b565b60c08301525092915050565b60006020828403121561111f5761111e6107b4565b5b600082015167ffffffffffffffff81111561113d5761113c6107b9565b5b61114984828501611039565b91505092915050565b7f4c6f2068616e6720766174207475206368756120746f6e207461690000000000600082015250565b6000611188601b83610dc6565b915061119382611152565b602082019050919050565b600060208201905081810360008301526111b78161117b565b9050919050565b7f4e487b7100000000000000000000000000000000000000000000000000000000600052601160045260246000fd5b60006111f8826107be565b91507fffffffffffffffffffffffffffffffffffffffffffffffffffffffffffffffff820361122a576112296111be565b5b600182019050919050565b7f4c6f2068616e6720766174207475206e61792064612064756f63206769616f2060008201527f6469636800000000000000000000000000000000000000000000000000000000602082015250565b6000611291602483610dc6565b915061129c82611235565b604082019050919050565b600060208201905081810360008301526112c081611284565b9050919050565b60006112d2826107be565b91506112dd836107be565b9250827fffffffffffffffffffffffffffffffffffffffffffffffffffffffffffffffff03821115611312576113116111be565b5b82820190509291505056fea26469706673582212206d583e3a22bdc07cd6a4c33d6b088a949995151ca94a3c6236cade116638e71564736f6c634300080d0033",
  "immutableReferences": {},
  "source": "// SPDX-License-Identifier: MIT\npragma solidity >=0.5.16 <0.9.0;\n\nimport \"./LoHangLua.sol\";\n\ncontract GiaoDichMuaBanLua {\n    //--------data-------//\n    struct GiaoDichMuaBanLua_Struct {\n        uint    id_XaVien;\n        uint    id_ThuongLai;\n        uint    id_GiaoDich;\n        uint    id_LoHangLua;\n        uint    GiaLoHang;\n        uint    ThoiGianGiaoDich;\n    }\n\n    mapping ( uint => GiaoDichMuaBanLua_Struct ) public DanhSachGiaoDich;\n\n    mapping ( uint => uint ) public DanhSachIdGiaoDich;\n\n    uint public maxLength = 0;\n\n    //-------event-------//\n\n    event SuKienGiaoDich (\n        uint    id_XaVien,\n        uint    id_ThuongLai,\n        uint    id_GiaoDich,\n        uint    id_LoHangLua,\n        uint    GiaLoHang,\n        uint    ThoiGianGiaoDich\n    );\n\n     //------modifier-----//\n    modifier KiemTraIdCacBenLienQuan (\n        uint id_XaVien,\n        uint id_ThuongLai\n    ) {\n        require( \n            id_XaVien != id_ThuongLai,\n            \"ID xa vien phai khac ID thuong lai\"\n        );\n\n        _;\n    }\n\n    modifier KiemTraXacNhan ( bool[] memory boolProperties ) {\n        require(\n            boolProperties[0] && boolProperties[1] && boolProperties[2],\n            \"Giao dich chua dong thuan\"\n        );\n\n        _;\n    }\n\n    modifier KiemTraGiaoDich ( uint id_GiaoDich ) {\n        require( \n            DanhSachGiaoDich[ id_GiaoDich ].id_GiaoDich == 0,\n            \"ID giao dich da ton tai\"\n        );\n        \n        _;\n    }\n\n    modifier KiemTraLoHangDaTonTai( uint id_LoHangLua, address addr ) {\n        LoHangLua _loHangLua = LoHangLua(addr);\n\n        require(\n            _loHangLua.LayThongTinLoHangLua( id_LoHangLua ).id_LoHangLua == id_LoHangLua,\n            \"Lo hang vat tu chua ton tai\"\n        );\n\n        _;\n    }\n\n    modifier KiemTraLoHangDaGiaoDich( uint id_LoHangLua ) {\n        uint index = 0;\n        bool kiemTraLoHangLua = true;\n\n        for ( index; index < maxLength; index ++ ) {\n            uint id_GiaoDichTemp = DanhSachIdGiaoDich[ index ];\n\n            if ( DanhSachGiaoDich[ id_GiaoDichTemp ].id_LoHangLua == id_LoHangLua ) {\n                kiemTraLoHangLua = false;\n            }\n        }\n\n        require(\n            kiemTraLoHangLua,\n            \"Lo hang vat tu nay da duoc giao dich\"\n        );\n\n        _;\n    }\n   \n\n    //-------handle------//\n    /*\n    intProperties [\n        0: uint id_XaVien;\n        1: uint id_ThuongLai;\n        2: uint id_GiaoDich;\n        3: uint id_LoHangLua;\n        4: uint GiaLoHang;\n        5: uint ThoiGianGiaoDich;\n    ]\n\n    stringProperties [\n        0: string  TenGiongLua\n    ]\n    */\n    function ThemGiaoDich (\n        uint[]      memory intProperties,\n        bool[]      memory boolProperties,\n        address[]   memory addressProperties\n    )\n    KiemTraIdCacBenLienQuan( intProperties[0], intProperties[1] )\n    KiemTraGiaoDich( intProperties[2] )\n    KiemTraXacNhan( boolProperties )\n    KiemTraLoHangDaTonTai( intProperties[3],  addressProperties[0])\n    KiemTraLoHangDaGiaoDich(intProperties[3])\n    public\n    returns (bool) \n    {\n\n        bool result = LuuThongTinGiaoDich( intProperties );\n        \n        return result;\n    } \n\n    function LayThongTinGiaoDich (\n        uint id_GiaoDich\n    )\n    external view\n    returns ( GiaoDichMuaBanLua_Struct memory ) {\n        return DanhSachGiaoDich[ id_GiaoDich ];\n    } \n\n    function LuuThongTinGiaoDich (\n        uint[] memory intProperties\n    ) \n    internal \n    returns (bool)\n    {\n\n        GiaoDichMuaBanLua_Struct memory GiaoDichMuaBanVatTuMemory;\n\n        uint id_XaVien         =  intProperties[0];\n        uint id_ThuongLai      =  intProperties[1];\n        uint id_GiaoDich       =  intProperties[2];\n        uint id_LoHangLua      =  intProperties[3];\n        uint GiaLoHang         =  intProperties[4];\n        uint ThoiGianGiaoDich  =  intProperties[5];\n        \n\n        GiaoDichMuaBanVatTuMemory = GiaoDichMuaBanLua_Struct (\n            id_XaVien,\n            id_ThuongLai,\n            id_GiaoDich,\n            id_LoHangLua,\n            GiaLoHang,\n            ThoiGianGiaoDich\n        );\n\n        DanhSachGiaoDich[ intProperties[2] ] = GiaoDichMuaBanVatTuMemory;\n\n        DanhSachIdGiaoDich[ maxLength ] = intProperties[2];\n        maxLength = maxLength + 1;\n\n        emit SuKienGiaoDich (\n            id_XaVien,\n            id_ThuongLai,\n            id_GiaoDich,\n            id_LoHangLua,\n            GiaLoHang,\n            ThoiGianGiaoDich\n        );\n\n        return true;\n    }  \n}",
  "sourcePath": "/home/dpkhang/Personal/Studying/projects/supply-chain-for-agriculture/blockchain/contracts/GiaoDichMuaBanLua.sol",
  "compiler": {
    "name": "solc",
    "version": "0.8.13+commit.abaa5c0e.Emscripten.clang"
  },
  "schemaVersion": "3.4.7",
  "updatedAt": "2022-07-11T15:57:39.438Z",
  "networkType": "ethereum",
  "devdoc": {
    "kind": "dev",
    "methods": {},
    "version": 1
  },
  "userdoc": {
    "kind": "user",
    "methods": {},
    "version": 1
  }
}