{
  "contractName": "GiaoDichMuaBanVatTu",
  "abi": [
    {
      "anonymous": false,
      "inputs": [
        {
          "indexed": false,
          "internalType": "uint256",
          "name": "id_XaVien",
          "type": "uint256"
        },
        {
          "indexed": false,
          "internalType": "uint256",
          "name": "id_NhaCungCap",
          "type": "uint256"
        },
        {
          "indexed": false,
          "internalType": "uint256",
          "name": "id_LoHangVatTu",
          "type": "uint256"
        },
        {
          "indexed": false,
          "internalType": "uint256",
          "name": "id_GiaoDich",
          "type": "uint256"
        }
      ],
      "name": "SuKienGiaoDich",
      "type": "event"
    },
    {
      "inputs": [
        {
          "internalType": "uint256",
          "name": "",
          "type": "uint256"
        }
      ],
      "name": "DanhSachGiaoDich",
      "outputs": [
        {
          "internalType": "uint256",
          "name": "id_XaVien",
          "type": "uint256"
        },
        {
          "internalType": "uint256",
          "name": "id_NhaCungCap",
          "type": "uint256"
        },
        {
          "internalType": "uint256",
          "name": "id_LoHangVatTu",
          "type": "uint256"
        },
        {
          "internalType": "uint256",
          "name": "id_GiaoDich",
          "type": "uint256"
        }
      ],
      "stateMutability": "view",
      "type": "function",
      "constant": true
    },
    {
      "inputs": [],
      "name": "maxLength",
      "outputs": [
        {
          "internalType": "uint256",
          "name": "",
          "type": "uint256"
        }
      ],
      "stateMutability": "view",
      "type": "function",
      "constant": true
    },
    {
      "inputs": [
        {
          "internalType": "uint256",
          "name": "id_XaVien",
          "type": "uint256"
        },
        {
          "internalType": "uint256",
          "name": "id_NhaCungCap",
          "type": "uint256"
        },
        {
          "internalType": "uint256",
          "name": "id_LoHangVatTu",
          "type": "uint256"
        },
        {
          "internalType": "uint256",
          "name": "id_GiaoDich",
          "type": "uint256"
        },
        {
          "internalType": "bool",
          "name": "XacNhanChung",
          "type": "bool"
        }
      ],
      "name": "ThemGiaoDich",
      "outputs": [
        {
          "internalType": "bool",
          "name": "",
          "type": "bool"
        }
      ],
      "stateMutability": "nonpayable",
      "type": "function"
    }
  ],
  "bytecode": "0x6080604052600060015534801561001557600080fd5b50610a02806100256000396000f3fe608060405234801561001057600080fd5b50600436106100415760003560e01c80633f283d0714610046578063ad7fb65414610079578063d06a89a4146100a9575b600080fd5b610060600480360381019061005b919061040f565b6100c7565b604051610070949392919061044b565b60405180910390f35b610093600480360381019061008e91906104c8565b6100f7565b6040516100a09190610552565b60405180910390f35b6100b16103a6565b6040516100be919061056d565b60405180910390f35b60006020528060005260406000206000915090508060000154908060010154908060020154908060030154905084565b6000858580820361013d576040517f08c379a00000000000000000000000000000000000000000000000000000000081526004016101349061060b565b60405180910390fd5b8585600080600190506000600190505b6001548310156101ac5783600080858152602001908152602001600020600301540361017857600090505b84600080858152602001908152602001600020600201540361019957600091505b82806101a49061065a565b93505061014d565b80806101b55750815b6040516020016101c490610791565b60405160208183030381529060405290610214576040517f08c379a000000000000000000000000000000000000000000000000000000000815260040161020b9190610839565b60405180910390fd5b5080610255576040517f08c379a000000000000000000000000000000000000000000000000000000000815260040161024c906108a7565b60405180910390fd5b81610295576040517f08c379a000000000000000000000000000000000000000000000000000000000815260040161028c906108ea565b60405180910390fd5b886102d5576040517f08c379a00000000000000000000000000000000000000000000000000000000081526004016102cc90610956565b60405180910390fd5b6102dd6103ac565b60405180608001604052808f81526020018e81526020018d81526020018c8152509050806000806001548152602001908152602001600020600082015181600001556020820151816001015560408201518160020155606082015181600301559050506001805461034e9190610976565b6001819055507ff3b4e8031f7f1f4334dc93fff660ca58881b57817f7f8c34838ea8e4d22e70268e8e8e8e604051610389949392919061044b565b60405180910390a160019850505050505050505095945050505050565b60015481565b6040518060800160405280600081526020016000815260200160008152602001600081525090565b600080fd5b6000819050919050565b6103ec816103d9565b81146103f757600080fd5b50565b600081359050610409816103e3565b92915050565b600060208284031215610425576104246103d4565b5b6000610433848285016103fa565b91505092915050565b610445816103d9565b82525050565b6000608082019050610460600083018761043c565b61046d602083018661043c565b61047a604083018561043c565b610487606083018461043c565b95945050505050565b60008115159050919050565b6104a581610490565b81146104b057600080fd5b50565b6000813590506104c28161049c565b92915050565b600080600080600060a086880312156104e4576104e36103d4565b5b60006104f2888289016103fa565b9550506020610503888289016103fa565b9450506040610514888289016103fa565b9350506060610525888289016103fa565b9250506080610536888289016104b3565b9150509295509295909350565b61054c81610490565b82525050565b60006020820190506105676000830184610543565b92915050565b6000602082019050610582600083018461043c565b92915050565b600082825260208201905092915050565b7f4944207861207669656e2070686169206b686163204944207468756f6e67206c60008201527f6169000000000000000000000000000000000000000000000000000000000000602082015250565b60006105f5602283610588565b915061060082610599565b604082019050919050565b60006020820190508181036000830152610624816105e8565b9050919050565b7f4e487b7100000000000000000000000000000000000000000000000000000000600052601160045260246000fd5b6000610665826103d9565b91507fffffffffffffffffffffffffffffffffffffffffffffffffffffffffffffffff82036106975761069661062b565b5b600182019050919050565b600081905092915050565b7f4944206c6f206769616f20646963682070686169206c6120647579206e68617460008201527f2000000000000000000000000000000000000000000000000000000000000000602082015250565b60006107096021836106a2565b9150610714826106ad565b602182019050919050565b7f4944206c6f2068616e67207661742074752070686169206c6120647579206e6860008201527f6174000000000000000000000000000000000000000000000000000000000000602082015250565b600061077b6022836106a2565b91506107868261071f565b602282019050919050565b600061079c826106fc565b91506107a78261076e565b9150819050919050565b600081519050919050565b60005b838110156107da5780820151818401526020810190506107bf565b838111156107e9576000848401525b50505050565b6000601f19601f8301169050919050565b600061080b826107b1565b6108158185610588565b93506108258185602086016107bc565b61082e816107ef565b840191505092915050565b600060208201905081810360008301526108538184610800565b905092915050565b7f4944206c6f206769616f20646963682070686169206c6120647579206e686174600082015250565b6000610891602083610588565b915061089c8261085b565b602082019050919050565b600060208201905081810360008301526108c081610884565b9050919050565b60006108d4602283610588565b91506108df8261071f565b604082019050919050565b60006020820190508181036000830152610903816108c7565b9050919050565b7f4769616f206469636820636875612064756f6320646f6e6720746875616e0000600082015250565b6000610940601e83610588565b915061094b8261090a565b602082019050919050565b6000602082019050818103600083015261096f81610933565b9050919050565b6000610981826103d9565b915061098c836103d9565b9250827fffffffffffffffffffffffffffffffffffffffffffffffffffffffffffffffff038211156109c1576109c061062b565b5b82820190509291505056fea2646970667358221220c60998fd66bcc7d4798fafdb22564606e7452d33587f6f9b36888a1215634c6b64736f6c634300080d0033",
  "immutableReferences": {},
  "source": "// SPDX-License-Identifier: MIT\npragma solidity >=0.5.16 <0.9.0;\n\ncontract GiaoDichMuaBanVatTu {\n    //--------data-------//\n    struct GiaoDichMuaBanVatTu_Struct {\n        uint id_XaVien;\n        uint id_NhaCungCap;  \n        uint id_LoHangVatTu;\n        uint id_GiaoDich;\n    }\n\n    mapping ( uint => GiaoDichMuaBanVatTu_Struct ) \n    public DanhSachGiaoDich;\n\n    uint public maxLength = 0;\n\n    //-------event-------//\n    event SuKienGiaoDich (\n        uint id_XaVien,\n        uint id_NhaCungCap,\n        uint id_LoHangVatTu,\n        uint id_GiaoDich\n    );\n\n    //------modifier-----//\n    modifier KiemTraIdCacBenLienQuan (\n        uint id_XaVien,\n        uint id_NhaCungCap\n    ) {\n        require( \n            id_XaVien != id_NhaCungCap,\n            \"ID xa vien phai khac ID thuong lai\"\n        );\n\n        _;\n    }\n\n    modifier KiemTraXacNhan( bool XacNhanChung ) {\n        require (\n            XacNhanChung, \n            \"Giao dich chua duoc dong thuan\"\n        );\n\n        _;\n    }\n\n    modifier KiemTraLoHangVatTu ( uint id_LoHangVatTu, uint id_GiaoDich ) {\n        uint index              = 0;\n        bool checkIdLoHangVatTu = true;\n        bool checkIdGiaoDich    = true;\n\n        for ( index; index < maxLength; index ++ ) {\n            if ( DanhSachGiaoDich[ index ].id_GiaoDich == id_GiaoDich ) {\n                checkIdGiaoDich = false;\n            }\n\n            if ( DanhSachGiaoDich[ index ].id_LoHangVatTu == id_LoHangVatTu ) {\n                checkIdLoHangVatTu = false;\n            }\n        }\n\n        require(\n            checkIdGiaoDich || checkIdLoHangVatTu,\n            string.concat(\n                \"ID lo giao dich phai la duy nhat \",\n                \"ID lo hang vat tu phai la duy nhat\"\n            )\n        );\n\n        require (\n            checkIdGiaoDich,\n            \"ID lo giao dich phai la duy nhat\"\n        );\n\n        require (\n            checkIdLoHangVatTu,\n            \"ID lo hang vat tu phai la duy nhat\"\n        );\n\n        _;\n    }\n\n    //-------handle------//\n    function ThemGiaoDich (\n        uint id_XaVien,\n        uint id_NhaCungCap,\n        uint id_LoHangVatTu,\n        uint id_GiaoDich,\n        bool XacNhanChung\n    ) \n    public\n    KiemTraIdCacBenLienQuan( id_XaVien, id_NhaCungCap )\n    KiemTraLoHangVatTu( id_LoHangVatTu, id_GiaoDich )\n    returns (bool) \n    {\n        require (\n            XacNhanChung, \n            \"Giao dich chua duoc dong thuan\"\n        );\n\n        GiaoDichMuaBanVatTu_Struct memory GiaoDichMuaBanVatTuMemory;\n\n        GiaoDichMuaBanVatTuMemory = GiaoDichMuaBanVatTu_Struct (\n            id_XaVien,\n            id_NhaCungCap,\n            id_LoHangVatTu,\n            id_GiaoDich\n        );\n\n        DanhSachGiaoDich[maxLength] = GiaoDichMuaBanVatTuMemory;\n        maxLength = maxLength + 1;\n\n        emit SuKienGiaoDich(\n            id_XaVien,\n            id_NhaCungCap,\n            id_LoHangVatTu,\n            id_GiaoDich\n        );\n\n        return true;\n    }    \n}",
  "sourcePath": "/Users/trongnhan/Dev/supply-chain-for-agriculture/blockchain/contracts/GiaoDichMuaBanVatTu.sol",
  "compiler": {
    "name": "solc",
    "version": "0.8.13+commit.abaa5c0e.Emscripten.clang"
  },
  "schemaVersion": "3.4.7",
  "updatedAt": "2022-07-05T15:20:04.819Z",
  "networkType": "ethereum",
  "devdoc": {
    "kind": "dev",
    "methods": {},
    "version": 1
  },
  "userdoc": {
    "kind": "user",
    "methods": {},
    "version": 1
  }
}