{
  "contractName": "GiaoDichMuaBan_Lua",
  "abi": [
    {
      "inputs": [],
      "payable": false,
      "stateMutability": "nonpayable",
      "type": "constructor"
    },
    {
      "anonymous": false,
      "inputs": [
        {
          "indexed": false,
          "internalType": "address",
          "name": "thuonglai",
          "type": "address"
        },
        {
          "indexed": false,
          "internalType": "address",
          "name": "nongdan",
          "type": "address"
        },
        {
          "indexed": false,
          "internalType": "uint256",
          "name": "id_giaodich",
          "type": "uint256"
        }
      ],
      "name": "LuuGiaoDich",
      "type": "event"
    },
    {
      "constant": true,
      "inputs": [
        {
          "internalType": "address",
          "name": "",
          "type": "address"
        },
        {
          "internalType": "uint256",
          "name": "",
          "type": "uint256"
        }
      ],
      "name": "DanhSachGiaoDich",
      "outputs": [
        {
          "internalType": "uint256",
          "name": "id_giaodichmuaban_lua",
          "type": "uint256"
        },
        {
          "internalType": "address",
          "name": "nongdan",
          "type": "address"
        }
      ],
      "payable": false,
      "stateMutability": "view",
      "type": "function"
    },
    {
      "constant": false,
      "inputs": [
        {
          "internalType": "address",
          "name": "nongdan",
          "type": "address"
        },
        {
          "internalType": "uint256",
          "name": "id_giaodich",
          "type": "uint256"
        }
      ],
      "name": "themGiaoDich",
      "outputs": [
        {
          "internalType": "bool",
          "name": "",
          "type": "bool"
        }
      ],
      "payable": false,
      "stateMutability": "nonpayable",
      "type": "function"
    }
  ],
  "bytecode": "0x608060405234801561001057600080fd5b506000803373ffffffffffffffffffffffffffffffffffffffff1673ffffffffffffffffffffffffffffffffffffffff1681526020019081526020016000206040518060400160405280600181526020013373ffffffffffffffffffffffffffffffffffffffff16815250908060018154018082558091505090600182039060005260206000209060020201600090919290919091506000820151816000015560208201518160010160006101000a81548173ffffffffffffffffffffffffffffffffffffffff021916908373ffffffffffffffffffffffffffffffffffffffff160217905550505050610398806101096000396000f3fe608060405234801561001057600080fd5b50600436106100365760003560e01c8063530e3b481461003b578063706a7bd9146100a1575b600080fd5b6100876004803603604081101561005157600080fd5b81019080803573ffffffffffffffffffffffffffffffffffffffff16906020019092919080359060200190929190505050610136565b604051808215151515815260200191505060405180910390f35b6100ed600480360360408110156100b757600080fd5b81019080803573ffffffffffffffffffffffffffffffffffffffff169060200190929190803590602001909291905050506102d5565b604051808381526020018273ffffffffffffffffffffffffffffffffffffffff1673ffffffffffffffffffffffffffffffffffffffff1681526020019250505060405180910390f35b6000610140610333565b60405180604001604052808481526020018573ffffffffffffffffffffffffffffffffffffffff1681525090506000803373ffffffffffffffffffffffffffffffffffffffff1673ffffffffffffffffffffffffffffffffffffffff16815260200190815260200160002081908060018154018082558091505090600182039060005260206000209060020201600090919290919091506000820151816000015560208201518160010160006101000a81548173ffffffffffffffffffffffffffffffffffffffff021916908373ffffffffffffffffffffffffffffffffffffffff1602179055505050507fb5b5fc41e7940c01c3da2d0f4a16451a7185ef07c98cb02bc24538e1dd3b3e48338585604051808473ffffffffffffffffffffffffffffffffffffffff1673ffffffffffffffffffffffffffffffffffffffff1681526020018373ffffffffffffffffffffffffffffffffffffffff1673ffffffffffffffffffffffffffffffffffffffff168152602001828152602001935050505060405180910390a1600191505092915050565b600060205281600052604060002081815481106102ee57fe5b9060005260206000209060020201600091509150508060000154908060010160009054906101000a900473ffffffffffffffffffffffffffffffffffffffff16905082565b604051806040016040528060008152602001600073ffffffffffffffffffffffffffffffffffffffff168152509056fea265627a7a72315820a3aa9a3acf3e5a43483664b49e65c1b8594c44571df5420204a1b8728278d3e164736f6c63430005100032",
  "source": "// SPDX-License-Identifier: MIT\npragma solidity >=0.5.16 <0.9.0;\n\ncontract GiaoDichMuaBan_Lua {\n    \n    //-------------data--------------//\n    struct GiaoDich {\n        uint id_giaodichmuaban_lua;\n        address nongdan;\n    }\n\n    mapping (address => GiaoDich[]) public DanhSachGiaoDich;\n\n    constructor() public {\n        DanhSachGiaoDich[msg.sender].push(GiaoDich(1, msg.sender));\n    }\n\n    event LuuGiaoDich(address thuonglai, address nongdan, uint id_giaodich);\n\n    function themGiaoDich(address nongdan, uint id_giaodich) public returns (bool) {\n        GiaoDich memory giaodich;\n        giaodich = GiaoDich(\n            id_giaodich,\n            nongdan\n        );\n\n        DanhSachGiaoDich[msg.sender].push(giaodich);\n\n        emit LuuGiaoDich(msg.sender, nongdan, id_giaodich);\n\n        return true;\n    }\n}",
  "sourcePath": "/Users/trongnhan/Dev/supply-chain-for-agriculture/blockchain/contracts/giaodichmuaban_lua.sol",
  "compiler": {
    "name": "solc",
    "version": "0.5.16+commit.9c3226ce.Emscripten.clang"
  },
  "schemaVersion": "3.4.7",
  "updatedAt": "2022-06-15T12:42:16.546Z",
  "networkType": "ethereum",
  "devdoc": {
    "methods": {}
  },
  "userdoc": {
    "methods": {}
  }
}