{
  "contractName": "GiaoDichMuaBanVatTu",
  "abi": [
    {
      "anonymous": false,
      "inputs": [
        {
          "indexed": false,
          "internalType": "uint256",
          "name": "id_XaVien",
          "type": "uint256"
        },
        {
          "indexed": false,
          "internalType": "uint256",
          "name": "id_NhaCungCap",
          "type": "uint256"
        },
        {
          "indexed": false,
          "internalType": "uint256",
          "name": "id_LoHangVatTu",
          "type": "uint256"
        },
        {
          "indexed": false,
          "internalType": "uint256",
          "name": "id_GiaoDich",
          "type": "uint256"
        },
        {
          "indexed": false,
          "internalType": "string",
          "name": "ThongTinKhac",
          "type": "string"
        }
      ],
      "name": "SuKienGiaoDich",
      "type": "event"
    },
    {
      "inputs": [
        {
          "internalType": "uint256",
          "name": "",
          "type": "uint256"
        }
      ],
      "name": "DanhSachGiaoDich",
      "outputs": [
        {
          "internalType": "uint256",
          "name": "id_XaVien",
          "type": "uint256"
        },
        {
          "internalType": "uint256",
          "name": "id_NhaCungCap",
          "type": "uint256"
        },
        {
          "internalType": "uint256",
          "name": "id_LoHangVatTu",
          "type": "uint256"
        },
        {
          "internalType": "uint256",
          "name": "id_GiaoDich",
          "type": "uint256"
        },
        {
          "internalType": "string",
          "name": "ThongTinKhac",
          "type": "string"
        }
      ],
      "stateMutability": "view",
      "type": "function",
      "constant": true
    },
    {
      "inputs": [],
      "name": "maxLength",
      "outputs": [
        {
          "internalType": "uint256",
          "name": "",
          "type": "uint256"
        }
      ],
      "stateMutability": "view",
      "type": "function",
      "constant": true
    },
    {
      "inputs": [
        {
          "internalType": "uint256",
          "name": "id_XaVien",
          "type": "uint256"
        },
        {
          "internalType": "uint256",
          "name": "id_NhaCungCap",
          "type": "uint256"
        },
        {
          "internalType": "uint256",
          "name": "id_LoHangVatTu",
          "type": "uint256"
        },
        {
          "internalType": "uint256",
          "name": "id_GiaoDich",
          "type": "uint256"
        },
        {
          "internalType": "string",
          "name": "ThongTinKhac",
          "type": "string"
        }
      ],
      "name": "ThemGiaoDich",
      "outputs": [
        {
          "internalType": "bool",
          "name": "",
          "type": "bool"
        }
      ],
      "stateMutability": "nonpayable",
      "type": "function"
    }
  ],
  "bytecode": "0x6080604052600060015534801561001557600080fd5b50610c5d806100256000396000f3fe608060405234801561001057600080fd5b50600436106100415760003560e01c80633f283d0714610046578063aebc9d3f1461007a578063d06a89a4146100aa575b600080fd5b610060600480360381019061005b919061053c565b6100c8565b604051610071959493929190610611565b60405180910390f35b610094600480360381019061008f91906107a0565b610186565b6040516100a19190610852565b60405180910390f35b6100b261041a565b6040516100bf919061086d565b60405180910390f35b6000602052806000526040600020600091509050806000015490806001015490806002015490806003015490806004018054610103906108b7565b80601f016020809104026020016040519081016040528092919081815260200182805461012f906108b7565b801561017c5780601f106101515761010080835404028352916020019161017c565b820191906000526020600020905b81548152906001019060200180831161015f57829003601f168201915b5050505050905085565b600085858082036101cc576040517f08c379a00000000000000000000000000000000000000000000000000000000081526004016101c39061095a565b60405180910390fd5b8585600080600190506000600190505b60015483101561023b5783600080858152602001908152602001600020600301540361020757600090505b84600080858152602001908152602001600020600201540361022857600091505b8280610233906109a9565b9350506101dc565b80806102445750815b60405160200161025390610ae0565b604051602081830303815290604052906102a3576040517f08c379a000000000000000000000000000000000000000000000000000000000815260040161029a9190610b00565b60405180910390fd5b50806102e4576040517f08c379a00000000000000000000000000000000000000000000000000000000081526004016102db90610b6e565b60405180910390fd5b81610324576040517f08c379a000000000000000000000000000000000000000000000000000000000815260040161031b90610bb1565b60405180910390fd5b61032c610420565b6040518060a001604052808f81526020018e81526020018d81526020018c81526020018b81525090508060008060015481526020019081526020016000206000820151816000015560208201518160010155604082015181600201556060820151816003015560808201518160040190805190602001906103ae92919061044f565b50905050600180546103c09190610bd1565b6001819055507f076d66dec4e7f079421020c1cbf8c7a482ba97b5bf39620c8d001cd32c25235c8e8e8e8e8e6040516103fd959493929190610611565b60405180910390a160019850505050505050505095945050505050565b60015481565b6040518060a0016040528060008152602001600081526020016000815260200160008152602001606081525090565b82805461045b906108b7565b90600052602060002090601f01602090048101928261047d57600085556104c4565b82601f1061049657805160ff19168380011785556104c4565b828001600101855582156104c4579182015b828111156104c35782518255916020019190600101906104a8565b5b5090506104d191906104d5565b5090565b5b808211156104ee5760008160009055506001016104d6565b5090565b6000604051905090565b600080fd5b600080fd5b6000819050919050565b61051981610506565b811461052457600080fd5b50565b60008135905061053681610510565b92915050565b600060208284031215610552576105516104fc565b5b600061056084828501610527565b91505092915050565b61057281610506565b82525050565b600081519050919050565b600082825260208201905092915050565b60005b838110156105b2578082015181840152602081019050610597565b838111156105c1576000848401525b50505050565b6000601f19601f8301169050919050565b60006105e382610578565b6105ed8185610583565b93506105fd818560208601610594565b610606816105c7565b840191505092915050565b600060a0820190506106266000830188610569565b6106336020830187610569565b6106406040830186610569565b61064d6060830185610569565b818103608083015261065f81846105d8565b90509695505050505050565b600080fd5b600080fd5b7f4e487b7100000000000000000000000000000000000000000000000000000000600052604160045260246000fd5b6106ad826105c7565b810181811067ffffffffffffffff821117156106cc576106cb610675565b5b80604052505050565b60006106df6104f2565b90506106eb82826106a4565b919050565b600067ffffffffffffffff82111561070b5761070a610675565b5b610714826105c7565b9050602081019050919050565b82818337600083830152505050565b600061074361073e846106f0565b6106d5565b90508281526020810184848401111561075f5761075e610670565b5b61076a848285610721565b509392505050565b600082601f8301126107875761078661066b565b5b8135610797848260208601610730565b91505092915050565b600080600080600060a086880312156107bc576107bb6104fc565b5b60006107ca88828901610527565b95505060206107db88828901610527565b94505060406107ec88828901610527565b93505060606107fd88828901610527565b925050608086013567ffffffffffffffff81111561081e5761081d610501565b5b61082a88828901610772565b9150509295509295909350565b60008115159050919050565b61084c81610837565b82525050565b60006020820190506108676000830184610843565b92915050565b60006020820190506108826000830184610569565b92915050565b7f4e487b7100000000000000000000000000000000000000000000000000000000600052602260045260246000fd5b600060028204905060018216806108cf57607f821691505b6020821081036108e2576108e1610888565b5b50919050565b7f4944207861207669656e2070686169206b686163204944207468756f6e67206c60008201527f6169000000000000000000000000000000000000000000000000000000000000602082015250565b6000610944602283610583565b915061094f826108e8565b604082019050919050565b6000602082019050818103600083015261097381610937565b9050919050565b7f4e487b7100000000000000000000000000000000000000000000000000000000600052601160045260246000fd5b60006109b482610506565b91507fffffffffffffffffffffffffffffffffffffffffffffffffffffffffffffffff82036109e6576109e561097a565b5b600182019050919050565b600081905092915050565b7f4944206c6f206769616f20646963682070686169206c6120647579206e68617460008201527f2000000000000000000000000000000000000000000000000000000000000000602082015250565b6000610a586021836109f1565b9150610a63826109fc565b602182019050919050565b7f4944206c6f2068616e67207661742074752070686169206c6120647579206e6860008201527f6174000000000000000000000000000000000000000000000000000000000000602082015250565b6000610aca6022836109f1565b9150610ad582610a6e565b602282019050919050565b6000610aeb82610a4b565b9150610af682610abd565b9150819050919050565b60006020820190508181036000830152610b1a81846105d8565b905092915050565b7f4944206c6f206769616f20646963682070686169206c6120647579206e686174600082015250565b6000610b58602083610583565b9150610b6382610b22565b602082019050919050565b60006020820190508181036000830152610b8781610b4b565b9050919050565b6000610b9b602283610583565b9150610ba682610a6e565b604082019050919050565b60006020820190508181036000830152610bca81610b8e565b9050919050565b6000610bdc82610506565b9150610be783610506565b9250827fffffffffffffffffffffffffffffffffffffffffffffffffffffffffffffffff03821115610c1c57610c1b61097a565b5b82820190509291505056fea264697066735822122032d6ae086157c1e9779b36a43331fa5aa1816007bfee8b11b83d1e346519edae64736f6c634300080d0033",
  "immutableReferences": {},
  "source": "// SPDX-License-Identifier: MIT\npragma solidity >=0.5.16 <0.9.0;\n\ncontract GiaoDichMuaBanVatTu {\n    //--------data-------//\n    struct GiaoDichMuaBanVatTu_Struct {\n        uint    id_XaVien;\n        uint    id_NhaCungCap;  \n        uint    id_LoHangVatTu;\n        uint    id_GiaoDich;\n        string  ThongTinKhac;\n    }\n    /*\n        ThongTinKhac {\n            ThoiGian\n            GiaLoHang\n        }\n    */\n\n    mapping ( uint => GiaoDichMuaBanVatTu_Struct ) \n    public DanhSachGiaoDich;\n\n    uint public maxLength = 0;\n\n    //-------event-------//\n    event SuKienGiaoDich (\n        uint    id_XaVien,\n        uint    id_NhaCungCap,\n        uint    id_LoHangVatTu,\n        uint    id_GiaoDich,\n        string  ThongTinKhac\n    );\n\n    //------modifier-----//\n    modifier KiemTraIdCacBenLienQuan (\n        uint id_XaVien,\n        uint id_NhaCungCap\n    ) {\n        require( \n            id_XaVien != id_NhaCungCap,\n            \"ID xa vien phai khac ID thuong lai\"\n        );\n\n        _;\n    }\n\n    modifier KiemTraLoHangVatTu ( uint id_LoHangVatTu, uint id_GiaoDich ) {\n        uint index              = 0;\n        bool checkIdLoHangVatTu = true;\n        bool checkIdGiaoDich    = true;\n\n        for ( index; index < maxLength; index ++ ) {\n            if ( DanhSachGiaoDich[ index ].id_GiaoDich == id_GiaoDich ) {\n                checkIdGiaoDich = false;\n            }\n\n            if ( DanhSachGiaoDich[ index ].id_LoHangVatTu == id_LoHangVatTu ) {\n                checkIdLoHangVatTu = false;\n            }\n        }\n\n        require(\n            checkIdGiaoDich || checkIdLoHangVatTu,\n            string.concat(\n                \"ID lo giao dich phai la duy nhat \",\n                \"ID lo hang vat tu phai la duy nhat\"\n            )\n        );\n\n        require (\n            checkIdGiaoDich,\n            \"ID lo giao dich phai la duy nhat\"\n        );\n\n        require (\n            checkIdLoHangVatTu,\n            \"ID lo hang vat tu phai la duy nhat\"\n        );\n\n        _;\n    }\n\n    //-------handle------//\n    function ThemGiaoDich (\n        uint id_XaVien,\n        uint id_NhaCungCap,\n        uint id_LoHangVatTu,\n        uint id_GiaoDich,\n        string memory ThongTinKhac\n    ) \n    public\n    KiemTraIdCacBenLienQuan( id_XaVien, id_NhaCungCap )\n    KiemTraLoHangVatTu( id_LoHangVatTu, id_GiaoDich )\n    returns (bool) \n    {\n\n        GiaoDichMuaBanVatTu_Struct memory GiaoDichMuaBanVatTuMemory;\n\n        GiaoDichMuaBanVatTuMemory = GiaoDichMuaBanVatTu_Struct (\n            id_XaVien,\n            id_NhaCungCap,\n            id_LoHangVatTu,\n            id_GiaoDich,\n            ThongTinKhac\n        );\n\n        DanhSachGiaoDich[maxLength] = GiaoDichMuaBanVatTuMemory;\n        maxLength = maxLength + 1;\n\n        emit SuKienGiaoDich(\n            id_XaVien,\n            id_NhaCungCap,\n            id_LoHangVatTu,\n            id_GiaoDich,\n            ThongTinKhac\n        );\n\n        return true;\n    }    \n}",
  "sourcePath": "/home/dpkhang/Personal/Studying/projects/supply-chain-for-agriculture/blockchain/contracts/GiaoDichMuaBanVatTu.sol",
  "compiler": {
    "name": "solc",
    "version": "0.8.13+commit.abaa5c0e.Emscripten.clang"
  },
  "schemaVersion": "3.4.7",
  "updatedAt": "2022-07-08T09:16:21.145Z",
  "networkType": "ethereum",
  "devdoc": {
    "kind": "dev",
    "methods": {},
    "version": 1
  },
  "userdoc": {
    "kind": "user",
    "methods": {},
    "version": 1
  }
}