{
  "contractName": "GiaoDichMuaBan_Lua",
  "abi": [
    {
      "anonymous": false,
      "inputs": [
        {
          "indexed": false,
          "internalType": "address",
          "name": "nongdang",
          "type": "address"
        },
        {
          "indexed": false,
          "internalType": "address",
          "name": "thuonglai",
          "type": "address"
        },
        {
          "indexed": false,
          "internalType": "uint256",
          "name": "id_giaodichmuaban_lua",
          "type": "uint256"
        }
      ],
      "name": "giaoDichEvent",
      "type": "event"
    },
    {
      "constant": true,
      "inputs": [
        {
          "internalType": "uint256",
          "name": "",
          "type": "uint256"
        }
      ],
      "name": "ListGiaoDich",
      "outputs": [
        {
          "internalType": "uint256",
          "name": "id_giaodichmuaban_lua",
          "type": "uint256"
        },
        {
          "internalType": "address",
          "name": "thuonglai",
          "type": "address"
        },
        {
          "internalType": "address",
          "name": "nongdan",
          "type": "address"
        }
      ],
      "payable": false,
      "stateMutability": "view",
      "type": "function"
    },
    {
      "constant": false,
      "inputs": [
        {
          "internalType": "address",
          "name": "thuonglai",
          "type": "address"
        },
        {
          "internalType": "uint256",
          "name": "id_giaodichmuaban_lua",
          "type": "uint256"
        }
      ],
      "name": "themGiaoDich",
      "outputs": [
        {
          "internalType": "bool",
          "name": "",
          "type": "bool"
        }
      ],
      "payable": false,
      "stateMutability": "nonpayable",
      "type": "function"
    }
  ],
  "bytecode": "0x608060405234801561001057600080fd5b506103e0806100206000396000f3fe608060405234801561001057600080fd5b50600436106100365760003560e01c8063530e3b481461003b5780638551a8c7146100a1575b600080fd5b6100876004803603604081101561005157600080fd5b81019080803573ffffffffffffffffffffffffffffffffffffffff16906020019092919080359060200190929190505050610149565b604051808215151515815260200191505060405180910390f35b6100cd600480360360208110156100b757600080fd5b81019080803590602001909291905050506102f4565b604051808481526020018373ffffffffffffffffffffffffffffffffffffffff1673ffffffffffffffffffffffffffffffffffffffff1681526020018273ffffffffffffffffffffffffffffffffffffffff1673ffffffffffffffffffffffffffffffffffffffff168152602001935050505060405180910390f35b600061015361035e565b60405180606001604052808481526020018573ffffffffffffffffffffffffffffffffffffffff1681526020013373ffffffffffffffffffffffffffffffffffffffff168152509050806000808581526020019081526020016000206000820151816000015560208201518160010160006101000a81548173ffffffffffffffffffffffffffffffffffffffff021916908373ffffffffffffffffffffffffffffffffffffffff16021790555060408201518160020160006101000a81548173ffffffffffffffffffffffffffffffffffffffff021916908373ffffffffffffffffffffffffffffffffffffffff1602179055509050507faa90803b5e9f36f1fd6c643347950b26222f511c239b2b3f5034e39585556b50338585604051808473ffffffffffffffffffffffffffffffffffffffff1673ffffffffffffffffffffffffffffffffffffffff1681526020018373ffffffffffffffffffffffffffffffffffffffff1673ffffffffffffffffffffffffffffffffffffffff168152602001828152602001935050505060405180910390a1600191505092915050565b60006020528060005260406000206000915090508060000154908060010160009054906101000a900473ffffffffffffffffffffffffffffffffffffffff16908060020160009054906101000a900473ffffffffffffffffffffffffffffffffffffffff16905083565b604051806060016040528060008152602001600073ffffffffffffffffffffffffffffffffffffffff168152602001600073ffffffffffffffffffffffffffffffffffffffff168152509056fea265627a7a72315820d98d6eb945170793f141917278fdb5855cf51c73166acdae53f43cd1f8536d8f64736f6c63430005100032",
  "source": "// SPDX-License-Identifier: MIT\npragma solidity >=0.5.16 <0.9.0;\n\ncontract GiaoDichMuaBan_Lua {\n    \n    //-------------data--------------//\n    struct GiaoDich {\n        uint id_giaodichmuaban_lua;\n        address thuonglai;\n        address nongdan;\n    }\n\n    mapping(uint => GiaoDich) public ListGiaoDich;\n\n\n    //---------------event------------//\n    event giaoDichEvent(\n        address nongdang, \n        address thuonglai, \n        uint id_giaodichmuaban_lua\n    );\n\n\n    //--------modifier function-------//\n    modifier checkThuongLai(address thuonglai) {\n        require(\n            thuonglai != msg.sender, \n            \"ID thuong lai phai khac id nong dan\"\n        );\n\n        _;\n    }\n\n    //-------handle function--------//\n    modifier checkIdGiaoDichMuaBanLua(uint id_giaodichmuaban_lua) {\n        require(\n            ListGiaoDich[id_giaodichmuaban_lua]\n            .id_giaodichmuaban_lua != id_giaodichmuaban_lua, \n            \"id giao dich la duy nhat\");\n\n        _;\n    }\n\n    function themGiaoDich(\n        address thuonglai, \n        uint id_giaodichmuaban_lua\n    ) public \n    returns (bool) {\n\n        GiaoDich memory giaoDich;\n        giaoDich = GiaoDich(\n            id_giaodichmuaban_lua,\n            thuonglai,\n            msg.sender\n        );\n\n        ListGiaoDich[id_giaodichmuaban_lua] = giaoDich;\n\n        emit giaoDichEvent(msg.sender, thuonglai, id_giaodichmuaban_lua);\n        \n        return true;\n    }\n}",
  "sourcePath": "/home/dpkhang/Personal/Studying/projects/supply-chain-for-agriculture/blockchain/contracts/giaodichmuaban_lua.sol",
  "compiler": {
    "name": "solc",
    "version": "0.5.16+commit.9c3226ce.Emscripten.clang"
  },
  "schemaVersion": "3.4.7",
  "updatedAt": "2022-06-14T15:19:08.972Z",
  "networkType": "ethereum",
  "devdoc": {
    "methods": {}
  },
  "userdoc": {
    "methods": {}
  }
}