{
  "contractName": "GiaoDichMuaBan_VatTu",
  "abi": [
    {
      "inputs": [],
      "payable": false,
      "stateMutability": "nonpayable",
      "type": "constructor"
    },
    {
      "anonymous": false,
      "inputs": [
        {
          "indexed": false,
          "internalType": "uint256",
          "name": "id_giaodichmuaban_vattu",
          "type": "uint256"
        },
        {
          "indexed": false,
          "internalType": "address",
          "name": "nhacungcapvattu",
          "type": "address"
        },
        {
          "indexed": false,
          "internalType": "address",
          "name": "nongdan",
          "type": "address"
        }
      ],
      "name": "sukienLuuGiaoDich",
      "type": "event"
    },
    {
      "constant": true,
      "inputs": [
        {
          "internalType": "address",
          "name": "",
          "type": "address"
        },
        {
          "internalType": "uint256",
          "name": "",
          "type": "uint256"
        }
      ],
      "name": "danhsach_giaodich",
      "outputs": [
        {
          "internalType": "uint256",
          "name": "id_giaodichmuaban_vattu",
          "type": "uint256"
        },
        {
          "internalType": "address",
          "name": "nhacungcapvattu",
          "type": "address"
        }
      ],
      "payable": false,
      "stateMutability": "view",
      "type": "function"
    },
    {
      "constant": false,
      "inputs": [
        {
          "internalType": "uint256",
          "name": "id_giaodichmuaban_vattu",
          "type": "uint256"
        },
        {
          "internalType": "address",
          "name": "nhacungcap",
          "type": "address"
        },
        {
          "internalType": "bool",
          "name": "xacnhan",
          "type": "bool"
        }
      ],
      "name": "themGiaoDich",
      "outputs": [
        {
          "internalType": "bool",
          "name": "",
          "type": "bool"
        }
      ],
      "payable": false,
      "stateMutability": "nonpayable",
      "type": "function"
    }
  ],
  "bytecode": "0x608060405234801561001057600080fd5b506040518060400160405280600081526020017330670717053ec58d83c930f41e635d53c379ae5873ffffffffffffffffffffffffffffffffffffffff168152506000803373ffffffffffffffffffffffffffffffffffffffff1673ffffffffffffffffffffffffffffffffffffffff16815260200190815260200160002060008081526020019081526020016000206000820151816000015560208201518160010160006101000a81548173ffffffffffffffffffffffffffffffffffffffff021916908373ffffffffffffffffffffffffffffffffffffffff1602179055509050506103fa806101036000396000f3fe608060405234801561001057600080fd5b50600436106100365760003560e01c80633c6b61751461003b578063ba2c594c146100ad575b600080fd5b6100936004803603606081101561005157600080fd5b8101908080359060200190929190803573ffffffffffffffffffffffffffffffffffffffff169060200190929190803515159060200190929190505050610142565b604051808215151515815260200191505060405180910390f35b6100f9600480360360408110156100c357600080fd5b81019080803573ffffffffffffffffffffffffffffffffffffffff16906020019092919080359060200190929190505050610344565b604051808381526020018273ffffffffffffffffffffffffffffffffffffffff1673ffffffffffffffffffffffffffffffffffffffff1681526020019250505060405180910390f35b60008160011515811515146101bf576040517f08c379a000000000000000000000000000000000000000000000000000000000815260040180806020018281038252601d8152602001807f4769616f206469636820636875612064756f6320786163206e68616e2e00000081525060200191505060405180910390fd5b6101c7610395565b60405180604001604052808781526020018673ffffffffffffffffffffffffffffffffffffffff168152509050806000803373ffffffffffffffffffffffffffffffffffffffff1673ffffffffffffffffffffffffffffffffffffffff16815260200190815260200160002060008881526020019081526020016000206000820151816000015560208201518160010160006101000a81548173ffffffffffffffffffffffffffffffffffffffff021916908373ffffffffffffffffffffffffffffffffffffffff1602179055509050507fdfd9b29c813b1f3303d60888667653be9b5b32982814a310d60ee46b79ced2f7868633604051808481526020018373ffffffffffffffffffffffffffffffffffffffff1673ffffffffffffffffffffffffffffffffffffffff1681526020018273ffffffffffffffffffffffffffffffffffffffff1673ffffffffffffffffffffffffffffffffffffffff168152602001935050505060405180910390a16001925050509392505050565b6000602052816000526040600020602052806000526040600020600091509150508060000154908060010160009054906101000a900473ffffffffffffffffffffffffffffffffffffffff16905082565b604051806040016040528060008152602001600073ffffffffffffffffffffffffffffffffffffffff168152509056fea265627a7a72315820fcafbc5f9e1cd81d127ace7c10272d0ab9e1565db352d6c91055f3214a6bf5e364736f6c63430005100032",
  "source": "// SPDX-License-Identifier: MIT\npragma solidity >=0.5.16 <0.9.0;\n\ncontract GiaoDichMuaBan_VatTu {\n\n    struct GiaoDich {\n        uint id_giaodichmuaban_vattu;\n        address nhacungcapvattu;\n    }\n\n    mapping(address => mapping(uint => GiaoDich)) public danhsach_giaodich;\n\n    constructor() public {\n        danhsach_giaodich[msg.sender][0] = GiaoDich(0, address(0x30670717053ec58D83C930f41E635D53C379ae58));\n    }\n\n    event sukienLuuGiaoDich(\n        uint id_giaodichmuaban_vattu,\n        address nhacungcapvattu,\n        address nongdan\n    );\n\n    modifier kiemtraXacNhan(bool xacnhan) {\n        require(\n                xacnhan == true,\n                'Giao dich chua duoc xac nhan.'\n                );  \n        _;\n    }\n\n    function themGiaoDich(\n        uint id_giaodichmuaban_vattu,\n        address nhacungcap,\n        bool xacnhan\n    ) public \n    kiemtraXacNhan(xacnhan)\n    returns(bool) {\n\n        GiaoDich memory giaodich;\n        giaodich = GiaoDich(id_giaodichmuaban_vattu, nhacungcap);\n\n        danhsach_giaodich[msg.sender][id_giaodichmuaban_vattu] = giaodich;\n\n        emit sukienLuuGiaoDich(\n                                id_giaodichmuaban_vattu, \n                                nhacungcap, \n                                msg.sender\n                            );\n        return true;\n    }\n}\n",
  "sourcePath": "/home/dpkhang/Personal/Studying/projects/supply-chain-for-agriculture/blockchain/contracts/giaodichmuaban_vattu.sol",
  "compiler": {
    "name": "solc",
    "version": "0.5.16+commit.9c3226ce.Emscripten.clang"
  },
  "schemaVersion": "3.4.7",
  "updatedAt": "2022-06-16T15:45:18.384Z",
  "networkType": "ethereum",
  "devdoc": {
    "methods": {}
  },
  "userdoc": {
    "methods": {}
  }
}