{
  "contractName": "GiaoDichMuaBan_VatTu",
  "abi": [
    {
      "inputs": [],
      "payable": false,
      "stateMutability": "nonpayable",
      "type": "constructor"
    },
    {
      "anonymous": false,
      "inputs": [
        {
          "indexed": false,
          "internalType": "uint256",
          "name": "id_giaodichmuaban_vattu",
          "type": "uint256"
        },
        {
          "indexed": false,
          "internalType": "address",
          "name": "nhacungcapvattu",
          "type": "address"
        },
        {
          "indexed": false,
          "internalType": "address",
          "name": "nongdan",
          "type": "address"
        }
      ],
      "name": "sukienLuuGiaoDich",
      "type": "event"
    },
    {
      "constant": true,
      "inputs": [
        {
          "internalType": "address",
          "name": "",
          "type": "address"
        },
        {
          "internalType": "uint256",
          "name": "",
          "type": "uint256"
        }
      ],
      "name": "danhsach_giaodich",
      "outputs": [
        {
          "internalType": "uint256",
          "name": "id_giaodichmuaban_vattu",
          "type": "uint256"
        },
        {
          "internalType": "address",
          "name": "nhacungcapvattu",
          "type": "address"
        }
      ],
      "payable": false,
      "stateMutability": "view",
      "type": "function"
    },
    {
      "constant": false,
      "inputs": [
        {
          "internalType": "uint256",
          "name": "id_giaodichmuaban_vattu",
          "type": "uint256"
        },
        {
          "internalType": "address",
          "name": "nhacungcap",
          "type": "address"
        }
      ],
      "name": "themGiaoDich",
      "outputs": [
        {
          "internalType": "bool",
          "name": "",
          "type": "bool"
        }
      ],
      "payable": false,
      "stateMutability": "nonpayable",
      "type": "function"
    }
  ],
  "bytecode": "0x608060405234801561001057600080fd5b506000803373ffffffffffffffffffffffffffffffffffffffff1673ffffffffffffffffffffffffffffffffffffffff1681526020019081526020016000206040518060400160405280600181526020013373ffffffffffffffffffffffffffffffffffffffff16815250908060018154018082558091505090600182039060005260206000209060020201600090919290919091506000820151816000015560208201518160010160006101000a81548173ffffffffffffffffffffffffffffffffffffffff021916908373ffffffffffffffffffffffffffffffffffffffff160217905550505050610398806101096000396000f3fe608060405234801561001057600080fd5b50600436106100365760003560e01c8063889293351461003b578063ba2c594c146100a1575b600080fd5b6100876004803603604081101561005157600080fd5b8101908080359060200190929190803573ffffffffffffffffffffffffffffffffffffffff169060200190929190505050610136565b604051808215151515815260200191505060405180910390f35b6100ed600480360360408110156100b757600080fd5b81019080803573ffffffffffffffffffffffffffffffffffffffff169060200190929190803590602001909291905050506102d5565b604051808381526020018273ffffffffffffffffffffffffffffffffffffffff1673ffffffffffffffffffffffffffffffffffffffff1681526020019250505060405180910390f35b6000610140610333565b60405180604001604052808581526020018473ffffffffffffffffffffffffffffffffffffffff1681525090506000803373ffffffffffffffffffffffffffffffffffffffff1673ffffffffffffffffffffffffffffffffffffffff16815260200190815260200160002081908060018154018082558091505090600182039060005260206000209060020201600090919290919091506000820151816000015560208201518160010160006101000a81548173ffffffffffffffffffffffffffffffffffffffff021916908373ffffffffffffffffffffffffffffffffffffffff1602179055505050507fdfd9b29c813b1f3303d60888667653be9b5b32982814a310d60ee46b79ced2f7848433604051808481526020018373ffffffffffffffffffffffffffffffffffffffff1673ffffffffffffffffffffffffffffffffffffffff1681526020018273ffffffffffffffffffffffffffffffffffffffff1673ffffffffffffffffffffffffffffffffffffffff168152602001935050505060405180910390a1600191505092915050565b600060205281600052604060002081815481106102ee57fe5b9060005260206000209060020201600091509150508060000154908060010160009054906101000a900473ffffffffffffffffffffffffffffffffffffffff16905082565b604051806040016040528060008152602001600073ffffffffffffffffffffffffffffffffffffffff168152509056fea265627a7a72315820515c02399e5bfb7174513fe50517be9b9f4ddc5995c4a6b83b920b3af692e6a664736f6c63430005100032",
  "source": "// SPDX-License-Identifier: MIT\npragma solidity >=0.5.16 <0.9.0;\n\ncontract GiaoDichMuaBan_VatTu {\n    struct GiaoDich {\n        uint id_giaodichmuaban_vattu;\n        address nhacungcapvattu;\n    }\n\n    mapping(address => GiaoDich[]) public danhsach_giaodich;\n\n    constructor() public {\n        danhsach_giaodich[msg.sender].push(GiaoDich(1, msg.sender));\n    }\n\n    event sukienLuuGiaoDich(\n        uint id_giaodichmuaban_vattu,\n        address nhacungcapvattu,\n        address nongdan\n    );\n\n    function themGiaoDich(\n        uint id_giaodichmuaban_vattu,\n        address nhacungcap\n    ) public returns(bool) {\n        GiaoDich memory giaodich;\n        giaodich = GiaoDich(id_giaodichmuaban_vattu, nhacungcap);\n\n        danhsach_giaodich[msg.sender].push(giaodich);\n        emit sukienLuuGiaoDich(id_giaodichmuaban_vattu, nhacungcap, msg.sender);\n        return true;\n    }\n}\n",
  "sourcePath": "/home/dpkhang/Personal/Studying/projects/supply-chain-for-agriculture/blockchain/contracts/giaodichmuaban_vattu.sol",
  "compiler": {
    "name": "solc",
    "version": "0.5.16+commit.9c3226ce.Emscripten.clang"
  },
  "schemaVersion": "3.4.7",
  "updatedAt": "2022-06-15T12:59:39.296Z",
  "networkType": "ethereum",
  "devdoc": {
    "methods": {}
  },
  "userdoc": {
    "methods": {}
  }
}