{
  "contractName": "HoatDongNhatKy",
  "abi": [
    {
      "anonymous": false,
      "inputs": [
        {
          "indexed": false,
          "internalType": "uint256",
          "name": "id_NhatKyDongRuong",
          "type": "uint256"
        },
        {
          "indexed": false,
          "internalType": "uint256",
          "name": "id_XaVien",
          "type": "uint256"
        },
        {
          "indexed": false,
          "internalType": "uint256",
          "name": "id_HoatDongNhatKy",
          "type": "uint256"
        }
      ],
      "name": "SuKienThemHoatDongNhatKy",
      "type": "event"
    },
    {
      "inputs": [
        {
          "internalType": "uint256",
          "name": "",
          "type": "uint256"
        }
      ],
      "name": "DanhSachHoatDongNhatKy",
      "outputs": [
        {
          "internalType": "uint256",
          "name": "id_NhatKyDongRuong",
          "type": "uint256"
        },
        {
          "internalType": "uint256",
          "name": "id_XaVien",
          "type": "uint256"
        },
        {
          "internalType": "uint256",
          "name": "id_HoatDongNhatKy",
          "type": "uint256"
        }
      ],
      "stateMutability": "view",
      "type": "function",
      "constant": true
    },
    {
      "inputs": [
        {
          "internalType": "uint256",
          "name": "id_NhatKyDongRuong",
          "type": "uint256"
        },
        {
          "internalType": "uint256",
          "name": "id_XaVien",
          "type": "uint256"
        },
        {
          "internalType": "uint256",
          "name": "id_HoatDongNhatKy",
          "type": "uint256"
        }
      ],
      "name": "ThemHoatDongNhatKy",
      "outputs": [
        {
          "internalType": "bool",
          "name": "",
          "type": "bool"
        }
      ],
      "stateMutability": "nonpayable",
      "type": "function"
    }
  ],
  "bytecode": "0x6080604052600060015534801561001557600080fd5b506107d6806100256000396000f3fe608060405234801561001057600080fd5b50600436106100365760003560e01c80636bf02b881461003b578063f310875f1461006b575b600080fd5b61005560048036038101906100509190610338565b61009d565b60405161006291906103a6565b60405180910390f35b610085600480360381019061008091906103c1565b6102b2565b604051610094939291906103fd565b60405180910390f35b60008382600080600190506000600190505b60015483101561010e578460008085815260200190815260200160002060000154036100da57600091505b8360008085815260200190815260200160002060020154036100fb57600090505b828061010690610463565b9350506100af565b81806101175750805b6040516020016101269061059a565b60405160208183030381529060405290610176576040517f08c379a000000000000000000000000000000000000000000000000000000000815260040161016d9190610653565b60405180910390fd5b50806101b7576040517f08c379a00000000000000000000000000000000000000000000000000000000081526004016101ae90610698565b60405180910390fd5b816101f7576040517f08c379a00000000000000000000000000000000000000000000000000000000081526004016101ee9061072a565b60405180910390fd5b6101ff6102dc565b60405180606001604052808b81526020018a815260200189815250905080600080600154815260200190815260200160002060008201518160000155602082015181600101556040820151816002015590505060018054610260919061074a565b6001819055507f6b3cdd445353e3e9dca71f0fca935ce85675ae7773b55a76eee90b67e92425808a8a8a604051610299939291906103fd565b60405180910390a1600196505050505050509392505050565b60006020528060005260406000206000915090508060000154908060010154908060020154905083565b60405180606001604052806000815260200160008152602001600081525090565b600080fd5b6000819050919050565b61031581610302565b811461032057600080fd5b50565b6000813590506103328161030c565b92915050565b600080600060608486031215610351576103506102fd565b5b600061035f86828701610323565b935050602061037086828701610323565b925050604061038186828701610323565b9150509250925092565b60008115159050919050565b6103a08161038b565b82525050565b60006020820190506103bb6000830184610397565b92915050565b6000602082840312156103d7576103d66102fd565b5b60006103e584828501610323565b91505092915050565b6103f781610302565b82525050565b600060608201905061041260008301866103ee565b61041f60208301856103ee565b61042c60408301846103ee565b949350505050565b7f4e487b7100000000000000000000000000000000000000000000000000000000600052601160045260246000fd5b600061046e82610302565b91507fffffffffffffffffffffffffffffffffffffffffffffffffffffffffffffffff82036104a05761049f610434565b5b600182019050919050565b600081905092915050565b7f4964206e686174206b7920646f6e672072756f6e672070686169206c6120647560008201527f79206e6861742000000000000000000000000000000000000000000000000000602082015250565b60006105126027836104ab565b915061051d826104b6565b602782019050919050565b7f494420686f617420646f6e67206e686174206b79206c75612070686169206c6160008201527f20647579206e6861740000000000000000000000000000000000000000000000602082015250565b60006105846029836104ab565b915061058f82610528565b602982019050919050565b60006105a582610505565b91506105b082610577565b9150819050919050565b600081519050919050565b600082825260208201905092915050565b60005b838110156105f45780820151818401526020810190506105d9565b83811115610603576000848401525b50505050565b6000601f19601f8301169050919050565b6000610625826105ba565b61062f81856105c5565b935061063f8185602086016105d6565b61064881610609565b840191505092915050565b6000602082019050818103600083015261066d818461061a565b905092915050565b60006106826029836105c5565b915061068d82610528565b604082019050919050565b600060208201905081810360008301526106b181610675565b9050919050565b7f4964206e686174206b7920646f6e672072756f6e672070686169206c6120647560008201527f79206e6861740000000000000000000000000000000000000000000000000000602082015250565b60006107146026836105c5565b915061071f826106b8565b604082019050919050565b6000602082019050818103600083015261074381610707565b9050919050565b600061075582610302565b915061076083610302565b9250827fffffffffffffffffffffffffffffffffffffffffffffffffffffffffffffffff0382111561079557610794610434565b5b82820190509291505056fea2646970667358221220aacd83cb42c4332d5df8d0d79a5870f412bc1251070caee991379b359d5db93664736f6c634300080d0033",
  "immutableReferences": {},
  "source": "// SPDX-License-Identifier: MIT\npragma solidity >=0.5.16 <0.9.0;\n\ncontract HoatDongNhatKy {\n    //--------data-------//\n    struct HoatDongNhatKy_Struct {\n        uint id_NhatKyDongRuong;\n        uint id_XaVien;\n        uint id_HoatDongNhatKy;\n    }\n\n    mapping( uint => HoatDongNhatKy_Struct )\n    public DanhSachHoatDongNhatKy;\n\n    uint maxLength = 0;\n\n    //-------event-------//\n    event SuKienThemHoatDongNhatKy(\n        uint id_NhatKyDongRuong,\n        uint id_XaVien,\n        uint id_HoatDongNhatKy\n    );\n\n    //------modifier-----//\n    modifier KiemTraHoatDongNhatKy( \n        uint id_NhatKyDongRuong, \n        uint id_HoatDongNhatKy \n    ) {\n        uint index                  = 0;\n        bool checkIdNhatKyDongRuong = true;\n        bool checkIdHoatDongNhatKy  = true;\n\n        for ( index; index < maxLength; index ++ ) {\n            if ( DanhSachHoatDongNhatKy[ index ].id_NhatKyDongRuong \n                 == id_NhatKyDongRuong \n            ) {\n                checkIdNhatKyDongRuong = false;\n            }\n\n            if ( DanhSachHoatDongNhatKy[ index ].id_HoatDongNhatKy \n                 == id_HoatDongNhatKy \n            ) {\n                checkIdHoatDongNhatKy = false;\n            }\n        }\n\n        require(\n            checkIdNhatKyDongRuong || checkIdHoatDongNhatKy,\n            string.concat(\n                \"Id nhat ky dong ruong phai la duy nhat \",\n                \"ID hoat dong nhat ky lua phai la duy nhat\"\n            )\n        );\n\n        require (\n            checkIdHoatDongNhatKy,\n            \"ID hoat dong nhat ky lua phai la duy nhat\"\n        );\n\n        require(\n            checkIdNhatKyDongRuong,\n            \"Id nhat ky dong ruong phai la duy nhat\"\n        );\n        \n        _;\n    }\n\n    //-------handle------//\n    function ThemHoatDongNhatKy (\n        uint id_NhatKyDongRuong,\n        uint id_XaVien,\n        uint id_HoatDongNhatKy\n    )\n    public\n    KiemTraHoatDongNhatKy( \n        id_NhatKyDongRuong,\n        id_HoatDongNhatKy\n    )\n    returns ( bool ) {\n        HoatDongNhatKy_Struct memory HoatDongNhatKyMemory;\n        HoatDongNhatKyMemory = HoatDongNhatKy_Struct(\n            id_NhatKyDongRuong,\n            id_XaVien,\n            id_HoatDongNhatKy\n        );\n\n        DanhSachHoatDongNhatKy[maxLength] = HoatDongNhatKyMemory;\n        maxLength = maxLength + 1;\n\n        emit SuKienThemHoatDongNhatKy(\n            id_NhatKyDongRuong,\n            id_XaVien,\n            id_HoatDongNhatKy\n        );\n\n        return true;\n    }\n}",
  "sourcePath": "/Users/trongnhan/Dev/supply-chain-for-agriculture/blockchain/contracts/HoatDongNhatKy.sol",
  "compiler": {
    "name": "solc",
    "version": "0.8.13+commit.abaa5c0e.Emscripten.clang"
  },
  "schemaVersion": "3.4.7",
  "updatedAt": "2022-07-05T15:20:04.817Z",
  "networkType": "ethereum",
  "devdoc": {
    "kind": "dev",
    "methods": {},
    "version": 1
  },
  "userdoc": {
    "kind": "user",
    "methods": {},
    "version": 1
  }
}