{
  "contractName": "HoatDongNhatKy",
  "abi": [
    {
      "anonymous": false,
      "inputs": [
        {
          "indexed": false,
          "internalType": "uint256",
          "name": "id_NhatKyDongRuong",
          "type": "uint256"
        },
        {
          "indexed": false,
          "internalType": "uint256",
          "name": "id_XaVien",
          "type": "uint256"
        },
        {
          "indexed": false,
          "internalType": "uint256",
          "name": "id_HoatDongNhatKy",
          "type": "uint256"
        },
        {
          "indexed": false,
          "internalType": "string",
          "name": "ThongTinKhac",
          "type": "string"
        }
      ],
      "name": "SuKienThemHoatDongNhatKy",
      "type": "event"
    },
    {
      "inputs": [
        {
          "internalType": "uint256",
          "name": "",
          "type": "uint256"
        }
      ],
      "name": "DanhSachHoatDongNhatKy",
      "outputs": [
        {
          "internalType": "uint256",
          "name": "id_NhatKyDongRuong",
          "type": "uint256"
        },
        {
          "internalType": "uint256",
          "name": "id_XaVien",
          "type": "uint256"
        },
        {
          "internalType": "uint256",
          "name": "id_HoatDongNhatKy",
          "type": "uint256"
        },
        {
          "internalType": "string",
          "name": "ThongTinKhac",
          "type": "string"
        }
      ],
      "stateMutability": "view",
      "type": "function",
      "constant": true
    },
    {
      "inputs": [
        {
          "internalType": "uint256",
          "name": "id_NhatKyDongRuong",
          "type": "uint256"
        },
        {
          "internalType": "uint256",
          "name": "id_XaVien",
          "type": "uint256"
        },
        {
          "internalType": "uint256",
          "name": "id_HoatDongNhatKy",
          "type": "uint256"
        },
        {
          "internalType": "string",
          "name": "ThongTinKhac",
          "type": "string"
        }
      ],
      "name": "ThemHoatDongNhatKy",
      "outputs": [
        {
          "internalType": "bool",
          "name": "",
          "type": "bool"
        }
      ],
      "stateMutability": "nonpayable",
      "type": "function"
    }
  ],
  "bytecode": "0x6080604052600060015534801561001557600080fd5b50610b1e806100256000396000f3fe608060405234801561001057600080fd5b50600436106100365760003560e01c8063ef9003af1461003b578063f310875f1461006b575b600080fd5b610055600480360381019061005091906105ec565b61009e565b604051610062919061068a565b60405180910390f35b610085600480360381019061008091906106a5565b6102d9565b6040516100959493929190610769565b60405180910390f35b60008483600080600190506000600190505b60015483101561010f578460008085815260200190815260200160002060000154036100db57600091505b8360008085815260200190815260200160002060020154036100fc57600090505b8280610107906107e4565b9350506100b0565b81806101185750805b6040516020016101279061091b565b60405160208183030381529060405290610177576040517f08c379a000000000000000000000000000000000000000000000000000000000815260040161016e919061093b565b60405180910390fd5b50806101b8576040517f08c379a00000000000000000000000000000000000000000000000000000000081526004016101af90610980565b60405180910390fd5b816101f8576040517f08c379a00000000000000000000000000000000000000000000000000000000081526004016101ef90610a12565b60405180910390fd5b610200610391565b60405180608001604052808c81526020018b81526020018a815260200189815250905080600080600154815260200190815260200160002060008201518160000155602082015181600101556040820151816002015560608201518160030190805190602001906102729291906103b9565b50905050600180546102849190610a32565b6001819055507ffd81bc1190c5624d6e55599a1bf43e1c930b8d32b9e92b47acaeb98f4b51d4a78b8b8b8b6040516102bf9493929190610769565b60405180910390a160019650505050505050949350505050565b600060205280600052604060002060009150905080600001549080600101549080600201549080600301805461030e90610ab7565b80601f016020809104026020016040519081016040528092919081815260200182805461033a90610ab7565b80156103875780601f1061035c57610100808354040283529160200191610387565b820191906000526020600020905b81548152906001019060200180831161036a57829003601f168201915b5050505050905084565b6040518060800160405280600081526020016000815260200160008152602001606081525090565b8280546103c590610ab7565b90600052602060002090601f0160209004810192826103e7576000855561042e565b82601f1061040057805160ff191683800117855561042e565b8280016001018555821561042e579182015b8281111561042d578251825591602001919060010190610412565b5b50905061043b919061043f565b5090565b5b80821115610458576000816000905550600101610440565b5090565b6000604051905090565b600080fd5b600080fd5b6000819050919050565b61048381610470565b811461048e57600080fd5b50565b6000813590506104a08161047a565b92915050565b600080fd5b600080fd5b6000601f19601f8301169050919050565b7f4e487b7100000000000000000000000000000000000000000000000000000000600052604160045260246000fd5b6104f9826104b0565b810181811067ffffffffffffffff82111715610518576105176104c1565b5b80604052505050565b600061052b61045c565b905061053782826104f0565b919050565b600067ffffffffffffffff821115610557576105566104c1565b5b610560826104b0565b9050602081019050919050565b82818337600083830152505050565b600061058f61058a8461053c565b610521565b9050828152602081018484840111156105ab576105aa6104ab565b5b6105b684828561056d565b509392505050565b600082601f8301126105d3576105d26104a6565b5b81356105e384826020860161057c565b91505092915050565b6000806000806080858703121561060657610605610466565b5b600061061487828801610491565b945050602061062587828801610491565b935050604061063687828801610491565b925050606085013567ffffffffffffffff8111156106575761065661046b565b5b610663878288016105be565b91505092959194509250565b60008115159050919050565b6106848161066f565b82525050565b600060208201905061069f600083018461067b565b92915050565b6000602082840312156106bb576106ba610466565b5b60006106c984828501610491565b91505092915050565b6106db81610470565b82525050565b600081519050919050565b600082825260208201905092915050565b60005b8381101561071b578082015181840152602081019050610700565b8381111561072a576000848401525b50505050565b600061073b826106e1565b61074581856106ec565b93506107558185602086016106fd565b61075e816104b0565b840191505092915050565b600060808201905061077e60008301876106d2565b61078b60208301866106d2565b61079860408301856106d2565b81810360608301526107aa8184610730565b905095945050505050565b7f4e487b7100000000000000000000000000000000000000000000000000000000600052601160045260246000fd5b60006107ef82610470565b91507fffffffffffffffffffffffffffffffffffffffffffffffffffffffffffffffff8203610821576108206107b5565b5b600182019050919050565b600081905092915050565b7f4964206e686174206b7920646f6e672072756f6e672070686169206c6120647560008201527f79206e6861742000000000000000000000000000000000000000000000000000602082015250565b600061089360278361082c565b915061089e82610837565b602782019050919050565b7f494420686f617420646f6e67206e686174206b79206c75612070686169206c6160008201527f20647579206e6861740000000000000000000000000000000000000000000000602082015250565b600061090560298361082c565b9150610910826108a9565b602982019050919050565b600061092682610886565b9150610931826108f8565b9150819050919050565b600060208201905081810360008301526109558184610730565b905092915050565b600061096a6029836106ec565b9150610975826108a9565b604082019050919050565b600060208201905081810360008301526109998161095d565b9050919050565b7f4964206e686174206b7920646f6e672072756f6e672070686169206c6120647560008201527f79206e6861740000000000000000000000000000000000000000000000000000602082015250565b60006109fc6026836106ec565b9150610a07826109a0565b604082019050919050565b60006020820190508181036000830152610a2b816109ef565b9050919050565b6000610a3d82610470565b9150610a4883610470565b9250827fffffffffffffffffffffffffffffffffffffffffffffffffffffffffffffffff03821115610a7d57610a7c6107b5565b5b828201905092915050565b7f4e487b7100000000000000000000000000000000000000000000000000000000600052602260045260246000fd5b60006002820490506001821680610acf57607f821691505b602082108103610ae257610ae1610a88565b5b5091905056fea264697066735822122078e41103cc606245b4ea0fbf7827f56e7c8e3ab6406e19daff1ef47aaa736ca964736f6c634300080d0033",
  "immutableReferences": {},
  "source": "// SPDX-License-Identifier: MIT\npragma solidity >=0.5.16 <0.9.0;\n\ncontract HoatDongNhatKy {\n    //--------data-------//\n    struct HoatDongNhatKy_Struct {\n        uint id_NhatKyDongRuong;\n        uint id_XaVien;\n        uint id_HoatDongNhatKy;\n        string ThongTinKhac;\n    }\n\n    mapping( uint => HoatDongNhatKy_Struct )\n    public DanhSachHoatDongNhatKy;\n\n    uint maxLength = 0;\n\n    //-------event-------//\n    event SuKienThemHoatDongNhatKy(\n        uint id_NhatKyDongRuong,\n        uint id_XaVien,\n        uint id_HoatDongNhatKy,\n        string ThongTinKhac\n    );\n    /* \n        ThongTinKhac {\n            ThoiGian\n        }\n    */\n\n    //------modifier-----//\n    modifier KiemTraHoatDongNhatKy( \n        uint id_NhatKyDongRuong, \n        uint id_HoatDongNhatKy \n    ) {\n        uint index                  = 0;\n        bool checkIdNhatKyDongRuong = true;\n        bool checkIdHoatDongNhatKy  = true;\n\n        for ( index; index < maxLength; index ++ ) {\n            if ( DanhSachHoatDongNhatKy[ index ].id_NhatKyDongRuong \n                 == id_NhatKyDongRuong \n            ) {\n                checkIdNhatKyDongRuong = false;\n            }\n\n            if ( DanhSachHoatDongNhatKy[ index ].id_HoatDongNhatKy \n                 == id_HoatDongNhatKy \n            ) {\n                checkIdHoatDongNhatKy = false;\n            }\n        }\n\n        require(\n            checkIdNhatKyDongRuong || checkIdHoatDongNhatKy,\n            string.concat(\n                \"Id nhat ky dong ruong phai la duy nhat \",\n                \"ID hoat dong nhat ky lua phai la duy nhat\"\n            )\n        );\n\n        require (\n            checkIdHoatDongNhatKy,\n            \"ID hoat dong nhat ky lua phai la duy nhat\"\n        );\n\n        require(\n            checkIdNhatKyDongRuong,\n            \"Id nhat ky dong ruong phai la duy nhat\"\n        );\n        \n        _;\n    }\n\n    //-------handle------//\n    function ThemHoatDongNhatKy (\n        uint id_NhatKyDongRuong,\n        uint id_XaVien,\n        uint id_HoatDongNhatKy,\n        string memory ThongTinKhac\n    )\n    public\n    KiemTraHoatDongNhatKy( \n        id_NhatKyDongRuong,\n        id_HoatDongNhatKy\n    )\n    returns ( bool ) {\n        HoatDongNhatKy_Struct memory HoatDongNhatKyMemory;\n        HoatDongNhatKyMemory = HoatDongNhatKy_Struct(\n            id_NhatKyDongRuong,\n            id_XaVien,\n            id_HoatDongNhatKy,\n            ThongTinKhac\n        );\n\n        DanhSachHoatDongNhatKy[maxLength] = HoatDongNhatKyMemory;\n        maxLength = maxLength + 1;\n\n        emit SuKienThemHoatDongNhatKy(\n            id_NhatKyDongRuong,\n            id_XaVien,\n            id_HoatDongNhatKy,\n            ThongTinKhac\n        );\n\n        return true;\n    }\n}",
  "sourcePath": "/home/dpkhang/Personal/Studying/projects/supply-chain-for-agriculture/blockchain/contracts/HoatDongNhatKy.sol",
  "compiler": {
    "name": "solc",
    "version": "0.8.13+commit.abaa5c0e.Emscripten.clang"
  },
  "schemaVersion": "3.4.7",
  "updatedAt": "2022-07-08T09:16:21.130Z",
  "networkType": "ethereum",
  "devdoc": {
    "kind": "dev",
    "methods": {},
    "version": 1
  },
  "userdoc": {
    "kind": "user",
    "methods": {},
    "version": 1
  }
}