{
  "contractName": "LoHangLua",
  "abi": [
    {
      "anonymous": false,
      "inputs": [
        {
          "indexed": false,
          "internalType": "uint256",
          "name": "id_XaVien",
          "type": "uint256"
        },
        {
          "indexed": false,
          "internalType": "uint256",
          "name": "id_LoHangLua",
          "type": "uint256"
        },
        {
          "indexed": false,
          "internalType": "uint256",
          "name": "id_GiongLua",
          "type": "uint256"
        },
        {
          "indexed": false,
          "internalType": "uint256",
          "name": "id_LichMuaVu",
          "type": "uint256"
        },
        {
          "indexed": false,
          "internalType": "uint256",
          "name": "SoLuong",
          "type": "uint256"
        },
        {
          "indexed": false,
          "internalType": "uint256",
          "name": "ThoiGian",
          "type": "uint256"
        },
        {
          "indexed": false,
          "internalType": "string",
          "name": "TenGiongLua",
          "type": "string"
        }
      ],
      "name": "SuKienThemLoHang",
      "type": "event"
    },
    {
      "inputs": [
        {
          "internalType": "uint256",
          "name": "",
          "type": "uint256"
        }
      ],
      "name": "DanhSachIdNhatKyDongRuong",
      "outputs": [
        {
          "internalType": "uint256",
          "name": "",
          "type": "uint256"
        }
      ],
      "stateMutability": "view",
      "type": "function",
      "constant": true
    },
    {
      "inputs": [
        {
          "internalType": "uint256",
          "name": "",
          "type": "uint256"
        }
      ],
      "name": "DanhSachLoHangLua",
      "outputs": [
        {
          "internalType": "uint256",
          "name": "id_XaVien",
          "type": "uint256"
        },
        {
          "internalType": "uint256",
          "name": "id_LoHangLua",
          "type": "uint256"
        },
        {
          "internalType": "uint256",
          "name": "id_GiongLua",
          "type": "uint256"
        },
        {
          "internalType": "uint256",
          "name": "id_LichMuaVu",
          "type": "uint256"
        },
        {
          "internalType": "uint256",
          "name": "SoLuong",
          "type": "uint256"
        },
        {
          "internalType": "uint256",
          "name": "ThoiGian",
          "type": "uint256"
        },
        {
          "internalType": "string",
          "name": "TenGiongLua",
          "type": "string"
        }
      ],
      "stateMutability": "view",
      "type": "function",
      "constant": true
    },
    {
      "inputs": [],
      "name": "maxLength",
      "outputs": [
        {
          "internalType": "uint256",
          "name": "",
          "type": "uint256"
        }
      ],
      "stateMutability": "view",
      "type": "function",
      "constant": true
    },
    {
      "inputs": [
        {
          "internalType": "uint256[]",
          "name": "intProperties",
          "type": "uint256[]"
        },
        {
          "internalType": "string[]",
          "name": "stringProperties",
          "type": "string[]"
        }
      ],
      "name": "ThemLoHangLua",
      "outputs": [
        {
          "internalType": "bool",
          "name": "",
          "type": "bool"
        }
      ],
      "stateMutability": "nonpayable",
      "type": "function"
    },
    {
      "inputs": [
        {
          "internalType": "uint256",
          "name": "id_LoHangLua",
          "type": "uint256"
        }
      ],
      "name": "LayThongTinLoHangLua",
      "outputs": [
        {
          "components": [
            {
              "internalType": "uint256",
              "name": "id_XaVien",
              "type": "uint256"
            },
            {
              "internalType": "uint256",
              "name": "id_LoHangLua",
              "type": "uint256"
            },
            {
              "internalType": "uint256",
              "name": "id_GiongLua",
              "type": "uint256"
            },
            {
              "internalType": "uint256",
              "name": "id_LichMuaVu",
              "type": "uint256"
            },
            {
              "internalType": "uint256",
              "name": "SoLuong",
              "type": "uint256"
            },
            {
              "internalType": "uint256",
              "name": "ThoiGian",
              "type": "uint256"
            },
            {
              "internalType": "string",
              "name": "TenGiongLua",
              "type": "string"
            }
          ],
          "internalType": "struct LoHangLua.LoHangLua_Struct",
          "name": "",
          "type": "tuple"
        }
      ],
      "stateMutability": "view",
      "type": "function",
      "constant": true
    }
  ],
  "bytecode": "0x6080604052600060025534801561001557600080fd5b50611122806100256000396000f3fe608060405234801561001057600080fd5b50600436106100575760003560e01c80638ae608961461005c578063a61e61be14610092578063d06a89a4146100c2578063d5c07c70146100e0578063d7d1a38314610110575b600080fd5b6100766004803603810190610071919061080b565b610140565b60405161008997969594939291906108e0565b60405180910390f35b6100ac60048036038101906100a7919061080b565b61020a565b6040516100b99190610956565b60405180910390f35b6100ca610222565b6040516100d79190610956565b60405180910390f35b6100fa60048036038101906100f5919061080b565b610228565b6040516101079190610a66565b60405180910390f35b61012a60048036038101906101259190610d66565b610322565b6040516101379190610df9565b60405180910390f35b600060205280600052604060002060009150905080600001549080600101549080600201549080600301549080600401549080600501549080600601805461018790610e43565b80601f01602080910402602001604051908101604052809291908181526020018280546101b390610e43565b80156102005780601f106101d557610100808354040283529160200191610200565b820191906000526020600020905b8154815290600101906020018083116101e357829003601f168201915b5050505050905087565b60016020528060005260406000206000915090505481565b60025481565b6102306106e1565b6000808381526020019081526020016000206040518060e001604052908160008201548152602001600182015481526020016002820154815260200160038201548152602001600482015481526020016005820154815260200160068201805461029990610e43565b80601f01602080910402602001604051908101604052809291908181526020018280546102c590610e43565b80156103125780601f106102e757610100808354040283529160200191610312565b820191906000526020600020905b8154815290600101906020018083116102f557829003601f168201915b5050505050815250509050919050565b60008260018151811061033857610337610e74565b5b602002602001015160008060008381526020019081526020016000206001015414610398576040517f08c379a000000000000000000000000000000000000000000000000000000000815260040161038f90610eef565b60405180910390fd5b836004815181106103ac576103ab610e74565b5b6020026020010151846006815181106103c8576103c7610e74565b5b6020026020010151856007815181106103e4576103e3610e74565b5b60200260200101516000831161042f576040517f08c379a000000000000000000000000000000000000000000000000000000000815260040161042690610f5b565b60405180910390fd5b818161043b9190610faa565b83111561047d576040517f08c379a000000000000000000000000000000000000000000000000000000000815260040161047490611076565b60405180910390fd5b60006104898888610499565b9050809550505050505092915050565b60006104a36106e1565b6000846000815181106104b9576104b8610e74565b5b602002602001015190506000856001815181106104d9576104d8610e74565b5b602002602001015190506000866002815181106104f9576104f8610e74565b5b6020026020010151905060008760038151811061051957610518610e74565b5b6020026020010151905060008860048151811061053957610538610e74565b5b6020026020010151905060008960058151811061055957610558610e74565b5b6020026020010151905060008960008151811061057957610578610e74565b5b602002602001015190506040518060e00160405280888152602001878152602001868152602001858152602001848152602001838152602001828152509750876000808d6001815181106105d0576105cf610e74565b5b60200260200101518152602001908152602001600020600082015181600001556020820151816001015560408201518160020155606082015181600301556080820151816004015560a0820151816005015560c082015181600601908051906020019061063e92919061071e565b509050508a60018151811061065657610655610e74565b5b60200260200101516001600060025481526020019081526020016000208190555060016002546106869190611096565b6002819055507f43f7066a052077ee14280327c8834c3338a33593f87ecec2054f8d7d3fb220f6878787878787876040516106c797969594939291906108e0565b60405180910390a160019850505050505050505092915050565b6040518060e00160405280600081526020016000815260200160008152602001600081526020016000815260200160008152602001606081525090565b82805461072a90610e43565b90600052602060002090601f01602090048101928261074c5760008555610793565b82601f1061076557805160ff1916838001178555610793565b82800160010185558215610793579182015b82811115610792578251825591602001919060010190610777565b5b5090506107a091906107a4565b5090565b5b808211156107bd5760008160009055506001016107a5565b5090565b6000604051905090565b600080fd5b600080fd5b6000819050919050565b6107e8816107d5565b81146107f357600080fd5b50565b600081359050610805816107df565b92915050565b600060208284031215610821576108206107cb565b5b600061082f848285016107f6565b91505092915050565b610841816107d5565b82525050565b600081519050919050565b600082825260208201905092915050565b60005b83811015610881578082015181840152602081019050610866565b83811115610890576000848401525b50505050565b6000601f19601f8301169050919050565b60006108b282610847565b6108bc8185610852565b93506108cc818560208601610863565b6108d581610896565b840191505092915050565b600060e0820190506108f5600083018a610838565b6109026020830189610838565b61090f6040830188610838565b61091c6060830187610838565b6109296080830186610838565b61093660a0830185610838565b81810360c083015261094881846108a7565b905098975050505050505050565b600060208201905061096b6000830184610838565b92915050565b61097a816107d5565b82525050565b600082825260208201905092915050565b600061099c82610847565b6109a68185610980565b93506109b6818560208601610863565b6109bf81610896565b840191505092915050565b600060e0830160008301516109e26000860182610971565b5060208301516109f56020860182610971565b506040830151610a086040860182610971565b506060830151610a1b6060860182610971565b506080830151610a2e6080860182610971565b5060a0830151610a4160a0860182610971565b5060c083015184820360c0860152610a598282610991565b9150508091505092915050565b60006020820190508181036000830152610a8081846109ca565b905092915050565b600080fd5b7f4e487b7100000000000000000000000000000000000000000000000000000000600052604160045260246000fd5b610ac582610896565b810181811067ffffffffffffffff82111715610ae457610ae3610a8d565b5b80604052505050565b6000610af76107c1565b9050610b038282610abc565b919050565b600067ffffffffffffffff821115610b2357610b22610a8d565b5b602082029050602081019050919050565b600080fd5b6000610b4c610b4784610b08565b610aed565b90508083825260208201905060208402830185811115610b6f57610b6e610b34565b5b835b81811015610b985780610b8488826107f6565b845260208401935050602081019050610b71565b5050509392505050565b600082601f830112610bb757610bb6610a88565b5b8135610bc7848260208601610b39565b91505092915050565b600067ffffffffffffffff821115610beb57610bea610a8d565b5b602082029050602081019050919050565b600080fd5b600067ffffffffffffffff821115610c1c57610c1b610a8d565b5b610c2582610896565b9050602081019050919050565b82818337600083830152505050565b6000610c54610c4f84610c01565b610aed565b905082815260208101848484011115610c7057610c6f610bfc565b5b610c7b848285610c32565b509392505050565b600082601f830112610c9857610c97610a88565b5b8135610ca8848260208601610c41565b91505092915050565b6000610cc4610cbf84610bd0565b610aed565b90508083825260208201905060208402830185811115610ce757610ce6610b34565b5b835b81811015610d2e57803567ffffffffffffffff811115610d0c57610d0b610a88565b5b808601610d198982610c83565b85526020850194505050602081019050610ce9565b5050509392505050565b600082601f830112610d4d57610d4c610a88565b5b8135610d5d848260208601610cb1565b91505092915050565b60008060408385031215610d7d57610d7c6107cb565b5b600083013567ffffffffffffffff811115610d9b57610d9a6107d0565b5b610da785828601610ba2565b925050602083013567ffffffffffffffff811115610dc857610dc76107d0565b5b610dd485828601610d38565b9150509250929050565b60008115159050919050565b610df381610dde565b82525050565b6000602082019050610e0e6000830184610dea565b92915050565b7f4e487b7100000000000000000000000000000000000000000000000000000000600052602260045260246000fd5b60006002820490506001821680610e5b57607f821691505b602082108103610e6e57610e6d610e14565b5b50919050565b7f4e487b7100000000000000000000000000000000000000000000000000000000600052603260045260246000fd5b7f4c6f2068616e67206c756120646120746f6e2074616900000000000000000000600082015250565b6000610ed9601683610852565b9150610ee482610ea3565b602082019050919050565b60006020820190508181036000830152610f0881610ecc565b9050919050565b7f536f206c756f6e672070686169206c6f6e20686f6e2030000000000000000000600082015250565b6000610f45601783610852565b9150610f5082610f0f565b602082019050919050565b60006020820190508181036000830152610f7481610f38565b9050919050565b7f4e487b7100000000000000000000000000000000000000000000000000000000600052601160045260246000fd5b6000610fb5826107d5565b9150610fc0836107d5565b9250817fffffffffffffffffffffffffffffffffffffffffffffffffffffffffffffffff0483118215151615610ff957610ff8610f7b565b5b828202905092915050565b7f536f206c756f6e672070686169206e686f20686f6e20686f61632062616e672060008201527f746f6e672073616e206c756f6e67000000000000000000000000000000000000602082015250565b6000611060602e83610852565b915061106b82611004565b604082019050919050565b6000602082019050818103600083015261108f81611053565b9050919050565b60006110a1826107d5565b91506110ac836107d5565b9250827fffffffffffffffffffffffffffffffffffffffffffffffffffffffffffffffff038211156110e1576110e0610f7b565b5b82820190509291505056fea26469706673582212204be0eb5817ba53e380d7f2000668b54e09068840d888fad9f5c24f2a52de39a664736f6c634300080d0033",
  "immutableReferences": {},
  "source": "// SPDX-License-Identifier: MIT\npragma solidity >=0.5.16 <0.9.0;\n\ncontract LoHangLua {\n    //--------data-------//\n    struct LoHangLua_Struct {\n        uint    id_XaVien;\n        uint    id_LoHangLua;\n        uint    id_GiongLua;\n        uint    id_LichMuaVu;\n        uint    SoLuong;\n        uint    ThoiGian;\n        string  TenGiongLua;\n    }\n\n    mapping ( uint => LoHangLua_Struct ) public DanhSachLoHangLua;\n\n    mapping ( uint => uint ) public DanhSachIdNhatKyDongRuong;\n\n    uint public maxLength = 0;\n\n    //-------event-------//\n    event SuKienThemLoHang (\n        uint    id_XaVien,\n        uint    id_LoHangLua,\n        uint    id_GiongLua,\n        uint    id_LichMuaVu,\n        uint    SoLuong,\n        uint    ThoiGian,\n        string  TenGiongLua\n    );\n\n    //------modifier-----//\n    modifier KiemTraIdLoHangLua (  uint id_LoHangLua ) {\n        require(\n            DanhSachLoHangLua[ id_LoHangLua ].id_LoHangLua == 0,\n            \"Lo hang lua da ton tai\"\n        );\n\n        _;\n    }\n\n    modifier KiemTraSoLuong ( uint SoLuong, uint DienTichDat, uint max_SanLuong ) {\n        require(\n            SoLuong > 0,\n            \"So luong phai lon hon 0\"\n        );\n\n        require(\n            SoLuong <= max_SanLuong*DienTichDat,\n            \"So luong phai nho hon hoac bang tong san luong\"\n        );\n\n        _;\n    }\n\n    /*\n        intProperties[]\n        0: uint    id_XaVien;\n        1: uint    id_LoHangLua;\n        2: uint    id_GiongLua;\n        3: uint    id_LichMuaVu;\n        4: uint    SoLuong;\n        5: uint    ThoiGian;\n        6: uint    DienTichDat;\n        7: uint    max_SanLuong;\n\n        stringProperties[]\n        0: string TenGiongLua\n    */\n\n    //-------handle------//\n    function ThemLoHangLua (\n        uint[]      memory intProperties,\n        string[]    memory stringProperties\n    )\n    public \n    KiemTraIdLoHangLua( intProperties[1] )\n    KiemTraSoLuong( intProperties[4], intProperties[6], intProperties[7] )\n    returns (bool) \n    {\n        bool result = LuuThongTinLoHangLua( intProperties, stringProperties );\n        \n        return result;\n    }\n\n    function LayThongTinLoHangLua(\n        uint id_LoHangLua\n    )\n    external\n    view\n    returns (LoHangLua_Struct memory) {\n        return DanhSachLoHangLua[ id_LoHangLua ];\n    }\n\n    function LuuThongTinLoHangLua (\n        uint[] memory intProperties,\n        string[] memory stringProperties\n    ) \n    internal \n    returns (bool)\n    {\n\n        LoHangLua_Struct memory LoHangLuaMemory;\n\n        uint id_XaVien            =  intProperties[0];\n        uint id_LoHangLua         =  intProperties[1];\n        uint id_GiongLua          =  intProperties[2];\n        uint id_LichMuaVu   =  intProperties[3];\n        uint SoLuong              =  intProperties[4];\n        uint ThoiGian             =  intProperties[5];\n        string memory TenGiongLua =  stringProperties[0];\n        \n\n        LoHangLuaMemory = LoHangLua_Struct (\n            id_XaVien,\n            id_LoHangLua,\n            id_GiongLua,\n            id_LichMuaVu,\n            SoLuong,\n            ThoiGian,\n            TenGiongLua\n        );\n\n        DanhSachLoHangLua[ intProperties[1] ] = LoHangLuaMemory;\n\n        DanhSachIdNhatKyDongRuong[ maxLength ] = intProperties[1];\n        maxLength = maxLength + 1;\n\n        emit SuKienThemLoHang (\n            id_XaVien,\n            id_LoHangLua,\n            id_GiongLua,\n            id_LichMuaVu,\n            SoLuong,\n            ThoiGian,\n            TenGiongLua\n        );\n\n        return true;\n    }  \n}",
  "sourcePath": "/Users/trongnhan/Dev/supply-chain-for-agriculture/blockchain/contracts/LoHangLua.sol",
  "compiler": {
    "name": "solc",
    "version": "0.8.13+commit.abaa5c0e.Emscripten.clang"
  },
  "schemaVersion": "3.4.7",
  "updatedAt": "2022-11-20T07:22:32.925Z",
  "networkType": "ethereum",
  "devdoc": {
    "kind": "dev",
    "methods": {},
    "version": 1
  },
  "userdoc": {
    "kind": "user",
    "methods": {},
    "version": 1
  }
}