{
  "contractName": "LoHangLua",
  "abi": [
    {
      "anonymous": false,
      "inputs": [
        {
          "indexed": false,
          "internalType": "uint256",
          "name": "id_XaVien",
          "type": "uint256"
        },
        {
          "indexed": false,
          "internalType": "uint256",
          "name": "id_LoHangLua",
          "type": "uint256"
        },
        {
          "indexed": false,
          "internalType": "uint256",
          "name": "id_GiongLua",
          "type": "uint256"
        },
        {
          "indexed": false,
          "internalType": "uint256",
          "name": "id_NhatKyDongRuong",
          "type": "uint256"
        },
        {
          "indexed": false,
          "internalType": "uint256",
          "name": "SoLuong",
          "type": "uint256"
        }
      ],
      "name": "SuKienThemLoHang",
      "type": "event"
    },
    {
      "inputs": [
        {
          "internalType": "uint256",
          "name": "",
          "type": "uint256"
        }
      ],
      "name": "DanhSachLoHangLua",
      "outputs": [
        {
          "internalType": "uint256",
          "name": "id_XaVien",
          "type": "uint256"
        },
        {
          "internalType": "uint256",
          "name": "id_LoHangLua",
          "type": "uint256"
        },
        {
          "internalType": "uint256",
          "name": "id_GiongLua",
          "type": "uint256"
        },
        {
          "internalType": "uint256",
          "name": "id_NhatKyDongRuong",
          "type": "uint256"
        },
        {
          "internalType": "uint256",
          "name": "SoLuong",
          "type": "uint256"
        }
      ],
      "stateMutability": "view",
      "type": "function",
      "constant": true
    },
    {
      "inputs": [],
      "name": "maxLength",
      "outputs": [
        {
          "internalType": "uint256",
          "name": "",
          "type": "uint256"
        }
      ],
      "stateMutability": "view",
      "type": "function",
      "constant": true
    },
    {
      "inputs": [
        {
          "internalType": "uint256",
          "name": "id_XaVien",
          "type": "uint256"
        },
        {
          "internalType": "uint256",
          "name": "id_LoHangLua",
          "type": "uint256"
        },
        {
          "internalType": "uint256",
          "name": "id_GiongLua",
          "type": "uint256"
        },
        {
          "internalType": "uint256",
          "name": "id_NhatKyDongRuong",
          "type": "uint256"
        },
        {
          "internalType": "uint256",
          "name": "SoLuong",
          "type": "uint256"
        }
      ],
      "name": "ThemLoHangLua",
      "outputs": [
        {
          "internalType": "bool",
          "name": "",
          "type": "bool"
        }
      ],
      "stateMutability": "nonpayable",
      "type": "function"
    }
  ],
  "bytecode": "0x6080604052600060015534801561001557600080fd5b506108e9806100256000396000f3fe608060405234801561001057600080fd5b50600436106100415760003560e01c806351b94b26146100465780638ae6089614610076578063d06a89a4146100aa575b600080fd5b610060600480360381019061005b91906103ee565b6100c8565b60405161006d9190610484565b60405180910390f35b610090600480360381019061008b919061049f565b610348565b6040516100a19594939291906104db565b60405180910390f35b6100b261037e565b6040516100bf919061052e565b60405180910390f35b60008483600080600190506000600190505b6001548310156101395784600080858152602001908152602001600020600101540361010557600091505b83600080858152602001908152602001600020600301540361012657600090505b828061013190610578565b9350506100da565b81806101425750805b60405160200161015190610663565b604051602081830303815290604052906101a1576040517f08c379a00000000000000000000000000000000000000000000000000000000081526004016101989190610720565b60405180910390fd5b50816101e2576040517f08c379a00000000000000000000000000000000000000000000000000000000081526004016101d99061078e565b60405180910390fd5b80610222576040517f08c379a0000000000000000000000000000000000000000000000000000000008152600401610219906107d1565b60405180910390fd5b8660008111610266576040517f08c379a000000000000000000000000000000000000000000000000000000000815260040161025d9061083d565b60405180910390fd5b61026e610384565b6040518060a001604052808e81526020018d81526020018c81526020018b81526020018a81525090508060008060015481526020019081526020016000206000820151816000015560208201518160010155604082015181600201556060820151816003015560808201518160040155905050600180546102ef919061085d565b6001819055507f33174f9c539ce7c06777b60f266f85ac3b60a63b5c91b9ce50f27b6198ed88b98d8d8d8d8d60405161032c9594939291906104db565b60405180910390a1600197505050505050505095945050505050565b60006020528060005260406000206000915090508060000154908060010154908060020154908060030154908060040154905085565b60015481565b6040518060a0016040528060008152602001600081526020016000815260200160008152602001600081525090565b600080fd5b6000819050919050565b6103cb816103b8565b81146103d657600080fd5b50565b6000813590506103e8816103c2565b92915050565b600080600080600060a0868803121561040a576104096103b3565b5b6000610418888289016103d9565b9550506020610429888289016103d9565b945050604061043a888289016103d9565b935050606061044b888289016103d9565b925050608061045c888289016103d9565b9150509295509295909350565b60008115159050919050565b61047e81610469565b82525050565b60006020820190506104996000830184610475565b92915050565b6000602082840312156104b5576104b46103b3565b5b60006104c3848285016103d9565b91505092915050565b6104d5816103b8565b82525050565b600060a0820190506104f060008301886104cc565b6104fd60208301876104cc565b61050a60408301866104cc565b61051760608301856104cc565b61052460808301846104cc565b9695505050505050565b600060208201905061054360008301846104cc565b92915050565b7f4e487b7100000000000000000000000000000000000000000000000000000000600052601160045260246000fd5b6000610583826103b8565b91507fffffffffffffffffffffffffffffffffffffffffffffffffffffffffffffffff82036105b5576105b4610549565b5b600182019050919050565b7f4944206c6f2068616e672070686169206c6120647579206e6861742000000000815250565b600081905092915050565b7f4944206c6f206e686174206b7920646f6e672072756f6e672070686169206c6160008201527f20647579206e6861740000000000000000000000000000000000000000000000602082015250565b600061064d6029836105e6565b9150610658826105f1565b602982019050919050565b600061066e826105c0565b601c8201915061067d82610640565b9150819050919050565b600081519050919050565b600082825260208201905092915050565b60005b838110156106c15780820151818401526020810190506106a6565b838111156106d0576000848401525b50505050565b6000601f19601f8301169050919050565b60006106f282610687565b6106fc8185610692565b935061070c8185602086016106a3565b610715816106d6565b840191505092915050565b6000602082019050818103600083015261073a81846106e7565b905092915050565b7f4944206c6f2068616e67206c75612070686169206c6120647579206e68617400600082015250565b6000610778601f83610692565b915061078382610742565b602082019050919050565b600060208201905081810360008301526107a78161076b565b9050919050565b60006107bb602983610692565b91506107c6826105f1565b604082019050919050565b600060208201905081810360008301526107ea816107ae565b9050919050565b7f536f206c756f6e672070686169206c6f6e20686f6e2030000000000000000000600082015250565b6000610827601783610692565b9150610832826107f1565b602082019050919050565b600060208201905081810360008301526108568161081a565b9050919050565b6000610868826103b8565b9150610873836103b8565b9250827fffffffffffffffffffffffffffffffffffffffffffffffffffffffffffffffff038211156108a8576108a7610549565b5b82820190509291505056fea26469706673582212200b0d856fd6026b6829985b1c6c7d54e27bc727eaa000da5ac6776ac6722f139964736f6c634300080d0033",
  "immutableReferences": {},
  "source": "// SPDX-License-Identifier: MIT\npragma solidity >=0.5.16 <0.9.0;\n\ncontract LoHangLua {\n    //--------data-------//\n    struct LoHangLua_Struct {\n        uint id_XaVien;\n        uint id_LoHangLua;\n        uint id_GiongLua;\n        uint id_NhatKyDongRuong;\n        uint SoLuong;\n    }\n\n    mapping ( uint => LoHangLua_Struct )\n    public DanhSachLoHangLua;\n\n    uint public maxLength = 0;\n\n    //-------event-------//\n    event SuKienThemLoHang (\n        uint id_XaVien,\n        uint id_LoHangLua,\n        uint id_GiongLua,\n        uint id_NhatKyDongRuong,\n        uint SoLuong\n    );\n\n    //------modifier-----//\n    modifier KiemTraSoLuong ( uint SoLuong ) {\n        require( \n            SoLuong > 0,\n            \"So luong phai lon hon 0\"\n        );\n\n        _;\n    }\n\n    modifier KiemTraLoHangLua ( \n        uint id_LoHangLua, \n        uint id_NhatKyDongRuong \n    ) {\n        uint index                  = 0;\n        bool checkIdLoHangLua       = true;\n        bool checkIdNhatKyDongRuong = true;\n\n        for ( index; index < maxLength; index ++ ) {\n            if ( DanhSachLoHangLua[ index ].id_LoHangLua == id_LoHangLua ) {\n                checkIdLoHangLua = false;\n            }\n\n            if ( DanhSachLoHangLua[ index ].id_NhatKyDongRuong == id_NhatKyDongRuong ) {\n                checkIdNhatKyDongRuong = false;\n            }\n        }\n\n        require(\n            checkIdLoHangLua || checkIdNhatKyDongRuong,\n            string.concat(\n                \"ID lo hang phai la duy nhat \",\n                \"ID lo nhat ky dong ruong phai la duy nhat\"\n            )\n        );\n\n        require (\n            checkIdLoHangLua,\n             \"ID lo hang lua phai la duy nhat\"\n        );\n\n        require (\n            checkIdNhatKyDongRuong,\n            \"ID lo nhat ky dong ruong phai la duy nhat\"\n        );\n\n        _;\n    }\n\n    //-------handle------//\n    function ThemLoHangLua (\n        uint id_XaVien,\n        uint id_LoHangLua,\n        uint id_GiongLua,\n        uint id_NhatKyDongRuong,\n        uint SoLuong\n    )\n    public \n    KiemTraLoHangLua(\n        id_LoHangLua,\n        id_NhatKyDongRuong\n    )\n    KiemTraSoLuong( SoLuong )\n    returns (bool) \n    {\n        LoHangLua_Struct memory LoHangLuaMemory;\n\n        LoHangLuaMemory = LoHangLua_Struct (\n            id_XaVien,\n            id_LoHangLua,\n            id_GiongLua,\n            id_NhatKyDongRuong,\n            SoLuong\n        );\n\n        DanhSachLoHangLua[maxLength] = LoHangLuaMemory;\n        maxLength = maxLength + 1;\n\n        emit SuKienThemLoHang(\n            id_XaVien,\n            id_LoHangLua,\n            id_GiongLua,\n            id_NhatKyDongRuong,\n            SoLuong\n        );\n\n        return true;\n    }\n}",
  "sourcePath": "/Users/trongnhan/Dev/supply-chain-for-agriculture/blockchain/contracts/LoHangLua.sol",
  "compiler": {
    "name": "solc",
    "version": "0.8.13+commit.abaa5c0e.Emscripten.clang"
  },
  "schemaVersion": "3.4.7",
  "updatedAt": "2022-07-05T15:20:04.812Z",
  "networkType": "ethereum",
  "devdoc": {
    "kind": "dev",
    "methods": {},
    "version": 1
  },
  "userdoc": {
    "kind": "user",
    "methods": {},
    "version": 1
  }
}