{
  "contractName": "LoHangVatTu",
  "abi": [
    {
      "anonymous": false,
      "inputs": [
        {
          "indexed": false,
          "internalType": "uint256",
          "name": "id_LoHangVatTu",
          "type": "uint256"
        },
        {
          "indexed": false,
          "internalType": "uint256",
          "name": "id_Muavu",
          "type": "uint256"
        },
        {
          "indexed": false,
          "internalType": "uint256",
          "name": "id_VatTu",
          "type": "uint256"
        },
        {
          "indexed": false,
          "internalType": "uint256",
          "name": "SoLuong",
          "type": "uint256"
        },
        {
          "indexed": false,
          "internalType": "string",
          "name": "ThongTinKhac",
          "type": "string"
        }
      ],
      "name": "SuKienThemLoHangVatTu",
      "type": "event"
    },
    {
      "inputs": [
        {
          "internalType": "uint256",
          "name": "",
          "type": "uint256"
        }
      ],
      "name": "DanhSachLoHangVatTu",
      "outputs": [
        {
          "internalType": "uint256",
          "name": "id_LoHangVatTu",
          "type": "uint256"
        },
        {
          "internalType": "uint256",
          "name": "id_Muavu",
          "type": "uint256"
        },
        {
          "internalType": "uint256",
          "name": "id_VatTu",
          "type": "uint256"
        },
        {
          "internalType": "uint256",
          "name": "SoLuong",
          "type": "uint256"
        },
        {
          "internalType": "string",
          "name": "ThongTinKhac",
          "type": "string"
        }
      ],
      "stateMutability": "view",
      "type": "function",
      "constant": true
    },
    {
      "inputs": [],
      "name": "maxLength",
      "outputs": [
        {
          "internalType": "uint256",
          "name": "",
          "type": "uint256"
        }
      ],
      "stateMutability": "view",
      "type": "function",
      "constant": true
    },
    {
      "inputs": [
        {
          "internalType": "uint256",
          "name": "id_LoHangVatTu",
          "type": "uint256"
        },
        {
          "internalType": "uint256",
          "name": "id_Muavu",
          "type": "uint256"
        },
        {
          "internalType": "uint256",
          "name": "id_VatTu",
          "type": "uint256"
        },
        {
          "internalType": "uint256",
          "name": "SoLuong",
          "type": "uint256"
        },
        {
          "internalType": "string",
          "name": "ThongTinKhac",
          "type": "string"
        }
      ],
      "name": "ThemLohangVatTu",
      "outputs": [
        {
          "internalType": "bool",
          "name": "",
          "type": "bool"
        }
      ],
      "stateMutability": "nonpayable",
      "type": "function"
    }
  ],
  "bytecode": "0x6080604052600060015534801561001557600080fd5b506109ef806100256000396000f3fe608060405234801561001057600080fd5b50600436106100415760003560e01c80634734df581461004657806357550ab11461007a578063d06a89a4146100aa575b600080fd5b610060600480360381019061005b9190610468565b6100c8565b60405161007195949392919061053d565b60405180910390f35b610094600480360381019061008f91906106cc565b610186565b6040516100a1919061077e565b60405180910390f35b6100b2610346565b6040516100bf9190610799565b60405180910390f35b6000602052806000526040600020600091509050806000015490806001015490806002015490806003015490806004018054610103906107e3565b80601f016020809104026020016040519081016040528092919081815260200182805461012f906107e3565b801561017c5780601f106101515761010080835404028352916020019161017c565b820191906000526020600020905b81548152906001019060200180831161015f57829003601f168201915b5050505050905085565b600085600080600190505b6001548210156101cf578260008084815260200190815260200160002060000154036101bc57600090505b81806101c790610843565b925050610191565b8061020f576040517f08c379a0000000000000000000000000000000000000000000000000000000008152600401610206906108d7565b60405180910390fd5b8560008111610253576040517f08c379a000000000000000000000000000000000000000000000000000000000815260040161024a90610943565b60405180910390fd5b61025b61034c565b6040518060a001604052808c81526020018b81526020018a81526020018981526020018881525090508060008060015481526020019081526020016000206000820151816000015560208201518160010155604082015181600201556060820151816003015560808201518160040190805190602001906102dd92919061037b565b50905050600180546102ef9190610963565b6001819055507fc96a22acee3c7e1eb2b67ad3784d0ab229eda8475848312520460f0c178b720b8b8b8b8b8b60405161032c95949392919061053d565b60405180910390a160019550505050505095945050505050565b60015481565b6040518060a0016040528060008152602001600081526020016000815260200160008152602001606081525090565b828054610387906107e3565b90600052602060002090601f0160209004810192826103a957600085556103f0565b82601f106103c257805160ff19168380011785556103f0565b828001600101855582156103f0579182015b828111156103ef5782518255916020019190600101906103d4565b5b5090506103fd9190610401565b5090565b5b8082111561041a576000816000905550600101610402565b5090565b6000604051905090565b600080fd5b600080fd5b6000819050919050565b61044581610432565b811461045057600080fd5b50565b6000813590506104628161043c565b92915050565b60006020828403121561047e5761047d610428565b5b600061048c84828501610453565b91505092915050565b61049e81610432565b82525050565b600081519050919050565b600082825260208201905092915050565b60005b838110156104de5780820151818401526020810190506104c3565b838111156104ed576000848401525b50505050565b6000601f19601f8301169050919050565b600061050f826104a4565b61051981856104af565b93506105298185602086016104c0565b610532816104f3565b840191505092915050565b600060a0820190506105526000830188610495565b61055f6020830187610495565b61056c6040830186610495565b6105796060830185610495565b818103608083015261058b8184610504565b90509695505050505050565b600080fd5b600080fd5b7f4e487b7100000000000000000000000000000000000000000000000000000000600052604160045260246000fd5b6105d9826104f3565b810181811067ffffffffffffffff821117156105f8576105f76105a1565b5b80604052505050565b600061060b61041e565b905061061782826105d0565b919050565b600067ffffffffffffffff821115610637576106366105a1565b5b610640826104f3565b9050602081019050919050565b82818337600083830152505050565b600061066f61066a8461061c565b610601565b90508281526020810184848401111561068b5761068a61059c565b5b61069684828561064d565b509392505050565b600082601f8301126106b3576106b2610597565b5b81356106c384826020860161065c565b91505092915050565b600080600080600060a086880312156106e8576106e7610428565b5b60006106f688828901610453565b955050602061070788828901610453565b945050604061071888828901610453565b935050606061072988828901610453565b925050608086013567ffffffffffffffff81111561074a5761074961042d565b5b6107568882890161069e565b9150509295509295909350565b60008115159050919050565b61077881610763565b82525050565b6000602082019050610793600083018461076f565b92915050565b60006020820190506107ae6000830184610495565b92915050565b7f4e487b7100000000000000000000000000000000000000000000000000000000600052602260045260246000fd5b600060028204905060018216806107fb57607f821691505b60208210810361080e5761080d6107b4565b5b50919050565b7f4e487b7100000000000000000000000000000000000000000000000000000000600052601160045260246000fd5b600061084e82610432565b91507fffffffffffffffffffffffffffffffffffffffffffffffffffffffffffffffff82036108805761087f610814565b5b600182019050919050565b7f4964206c6f2068616e6720766174207475206c6120647579206e686174000000600082015250565b60006108c1601d836104af565b91506108cc8261088b565b602082019050919050565b600060208201905081810360008301526108f0816108b4565b9050919050565b7f536f206c756f6e672070686169206c6f6e20686f6e2030000000000000000000600082015250565b600061092d6017836104af565b9150610938826108f7565b602082019050919050565b6000602082019050818103600083015261095c81610920565b9050919050565b600061096e82610432565b915061097983610432565b9250827fffffffffffffffffffffffffffffffffffffffffffffffffffffffffffffffff038211156109ae576109ad610814565b5b82820190509291505056fea2646970667358221220b213593fe12fe9157cbe97ab8a578e68e3679ca98cfd5738ffb02651206f25df64736f6c634300080d0033",
  "immutableReferences": {},
  "source": "// SPDX-License-Identifier: MIT\npragma solidity >=0.5.16 <0.9.0;\n\ncontract LoHangVatTu {\n    //--------data-------//\n    struct LoHangVatTu_Struct {\n        uint    id_LoHangVatTu;\n        uint    id_Muavu;\n        uint    id_VatTu;\n        uint    SoLuong;\n        string  ThongTinKhac;\n    }\n    /*\n        ThongTinKhac {\n            ThoiGian,\n            TenVatTu\n        }\n    */\n\n    mapping( uint => LoHangVatTu_Struct )\n    public DanhSachLoHangVatTu;\n\n    uint public maxLength = 0;\n\n    //-------event-------//\n    event SuKienThemLoHangVatTu (\n        uint    id_LoHangVatTu,\n        uint    id_Muavu,\n        uint    id_VatTu,\n        uint    SoLuong,\n        string  ThongTinKhac\n    );\n\n    //------modifier-----//\n    modifier KiemTraIdLoHangVatTu (  uint id_LoHangVatTu ) {\n        uint index = 0;\n        bool checkIdLoHangVatTu = true;\n\n        for ( index; index < maxLength; index ++ ) {\n            if ( DanhSachLoHangVatTu[ index ].id_LoHangVatTu == id_LoHangVatTu ) {\n                checkIdLoHangVatTu = false;\n            }\n        }\n\n        require(\n            checkIdLoHangVatTu,\n            \"Id lo hang vat tu la duy nhat\"\n        );\n        _;\n    }\n\n    modifier KiemTraSoLuong ( uint SoLuong ) {\n        require(\n            SoLuong > 0,\n            \"So luong phai lon hon 0\"\n        );\n\n        _;\n    }\n\n    //-------handle------//\n    function ThemLohangVatTu (\n        uint            id_LoHangVatTu,\n        uint            id_Muavu,\n        uint            id_VatTu,\n        uint            SoLuong,\n        string memory   ThongTinKhac\n    ) \n    public\n    KiemTraIdLoHangVatTu(id_LoHangVatTu)\n    KiemTraSoLuong( SoLuong )\n    returns ( bool )\n    {\n        LoHangVatTu_Struct memory LoHangVatTuMemory;\n        LoHangVatTuMemory = LoHangVatTu_Struct (\n            id_LoHangVatTu,\n            id_Muavu,\n            id_VatTu,\n            SoLuong,\n            ThongTinKhac\n        );\n\n        DanhSachLoHangVatTu[ maxLength ] = LoHangVatTuMemory;\n        maxLength = maxLength + 1;\n\n        emit SuKienThemLoHangVatTu (\n            id_LoHangVatTu,\n            id_Muavu,\n            id_VatTu,\n            SoLuong,\n            ThongTinKhac\n        );\n\n        return true;\n    }\n}",
  "sourcePath": "/home/dpkhang/Personal/Studying/projects/supply-chain-for-agriculture/blockchain/contracts/LoHangVatTu.sol",
  "compiler": {
    "name": "solc",
    "version": "0.8.13+commit.abaa5c0e.Emscripten.clang"
  },
  "schemaVersion": "3.4.7",
  "updatedAt": "2022-07-08T09:16:21.159Z",
  "networkType": "ethereum",
  "devdoc": {
    "kind": "dev",
    "methods": {},
    "version": 1
  },
  "userdoc": {
    "kind": "user",
    "methods": {},
    "version": 1
  }
}