{
  "contractName": "LoHangSanPham",
  "abi": [
    {
      "anonymous": false,
      "inputs": [
        {
          "indexed": false,
          "internalType": "uint256",
          "name": "id_LoHangSanPham",
          "type": "uint256"
        },
        {
          "indexed": false,
          "internalType": "uint256",
          "name": "id_NguoiTieuDung",
          "type": "uint256"
        },
        {
          "indexed": false,
          "internalType": "uint256",
          "name": "id_NguoiBan",
          "type": "uint256"
        },
        {
          "indexed": false,
          "internalType": "uint256",
          "name": "SoLuong",
          "type": "uint256"
        },
        {
          "indexed": false,
          "internalType": "uint256",
          "name": "ThoiGian",
          "type": "uint256"
        }
      ],
      "name": "SuKienThemLoHang",
      "type": "event"
    },
    {
      "inputs": [
        {
          "internalType": "uint256",
          "name": "",
          "type": "uint256"
        }
      ],
      "name": "DanhSachIdLoHangSanPham",
      "outputs": [
        {
          "internalType": "uint256",
          "name": "",
          "type": "uint256"
        }
      ],
      "stateMutability": "view",
      "type": "function",
      "constant": true
    },
    {
      "inputs": [
        {
          "internalType": "uint256",
          "name": "",
          "type": "uint256"
        }
      ],
      "name": "DanhSachLoHangSanPham",
      "outputs": [
        {
          "internalType": "uint256",
          "name": "id_LoHangSanPham",
          "type": "uint256"
        },
        {
          "internalType": "uint256",
          "name": "id_NguoiTieuDung",
          "type": "uint256"
        },
        {
          "internalType": "uint256",
          "name": "id_NguoiBan",
          "type": "uint256"
        },
        {
          "internalType": "uint256",
          "name": "SoLuong",
          "type": "uint256"
        },
        {
          "internalType": "uint256",
          "name": "ThoiGian",
          "type": "uint256"
        }
      ],
      "stateMutability": "view",
      "type": "function",
      "constant": true
    },
    {
      "inputs": [
        {
          "internalType": "uint256[]",
          "name": "intProperties",
          "type": "uint256[]"
        }
      ],
      "name": "ThemLoHangSanPham",
      "outputs": [
        {
          "internalType": "bool",
          "name": "",
          "type": "bool"
        }
      ],
      "stateMutability": "nonpayable",
      "type": "function"
    },
    {
      "inputs": [
        {
          "internalType": "uint256",
          "name": "id_LoHangSanPham",
          "type": "uint256"
        }
      ],
      "name": "LayThongTinSanPham",
      "outputs": [
        {
          "components": [
            {
              "internalType": "uint256",
              "name": "id_LoHangSanPham",
              "type": "uint256"
            },
            {
              "internalType": "uint256",
              "name": "id_NguoiTieuDung",
              "type": "uint256"
            },
            {
              "internalType": "uint256",
              "name": "id_NguoiBan",
              "type": "uint256"
            },
            {
              "internalType": "uint256",
              "name": "SoLuong",
              "type": "uint256"
            },
            {
              "internalType": "uint256",
              "name": "ThoiGian",
              "type": "uint256"
            }
          ],
          "internalType": "struct LoHangSanPham.LoHangSanPham_Struct",
          "name": "",
          "type": "tuple"
        }
      ],
      "stateMutability": "view",
      "type": "function",
      "constant": true
    }
  ],
  "bytecode": "0x6080604052600060025534801561001557600080fd5b506109c1806100256000396000f3fe608060405234801561001057600080fd5b506004361061004c5760003560e01c8063a1a1dfc614610051578063ac07584f14610081578063d1884118146100b1578063e2e3dc9a146100e5575b600080fd5b61006b60048036038101906100669190610633565b610115565b6040516100789190610697565b60405180910390f35b61009b600480360381019061009691906106b2565b610202565b6040516100a891906106ee565b60405180910390f35b6100cb60048036038101906100c691906106b2565b61021a565b6040516100dc959493929190610709565b60405180910390f35b6100ff60048036038101906100fa91906106b2565b610250565b60405161010c91906107d3565b60405180910390f35b60008160008151811061012b5761012a6107ee565b5b60200260200101516000806000838152602001908152602001600020600001541461018b576040517f08c379a00000000000000000000000000000000000000000000000000000000081526004016101829061087a565b60405180910390fd5b8260038151811061019f5761019e6107ee565b5b6020026020010151600081116101ea576040517f08c379a00000000000000000000000000000000000000000000000000000000081526004016101e1906108e6565b60405180910390fd5b60006101f5856102ae565b9050809350505050919050565b60016020528060005260406000206000915090505481565b60006020528060005260406000206000915090508060000154908060010154908060020154908060030154908060040154905085565b610258610461565b6000808381526020019081526020016000206040518060a0016040529081600082015481526020016001820154815260200160028201548152602001600382015481526020016004820154815250509050919050565b60006102b8610461565b6000836000815181106102ce576102cd6107ee565b5b602002602001015190506000846001815181106102ee576102ed6107ee565b5b6020026020010151905060008560028151811061030e5761030d6107ee565b5b6020026020010151905060008660038151811061032e5761032d6107ee565b5b6020026020010151905060008760048151811061034e5761034d6107ee565b5b602002602001015190506040518060a0016040528086815260200185815260200184815260200183815260200182815250955087600081518110610395576103946107ee565b5b60200260200101516001600060025481526020019081526020016000208190555060016002546103c59190610935565b6002819055508560008087815260200190815260200160002060008201518160000155602082015181600101556040820151816002015560608201518160030155608082015181600401559050507f33174f9c539ce7c06777b60f266f85ac3b60a63b5c91b9ce50f27b6198ed88b9858585858560405161044a959493929190610709565b60405180910390a160019650505050505050919050565b6040518060a0016040528060008152602001600081526020016000815260200160008152602001600081525090565b6000604051905090565b600080fd5b600080fd5b600080fd5b6000601f19601f8301169050919050565b7f4e487b7100000000000000000000000000000000000000000000000000000000600052604160045260246000fd5b6104f2826104a9565b810181811067ffffffffffffffff82111715610511576105106104ba565b5b80604052505050565b6000610524610490565b905061053082826104e9565b919050565b600067ffffffffffffffff8211156105505761054f6104ba565b5b602082029050602081019050919050565b600080fd5b6000819050919050565b61057981610566565b811461058457600080fd5b50565b60008135905061059681610570565b92915050565b60006105af6105aa84610535565b61051a565b905080838252602082019050602084028301858111156105d2576105d1610561565b5b835b818110156105fb57806105e78882610587565b8452602084019350506020810190506105d4565b5050509392505050565b600082601f83011261061a576106196104a4565b5b813561062a84826020860161059c565b91505092915050565b6000602082840312156106495761064861049a565b5b600082013567ffffffffffffffff8111156106675761066661049f565b5b61067384828501610605565b91505092915050565b60008115159050919050565b6106918161067c565b82525050565b60006020820190506106ac6000830184610688565b92915050565b6000602082840312156106c8576106c761049a565b5b60006106d684828501610587565b91505092915050565b6106e881610566565b82525050565b600060208201905061070360008301846106df565b92915050565b600060a08201905061071e60008301886106df565b61072b60208301876106df565b61073860408301866106df565b61074560608301856106df565b61075260808301846106df565b9695505050505050565b61076581610566565b82525050565b60a082016000820151610781600085018261075c565b506020820151610794602085018261075c565b5060408201516107a7604085018261075c565b5060608201516107ba606085018261075c565b5060808201516107cd608085018261075c565b50505050565b600060a0820190506107e8600083018461076b565b92915050565b7f4e487b7100000000000000000000000000000000000000000000000000000000600052603260045260246000fd5b600082825260208201905092915050565b7f4c6f2068616e672073616e207068616d20646120746f6e207461690000000000600082015250565b6000610864601b8361081d565b915061086f8261082e565b602082019050919050565b6000602082019050818103600083015261089381610857565b9050919050565b7f536f206c756f6e672070686169206c6f6e20686f6e2030000000000000000000600082015250565b60006108d060178361081d565b91506108db8261089a565b602082019050919050565b600060208201905081810360008301526108ff816108c3565b9050919050565b7f4e487b7100000000000000000000000000000000000000000000000000000000600052601160045260246000fd5b600061094082610566565b915061094b83610566565b9250827fffffffffffffffffffffffffffffffffffffffffffffffffffffffffffffffff038211156109805761097f610906565b5b82820190509291505056fea26469706673582212202a5a7eca39e94a62994f67a6d00be2d669488515cd0f2c6bf478e0eccc4dcffe64736f6c634300080d0033",
  "immutableReferences": {},
  "source": "// SPDX-License-Identifier: MIT\npragma solidity >=0.5.16 <0.9.0;\n\ncontract LoHangSanPham {\n    struct LoHangSanPham_Struct {\n        uint id_LoHangSanPham;\n        uint id_NguoiTieuDung;\n        uint id_NguoiBan;\n        uint SoLuong;\n        uint ThoiGian;\n    }\n\n    mapping(uint => LoHangSanPham_Struct) public DanhSachLoHangSanPham;\n    mapping (uint => uint) public DanhSachIdLoHangSanPham;\n    uint maxLength = 0;\n\n    event SuKienThemLoHang(\n        uint id_LoHangSanPham,\n        uint id_NguoiTieuDung, \n        uint id_NguoiBan,\n        uint SoLuong,\n        uint ThoiGian\n    );\n\n    modifier KiemTraIdLoHangSanPham (uint id_LoHangSanPham) {\n        require (\n            DanhSachLoHangSanPham[ id_LoHangSanPham ].id_LoHangSanPham == 0,\n            \"Lo hang san pham da ton tai\"\n        );\n        \n        _;\n    }\n\n    modifier KiemTraSoLuong ( uint SoLuong ) {\n        require(\n            SoLuong > 0,\n            \"So luong phai lon hon 0\"\n        );\n\n        _;\n    }\n\n        //-------handle------//\n    /*\n    intProperties [\n        0: uint            id_LoHangSanPham\n        1: uint            id_NguoiTieuDung,\n        2: uint            id_NguoiBan,\n        3: uint            SoLuong,\n        4: uint            ThoiGian\n    ]\n    */\n\n    function LuuThongTinLoHangSanPham (\n        uint[] memory intProperties\n    ) \n    internal\n    returns (bool)\n    {\n        LoHangSanPham_Struct memory LoHangSanPhamMermory;\n        uint id_LoHangSanPham = intProperties[0];\n        uint id_NguoiTieuDung = intProperties[1];\n        uint id_NguoiBan = intProperties[2];\n        uint SoLuong = intProperties[3];\n        uint ThoiGian = intProperties[4];\n\n        LoHangSanPhamMermory = LoHangSanPham_Struct(\n            id_LoHangSanPham,\n            id_NguoiTieuDung,\n            id_NguoiBan,\n            SoLuong,\n            ThoiGian\n        );\n\n        DanhSachIdLoHangSanPham[ maxLength ] = intProperties[0];\n        maxLength = maxLength + 1;\n\n        DanhSachLoHangSanPham[ id_LoHangSanPham ] = LoHangSanPhamMermory;\n\n        emit SuKienThemLoHang(id_LoHangSanPham, id_NguoiTieuDung, id_NguoiBan, SoLuong, ThoiGian);\n\n        return true;\n    }\n\n    function ThemLoHangSanPham (\n        uint[]   memory intProperties\n    )\n    public\n    KiemTraIdLoHangSanPham(intProperties[0])\n    KiemTraSoLuong(intProperties[3])\n    returns(bool)\n    {\n        bool result = LuuThongTinLoHangSanPham(intProperties);\n        return result;\n    }\n\n    function LayThongTinSanPham(uint id_LoHangSanPham)\n    external view\n    returns (LoHangSanPham_Struct memory)\n    {\n        return DanhSachLoHangSanPham[ id_LoHangSanPham ];\n    }\n\n\n}",
  "sourcePath": "/Users/trongnhan/Dev/supply-chain-for-agriculture/blockchain/contracts/LoHangSanPham.sol",
  "compiler": {
    "name": "solc",
    "version": "0.8.13+commit.abaa5c0e.Emscripten.clang"
  },
  "schemaVersion": "3.4.7",
  "updatedAt": "2022-11-20T07:22:32.975Z",
  "networkType": "ethereum",
  "devdoc": {
    "kind": "dev",
    "methods": {},
    "version": 1
  },
  "userdoc": {
    "kind": "user",
    "methods": {},
    "version": 1
  }
}