{
  "contractName": "LoHangVatTu",
  "abi": [
    {
      "anonymous": false,
      "inputs": [
        {
          "indexed": false,
          "internalType": "uint256",
          "name": "id_LoHangVatTu",
          "type": "uint256"
        },
        {
          "indexed": false,
          "internalType": "uint256",
          "name": "id_Muavu",
          "type": "uint256"
        },
        {
          "indexed": false,
          "internalType": "uint256",
          "name": "id_VatTu",
          "type": "uint256"
        },
        {
          "indexed": false,
          "internalType": "uint256",
          "name": "SoLuong",
          "type": "uint256"
        }
      ],
      "name": "SuKienThemLoHangVatTu",
      "type": "event"
    },
    {
      "inputs": [
        {
          "internalType": "uint256",
          "name": "",
          "type": "uint256"
        }
      ],
      "name": "DanhSachLoHangVatTu",
      "outputs": [
        {
          "internalType": "uint256",
          "name": "id_LoHangVatTu",
          "type": "uint256"
        },
        {
          "internalType": "uint256",
          "name": "id_Muavu",
          "type": "uint256"
        },
        {
          "internalType": "uint256",
          "name": "id_VatTu",
          "type": "uint256"
        },
        {
          "internalType": "uint256",
          "name": "SoLuong",
          "type": "uint256"
        }
      ],
      "stateMutability": "view",
      "type": "function",
      "constant": true
    },
    {
      "inputs": [],
      "name": "maxLength",
      "outputs": [
        {
          "internalType": "uint256",
          "name": "",
          "type": "uint256"
        }
      ],
      "stateMutability": "view",
      "type": "function",
      "constant": true
    },
    {
      "inputs": [
        {
          "internalType": "uint256",
          "name": "id_LoHangVatTu",
          "type": "uint256"
        },
        {
          "internalType": "uint256",
          "name": "id_Muavu",
          "type": "uint256"
        },
        {
          "internalType": "uint256",
          "name": "id_VatTu",
          "type": "uint256"
        },
        {
          "internalType": "uint256",
          "name": "SoLuong",
          "type": "uint256"
        }
      ],
      "name": "ThemLohangVatTu",
      "outputs": [
        {
          "internalType": "bool",
          "name": "",
          "type": "bool"
        }
      ],
      "stateMutability": "nonpayable",
      "type": "function"
    }
  ],
  "bytecode": "0x6080604052600060015534801561001557600080fd5b5061061f806100256000396000f3fe608060405234801561001057600080fd5b50600436106100415760003560e01c80634734df5814610046578063d06a89a414610079578063e5c81bdb14610097575b600080fd5b610060600480360381019061005b91906102fa565b6100c7565b6040516100709493929190610336565b60405180910390f35b6100816100f7565b60405161008e919061037b565b60405180910390f35b6100b160048036038101906100ac9190610396565b6100fd565b6040516100be9190610418565b60405180910390f35b60006020528060005260406000206000915090508060000154908060010154908060020154908060030154905084565b60015481565b600084600080600190505b6001548210156101465782600080848152602001908152602001600020600001540361013357600090505b818061013e90610462565b925050610108565b80610186576040517f08c379a000000000000000000000000000000000000000000000000000000000815260040161017d90610507565b60405180910390fd5b84600081116101ca576040517f08c379a00000000000000000000000000000000000000000000000000000000081526004016101c190610573565b60405180910390fd5b6101d2610297565b60405180608001604052808b81526020018a815260200189815260200188815250905080600080600154815260200190815260200160002060008201518160000155602082015181600101556040820151816002015560608201518160030155905050600180546102439190610593565b6001819055507f6441e5119a9b23f9d8872cafc7d50f729580ecab8ce7b135b8c7ca5a1fdaa1748a8a8a8a60405161027e9493929190610336565b60405180910390a1600195505050505050949350505050565b6040518060800160405280600081526020016000815260200160008152602001600081525090565b600080fd5b6000819050919050565b6102d7816102c4565b81146102e257600080fd5b50565b6000813590506102f4816102ce565b92915050565b6000602082840312156103105761030f6102bf565b5b600061031e848285016102e5565b91505092915050565b610330816102c4565b82525050565b600060808201905061034b6000830187610327565b6103586020830186610327565b6103656040830185610327565b6103726060830184610327565b95945050505050565b60006020820190506103906000830184610327565b92915050565b600080600080608085870312156103b0576103af6102bf565b5b60006103be878288016102e5565b94505060206103cf878288016102e5565b93505060406103e0878288016102e5565b92505060606103f1878288016102e5565b91505092959194509250565b60008115159050919050565b610412816103fd565b82525050565b600060208201905061042d6000830184610409565b92915050565b7f4e487b7100000000000000000000000000000000000000000000000000000000600052601160045260246000fd5b600061046d826102c4565b91507fffffffffffffffffffffffffffffffffffffffffffffffffffffffffffffffff820361049f5761049e610433565b5b600182019050919050565b600082825260208201905092915050565b7f4964206c6f2068616e6720766174207475206c6120647579206e686174000000600082015250565b60006104f1601d836104aa565b91506104fc826104bb565b602082019050919050565b60006020820190508181036000830152610520816104e4565b9050919050565b7f536f206c756f6e672070686169206c6f6e20686f6e2030000000000000000000600082015250565b600061055d6017836104aa565b915061056882610527565b602082019050919050565b6000602082019050818103600083015261058c81610550565b9050919050565b600061059e826102c4565b91506105a9836102c4565b9250827fffffffffffffffffffffffffffffffffffffffffffffffffffffffffffffffff038211156105de576105dd610433565b5b82820190509291505056fea2646970667358221220b805e78143d19cd17a4017f546fed222892ed0b410c6d19c22993d8892f6a85364736f6c634300080d0033",
  "immutableReferences": {},
  "source": "// SPDX-License-Identifier: MIT\npragma solidity >=0.5.16 <0.9.0;\n\ncontract LoHangVatTu {\n    //--------data-------//\n    struct LoHangVatTu_Struct {\n        uint id_LoHangVatTu;\n        uint id_Muavu;\n        uint id_VatTu;\n        uint SoLuong;\n    }\n\n    mapping( uint => LoHangVatTu_Struct )\n    public DanhSachLoHangVatTu;\n\n    uint public maxLength = 0;\n\n    //-------event-------//\n    event SuKienThemLoHangVatTu (\n        uint id_LoHangVatTu,\n        uint id_Muavu,\n        uint id_VatTu,\n        uint SoLuong\n    );\n\n    //------modifier-----//\n    modifier KiemTraIdLoHangVatTu (  uint id_LoHangVatTu ) {\n        uint index = 0;\n        bool checkIdLoHangVatTu = true;\n\n        for ( index; index < maxLength; index ++ ) {\n            if ( DanhSachLoHangVatTu[ index ].id_LoHangVatTu == id_LoHangVatTu ) {\n                checkIdLoHangVatTu = false;\n            }\n        }\n\n        require(\n            checkIdLoHangVatTu,\n            \"Id lo hang vat tu la duy nhat\"\n        );\n        _;\n    }\n\n    modifier KiemTraSoLuong ( uint SoLuong ) {\n        require(\n            SoLuong > 0,\n            \"So luong phai lon hon 0\"\n        );\n\n        _;\n    }\n\n    //-------handle------//\n    function ThemLohangVatTu (\n        uint id_LoHangVatTu,\n        uint id_Muavu,\n        uint id_VatTu,\n        uint SoLuong\n    ) \n    public\n    KiemTraIdLoHangVatTu(id_LoHangVatTu)\n    KiemTraSoLuong( SoLuong )\n    returns ( bool )\n    {\n        LoHangVatTu_Struct memory LoHangVatTuMemory;\n        LoHangVatTuMemory = LoHangVatTu_Struct (\n            id_LoHangVatTu,\n            id_Muavu,\n            id_VatTu,\n            SoLuong\n        );\n\n        DanhSachLoHangVatTu[ maxLength ] = LoHangVatTuMemory;\n        maxLength = maxLength + 1;\n\n        emit SuKienThemLoHangVatTu (\n            id_LoHangVatTu,\n            id_Muavu,\n            id_VatTu,\n            SoLuong\n        );\n\n        return true;\n    }\n}",
  "sourcePath": "/Users/trongnhan/Dev/supply-chain-for-agriculture/blockchain/contracts/LoHangVatTu.sol",
  "compiler": {
    "name": "solc",
    "version": "0.8.13+commit.abaa5c0e.Emscripten.clang"
  },
  "schemaVersion": "3.4.7",
  "updatedAt": "2022-07-05T15:46:02.859Z",
  "networkType": "ethereum",
  "devdoc": {
    "kind": "dev",
    "methods": {},
    "version": 1
  },
  "userdoc": {
    "kind": "user",
    "methods": {},
    "version": 1
  }
}