{
  "contractName": "LoHangLua",
  "abi": [
    {
      "anonymous": false,
      "inputs": [
        {
          "indexed": false,
          "internalType": "uint256",
          "name": "id_XaVien",
          "type": "uint256"
        },
        {
          "indexed": false,
          "internalType": "uint256",
          "name": "id_LoHangLua",
          "type": "uint256"
        },
        {
          "indexed": false,
          "internalType": "uint256",
          "name": "id_GiongLua",
          "type": "uint256"
        },
        {
          "indexed": false,
          "internalType": "uint256",
          "name": "id_NhatKyDongRuong",
          "type": "uint256"
        },
        {
          "indexed": false,
          "internalType": "uint256",
          "name": "SoLuong",
          "type": "uint256"
        },
        {
          "indexed": false,
          "internalType": "uint256",
          "name": "ThoiGian",
          "type": "uint256"
        },
        {
          "indexed": false,
          "internalType": "string",
          "name": "TenGiongLua",
          "type": "string"
        }
      ],
      "name": "SuKienThemLoHang",
      "type": "event"
    },
    {
      "inputs": [
        {
          "internalType": "uint256",
          "name": "",
          "type": "uint256"
        }
      ],
      "name": "DanhSachIdNhatKyDongRuong",
      "outputs": [
        {
          "internalType": "uint256",
          "name": "",
          "type": "uint256"
        }
      ],
      "stateMutability": "view",
      "type": "function",
      "constant": true
    },
    {
      "inputs": [
        {
          "internalType": "uint256",
          "name": "",
          "type": "uint256"
        }
      ],
      "name": "DanhSachLoHangLua",
      "outputs": [
        {
          "internalType": "uint256",
          "name": "id_XaVien",
          "type": "uint256"
        },
        {
          "internalType": "uint256",
          "name": "id_LoHangLua",
          "type": "uint256"
        },
        {
          "internalType": "uint256",
          "name": "id_GiongLua",
          "type": "uint256"
        },
        {
          "internalType": "uint256",
          "name": "id_NhatKyDongRuong",
          "type": "uint256"
        },
        {
          "internalType": "uint256",
          "name": "SoLuong",
          "type": "uint256"
        },
        {
          "internalType": "uint256",
          "name": "ThoiGian",
          "type": "uint256"
        },
        {
          "internalType": "string",
          "name": "TenGiongLua",
          "type": "string"
        }
      ],
      "stateMutability": "view",
      "type": "function",
      "constant": true
    },
    {
      "inputs": [],
      "name": "maxLength",
      "outputs": [
        {
          "internalType": "uint256",
          "name": "",
          "type": "uint256"
        }
      ],
      "stateMutability": "view",
      "type": "function",
      "constant": true
    },
    {
      "inputs": [
        {
          "internalType": "uint256[]",
          "name": "intProperties",
          "type": "uint256[]"
        },
        {
          "internalType": "address[]",
          "name": "addressProperties",
          "type": "address[]"
        },
        {
          "internalType": "string[]",
          "name": "stringProperties",
          "type": "string[]"
        }
      ],
      "name": "ThemLoHangLua",
      "outputs": [
        {
          "internalType": "bool",
          "name": "",
          "type": "bool"
        }
      ],
      "stateMutability": "nonpayable",
      "type": "function"
    },
    {
      "inputs": [
        {
          "internalType": "uint256",
          "name": "id_LoHangLua",
          "type": "uint256"
        }
      ],
      "name": "LayThongTinLoHangLua",
      "outputs": [
        {
          "components": [
            {
              "internalType": "uint256",
              "name": "id_XaVien",
              "type": "uint256"
            },
            {
              "internalType": "uint256",
              "name": "id_LoHangLua",
              "type": "uint256"
            },
            {
              "internalType": "uint256",
              "name": "id_GiongLua",
              "type": "uint256"
            },
            {
              "internalType": "uint256",
              "name": "id_NhatKyDongRuong",
              "type": "uint256"
            },
            {
              "internalType": "uint256",
              "name": "SoLuong",
              "type": "uint256"
            },
            {
              "internalType": "uint256",
              "name": "ThoiGian",
              "type": "uint256"
            },
            {
              "internalType": "string",
              "name": "TenGiongLua",
              "type": "string"
            }
          ],
          "internalType": "struct LoHangLua.LoHangLua_Struct",
          "name": "",
          "type": "tuple"
        }
      ],
      "stateMutability": "view",
      "type": "function",
      "constant": true
    }
  ],
  "bytecode": "0x6080604052600060025534801561001557600080fd5b50611649806100256000396000f3fe608060405234801561001057600080fd5b50600436106100575760003560e01c80638ae608961461005c578063a61e61be14610092578063d06a89a4146100c2578063d5c07c70146100e0578063e73ad38f14610110575b600080fd5b610076600480360381019061007191906109c9565b610140565b6040516100899796959493929190610a9e565b60405180910390f35b6100ac60048036038101906100a791906109c9565b61020a565b6040516100b99190610b14565b60405180910390f35b6100ca610222565b6040516100d79190610b14565b60405180910390f35b6100fa60048036038101906100f591906109c9565b610228565b6040516101079190610c24565b60405180910390f35b61012a60048036038101906101259190611045565b610322565b6040516101379190611107565b60405180910390f35b600060205280600052604060002060009150905080600001549080600101549080600201549080600301549080600401549080600501549080600601805461018790611151565b80601f01602080910402602001604051908101604052809291908181526020018280546101b390611151565b80156102005780601f106101d557610100808354040283529160200191610200565b820191906000526020600020905b8154815290600101906020018083116101e357829003601f168201915b5050505050905087565b60016020528060005260406000206000915090505481565b60025481565b61023061089f565b6000808381526020019081526020016000206040518060e001604052908160008201548152602001600182015481526020016002820154815260200160038201548152602001600482015481526020016005820154815260200160068201805461029990611151565b80601f01602080910402602001604051908101604052809291908181526020018280546102c590611151565b80156103125780601f106102e757610100808354040283529160200191610312565b820191906000526020600020905b8154815290600101906020018083116102f557829003601f168201915b5050505050815250509050919050565b60008360018151811061033857610337611182565b5b602002602001015160008060008381526020019081526020016000206001015414610398576040517f08c379a000000000000000000000000000000000000000000000000000000000815260040161038f906111fd565b60405180910390fd5b846004815181106103ac576103ab611182565b5b6020026020010151856006815181106103c8576103c7611182565b5b6020026020010151866007815181106103e4576103e3611182565b5b60200260200101516000831161042f576040517f08c379a000000000000000000000000000000000000000000000000000000000815260040161042690611269565b60405180910390fd5b818161043b91906112b8565b83111561047d576040517f08c379a000000000000000000000000000000000000000000000000000000000815260040161047490611384565b60405180910390fd5b8760038151811061049157610490611182565b5b6020026020010151876000815181106104ad576104ac611182565b5b60200260200101516000819050828173ffffffffffffffffffffffffffffffffffffffff1663c0b09e54856040518263ffffffff1660e01b81526004016104f49190610b14565b60a060405180830381865afa158015610511573d6000803e3d6000fd5b505050506040513d601f19601f82011682018060405250810190610535919061144a565b6020015114610579576040517f08c379a0000000000000000000000000000000000000000000000000000000008152600401610570906114c3565b60405180910390fd5b8a60038151811061058d5761058c611182565b5b6020026020010151600080600190505b6002548210156105f4576000600160008481526020019081526020016000205490508360008083815260200190815260200160002060030154036105e057600091505b5081806105ec906114e3565b92505061059d565b80610634576040517f08c379a000000000000000000000000000000000000000000000000000000000815260040161062b9061159d565b60405180910390fd5b60006106408f8e610657565b9050809b5050505050505050505050509392505050565b600061066161089f565b60008460008151811061067757610676611182565b5b6020026020010151905060008560018151811061069757610696611182565b5b602002602001015190506000866002815181106106b7576106b6611182565b5b602002602001015190506000876003815181106106d7576106d6611182565b5b602002602001015190506000886004815181106106f7576106f6611182565b5b6020026020010151905060008960058151811061071757610716611182565b5b6020026020010151905060008960008151811061073757610736611182565b5b602002602001015190506040518060e00160405280888152602001878152602001868152602001858152602001848152602001838152602001828152509750876000808d60018151811061078e5761078d611182565b5b60200260200101518152602001908152602001600020600082015181600001556020820151816001015560408201518160020155606082015181600301556080820151816004015560a0820151816005015560c08201518160060190805190602001906107fc9291906108dc565b509050508a60018151811061081457610813611182565b5b602002602001015160016000600254815260200190815260200160002081905550600160025461084491906115bd565b6002819055507f43f7066a052077ee14280327c8834c3338a33593f87ecec2054f8d7d3fb220f6878787878787876040516108859796959493929190610a9e565b60405180910390a160019850505050505050505092915050565b6040518060e00160405280600081526020016000815260200160008152602001600081526020016000815260200160008152602001606081525090565b8280546108e890611151565b90600052602060002090601f01602090048101928261090a5760008555610951565b82601f1061092357805160ff1916838001178555610951565b82800160010185558215610951579182015b82811115610950578251825591602001919060010190610935565b5b50905061095e9190610962565b5090565b5b8082111561097b576000816000905550600101610963565b5090565b6000604051905090565b600080fd5b600080fd5b6000819050919050565b6109a681610993565b81146109b157600080fd5b50565b6000813590506109c38161099d565b92915050565b6000602082840312156109df576109de610989565b5b60006109ed848285016109b4565b91505092915050565b6109ff81610993565b82525050565b600081519050919050565b600082825260208201905092915050565b60005b83811015610a3f578082015181840152602081019050610a24565b83811115610a4e576000848401525b50505050565b6000601f19601f8301169050919050565b6000610a7082610a05565b610a7a8185610a10565b9350610a8a818560208601610a21565b610a9381610a54565b840191505092915050565b600060e082019050610ab3600083018a6109f6565b610ac060208301896109f6565b610acd60408301886109f6565b610ada60608301876109f6565b610ae760808301866109f6565b610af460a08301856109f6565b81810360c0830152610b068184610a65565b905098975050505050505050565b6000602082019050610b2960008301846109f6565b92915050565b610b3881610993565b82525050565b600082825260208201905092915050565b6000610b5a82610a05565b610b648185610b3e565b9350610b74818560208601610a21565b610b7d81610a54565b840191505092915050565b600060e083016000830151610ba06000860182610b2f565b506020830151610bb36020860182610b2f565b506040830151610bc66040860182610b2f565b506060830151610bd96060860182610b2f565b506080830151610bec6080860182610b2f565b5060a0830151610bff60a0860182610b2f565b5060c083015184820360c0860152610c178282610b4f565b9150508091505092915050565b60006020820190508181036000830152610c3e8184610b88565b905092915050565b600080fd5b7f4e487b7100000000000000000000000000000000000000000000000000000000600052604160045260246000fd5b610c8382610a54565b810181811067ffffffffffffffff82111715610ca257610ca1610c4b565b5b80604052505050565b6000610cb561097f565b9050610cc18282610c7a565b919050565b600067ffffffffffffffff821115610ce157610ce0610c4b565b5b602082029050602081019050919050565b600080fd5b6000610d0a610d0584610cc6565b610cab565b90508083825260208201905060208402830185811115610d2d57610d2c610cf2565b5b835b81811015610d565780610d4288826109b4565b845260208401935050602081019050610d2f565b5050509392505050565b600082601f830112610d7557610d74610c46565b5b8135610d85848260208601610cf7565b91505092915050565b600067ffffffffffffffff821115610da957610da8610c4b565b5b602082029050602081019050919050565b600073ffffffffffffffffffffffffffffffffffffffff82169050919050565b6000610de582610dba565b9050919050565b610df581610dda565b8114610e0057600080fd5b50565b600081359050610e1281610dec565b92915050565b6000610e2b610e2684610d8e565b610cab565b90508083825260208201905060208402830185811115610e4e57610e4d610cf2565b5b835b81811015610e775780610e638882610e03565b845260208401935050602081019050610e50565b5050509392505050565b600082601f830112610e9657610e95610c46565b5b8135610ea6848260208601610e18565b91505092915050565b600067ffffffffffffffff821115610eca57610ec9610c4b565b5b602082029050602081019050919050565b600080fd5b600067ffffffffffffffff821115610efb57610efa610c4b565b5b610f0482610a54565b9050602081019050919050565b82818337600083830152505050565b6000610f33610f2e84610ee0565b610cab565b905082815260208101848484011115610f4f57610f4e610edb565b5b610f5a848285610f11565b509392505050565b600082601f830112610f7757610f76610c46565b5b8135610f87848260208601610f20565b91505092915050565b6000610fa3610f9e84610eaf565b610cab565b90508083825260208201905060208402830185811115610fc657610fc5610cf2565b5b835b8181101561100d57803567ffffffffffffffff811115610feb57610fea610c46565b5b808601610ff88982610f62565b85526020850194505050602081019050610fc8565b5050509392505050565b600082601f83011261102c5761102b610c46565b5b813561103c848260208601610f90565b91505092915050565b60008060006060848603121561105e5761105d610989565b5b600084013567ffffffffffffffff81111561107c5761107b61098e565b5b61108886828701610d60565b935050602084013567ffffffffffffffff8111156110a9576110a861098e565b5b6110b586828701610e81565b925050604084013567ffffffffffffffff8111156110d6576110d561098e565b5b6110e286828701611017565b9150509250925092565b60008115159050919050565b611101816110ec565b82525050565b600060208201905061111c60008301846110f8565b92915050565b7f4e487b7100000000000000000000000000000000000000000000000000000000600052602260045260246000fd5b6000600282049050600182168061116957607f821691505b60208210810361117c5761117b611122565b5b50919050565b7f4e487b7100000000000000000000000000000000000000000000000000000000600052603260045260246000fd5b7f4c6f2068616e672076617420747520646120746f6e2074616900000000000000600082015250565b60006111e7601983610a10565b91506111f2826111b1565b602082019050919050565b60006020820190508181036000830152611216816111da565b9050919050565b7f536f206c756f6e672070686169206c6f6e20686f6e2030000000000000000000600082015250565b6000611253601783610a10565b915061125e8261121d565b602082019050919050565b6000602082019050818103600083015261128281611246565b9050919050565b7f4e487b7100000000000000000000000000000000000000000000000000000000600052601160045260246000fd5b60006112c382610993565b91506112ce83610993565b9250817fffffffffffffffffffffffffffffffffffffffffffffffffffffffffffffffff048311821515161561130757611306611289565b5b828202905092915050565b7f536f206c756f6e672070686169206e686f20686f6e20686f61632062616e672060008201527f746f6e672073616e206c756f6e67000000000000000000000000000000000000602082015250565b600061136e602e83610a10565b915061137982611312565b604082019050919050565b6000602082019050818103600083015261139d81611361565b9050919050565b600080fd5b6000815190506113b88161099d565b92915050565b600060a082840312156113d4576113d36113a4565b5b6113de60a0610cab565b905060006113ee848285016113a9565b6000830152506020611402848285016113a9565b6020830152506040611416848285016113a9565b604083015250606061142a848285016113a9565b606083015250608061143e848285016113a9565b60808301525092915050565b600060a082840312156114605761145f610989565b5b600061146e848285016113be565b91505092915050565b7f4e686174206b7920646f6e672072756f6e67206368756120746f6e2074616900600082015250565b60006114ad601f83610a10565b91506114b882611477565b602082019050919050565b600060208201905081810360008301526114dc816114a0565b9050919050565b60006114ee82610993565b91507fffffffffffffffffffffffffffffffffffffffffffffffffffffffffffffffff82036115205761151f611289565b5b600182019050919050565b7f4e686174206b7920646f6e672072756f6e67206e61792064612064756f63206760008201527f69616f2064696368000000000000000000000000000000000000000000000000602082015250565b6000611587602883610a10565b91506115928261152b565b604082019050919050565b600060208201905081810360008301526115b68161157a565b9050919050565b60006115c882610993565b91506115d383610993565b9250827fffffffffffffffffffffffffffffffffffffffffffffffffffffffffffffffff0382111561160857611607611289565b5b82820190509291505056fea264697066735822122019b270f930a42a9ec9ec014929f54a3cbfd2c2cded591c984e9242d18f4a011a64736f6c634300080d0033",
  "immutableReferences": {},
  "source": "// SPDX-License-Identifier: MIT\npragma solidity >=0.5.16 <0.9.0;\n\nimport \"./nhatkydongruong.sol\";\n\ncontract LoHangLua {\n    //--------data-------//\n    struct LoHangLua_Struct {\n        uint    id_XaVien;\n        uint    id_LoHangLua;\n        uint    id_GiongLua;\n        uint    id_NhatKyDongRuong;\n        uint    SoLuong;\n        uint    ThoiGian;\n        string  TenGiongLua;\n    }\n\n    mapping ( uint => LoHangLua_Struct ) public DanhSachLoHangLua;\n\n    mapping ( uint => uint ) public DanhSachIdNhatKyDongRuong;\n\n    uint public maxLength = 0;\n\n    //-------event-------//\n    event SuKienThemLoHang (\n        uint    id_XaVien,\n        uint    id_LoHangLua,\n        uint    id_GiongLua,\n        uint    id_NhatKyDongRuong,\n        uint    SoLuong,\n        uint    ThoiGian,\n        string  TenGiongLua\n    );\n\n    //------modifier-----//\n    modifier KiemTraIdLoHangLua (  uint id_LoHangLua ) {\n        require(\n            DanhSachLoHangLua[ id_LoHangLua ].id_LoHangLua == 0,\n            \"Lo hang vat tu da ton tai\"\n        );\n\n        _;\n    }\n\n    modifier KiemTraSoLuong ( uint SoLuong, uint DienTichDat, uint max_SanLuong ) {\n        require(\n            SoLuong > 0,\n            \"So luong phai lon hon 0\"\n        );\n\n        require(\n            SoLuong <= max_SanLuong*DienTichDat,\n            \"So luong phai nho hon hoac bang tong san luong\"\n        );\n\n        _;\n    }\n\n    modifier KiemTraNhatKyDongRuong ( \n        uint id_NhatKyDongRuong,\n        address addr\n    ) {\n        NhatKyDongRuong nhatkydongruong = NhatKyDongRuong(addr);\n        require(\n            nhatkydongruong.LayNhatKyDongRuong( id_NhatKyDongRuong ).id_NhatKyDongRuong == id_NhatKyDongRuong,\n            \"Nhat ky dong ruong chua ton tai\"\n        );\n        _;\n    }\n\n    modifier KiemTraIdNhatKyDongRuong(\n        uint id_NhatKyDongRuong\n    ) {\n        uint index = 0;\n        bool kiemTraNhatKyRuongDong = true;\n\n        for ( index; index < maxLength; index ++ ) {\n            uint id_NhatKyRuongDongTemp = DanhSachIdNhatKyDongRuong[ index ];\n\n            if ( DanhSachLoHangLua[ id_NhatKyRuongDongTemp ].id_NhatKyDongRuong == id_NhatKyDongRuong ) {\n                kiemTraNhatKyRuongDong = false;\n            }\n        }\n\n        require(\n            kiemTraNhatKyRuongDong,\n            \"Nhat ky dong ruong nay da duoc giao dich\"\n        );\n\n        _;\n    }\n    /*\n        intProperties[]\n        0: uint    id_XaVien;\n        1: uint    id_LoHangLua;\n        2: uint    id_GiongLua;\n        3: uint    id_NhatKyDongRuong;\n        4: uint    SoLuong;\n        5: uint    ThoiGian;\n        6: uint    DienTichDat;\n        7: uint    max_SanLuong;\n\n        stringProperties[]\n        0: string TenGiongLua\n    */\n\n    //-------handle------//\n    function ThemLoHangLua (\n        uint[]      memory intProperties,\n        address[]   memory addressProperties,\n        string[]    memory stringProperties\n    )\n    public \n    KiemTraIdLoHangLua( intProperties[1] )\n    KiemTraSoLuong( intProperties[4], intProperties[6], intProperties[7] )\n    KiemTraNhatKyDongRuong( intProperties[3], addressProperties[0])\n    KiemTraIdNhatKyDongRuong( intProperties[3] )\n    returns (bool) \n    {\n        bool result = LuuThongTinLoHangLua( intProperties, stringProperties );\n        \n        return result;\n    }\n\n    function LayThongTinLoHangLua(\n        uint id_LoHangLua\n    )\n    external\n    view\n    returns (LoHangLua_Struct memory) {\n        return DanhSachLoHangLua[ id_LoHangLua ];\n    }\n\n    function LuuThongTinLoHangLua (\n        uint[] memory intProperties,\n        string[] memory stringProperties\n    ) \n    internal \n    returns (bool)\n    {\n\n        LoHangLua_Struct memory LoHangLuaMemory;\n\n        uint id_XaVien            =  intProperties[0];\n        uint id_LoHangLua         =  intProperties[1];\n        uint id_GiongLua          =  intProperties[2];\n        uint id_NhatKyDongRuong   =  intProperties[3];\n        uint SoLuong              =  intProperties[4];\n        uint ThoiGian             =  intProperties[5];\n        string memory TenGiongLua =  stringProperties[0];\n        \n\n        LoHangLuaMemory = LoHangLua_Struct (\n            id_XaVien,\n            id_LoHangLua,\n            id_GiongLua,\n            id_NhatKyDongRuong,\n            SoLuong,\n            ThoiGian,\n            TenGiongLua\n        );\n\n        DanhSachLoHangLua[ intProperties[1] ] = LoHangLuaMemory;\n\n        DanhSachIdNhatKyDongRuong[ maxLength ] = intProperties[1];\n        maxLength = maxLength + 1;\n\n        emit SuKienThemLoHang (\n            id_XaVien,\n            id_LoHangLua,\n            id_GiongLua,\n            id_NhatKyDongRuong,\n            SoLuong,\n            ThoiGian,\n            TenGiongLua\n        );\n\n        return true;\n    }  \n}",
  "sourcePath": "/home/dpkhang/Personal/Studying/projects/supply-chain-for-agriculture/blockchain/contracts/LoHangLua.sol",
  "compiler": {
    "name": "solc",
    "version": "0.8.13+commit.abaa5c0e.Emscripten.clang"
  },
  "schemaVersion": "3.4.7",
  "updatedAt": "2022-07-11T15:57:39.459Z",
  "networkType": "ethereum",
  "devdoc": {
    "kind": "dev",
    "methods": {},
    "version": 1
  },
  "userdoc": {
    "kind": "user",
    "methods": {},
    "version": 1
  }
}