{
  "contractName": "LoHangVatTu",
  "abi": [
    {
      "anonymous": false,
      "inputs": [
        {
          "indexed": false,
          "internalType": "uint256",
          "name": "id_LoHangVatTu",
          "type": "uint256"
        },
        {
          "indexed": false,
          "internalType": "uint256",
          "name": "id_VatTu",
          "type": "uint256"
        },
        {
          "indexed": false,
          "internalType": "uint256",
          "name": "SoLuong",
          "type": "uint256"
        }
      ],
      "name": "SuKienThemLoHangVatTu",
      "type": "event"
    },
    {
      "inputs": [
        {
          "internalType": "uint256",
          "name": "",
          "type": "uint256"
        }
      ],
      "name": "DanhSachLoHangVatTu",
      "outputs": [
        {
          "internalType": "uint256",
          "name": "id_LoHangVatTu",
          "type": "uint256"
        },
        {
          "internalType": "uint256",
          "name": "id_VatTu",
          "type": "uint256"
        },
        {
          "internalType": "uint256",
          "name": "SoLuong",
          "type": "uint256"
        }
      ],
      "stateMutability": "view",
      "type": "function",
      "constant": true
    },
    {
      "inputs": [],
      "name": "maxLength",
      "outputs": [
        {
          "internalType": "uint256",
          "name": "",
          "type": "uint256"
        }
      ],
      "stateMutability": "view",
      "type": "function",
      "constant": true
    },
    {
      "inputs": [
        {
          "internalType": "uint256",
          "name": "id_LoHangVatTu",
          "type": "uint256"
        },
        {
          "internalType": "uint256",
          "name": "id_VatTu",
          "type": "uint256"
        },
        {
          "internalType": "uint256",
          "name": "SoLuong",
          "type": "uint256"
        }
      ],
      "name": "ThemLohangVatTu",
      "outputs": [
        {
          "internalType": "bool",
          "name": "",
          "type": "bool"
        }
      ],
      "stateMutability": "nonpayable",
      "type": "function"
    }
  ],
  "bytecode": "0x6080604052600060015534801561001557600080fd5b506105dc806100256000396000f3fe608060405234801561001057600080fd5b50600436106100415760003560e01c80634734df5814610046578063d06a89a414610078578063e37f50fa14610096575b600080fd5b610060600480360381019061005b91906102d9565b6100c6565b60405161006f93929190610315565b60405180910390f35b6100806100f0565b60405161008d919061034c565b60405180910390f35b6100b060048036038101906100ab9190610367565b6100f6565b6040516100bd91906103d5565b60405180910390f35b60006020528060005260406000206000915090508060000154908060010154908060020154905083565b60015481565b600083600080600190505b60015482101561013f5782600080848152602001908152602001600020600001540361012c57600090505b81806101379061041f565b925050610101565b8061017f576040517f08c379a0000000000000000000000000000000000000000000000000000000008152600401610176906104c4565b60405180910390fd5b84600081116101c3576040517f08c379a00000000000000000000000000000000000000000000000000000000081526004016101ba90610530565b60405180910390fd5b6101cb61027d565b60405180606001604052808a81526020018981526020018881525090508060008060015481526020019081526020016000206000820151816000015560208201518160010155604082015181600201559050506001805461022c9190610550565b6001819055507f249e3ab1bcaed8b227fa94fb8b6c7803a90c97fa3dc07b9ae13c7705a5b45d3f89898960405161026593929190610315565b60405180910390a16001955050505050509392505050565b60405180606001604052806000815260200160008152602001600081525090565b600080fd5b6000819050919050565b6102b6816102a3565b81146102c157600080fd5b50565b6000813590506102d3816102ad565b92915050565b6000602082840312156102ef576102ee61029e565b5b60006102fd848285016102c4565b91505092915050565b61030f816102a3565b82525050565b600060608201905061032a6000830186610306565b6103376020830185610306565b6103446040830184610306565b949350505050565b60006020820190506103616000830184610306565b92915050565b6000806000606084860312156103805761037f61029e565b5b600061038e868287016102c4565b935050602061039f868287016102c4565b92505060406103b0868287016102c4565b9150509250925092565b60008115159050919050565b6103cf816103ba565b82525050565b60006020820190506103ea60008301846103c6565b92915050565b7f4e487b7100000000000000000000000000000000000000000000000000000000600052601160045260246000fd5b600061042a826102a3565b91507fffffffffffffffffffffffffffffffffffffffffffffffffffffffffffffffff820361045c5761045b6103f0565b5b600182019050919050565b600082825260208201905092915050565b7f4964206c6f2068616e6720766174207475206c6120647579206e686174000000600082015250565b60006104ae601d83610467565b91506104b982610478565b602082019050919050565b600060208201905081810360008301526104dd816104a1565b9050919050565b7f536f206c756f6e672070686169206c6f6e20686f6e2030000000000000000000600082015250565b600061051a601783610467565b9150610525826104e4565b602082019050919050565b600060208201905081810360008301526105498161050d565b9050919050565b600061055b826102a3565b9150610566836102a3565b9250827fffffffffffffffffffffffffffffffffffffffffffffffffffffffffffffffff0382111561059b5761059a6103f0565b5b82820190509291505056fea26469706673582212208d956f853f354ac84a27ba9881f0aab9ed0a46e468303825be06c0333ed11cd564736f6c634300080d0033",
  "immutableReferences": {},
  "source": "// SPDX-License-Identifier: MIT\npragma solidity >=0.5.16 <0.9.0;\n\ncontract LoHangVatTu {\n    //--------data-------//\n    struct LoHangVatTu_Struct {\n        uint id_LoHangVatTu;\n        uint id_VatTu;\n        uint SoLuong;\n    }\n\n    mapping( uint => LoHangVatTu_Struct )\n    public DanhSachLoHangVatTu;\n\n    uint public maxLength = 0;\n\n    //-------event-------//\n    event SuKienThemLoHangVatTu (\n        uint id_LoHangVatTu,\n        uint id_VatTu,\n        uint SoLuong\n    );\n\n    //------modifier-----//\n    modifier KiemTraIdLoHangVatTu (  uint id_LoHangVatTu ) {\n        uint index = 0;\n        bool checkIdLoHangVatTu = true;\n\n        for ( index; index < maxLength; index ++ ) {\n            if ( DanhSachLoHangVatTu[ index ].id_LoHangVatTu == id_LoHangVatTu ) {\n                checkIdLoHangVatTu = false;\n            }\n        }\n\n        require(\n            checkIdLoHangVatTu,\n            \"Id lo hang vat tu la duy nhat\"\n        );\n        _;\n    }\n\n    modifier KiemTraSoLuong ( uint SoLuong ) {\n        require(\n            SoLuong > 0,\n            \"So luong phai lon hon 0\"\n        );\n\n        _;\n    }\n\n    //-------handle------//\n    function ThemLohangVatTu (\n        uint id_LoHangVatTu,\n        uint id_VatTu,\n        uint SoLuong\n    ) \n    public\n    KiemTraIdLoHangVatTu(id_LoHangVatTu)\n    KiemTraSoLuong( SoLuong )\n    returns ( bool )\n    {\n        LoHangVatTu_Struct memory LoHangVatTuMemory;\n        LoHangVatTuMemory = LoHangVatTu_Struct (\n            id_LoHangVatTu,\n            id_VatTu,\n            SoLuong\n        );\n\n        DanhSachLoHangVatTu[ maxLength ] = LoHangVatTuMemory;\n        maxLength = maxLength + 1;\n\n        emit SuKienThemLoHangVatTu (\n            id_LoHangVatTu,\n            id_VatTu,\n            SoLuong\n        );\n\n        return true;\n    }\n}",
  "sourcePath": "/Users/trongnhan/Dev/supply-chain-for-agriculture/blockchain/contracts/LoHangVatTu.sol",
  "compiler": {
    "name": "solc",
    "version": "0.8.13+commit.abaa5c0e.Emscripten.clang"
  },
  "schemaVersion": "3.4.7",
  "updatedAt": "2022-07-03T13:14:42.460Z",
  "networkType": "ethereum",
  "devdoc": {
    "kind": "dev",
    "methods": {},
    "version": 1
  },
  "userdoc": {
    "kind": "user",
    "methods": {},
    "version": 1
  }
}