{
  "contractName": "LoHangVatTu",
  "abi": [
    {
      "anonymous": false,
      "inputs": [
        {
          "indexed": false,
          "internalType": "uint256",
          "name": "id_LoHangVatTu",
          "type": "uint256"
        },
        {
          "indexed": false,
          "internalType": "uint256",
          "name": "id_Muavu",
          "type": "uint256"
        },
        {
          "indexed": false,
          "internalType": "uint256",
          "name": "id_VatTu",
          "type": "uint256"
        },
        {
          "indexed": false,
          "internalType": "uint256",
          "name": "SoLuong",
          "type": "uint256"
        },
        {
          "indexed": false,
          "internalType": "uint256",
          "name": "ThoiGian",
          "type": "uint256"
        },
        {
          "indexed": false,
          "internalType": "string",
          "name": "TenVatTu",
          "type": "string"
        }
      ],
      "name": "SuKienThemLoHangVatTu",
      "type": "event"
    },
    {
      "inputs": [
        {
          "internalType": "uint256",
          "name": "",
          "type": "uint256"
        }
      ],
      "name": "DanhSachLoHangVatTu",
      "outputs": [
        {
          "internalType": "uint256",
          "name": "id_LoHangVatTu",
          "type": "uint256"
        },
        {
          "internalType": "uint256",
          "name": "id_Muavu",
          "type": "uint256"
        },
        {
          "internalType": "uint256",
          "name": "id_VatTu",
          "type": "uint256"
        },
        {
          "internalType": "uint256",
          "name": "SoLuong",
          "type": "uint256"
        },
        {
          "internalType": "uint256",
          "name": "ThoiGian",
          "type": "uint256"
        },
        {
          "internalType": "string",
          "name": "TenVatTu",
          "type": "string"
        }
      ],
      "stateMutability": "view",
      "type": "function",
      "constant": true
    },
    {
      "inputs": [
        {
          "internalType": "uint256[]",
          "name": "intProperties",
          "type": "uint256[]"
        },
        {
          "internalType": "string[]",
          "name": "stringProperties",
          "type": "string[]"
        }
      ],
      "name": "ThemLohangVatTu",
      "outputs": [
        {
          "internalType": "bool",
          "name": "",
          "type": "bool"
        }
      ],
      "stateMutability": "nonpayable",
      "type": "function"
    },
    {
      "inputs": [
        {
          "internalType": "uint256",
          "name": "id_LoHangVatTu",
          "type": "uint256"
        }
      ],
      "name": "LayThongTinVatTu",
      "outputs": [
        {
          "components": [
            {
              "internalType": "uint256",
              "name": "id_LoHangVatTu",
              "type": "uint256"
            },
            {
              "internalType": "uint256",
              "name": "id_Muavu",
              "type": "uint256"
            },
            {
              "internalType": "uint256",
              "name": "id_VatTu",
              "type": "uint256"
            },
            {
              "internalType": "uint256",
              "name": "SoLuong",
              "type": "uint256"
            },
            {
              "internalType": "uint256",
              "name": "ThoiGian",
              "type": "uint256"
            },
            {
              "internalType": "string",
              "name": "TenVatTu",
              "type": "string"
            }
          ],
          "internalType": "struct LoHangVatTu.LoHangVatTu_Struct",
          "name": "",
          "type": "tuple"
        }
      ],
      "stateMutability": "view",
      "type": "function",
      "constant": true
    }
  ],
  "bytecode": "0x608060405234801561001057600080fd5b50610e3a806100206000396000f3fe608060405234801561001057600080fd5b50600436106100415760003560e01c80630a313f5f146100465780634734df5814610076578063c5dae9e2146100ab575b600080fd5b610060600480360381019061005b91906106d0565b6100db565b60405161006d919061082e565b60405180910390f35b610090600480360381019061008b91906106d0565b6101cb565b6040516100a2969594939291906108a9565b60405180910390f35b6100c560048036038101906100c09190610bef565b61028f565b6040516100d29190610c82565b60405180910390f35b6100e36105ad565b6000808381526020019081526020016000206040518060c0016040529081600082015481526020016001820154815260200160028201548152602001600382015481526020016004820154815260200160058201805461014290610ccc565b80601f016020809104026020016040519081016040528092919081815260200182805461016e90610ccc565b80156101bb5780601f10610190576101008083540402835291602001916101bb565b820191906000526020600020905b81548152906001019060200180831161019e57829003601f168201915b5050505050815250509050919050565b600060205280600052604060002060009150905080600001549080600101549080600201549080600301549080600401549080600501805461020c90610ccc565b80601f016020809104026020016040519081016040528092919081815260200182805461023890610ccc565b80156102855780601f1061025a57610100808354040283529160200191610285565b820191906000526020600020905b81548152906001019060200180831161026857829003601f168201915b5050505050905086565b6000826000815181106102a5576102a4610cfd565b5b602002602001015160008060008381526020019081526020016000206000015414610305576040517f08c379a00000000000000000000000000000000000000000000000000000000081526004016102fc90610d78565b60405180910390fd5b8360038151811061031957610318610cfd565b5b602002602001015160008111610364576040517f08c379a000000000000000000000000000000000000000000000000000000000815260040161035b90610de4565b60405180910390fd5b61036c6105ad565b6040518060c001604052808760008151811061038b5761038a610cfd565b5b60200260200101518152602001876001815181106103ac576103ab610cfd565b5b60200260200101518152602001876002815181106103cd576103cc610cfd565b5b60200260200101518152602001876003815181106103ee576103ed610cfd565b5b602002602001015181526020018760048151811061040f5761040e610cfd565b5b60200260200101518152602001866000815181106104305761042f610cfd565b5b60200260200101518152509050806000808860008151811061045557610454610cfd565b5b60200260200101518152602001908152602001600020600082015181600001556020820151816001015560408201518160020155606082015181600301556080820151816004015560a08201518160050190805190602001906104b99291906105e3565b509050507f92dc7e5d816749b43a84cecf53e151bb26c86395467d8ec78dbbf0861f1771a6866000815181106104f2576104f1610cfd565b5b60200260200101518760018151811061050e5761050d610cfd565b5b60200260200101518860028151811061052a57610529610cfd565b5b60200260200101518960038151811061054657610545610cfd565b5b60200260200101518a60048151811061056257610561610cfd565b5b60200260200101518a60008151811061057e5761057d610cfd565b5b6020026020010151604051610598969594939291906108a9565b60405180910390a16001935050505092915050565b6040518060c001604052806000815260200160008152602001600081526020016000815260200160008152602001606081525090565b8280546105ef90610ccc565b90600052602060002090601f0160209004810192826106115760008555610658565b82601f1061062a57805160ff1916838001178555610658565b82800160010185558215610658579182015b8281111561065757825182559160200191906001019061063c565b5b5090506106659190610669565b5090565b5b8082111561068257600081600090555060010161066a565b5090565b6000604051905090565b600080fd5b600080fd5b6000819050919050565b6106ad8161069a565b81146106b857600080fd5b50565b6000813590506106ca816106a4565b92915050565b6000602082840312156106e6576106e5610690565b5b60006106f4848285016106bb565b91505092915050565b6107068161069a565b82525050565b600081519050919050565b600082825260208201905092915050565b60005b8381101561074657808201518184015260208101905061072b565b83811115610755576000848401525b50505050565b6000601f19601f8301169050919050565b60006107778261070c565b6107818185610717565b9350610791818560208601610728565b61079a8161075b565b840191505092915050565b600060c0830160008301516107bd60008601826106fd565b5060208301516107d060208601826106fd565b5060408301516107e360408601826106fd565b5060608301516107f660608601826106fd565b50608083015161080960808601826106fd565b5060a083015184820360a0860152610821828261076c565b9150508091505092915050565b6000602082019050818103600083015261084881846107a5565b905092915050565b6108598161069a565b82525050565b600082825260208201905092915050565b600061087b8261070c565b610885818561085f565b9350610895818560208601610728565b61089e8161075b565b840191505092915050565b600060c0820190506108be6000830189610850565b6108cb6020830188610850565b6108d86040830187610850565b6108e56060830186610850565b6108f26080830185610850565b81810360a08301526109048184610870565b9050979650505050505050565b600080fd5b7f4e487b7100000000000000000000000000000000000000000000000000000000600052604160045260246000fd5b61094e8261075b565b810181811067ffffffffffffffff8211171561096d5761096c610916565b5b80604052505050565b6000610980610686565b905061098c8282610945565b919050565b600067ffffffffffffffff8211156109ac576109ab610916565b5b602082029050602081019050919050565b600080fd5b60006109d56109d084610991565b610976565b905080838252602082019050602084028301858111156109f8576109f76109bd565b5b835b81811015610a215780610a0d88826106bb565b8452602084019350506020810190506109fa565b5050509392505050565b600082601f830112610a4057610a3f610911565b5b8135610a508482602086016109c2565b91505092915050565b600067ffffffffffffffff821115610a7457610a73610916565b5b602082029050602081019050919050565b600080fd5b600067ffffffffffffffff821115610aa557610aa4610916565b5b610aae8261075b565b9050602081019050919050565b82818337600083830152505050565b6000610add610ad884610a8a565b610976565b905082815260208101848484011115610af957610af8610a85565b5b610b04848285610abb565b509392505050565b600082601f830112610b2157610b20610911565b5b8135610b31848260208601610aca565b91505092915050565b6000610b4d610b4884610a59565b610976565b90508083825260208201905060208402830185811115610b7057610b6f6109bd565b5b835b81811015610bb757803567ffffffffffffffff811115610b9557610b94610911565b5b808601610ba28982610b0c565b85526020850194505050602081019050610b72565b5050509392505050565b600082601f830112610bd657610bd5610911565b5b8135610be6848260208601610b3a565b91505092915050565b60008060408385031215610c0657610c05610690565b5b600083013567ffffffffffffffff811115610c2457610c23610695565b5b610c3085828601610a2b565b925050602083013567ffffffffffffffff811115610c5157610c50610695565b5b610c5d85828601610bc1565b9150509250929050565b60008115159050919050565b610c7c81610c67565b82525050565b6000602082019050610c976000830184610c73565b92915050565b7f4e487b7100000000000000000000000000000000000000000000000000000000600052602260045260246000fd5b60006002820490506001821680610ce457607f821691505b602082108103610cf757610cf6610c9d565b5b50919050565b7f4e487b7100000000000000000000000000000000000000000000000000000000600052603260045260246000fd5b7f4c6f2068616e672076617420747520646120746f6e2074616900000000000000600082015250565b6000610d6260198361085f565b9150610d6d82610d2c565b602082019050919050565b60006020820190508181036000830152610d9181610d55565b9050919050565b7f536f206c756f6e672070686169206c6f6e20686f6e2030000000000000000000600082015250565b6000610dce60178361085f565b9150610dd982610d98565b602082019050919050565b60006020820190508181036000830152610dfd81610dc1565b905091905056fea2646970667358221220b3610f90cd3e71931156471359874eef4c80d6f46271ff9a2a48960b27c8632f64736f6c634300080d0033",
  "immutableReferences": {},
  "source": "// SPDX-License-Identifier: MIT\npragma solidity >=0.5.16 <0.9.0;\n\ncontract LoHangVatTu {\n    //--------data-------//\n    struct LoHangVatTu_Struct {\n        uint    id_LoHangVatTu;\n        uint    id_Muavu;\n        uint    id_VatTu;\n        uint    SoLuong;\n        uint    ThoiGian;\n        string  TenVatTu;\n    }\n\n    mapping( uint => LoHangVatTu_Struct )\n    public DanhSachLoHangVatTu;\n\n    //-------event-------//\n    event SuKienThemLoHangVatTu (\n        uint    id_LoHangVatTu,\n        uint    id_Muavu,\n        uint    id_VatTu,\n        uint    SoLuong,\n        uint    ThoiGian,\n        string  TenVatTu\n    );\n\n    //------modifier-----//\n    modifier KiemTraIdLoHangVatTu (  uint id_LoHangVatTu ) {\n        require(\n            DanhSachLoHangVatTu[ id_LoHangVatTu ].id_LoHangVatTu == 0,\n            \"Lo hang vat tu da ton tai\"\n        );\n\n        _;\n    }\n\n    modifier KiemTraSoLuong ( uint SoLuong ) {\n        require(\n            SoLuong > 0,\n            \"So luong phai lon hon 0\"\n        );\n\n        _;\n    }\n\n    //-------handle------//\n    /*\n    intProperties [\n        0: uint            id_LoHangVatTu\n        1: uint            id_Muavu,\n        2: uint            id_VatTu,\n        3: uint            SoLuong,\n        4: uint            ThoiGian\n    ]\n\n    stringProperties [\n        0: string memory   TenVatTu\n    ]\n    */\n\n    function ThemLohangVatTu (\n        uint[]   memory intProperties,\n        string[] memory stringProperties\n    ) \n    public\n    KiemTraIdLoHangVatTu( intProperties[0] )\n    KiemTraSoLuong( intProperties[3] )\n    returns ( bool )\n    {\n        LoHangVatTu_Struct memory LoHangVatTuMemory;\n        LoHangVatTuMemory = LoHangVatTu_Struct (\n            intProperties[0],\n            intProperties[1],\n            intProperties[2],\n            intProperties[3],\n            intProperties[4],\n            stringProperties[0]\n        );\n\n        DanhSachLoHangVatTu[ intProperties[0] ] = LoHangVatTuMemory;\n\n        emit SuKienThemLoHangVatTu (\n            intProperties[0],\n            intProperties[1],\n            intProperties[2],\n            intProperties[3],\n            intProperties[4],\n            stringProperties[0]\n        );\n\n        return true;\n    }\n\n    function LayThongTinVatTu (\n        uint id_LoHangVatTu\n    ) external view\n    returns ( LoHangVatTu_Struct memory ) {\n        return DanhSachLoHangVatTu[ id_LoHangVatTu ];\n    }\n}",
  "sourcePath": "/Users/trongnhan/Dev/supply-chain-for-agriculture/blockchain/contracts/LoHangVatTu.sol",
  "compiler": {
    "name": "solc",
    "version": "0.8.13+commit.abaa5c0e.Emscripten.clang"
  },
  "schemaVersion": "3.4.7",
  "updatedAt": "2022-07-10T17:07:26.172Z",
  "networkType": "ethereum",
  "devdoc": {
    "kind": "dev",
    "methods": {},
    "version": 1
  },
  "userdoc": {
    "kind": "user",
    "methods": {},
    "version": 1
  }
}