{
  "contractName": "LoHangLua",
  "abi": [
    {
      "anonymous": false,
      "inputs": [
        {
          "indexed": false,
          "internalType": "uint256",
          "name": "id_XaVien",
          "type": "uint256"
        },
        {
          "indexed": false,
          "internalType": "uint256",
          "name": "id_LoHangLua",
          "type": "uint256"
        },
        {
          "indexed": false,
          "internalType": "uint256",
          "name": "id_GiongLua",
          "type": "uint256"
        },
        {
          "indexed": false,
          "internalType": "uint256",
          "name": "id_NhatKyDongRuong",
          "type": "uint256"
        },
        {
          "indexed": false,
          "internalType": "uint256",
          "name": "SoLuong",
          "type": "uint256"
        },
        {
          "indexed": false,
          "internalType": "string",
          "name": "ThongTinKhac",
          "type": "string"
        }
      ],
      "name": "SuKienThemLoHang",
      "type": "event"
    },
    {
      "inputs": [
        {
          "internalType": "uint256",
          "name": "",
          "type": "uint256"
        }
      ],
      "name": "DanhSachLoHangLua",
      "outputs": [
        {
          "internalType": "uint256",
          "name": "id_XaVien",
          "type": "uint256"
        },
        {
          "internalType": "uint256",
          "name": "id_LoHangLua",
          "type": "uint256"
        },
        {
          "internalType": "uint256",
          "name": "id_GiongLua",
          "type": "uint256"
        },
        {
          "internalType": "uint256",
          "name": "id_NhatKyDongRuong",
          "type": "uint256"
        },
        {
          "internalType": "uint256",
          "name": "SoLuong",
          "type": "uint256"
        },
        {
          "internalType": "string",
          "name": "ThongTinKhac",
          "type": "string"
        }
      ],
      "stateMutability": "view",
      "type": "function",
      "constant": true
    },
    {
      "inputs": [],
      "name": "maxLength",
      "outputs": [
        {
          "internalType": "uint256",
          "name": "",
          "type": "uint256"
        }
      ],
      "stateMutability": "view",
      "type": "function",
      "constant": true
    },
    {
      "inputs": [
        {
          "internalType": "uint256",
          "name": "id_XaVien",
          "type": "uint256"
        },
        {
          "internalType": "uint256",
          "name": "id_LoHangLua",
          "type": "uint256"
        },
        {
          "internalType": "uint256",
          "name": "id_GiongLua",
          "type": "uint256"
        },
        {
          "internalType": "uint256",
          "name": "id_NhatKyDongRuong",
          "type": "uint256"
        },
        {
          "internalType": "uint256",
          "name": "SoLuong",
          "type": "uint256"
        },
        {
          "internalType": "string",
          "name": "ThongTinKhac",
          "type": "string"
        }
      ],
      "name": "ThemLoHangLua",
      "outputs": [
        {
          "internalType": "bool",
          "name": "",
          "type": "bool"
        }
      ],
      "stateMutability": "nonpayable",
      "type": "function"
    }
  ],
  "bytecode": "0x6080604052600060015534801561001557600080fd5b50610c2f806100256000396000f3fe608060405234801561001057600080fd5b50600436106100415760003560e01c80631b047600146100465780638ae6089614610076578063d06a89a4146100ab575b600080fd5b610060600480360381019061005b91906106a2565b6100c9565b60405161006d9190610766565b60405180910390f35b610090600480360381019061008b9190610781565b61036f565b6040516100a296959493929190610845565b60405180910390f35b6100b3610433565b6040516100c091906108ad565b60405180910390f35b60008584600080600190506000600190505b60015483101561013a5784600080858152602001908152602001600020600101540361010657600091505b83600080858152602001908152602001600020600301540361012757600090505b8280610132906108f7565b9350506100db565b81806101435750805b604051602001610152906109e2565b604051602081830303815290604052906101a2576040517f08c379a00000000000000000000000000000000000000000000000000000000081526004016101999190610a06565b60405180910390fd5b50816101e3576040517f08c379a00000000000000000000000000000000000000000000000000000000081526004016101da90610a74565b60405180910390fd5b80610223576040517f08c379a000000000000000000000000000000000000000000000000000000000815260040161021a90610ab7565b60405180910390fd5b8760008111610267576040517f08c379a000000000000000000000000000000000000000000000000000000000815260040161025e90610b23565b60405180910390fd5b61026f610439565b6040518060c001604052808f81526020018e81526020018d81526020018c81526020018b81526020018a8152509050806000806001548152602001908152602001600020600082015181600001556020820151816001015560408201518160020155606082015181600301556080820151816004015560a082015181600501908051906020019061030192919061046f565b50905050600180546103139190610b43565b6001819055507fcba6873b79752ebda84d94af33de2dda3ce7919603206c0fbf5c27e2db6efb718e8e8e8e8e8e60405161035296959493929190610845565b60405180910390a160019750505050505050509695505050505050565b60006020528060005260406000206000915090508060000154908060010154908060020154908060030154908060040154908060050180546103b090610bc8565b80601f01602080910402602001604051908101604052809291908181526020018280546103dc90610bc8565b80156104295780601f106103fe57610100808354040283529160200191610429565b820191906000526020600020905b81548152906001019060200180831161040c57829003601f168201915b5050505050905086565b60015481565b6040518060c001604052806000815260200160008152602001600081526020016000815260200160008152602001606081525090565b82805461047b90610bc8565b90600052602060002090601f01602090048101928261049d57600085556104e4565b82601f106104b657805160ff19168380011785556104e4565b828001600101855582156104e4579182015b828111156104e35782518255916020019190600101906104c8565b5b5090506104f191906104f5565b5090565b5b8082111561050e5760008160009055506001016104f6565b5090565b6000604051905090565b600080fd5b600080fd5b6000819050919050565b61053981610526565b811461054457600080fd5b50565b60008135905061055681610530565b92915050565b600080fd5b600080fd5b6000601f19601f8301169050919050565b7f4e487b7100000000000000000000000000000000000000000000000000000000600052604160045260246000fd5b6105af82610566565b810181811067ffffffffffffffff821117156105ce576105cd610577565b5b80604052505050565b60006105e1610512565b90506105ed82826105a6565b919050565b600067ffffffffffffffff82111561060d5761060c610577565b5b61061682610566565b9050602081019050919050565b82818337600083830152505050565b6000610645610640846105f2565b6105d7565b90508281526020810184848401111561066157610660610561565b5b61066c848285610623565b509392505050565b600082601f8301126106895761068861055c565b5b8135610699848260208601610632565b91505092915050565b60008060008060008060c087890312156106bf576106be61051c565b5b60006106cd89828a01610547565b96505060206106de89828a01610547565b95505060406106ef89828a01610547565b945050606061070089828a01610547565b935050608061071189828a01610547565b92505060a087013567ffffffffffffffff81111561073257610731610521565b5b61073e89828a01610674565b9150509295509295509295565b60008115159050919050565b6107608161074b565b82525050565b600060208201905061077b6000830184610757565b92915050565b6000602082840312156107975761079661051c565b5b60006107a584828501610547565b91505092915050565b6107b781610526565b82525050565b600081519050919050565b600082825260208201905092915050565b60005b838110156107f75780820151818401526020810190506107dc565b83811115610806576000848401525b50505050565b6000610817826107bd565b61082181856107c8565b93506108318185602086016107d9565b61083a81610566565b840191505092915050565b600060c08201905061085a60008301896107ae565b61086760208301886107ae565b61087460408301876107ae565b61088160608301866107ae565b61088e60808301856107ae565b81810360a08301526108a0818461080c565b9050979650505050505050565b60006020820190506108c260008301846107ae565b92915050565b7f4e487b7100000000000000000000000000000000000000000000000000000000600052601160045260246000fd5b600061090282610526565b91507fffffffffffffffffffffffffffffffffffffffffffffffffffffffffffffffff8203610934576109336108c8565b5b600182019050919050565b7f4944206c6f2068616e672070686169206c6120647579206e6861742000000000815250565b600081905092915050565b7f4944206c6f206e686174206b7920646f6e672072756f6e672070686169206c6160008201527f20647579206e6861740000000000000000000000000000000000000000000000602082015250565b60006109cc602983610965565b91506109d782610970565b602982019050919050565b60006109ed8261093f565b601c820191506109fc826109bf565b9150819050919050565b60006020820190508181036000830152610a20818461080c565b905092915050565b7f4944206c6f2068616e67206c75612070686169206c6120647579206e68617400600082015250565b6000610a5e601f836107c8565b9150610a6982610a28565b602082019050919050565b60006020820190508181036000830152610a8d81610a51565b9050919050565b6000610aa16029836107c8565b9150610aac82610970565b604082019050919050565b60006020820190508181036000830152610ad081610a94565b9050919050565b7f536f206c756f6e672070686169206c6f6e20686f6e2030000000000000000000600082015250565b6000610b0d6017836107c8565b9150610b1882610ad7565b602082019050919050565b60006020820190508181036000830152610b3c81610b00565b9050919050565b6000610b4e82610526565b9150610b5983610526565b9250827fffffffffffffffffffffffffffffffffffffffffffffffffffffffffffffffff03821115610b8e57610b8d6108c8565b5b828201905092915050565b7f4e487b7100000000000000000000000000000000000000000000000000000000600052602260045260246000fd5b60006002820490506001821680610be057607f821691505b602082108103610bf357610bf2610b99565b5b5091905056fea264697066735822122046a4f5dfd54cfc58ff61f595a34d7ea066ab240b1bb50a5aa13145bb379a073464736f6c634300080d0033",
  "immutableReferences": {},
  "source": "// SPDX-License-Identifier: MIT\npragma solidity >=0.5.16 <0.9.0;\n\ncontract LoHangLua {\n    //--------data-------//\n    struct LoHangLua_Struct {\n        uint    id_XaVien;\n        uint    id_LoHangLua;\n        uint    id_GiongLua;\n        uint    id_NhatKyDongRuong;\n        uint    SoLuong;\n        string  ThongTinKhac;\n    }\n    /*\n        ThongTinKhac {\n            ThongTinKhac,\n            TenGiongLua\n        }\n    */\n\n    mapping ( uint => LoHangLua_Struct )\n    public DanhSachLoHangLua;\n\n    uint public maxLength = 0;\n\n    //-------event-------//\n    event SuKienThemLoHang (\n        uint    id_XaVien,\n        uint    id_LoHangLua,\n        uint    id_GiongLua,\n        uint    id_NhatKyDongRuong,\n        uint    SoLuong,\n        string  ThongTinKhac\n    );\n\n    //------modifier-----//\n    modifier KiemTraSoLuong ( uint SoLuong ) {\n        require( \n            SoLuong > 0,\n            \"So luong phai lon hon 0\"\n        );\n\n        _;\n    }\n\n    modifier KiemTraLoHangLua ( \n        uint id_LoHangLua, \n        uint id_NhatKyDongRuong \n    ) {\n        uint index                  = 0;\n        bool checkIdLoHangLua       = true;\n        bool checkIdNhatKyDongRuong = true;\n\n        for ( index; index < maxLength; index ++ ) {\n            if ( DanhSachLoHangLua[ index ].id_LoHangLua == id_LoHangLua ) {\n                checkIdLoHangLua = false;\n            }\n\n            if ( DanhSachLoHangLua[ index ].id_NhatKyDongRuong == id_NhatKyDongRuong ) {\n                checkIdNhatKyDongRuong = false;\n            }\n        }\n\n        require(\n            checkIdLoHangLua || checkIdNhatKyDongRuong,\n            string.concat(\n                \"ID lo hang phai la duy nhat \",\n                \"ID lo nhat ky dong ruong phai la duy nhat\"\n            )\n        );\n\n        require (\n            checkIdLoHangLua,\n             \"ID lo hang lua phai la duy nhat\"\n        );\n\n        require (\n            checkIdNhatKyDongRuong,\n            \"ID lo nhat ky dong ruong phai la duy nhat\"\n        );\n\n        _;\n    }\n\n    //-------handle------//\n    function ThemLoHangLua (\n        uint            id_XaVien,\n        uint            id_LoHangLua,\n        uint            id_GiongLua,\n        uint            id_NhatKyDongRuong,\n        uint            SoLuong,\n        string memory   ThongTinKhac\n    )\n    public \n    KiemTraLoHangLua(\n        id_LoHangLua,\n        id_NhatKyDongRuong\n    )\n    KiemTraSoLuong( SoLuong )\n    returns (bool) \n    {\n        LoHangLua_Struct memory LoHangLuaMemory;\n\n        LoHangLuaMemory = LoHangLua_Struct (\n            id_XaVien,\n            id_LoHangLua,\n            id_GiongLua,\n            id_NhatKyDongRuong,\n            SoLuong,\n            ThongTinKhac\n        );\n\n        DanhSachLoHangLua[maxLength] = LoHangLuaMemory;\n        maxLength = maxLength + 1;\n\n        emit SuKienThemLoHang(\n            id_XaVien,\n            id_LoHangLua,\n            id_GiongLua,\n            id_NhatKyDongRuong,\n            SoLuong,\n            ThongTinKhac\n        );\n\n        return true;\n    }\n}",
  "sourcePath": "/Users/trongnhan/Dev/supply-chain-for-agriculture/blockchain/contracts/LoHangLua.sol",
  "compiler": {
    "name": "solc",
    "version": "0.8.13+commit.abaa5c0e.Emscripten.clang"
  },
  "schemaVersion": "3.4.7",
  "updatedAt": "2022-07-07T15:10:29.733Z",
  "networkType": "ethereum",
  "devdoc": {
    "kind": "dev",
    "methods": {},
    "version": 1
  },
  "userdoc": {
    "kind": "user",
    "methods": {},
    "version": 1
  }
}