{
  "contractName": "LoHangVatTu",
  "abi": [
    {
      "anonymous": false,
      "inputs": [
        {
          "indexed": false,
          "internalType": "uint256",
          "name": "id_LoHangVatTu",
          "type": "uint256"
        },
        {
          "indexed": false,
          "internalType": "uint256",
          "name": "id_Muavu",
          "type": "uint256"
        },
        {
          "indexed": false,
          "internalType": "uint256",
          "name": "id_VatTu",
          "type": "uint256"
        },
        {
          "indexed": false,
          "internalType": "uint256",
          "name": "SoLuong",
          "type": "uint256"
        },
        {
          "indexed": false,
          "internalType": "uint256",
          "name": "ThoiGian",
          "type": "uint256"
        },
        {
          "indexed": false,
          "internalType": "string",
          "name": "TenVatTu",
          "type": "string"
        }
      ],
      "name": "SuKienThemLoHangVatTu",
      "type": "event"
    },
    {
      "inputs": [
        {
          "internalType": "uint256",
          "name": "",
          "type": "uint256"
        }
      ],
      "name": "DanhSachLoHangVatTu",
      "outputs": [
        {
          "internalType": "uint256",
          "name": "id_LoHangVatTu",
          "type": "uint256"
        },
        {
          "internalType": "uint256",
          "name": "id_Muavu",
          "type": "uint256"
        },
        {
          "internalType": "uint256",
          "name": "id_VatTu",
          "type": "uint256"
        },
        {
          "internalType": "uint256",
          "name": "SoLuong",
          "type": "uint256"
        },
        {
          "internalType": "uint256",
          "name": "ThoiGian",
          "type": "uint256"
        },
        {
          "internalType": "string",
          "name": "TenVatTu",
          "type": "string"
        }
      ],
      "stateMutability": "view",
      "type": "function",
      "constant": true
    },
    {
      "inputs": [
        {
          "internalType": "uint256[]",
          "name": "intProperties",
          "type": "uint256[]"
        },
        {
          "internalType": "string[]",
          "name": "stringProperties",
          "type": "string[]"
        }
      ],
      "name": "ThemLohangVatTu",
      "outputs": [
        {
          "internalType": "bool",
          "name": "",
          "type": "bool"
        }
      ],
      "stateMutability": "nonpayable",
      "type": "function"
    },
    {
      "inputs": [
        {
          "internalType": "uint256",
          "name": "id_LoHangVatTu",
          "type": "uint256"
        }
      ],
      "name": "LayThongTinVatTu",
      "outputs": [
        {
          "components": [
            {
              "internalType": "uint256",
              "name": "id_LoHangVatTu",
              "type": "uint256"
            },
            {
              "internalType": "uint256",
              "name": "id_Muavu",
              "type": "uint256"
            },
            {
              "internalType": "uint256",
              "name": "id_VatTu",
              "type": "uint256"
            },
            {
              "internalType": "uint256",
              "name": "SoLuong",
              "type": "uint256"
            },
            {
              "internalType": "uint256",
              "name": "ThoiGian",
              "type": "uint256"
            },
            {
              "internalType": "string",
              "name": "TenVatTu",
              "type": "string"
            }
          ],
          "internalType": "struct LoHangVatTu.LoHangVatTu_Struct",
          "name": "",
          "type": "tuple"
        }
      ],
      "stateMutability": "view",
      "type": "function",
      "constant": true
    }
  ],
  "bytecode": "0x608060405234801561001057600080fd5b50610e54806100206000396000f3fe608060405234801561001057600080fd5b50600436106100415760003560e01c80630a313f5f146100465780634734df5814610076578063c5dae9e2146100ab575b600080fd5b610060600480360381019061005b91906106ea565b6100db565b60405161006d9190610848565b60405180910390f35b610090600480360381019061008b91906106ea565b6101cb565b6040516100a2969594939291906108c3565b60405180910390f35b6100c560048036038101906100c09190610c09565b61028f565b6040516100d29190610c9c565b60405180910390f35b6100e36105c7565b6000808381526020019081526020016000206040518060c0016040529081600082015481526020016001820154815260200160028201548152602001600382015481526020016004820154815260200160058201805461014290610ce6565b80601f016020809104026020016040519081016040528092919081815260200182805461016e90610ce6565b80156101bb5780601f10610190576101008083540402835291602001916101bb565b820191906000526020600020905b81548152906001019060200180831161019e57829003601f168201915b5050505050815250509050919050565b600060205280600052604060002060009150905080600001549080600101549080600201549080600301549080600401549080600501805461020c90610ce6565b80601f016020809104026020016040519081016040528092919081815260200182805461023890610ce6565b80156102855780601f1061025a57610100808354040283529160200191610285565b820191906000526020600020905b81548152906001019060200180831161026857829003601f168201915b5050505050905086565b6000826000815181106102a5576102a4610d17565b5b602002602001015160008060008381526020019081526020016000206000015414610305576040517f08c379a00000000000000000000000000000000000000000000000000000000081526004016102fc90610d92565b60405180910390fd5b8360038151811061031957610318610d17565b5b602002602001015160008111610364576040517f08c379a000000000000000000000000000000000000000000000000000000000815260040161035b90610dfe565b60405180910390fd5b6000610370868661037e565b905080935050505092915050565b60006103886105c7565b6040518060c00160405280856000815181106103a7576103a6610d17565b5b60200260200101518152602001856001815181106103c8576103c7610d17565b5b60200260200101518152602001856002815181106103e9576103e8610d17565b5b602002602001015181526020018560038151811061040a57610409610d17565b5b602002602001015181526020018560048151811061042b5761042a610d17565b5b602002602001015181526020018460008151811061044c5761044b610d17565b5b60200260200101518152509050806000808660008151811061047157610470610d17565b5b60200260200101518152602001908152602001600020600082015181600001556020820151816001015560408201518160020155606082015181600301556080820151816004015560a08201518160050190805190602001906104d59291906105fd565b509050507f92dc7e5d816749b43a84cecf53e151bb26c86395467d8ec78dbbf0861f1771a68460008151811061050e5761050d610d17565b5b60200260200101518560018151811061052a57610529610d17565b5b60200260200101518660028151811061054657610545610d17565b5b60200260200101518760038151811061056257610561610d17565b5b60200260200101518860048151811061057e5761057d610d17565b5b60200260200101518860008151811061059a57610599610d17565b5b60200260200101516040516105b4969594939291906108c3565b60405180910390a1600191505092915050565b6040518060c001604052806000815260200160008152602001600081526020016000815260200160008152602001606081525090565b82805461060990610ce6565b90600052602060002090601f01602090048101928261062b5760008555610672565b82601f1061064457805160ff1916838001178555610672565b82800160010185558215610672579182015b82811115610671578251825591602001919060010190610656565b5b50905061067f9190610683565b5090565b5b8082111561069c576000816000905550600101610684565b5090565b6000604051905090565b600080fd5b600080fd5b6000819050919050565b6106c7816106b4565b81146106d257600080fd5b50565b6000813590506106e4816106be565b92915050565b600060208284031215610700576106ff6106aa565b5b600061070e848285016106d5565b91505092915050565b610720816106b4565b82525050565b600081519050919050565b600082825260208201905092915050565b60005b83811015610760578082015181840152602081019050610745565b8381111561076f576000848401525b50505050565b6000601f19601f8301169050919050565b600061079182610726565b61079b8185610731565b93506107ab818560208601610742565b6107b481610775565b840191505092915050565b600060c0830160008301516107d76000860182610717565b5060208301516107ea6020860182610717565b5060408301516107fd6040860182610717565b5060608301516108106060860182610717565b5060808301516108236080860182610717565b5060a083015184820360a086015261083b8282610786565b9150508091505092915050565b6000602082019050818103600083015261086281846107bf565b905092915050565b610873816106b4565b82525050565b600082825260208201905092915050565b600061089582610726565b61089f8185610879565b93506108af818560208601610742565b6108b881610775565b840191505092915050565b600060c0820190506108d8600083018961086a565b6108e5602083018861086a565b6108f2604083018761086a565b6108ff606083018661086a565b61090c608083018561086a565b81810360a083015261091e818461088a565b9050979650505050505050565b600080fd5b7f4e487b7100000000000000000000000000000000000000000000000000000000600052604160045260246000fd5b61096882610775565b810181811067ffffffffffffffff8211171561098757610986610930565b5b80604052505050565b600061099a6106a0565b90506109a6828261095f565b919050565b600067ffffffffffffffff8211156109c6576109c5610930565b5b602082029050602081019050919050565b600080fd5b60006109ef6109ea846109ab565b610990565b90508083825260208201905060208402830185811115610a1257610a116109d7565b5b835b81811015610a3b5780610a2788826106d5565b845260208401935050602081019050610a14565b5050509392505050565b600082601f830112610a5a57610a5961092b565b5b8135610a6a8482602086016109dc565b91505092915050565b600067ffffffffffffffff821115610a8e57610a8d610930565b5b602082029050602081019050919050565b600080fd5b600067ffffffffffffffff821115610abf57610abe610930565b5b610ac882610775565b9050602081019050919050565b82818337600083830152505050565b6000610af7610af284610aa4565b610990565b905082815260208101848484011115610b1357610b12610a9f565b5b610b1e848285610ad5565b509392505050565b600082601f830112610b3b57610b3a61092b565b5b8135610b4b848260208601610ae4565b91505092915050565b6000610b67610b6284610a73565b610990565b90508083825260208201905060208402830185811115610b8a57610b896109d7565b5b835b81811015610bd157803567ffffffffffffffff811115610baf57610bae61092b565b5b808601610bbc8982610b26565b85526020850194505050602081019050610b8c565b5050509392505050565b600082601f830112610bf057610bef61092b565b5b8135610c00848260208601610b54565b91505092915050565b60008060408385031215610c2057610c1f6106aa565b5b600083013567ffffffffffffffff811115610c3e57610c3d6106af565b5b610c4a85828601610a45565b925050602083013567ffffffffffffffff811115610c6b57610c6a6106af565b5b610c7785828601610bdb565b9150509250929050565b60008115159050919050565b610c9681610c81565b82525050565b6000602082019050610cb16000830184610c8d565b92915050565b7f4e487b7100000000000000000000000000000000000000000000000000000000600052602260045260246000fd5b60006002820490506001821680610cfe57607f821691505b602082108103610d1157610d10610cb7565b5b50919050565b7f4e487b7100000000000000000000000000000000000000000000000000000000600052603260045260246000fd5b7f4c6f2068616e672076617420747520646120746f6e2074616900000000000000600082015250565b6000610d7c601983610879565b9150610d8782610d46565b602082019050919050565b60006020820190508181036000830152610dab81610d6f565b9050919050565b7f536f206c756f6e672070686169206c6f6e20686f6e2030000000000000000000600082015250565b6000610de8601783610879565b9150610df382610db2565b602082019050919050565b60006020820190508181036000830152610e1781610ddb565b905091905056fea26469706673582212201fc02a8d1f941d2f5ce013712922705bcf160164f992b109eff439a46103eb0764736f6c634300080d0033",
  "immutableReferences": {},
  "source": "// SPDX-License-Identifier: MIT\npragma solidity >=0.5.16 <0.9.0;\n\ncontract LoHangVatTu {\n    //--------data-------//\n    struct LoHangVatTu_Struct {\n        uint    id_LoHangVatTu;\n        uint    id_Muavu;\n        uint    id_VatTu;\n        uint    SoLuong;\n        uint    ThoiGian;\n        string  TenVatTu;\n    }\n\n    mapping( uint => LoHangVatTu_Struct )\n    public DanhSachLoHangVatTu;\n\n    //-------event-------//\n    event SuKienThemLoHangVatTu (\n        uint    id_LoHangVatTu,\n        uint    id_Muavu,\n        uint    id_VatTu,\n        uint    SoLuong,\n        uint    ThoiGian,\n        string  TenVatTu\n    );\n\n    //------modifier-----//\n    modifier KiemTraIdLoHangVatTu (  uint id_LoHangVatTu ) {\n        require(\n            DanhSachLoHangVatTu[ id_LoHangVatTu ].id_LoHangVatTu == 0,\n            \"Lo hang vat tu da ton tai\"\n        );\n\n        _;\n    }\n\n    modifier KiemTraSoLuong ( uint SoLuong ) {\n        require(\n            SoLuong > 0,\n            \"So luong phai lon hon 0\"\n        );\n\n        _;\n    }\n\n    //-------handle------//\n    /*\n    intProperties [\n        0: uint            id_LoHangVatTu\n        1: uint            id_Muavu,\n        2: uint            id_VatTu,\n        3: uint            SoLuong,\n        4: uint            ThoiGian\n    ]\n\n    stringProperties [\n        0: string memory   TenVatTu\n    ]\n    */\n\n    function ThemLohangVatTu (\n        uint[]   memory intProperties,\n        string[] memory stringProperties\n    ) \n    public\n    KiemTraIdLoHangVatTu( intProperties[0] )\n    KiemTraSoLuong( intProperties[3] )\n    returns ( bool )\n    {\n        bool result = LuuThongTinLoHang(\n            intProperties,\n            stringProperties\n        );\n\n        return result;\n    }\n\n    function LuuThongTinLoHang (\n        uint[]   memory intProperties,\n        string[] memory stringProperties\n    ) internal returns ( bool )\n    {\n        LoHangVatTu_Struct memory LoHangVatTuMemory;\n        LoHangVatTuMemory = LoHangVatTu_Struct (\n            intProperties[0],\n            intProperties[1],\n            intProperties[2],\n            intProperties[3],\n            intProperties[4],\n            stringProperties[0]\n        );\n\n        DanhSachLoHangVatTu[ intProperties[0] ] = LoHangVatTuMemory;\n\n        emit SuKienThemLoHangVatTu (\n            intProperties[0],\n            intProperties[1],\n            intProperties[2],\n            intProperties[3],\n            intProperties[4],\n            stringProperties[0]\n        );\n\n        return true;\n    }\n\n    function LayThongTinVatTu (\n        uint id_LoHangVatTu\n    ) external view\n    returns ( LoHangVatTu_Struct memory ) {\n        return DanhSachLoHangVatTu[ id_LoHangVatTu ];\n    }\n}",
  "sourcePath": "/Users/trongnhan/Dev/supply-chain-for-agriculture/blockchain/contracts/LoHangVatTu.sol",
  "compiler": {
    "name": "solc",
    "version": "0.8.13+commit.abaa5c0e.Emscripten.clang"
  },
  "schemaVersion": "3.4.7",
  "updatedAt": "2022-11-20T07:22:32.950Z",
  "networkType": "ethereum",
  "devdoc": {
    "kind": "dev",
    "methods": {},
    "version": 1
  },
  "userdoc": {
    "kind": "user",
    "methods": {},
    "version": 1
  }
}