{
  "contractName": "NhatKyDongRuong",
  "abi": [
    {
      "anonymous": false,
      "inputs": [
        {
          "indexed": false,
          "internalType": "uint256",
          "name": "id_XaVien",
          "type": "uint256"
        },
        {
          "indexed": false,
          "internalType": "uint256",
          "name": "id_NhatKyDongRuong",
          "type": "uint256"
        },
        {
          "indexed": false,
          "internalType": "uint256",
          "name": "id_LichMuaVu",
          "type": "uint256"
        },
        {
          "indexed": false,
          "internalType": "uint256",
          "name": "id_ThuaDat",
          "type": "uint256"
        },
        {
          "indexed": false,
          "internalType": "string",
          "name": "ThongTinKhac",
          "type": "string"
        }
      ],
      "name": "SuKienThemNhatKyDongRuong",
      "type": "event"
    },
    {
      "inputs": [
        {
          "internalType": "uint256",
          "name": "",
          "type": "uint256"
        }
      ],
      "name": "DanhSachNhatKyDongRuong",
      "outputs": [
        {
          "internalType": "uint256",
          "name": "id_XaVien",
          "type": "uint256"
        },
        {
          "internalType": "uint256",
          "name": "id_NhatKyDongRuong",
          "type": "uint256"
        },
        {
          "internalType": "uint256",
          "name": "id_LichMuaVu",
          "type": "uint256"
        },
        {
          "internalType": "uint256",
          "name": "id_ThuaDat",
          "type": "uint256"
        },
        {
          "internalType": "string",
          "name": "ThongTinKhac",
          "type": "string"
        }
      ],
      "stateMutability": "view",
      "type": "function",
      "constant": true
    },
    {
      "inputs": [
        {
          "internalType": "uint256",
          "name": "id_XaVien",
          "type": "uint256"
        },
        {
          "internalType": "uint256",
          "name": "id_NhatKyDongRuong",
          "type": "uint256"
        },
        {
          "internalType": "uint256",
          "name": "id_LichMuaVu",
          "type": "uint256"
        },
        {
          "internalType": "uint256",
          "name": "id_ThuaDat",
          "type": "uint256"
        },
        {
          "internalType": "string",
          "name": "ThongTinKhac",
          "type": "string"
        }
      ],
      "name": "ThemNhatKyDongRuong",
      "outputs": [
        {
          "internalType": "bool",
          "name": "",
          "type": "bool"
        }
      ],
      "stateMutability": "nonpayable",
      "type": "function"
    }
  ],
  "bytecode": "0x6080604052600060015534801561001557600080fd5b5061091a806100256000396000f3fe608060405234801561001057600080fd5b50600436106100365760003560e01c80632cf10fad1461003b578063e3f2a7f11461006f575b600080fd5b610055600480360381019061005091906103f4565b61009f565b6040516100669594939291906104c9565b60405180910390f35b61008960048036038101906100849190610658565b61015d565b604051610096919061070a565b60405180910390f35b60006020528060005260406000206000915090508060000154908060010154908060020154908060030154908060040180546100da90610754565b80601f016020809104026020016040519081016040528092919081815260200182805461010690610754565b80156101535780601f1061012857610100808354040283529160200191610153565b820191906000526020600020905b81548152906001019060200180831161013657829003601f168201915b5050505050905085565b600084600080600190505b6001548210156101a65782600080848152602001908152602001600020600101540361019357600090505b818061019e906107b4565b925050610168565b806101e6576040517f08c379a00000000000000000000000000000000000000000000000000000000081526004016101dd9061086e565b60405180910390fd5b6101ee6102d8565b6040518060a001604052808b81526020018a8152602001898152602001888152602001878152509050806000806001548152602001908152602001600020600082015181600001556020820151816001015560408201518160020155606082015181600301556080820151816004019080519060200190610270929190610307565b5090505060018054610282919061088e565b6001819055507fffa0dfd61b69d62f2c7bf1d1c08049784d7942e976f7488c32e31dfffac3d17f8a8a8a8a8a6040516102bf9594939291906104c9565b60405180910390a1600194505050505095945050505050565b6040518060a0016040528060008152602001600081526020016000815260200160008152602001606081525090565b82805461031390610754565b90600052602060002090601f016020900481019282610335576000855561037c565b82601f1061034e57805160ff191683800117855561037c565b8280016001018555821561037c579182015b8281111561037b578251825591602001919060010190610360565b5b509050610389919061038d565b5090565b5b808211156103a657600081600090555060010161038e565b5090565b6000604051905090565b600080fd5b600080fd5b6000819050919050565b6103d1816103be565b81146103dc57600080fd5b50565b6000813590506103ee816103c8565b92915050565b60006020828403121561040a576104096103b4565b5b6000610418848285016103df565b91505092915050565b61042a816103be565b82525050565b600081519050919050565b600082825260208201905092915050565b60005b8381101561046a57808201518184015260208101905061044f565b83811115610479576000848401525b50505050565b6000601f19601f8301169050919050565b600061049b82610430565b6104a5818561043b565b93506104b581856020860161044c565b6104be8161047f565b840191505092915050565b600060a0820190506104de6000830188610421565b6104eb6020830187610421565b6104f86040830186610421565b6105056060830185610421565b81810360808301526105178184610490565b90509695505050505050565b600080fd5b600080fd5b7f4e487b7100000000000000000000000000000000000000000000000000000000600052604160045260246000fd5b6105658261047f565b810181811067ffffffffffffffff821117156105845761058361052d565b5b80604052505050565b60006105976103aa565b90506105a3828261055c565b919050565b600067ffffffffffffffff8211156105c3576105c261052d565b5b6105cc8261047f565b9050602081019050919050565b82818337600083830152505050565b60006105fb6105f6846105a8565b61058d565b90508281526020810184848401111561061757610616610528565b5b6106228482856105d9565b509392505050565b600082601f83011261063f5761063e610523565b5b813561064f8482602086016105e8565b91505092915050565b600080600080600060a08688031215610674576106736103b4565b5b6000610682888289016103df565b9550506020610693888289016103df565b94505060406106a4888289016103df565b93505060606106b5888289016103df565b925050608086013567ffffffffffffffff8111156106d6576106d56103b9565b5b6106e28882890161062a565b9150509295509295909350565b60008115159050919050565b610704816106ef565b82525050565b600060208201905061071f60008301846106fb565b92915050565b7f4e487b7100000000000000000000000000000000000000000000000000000000600052602260045260246000fd5b6000600282049050600182168061076c57607f821691505b60208210810361077f5761077e610725565b5b50919050565b7f4e487b7100000000000000000000000000000000000000000000000000000000600052601160045260246000fd5b60006107bf826103be565b91507fffffffffffffffffffffffffffffffffffffffffffffffffffffffffffffffff82036107f1576107f0610785565b5b600182019050919050565b7f4964206e686174206b7920646f6e672072756f6e672070686169206c6120647560008201527f79206e6861740000000000000000000000000000000000000000000000000000602082015250565b600061085860268361043b565b9150610863826107fc565b604082019050919050565b600060208201905081810360008301526108878161084b565b9050919050565b6000610899826103be565b91506108a4836103be565b9250827fffffffffffffffffffffffffffffffffffffffffffffffffffffffffffffffff038211156108d9576108d8610785565b5b82820190509291505056fea2646970667358221220a1af7f248fcd230605ac67742a864f8cba1cfc9b57253131ee2e37c7a59c4b4564736f6c634300080d0033",
  "immutableReferences": {},
  "source": "// SPDX-License-Identifier: MIT\npragma solidity >=0.5.16 <0.9.0;\n\ncontract NhatKyDongRuong {\n    //--------data-------//\n    struct NhatKyDongRuong_Struct {\n        uint    id_XaVien;\n        uint    id_NhatKyDongRuong;\n        uint    id_LichMuaVu;\n        uint    id_ThuaDat;\n        string  ThongTinKhac;\n    }\n    /* \n        ThongTinKhac {\n            ThoiGian\n        }\n    */\n\n    mapping( uint => NhatKyDongRuong_Struct )\n    public DanhSachNhatKyDongRuong;\n\n    uint maxLength = 0;\n\n    //-------event-------//\n    event SuKienThemNhatKyDongRuong(\n        uint    id_XaVien,\n        uint    id_NhatKyDongRuong,\n        uint    id_LichMuaVu,\n        uint    id_ThuaDat,\n        string  ThongTinKhac\n    );\n\n    //------modifier-----//\n    modifier KiemTraIdNhatKyDongRuong( uint id_NhatKyDongRuong ) {\n        uint index = 0;\n        bool checkIdNhatKyDongRuong = true;\n\n        for ( index; index < maxLength; index ++ ) {\n            if ( DanhSachNhatKyDongRuong[ index ].id_NhatKyDongRuong \n                 == id_NhatKyDongRuong \n            ) {\n                checkIdNhatKyDongRuong = false;\n            }\n        }\n\n        require(\n            checkIdNhatKyDongRuong,\n            \"Id nhat ky dong ruong phai la duy nhat\"\n        );\n        \n        _;\n    }\n\n    //-------handle------//\n    function ThemNhatKyDongRuong (\n        uint            id_XaVien,\n        uint            id_NhatKyDongRuong,\n        uint            id_LichMuaVu,\n        uint            id_ThuaDat,\n        string memory   ThongTinKhac\n    )\n    public\n    KiemTraIdNhatKyDongRuong( id_NhatKyDongRuong )\n    returns ( bool ) {\n        NhatKyDongRuong_Struct memory NhatKyDongRuongMemory;\n        NhatKyDongRuongMemory = NhatKyDongRuong_Struct(\n            id_XaVien,\n            id_NhatKyDongRuong,\n            id_LichMuaVu,\n            id_ThuaDat,\n            ThongTinKhac\n        );\n\n        DanhSachNhatKyDongRuong[maxLength] = NhatKyDongRuongMemory;\n        maxLength = maxLength + 1;\n\n        emit SuKienThemNhatKyDongRuong(\n            id_XaVien,\n            id_NhatKyDongRuong,\n            id_LichMuaVu,\n            id_ThuaDat,\n            ThongTinKhac\n        );\n\n        return true;\n    }\n}",
  "sourcePath": "/Users/trongnhan/Dev/supply-chain-for-agriculture/blockchain/contracts/NhatKyDongRuong.sol",
  "compiler": {
    "name": "solc",
    "version": "0.8.13+commit.abaa5c0e.Emscripten.clang"
  },
  "schemaVersion": "3.4.7",
  "updatedAt": "2022-07-10T03:37:53.093Z",
  "networkType": "ethereum",
  "devdoc": {
    "kind": "dev",
    "methods": {},
    "version": 1
  },
  "userdoc": {
    "kind": "user",
    "methods": {},
    "version": 1
  }
}