{
  "contractName": "NhatKyDongRuong",
  "abi": [
    {
      "anonymous": false,
      "inputs": [
        {
          "indexed": false,
          "internalType": "uint256",
          "name": "id_XaVien",
          "type": "uint256"
        },
        {
          "indexed": false,
          "internalType": "uint256",
          "name": "id_NhatKyDongRuong",
          "type": "uint256"
        },
        {
          "indexed": false,
          "internalType": "uint256",
          "name": "id_ThuaDat",
          "type": "uint256"
        }
      ],
      "name": "SuKienThemNhatKyDongRuong",
      "type": "event"
    },
    {
      "inputs": [
        {
          "internalType": "uint256",
          "name": "",
          "type": "uint256"
        }
      ],
      "name": "DanhSachNhatKyDongRuong",
      "outputs": [
        {
          "internalType": "uint256",
          "name": "id_XaVien",
          "type": "uint256"
        },
        {
          "internalType": "uint256",
          "name": "id_NhatKyDongRuong",
          "type": "uint256"
        },
        {
          "internalType": "uint256",
          "name": "id_ThuaDat",
          "type": "uint256"
        }
      ],
      "stateMutability": "view",
      "type": "function",
      "constant": true
    },
    {
      "inputs": [
        {
          "internalType": "uint256",
          "name": "id_XaVien",
          "type": "uint256"
        },
        {
          "internalType": "uint256",
          "name": "id_NhatKyDongRuong",
          "type": "uint256"
        },
        {
          "internalType": "uint256",
          "name": "id_ThuaDat",
          "type": "uint256"
        }
      ],
      "name": "ThemNhatKyDongRuong",
      "outputs": [
        {
          "internalType": "bool",
          "name": "",
          "type": "bool"
        }
      ],
      "stateMutability": "nonpayable",
      "type": "function"
    }
  ],
  "bytecode": "0x6080604052600060015534801561001557600080fd5b50610507806100256000396000f3fe608060405234801561001057600080fd5b50600436106100365760003560e01c80632cf10fad1461003b578063cc8628891461006d575b600080fd5b61005560048036038101906100509190610265565b61009d565b604051610064939291906102a1565b60405180910390f35b610087600480360381019061008291906102d8565b6100c7565b6040516100949190610346565b60405180910390f35b60006020528060005260406000206000915090508060000154908060010154908060020154905083565b600082600080600190505b600154821015610110578260008084815260200190815260200160002060010154036100fd57600090505b818061010890610390565b9250506100d2565b80610150576040517f08c379a00000000000000000000000000000000000000000000000000000000081526004016101479061045b565b60405180910390fd5b610158610209565b6040518060600160405280898152602001888152602001878152509050806000806001548152602001908152602001600020600082015181600001556020820151816001015560408201518160020155905050600180546101b9919061047b565b6001819055507f6a2975b5292e709e44874ff6cfc503b709213a3cbd63828ab997b0eee06a07a98888886040516101f2939291906102a1565b60405180910390a160019450505050509392505050565b60405180606001604052806000815260200160008152602001600081525090565b600080fd5b6000819050919050565b6102428161022f565b811461024d57600080fd5b50565b60008135905061025f81610239565b92915050565b60006020828403121561027b5761027a61022a565b5b600061028984828501610250565b91505092915050565b61029b8161022f565b82525050565b60006060820190506102b66000830186610292565b6102c36020830185610292565b6102d06040830184610292565b949350505050565b6000806000606084860312156102f1576102f061022a565b5b60006102ff86828701610250565b935050602061031086828701610250565b925050604061032186828701610250565b9150509250925092565b60008115159050919050565b6103408161032b565b82525050565b600060208201905061035b6000830184610337565b92915050565b7f4e487b7100000000000000000000000000000000000000000000000000000000600052601160045260246000fd5b600061039b8261022f565b91507fffffffffffffffffffffffffffffffffffffffffffffffffffffffffffffffff82036103cd576103cc610361565b5b600182019050919050565b600082825260208201905092915050565b7f4964206e686174206b7920646f6e672072756f6e672070686169206c6120647560008201527f79206e6861740000000000000000000000000000000000000000000000000000602082015250565b60006104456026836103d8565b9150610450826103e9565b604082019050919050565b6000602082019050818103600083015261047481610438565b9050919050565b60006104868261022f565b91506104918361022f565b9250827fffffffffffffffffffffffffffffffffffffffffffffffffffffffffffffffff038211156104c6576104c5610361565b5b82820190509291505056fea2646970667358221220fdb40bc28e055692ed063c427b3642513be02cbcf71ae1d6ec899a3a4b04a00764736f6c634300080d0033",
  "immutableReferences": {},
  "source": "// SPDX-License-Identifier: MIT\npragma solidity >=0.5.16 <0.9.0;\n\ncontract NhatKyDongRuong {\n    //--------data-------//\n    struct NhatKyDongRuong_Struct {\n        uint id_XaVien;\n        uint id_NhatKyDongRuong;\n        uint id_ThuaDat;\n    }\n\n    mapping( uint => NhatKyDongRuong_Struct )\n    public DanhSachNhatKyDongRuong;\n\n    uint maxLength = 0;\n\n    //-------event-------//\n    event SuKienThemNhatKyDongRuong(\n        uint id_XaVien,\n        uint id_NhatKyDongRuong,\n        uint id_ThuaDat\n    );\n\n    //------modifier-----//\n    modifier KiemTraIdNhatKyDongRuong( uint id_NhatKyDongRuong ) {\n        uint index = 0;\n        bool checkIdNhatKyDongRuong = true;\n\n        for ( index; index < maxLength; index ++ ) {\n            if ( DanhSachNhatKyDongRuong[ index ].id_NhatKyDongRuong \n                 == id_NhatKyDongRuong \n            ) {\n                checkIdNhatKyDongRuong = false;\n            }\n        }\n\n        require(\n            checkIdNhatKyDongRuong,\n            \"Id nhat ky dong ruong phai la duy nhat\"\n        );\n        \n        _;\n    }\n\n    //-------handle------//\n    function ThemNhatKyDongRuong (\n        uint id_XaVien,\n        uint id_NhatKyDongRuong,\n        uint id_ThuaDat\n    )\n    public\n    KiemTraIdNhatKyDongRuong( id_NhatKyDongRuong )\n    returns ( bool ) {\n        NhatKyDongRuong_Struct memory NhatKyDongRuongMemory;\n        NhatKyDongRuongMemory = NhatKyDongRuong_Struct(\n            id_XaVien,\n            id_NhatKyDongRuong,\n            id_ThuaDat\n        );\n\n        DanhSachNhatKyDongRuong[maxLength] = NhatKyDongRuongMemory;\n        maxLength = maxLength + 1;\n\n        emit SuKienThemNhatKyDongRuong(\n            id_XaVien,\n            id_NhatKyDongRuong,\n            id_ThuaDat\n        );\n\n        return true;\n    }\n}",
  "sourcePath": "/Users/trongnhan/Dev/supply-chain-for-agriculture/blockchain/contracts/NhatKyDongRuong.sol",
  "compiler": {
    "name": "solc",
    "version": "0.8.13+commit.abaa5c0e.Emscripten.clang"
  },
  "schemaVersion": "3.4.7",
  "updatedAt": "2022-07-03T13:14:42.451Z",
  "networkType": "ethereum",
  "devdoc": {
    "kind": "dev",
    "methods": {},
    "version": 1
  },
  "userdoc": {
    "kind": "user",
    "methods": {},
    "version": 1
  }
}