{
  "contractName": "nhatkydongruong",
  "abi": [
    {
      "anonymous": false,
      "inputs": [
        {
          "indexed": false,
          "internalType": "address",
          "name": "xavien",
          "type": "address"
        },
        {
          "indexed": false,
          "internalType": "uint256",
          "name": "id_nhatkydongruong",
          "type": "uint256"
        },
        {
          "indexed": false,
          "internalType": "uint256",
          "name": "id_hoatdongnhatky",
          "type": "uint256"
        },
        {
          "indexed": false,
          "internalType": "uint256",
          "name": "id_phanbonthuocbaove",
          "type": "uint256"
        }
      ],
      "name": "suKienLuuNhatKy",
      "type": "event"
    },
    {
      "constant": true,
      "inputs": [
        {
          "internalType": "address",
          "name": "",
          "type": "address"
        },
        {
          "internalType": "uint256",
          "name": "",
          "type": "uint256"
        }
      ],
      "name": "DanhSachNhatKy",
      "outputs": [
        {
          "internalType": "address",
          "name": "xavien",
          "type": "address"
        },
        {
          "internalType": "uint256",
          "name": "id_nhatkydongruong",
          "type": "uint256"
        },
        {
          "internalType": "uint256",
          "name": "id_hoatdongnhatky",
          "type": "uint256"
        },
        {
          "internalType": "uint256",
          "name": "id_phanbonthuocbaove",
          "type": "uint256"
        }
      ],
      "payable": false,
      "stateMutability": "view",
      "type": "function"
    },
    {
      "constant": false,
      "inputs": [
        {
          "internalType": "uint256",
          "name": "id_nhatkydongruong",
          "type": "uint256"
        },
        {
          "internalType": "uint256",
          "name": "id_hoatdongnhatky",
          "type": "uint256"
        },
        {
          "internalType": "uint256",
          "name": "id_phanbonthuocbaove",
          "type": "uint256"
        },
        {
          "internalType": "bool",
          "name": "xacnhan",
          "type": "bool"
        }
      ],
      "name": "themHThongTinMuaVu",
      "outputs": [
        {
          "internalType": "bool",
          "name": "",
          "type": "bool"
        }
      ],
      "payable": false,
      "stateMutability": "nonpayable",
      "type": "function"
    }
  ],
  "bytecode": "0x608060405234801561001057600080fd5b5061043a806100206000396000f3fe608060405234801561001057600080fd5b50600436106100365760003560e01c80630245e7311461003b578063dba6b7e9146100a1575b600080fd5b6100876004803603608081101561005157600080fd5b81019080803590602001909291908035906020019092919080359060200190929190803515159060200190929190505050610144565b604051808215151515815260200191505060405180910390f35b6100ed600480360360408110156100b757600080fd5b81019080803573ffffffffffffffffffffffffffffffffffffffff1690602001909291908035906020019092919050505061035d565b604051808573ffffffffffffffffffffffffffffffffffffffff1673ffffffffffffffffffffffffffffffffffffffff16815260200184815260200183815260200182815260200194505050505060405180910390f35b60008160011515811515146101c1576040517f08c379a000000000000000000000000000000000000000000000000000000000815260040180806020018281038252601d8152602001807f4769616f206469636820636875612064756f6320786163206e68616e2e00000081525060200191505060405180910390fd5b6101c96103c7565b60405180608001604052803373ffffffffffffffffffffffffffffffffffffffff1681526020018881526020018781526020018681525090506000803373ffffffffffffffffffffffffffffffffffffffff1673ffffffffffffffffffffffffffffffffffffffff168152602001908152602001600020819080600181540180825580915050906001820390600052602060002090600402016000909192909190915060008201518160000160006101000a81548173ffffffffffffffffffffffffffffffffffffffff021916908373ffffffffffffffffffffffffffffffffffffffff1602179055506020820151816001015560408201518160020155606082015181600301555050507fb81a683d86c9c169fe5c4a2b4b591191f60fb023a1fbd36871af5168cf42b6a033888888604051808573ffffffffffffffffffffffffffffffffffffffff1673ffffffffffffffffffffffffffffffffffffffff16815260200184815260200183815260200182815260200194505050505060405180910390a1600192505050949350505050565b6000602052816000526040600020818154811061037657fe5b9060005260206000209060040201600091509150508060000160009054906101000a900473ffffffffffffffffffffffffffffffffffffffff16908060010154908060020154908060030154905084565b6040518060800160405280600073ffffffffffffffffffffffffffffffffffffffff168152602001600081526020016000815260200160008152509056fea265627a7a72315820d5ef1087fa04831711a5b447e0af184ea0ec49a20569f38f31982c0d4731040164736f6c63430005100032",
  "source": "// SPDX-License-Identifier: MIT\npragma solidity >=0.5.16 <0.9.0;\n\ncontract nhatkydongruong {\n    //----------data---------//\n    struct NhatKy {\n        address xavien;\n        uint id_nhatkydongruong;\n        uint id_hoatdongnhatky;\n        uint id_phanbonthuocbaove;\n    }\n\n    mapping(address => NhatKy[]) public DanhSachNhatKy;\n\n    //-----------data---------//\n    event suKienLuuNhatKy(\n        address xavien,\n        uint id_nhatkydongruong,\n        uint id_hoatdongnhatky,\n        uint id_phanbonthuocbaove\n    );\n\n    //----modifier function---//\n    modifier kiemTraXacNhan(bool xacnhan) {\n        require(\n            xacnhan == true, \n            \"Giao dich chua duoc xac nhan.\"\n        );\n\n        _;\n    }\n\n    //----------handle--------//\n    function themHThongTinMuaVu( \n        uint id_nhatkydongruong,\n        uint id_hoatdongnhatky,\n        uint id_phanbonthuocbaove,\n        bool xacnhan\n    ) public\n     kiemTraXacNhan(xacnhan)\n     returns(bool) {\n        NhatKy memory nhatky;\n        nhatky = NhatKy(\n            msg.sender,\n            id_nhatkydongruong,\n            id_hoatdongnhatky,\n            id_phanbonthuocbaove\n        );\n\n        DanhSachNhatKy[msg.sender].push(nhatky);\n\n        emit suKienLuuNhatKy(\n            msg.sender,\n            id_nhatkydongruong,\n            id_hoatdongnhatky,\n            id_phanbonthuocbaove\n        );\n\n        return true;\n    }\n}",
  "sourcePath": "/Users/trongnhan/Dev/supply-chain-for-agriculture/blockchain/contracts/nhatkydongruong.sol",
  "compiler": {
    "name": "solc",
    "version": "0.5.16+commit.9c3226ce.Emscripten.clang"
  },
  "schemaVersion": "3.4.7",
  "updatedAt": "2022-06-17T12:48:43.144Z",
  "devdoc": {
    "methods": {}
  },
  "userdoc": {
    "methods": {}
  }
}