{
  "contractName": "NhatKyDongRuong",
  "abi": [
    {
      "anonymous": false,
      "inputs": [
        {
          "indexed": false,
          "internalType": "uint256",
          "name": "id_XaVien",
          "type": "uint256"
        },
        {
          "indexed": false,
          "internalType": "uint256",
          "name": "id_NhatKyDongRuong",
          "type": "uint256"
        },
        {
          "indexed": false,
          "internalType": "uint256",
          "name": "id_LichMuaVu",
          "type": "uint256"
        },
        {
          "indexed": false,
          "internalType": "uint256",
          "name": "id_ThuaDat",
          "type": "uint256"
        },
        {
          "indexed": false,
          "internalType": "uint256",
          "name": "ThoiGian",
          "type": "uint256"
        }
      ],
      "name": "SuKienThemNhatKyDongRuong",
      "type": "event"
    },
    {
      "inputs": [
        {
          "internalType": "uint256",
          "name": "",
          "type": "uint256"
        }
      ],
      "name": "DanhSachNhatKyDongRuong",
      "outputs": [
        {
          "internalType": "uint256",
          "name": "id_XaVien",
          "type": "uint256"
        },
        {
          "internalType": "uint256",
          "name": "id_NhatKyDongRuong",
          "type": "uint256"
        },
        {
          "internalType": "uint256",
          "name": "id_LichMuaVu",
          "type": "uint256"
        },
        {
          "internalType": "uint256",
          "name": "id_ThuaDat",
          "type": "uint256"
        },
        {
          "internalType": "uint256",
          "name": "ThoiGian",
          "type": "uint256"
        }
      ],
      "stateMutability": "view",
      "type": "function",
      "constant": true
    },
    {
      "inputs": [
        {
          "internalType": "uint256",
          "name": "id_XaVien",
          "type": "uint256"
        },
        {
          "internalType": "uint256",
          "name": "id_NhatKyDongRuong",
          "type": "uint256"
        },
        {
          "internalType": "uint256",
          "name": "id_LichMuaVu",
          "type": "uint256"
        },
        {
          "internalType": "uint256",
          "name": "id_ThuaDat",
          "type": "uint256"
        },
        {
          "internalType": "uint256",
          "name": "ThoiGian",
          "type": "uint256"
        }
      ],
      "name": "ThemNhatKyDongRuong",
      "outputs": [
        {
          "internalType": "bool",
          "name": "",
          "type": "bool"
        }
      ],
      "stateMutability": "nonpayable",
      "type": "function"
    },
    {
      "inputs": [
        {
          "internalType": "uint256",
          "name": "id_NhatKyDongRuong",
          "type": "uint256"
        }
      ],
      "name": "LayNhatKyDongRuong",
      "outputs": [
        {
          "components": [
            {
              "internalType": "uint256",
              "name": "id_XaVien",
              "type": "uint256"
            },
            {
              "internalType": "uint256",
              "name": "id_NhatKyDongRuong",
              "type": "uint256"
            },
            {
              "internalType": "uint256",
              "name": "id_LichMuaVu",
              "type": "uint256"
            },
            {
              "internalType": "uint256",
              "name": "id_ThuaDat",
              "type": "uint256"
            },
            {
              "internalType": "uint256",
              "name": "ThoiGian",
              "type": "uint256"
            }
          ],
          "internalType": "struct NhatKyDongRuong.NhatKyDongRuong_Struct",
          "name": "",
          "type": "tuple"
        }
      ],
      "stateMutability": "view",
      "type": "function",
      "constant": true
    }
  ],
  "bytecode": "0x6080604052600060015534801561001557600080fd5b5061063e806100256000396000f3fe608060405234801561001057600080fd5b50600436106100415760003560e01c80632cf10fad146100465780636c9cf5e21461007a578063c0b09e54146100aa575b600080fd5b610060600480360381019061005b919061030e565b6100da565b60405161007195949392919061034a565b60405180910390f35b610094600480360381019061008f919061039d565b610110565b6040516100a19190610433565b60405180910390f35b6100c460048036038101906100bf919061030e565b610246565b6040516100d191906104c5565b60405180910390f35b60006020528060005260406000206000915090508060000154908060010154908060020154908060030154908060040154905085565b6000846000806000838152602001908152602001600020600101541461016b576040517f08c379a000000000000000000000000000000000000000000000000000000000815260040161016290610563565b60405180910390fd5b6101736102a4565b6040518060a00160405280898152602001888152602001878152602001868152602001858152509050806000808981526020019081526020016000206000820151816000015560208201518160010155604082015181600201556060820151816003015560808201518160040155905050600180546101f291906105b2565b6001819055507f66ad22b6cabd1c944b27237d18cdcdf51958da0f4ae343e990cc79a760d1fad0888888888860405161022f95949392919061034a565b60405180910390a160019250505095945050505050565b61024e6102a4565b6000808381526020019081526020016000206040518060a0016040529081600082015481526020016001820154815260200160028201548152602001600382015481526020016004820154815250509050919050565b6040518060a0016040528060008152602001600081526020016000815260200160008152602001600081525090565b600080fd5b6000819050919050565b6102eb816102d8565b81146102f657600080fd5b50565b600081359050610308816102e2565b92915050565b600060208284031215610324576103236102d3565b5b6000610332848285016102f9565b91505092915050565b610344816102d8565b82525050565b600060a08201905061035f600083018861033b565b61036c602083018761033b565b610379604083018661033b565b610386606083018561033b565b610393608083018461033b565b9695505050505050565b600080600080600060a086880312156103b9576103b86102d3565b5b60006103c7888289016102f9565b95505060206103d8888289016102f9565b94505060406103e9888289016102f9565b93505060606103fa888289016102f9565b925050608061040b888289016102f9565b9150509295509295909350565b60008115159050919050565b61042d81610418565b82525050565b60006020820190506104486000830184610424565b92915050565b610457816102d8565b82525050565b60a082016000820151610473600085018261044e565b506020820151610486602085018261044e565b506040820151610499604085018261044e565b5060608201516104ac606085018261044e565b5060808201516104bf608085018261044e565b50505050565b600060a0820190506104da600083018461045d565b92915050565b600082825260208201905092915050565b7f4964206e686174206b7920646f6e672072756f6e672070686169206c6120647560008201527f79206e6861740000000000000000000000000000000000000000000000000000602082015250565b600061054d6026836104e0565b9150610558826104f1565b604082019050919050565b6000602082019050818103600083015261057c81610540565b9050919050565b7f4e487b7100000000000000000000000000000000000000000000000000000000600052601160045260246000fd5b60006105bd826102d8565b91506105c8836102d8565b9250827fffffffffffffffffffffffffffffffffffffffffffffffffffffffffffffffff038211156105fd576105fc610583565b5b82820190509291505056fea26469706673582212207d82b34732b6c98512812aadfe1cd109e5087097383071ed65e2a021e30e141064736f6c634300080d0033",
  "immutableReferences": {},
  "source": "// SPDX-License-Identifier: MIT\npragma solidity >=0.5.16 <0.9.0;\n\ncontract NhatKyDongRuong {\n    //--------data-------//\n    struct NhatKyDongRuong_Struct {\n        uint    id_XaVien;\n        uint    id_NhatKyDongRuong;\n        uint    id_LichMuaVu;\n        uint    id_ThuaDat;\n        uint    ThoiGian;\n    }\n\n    mapping( uint => NhatKyDongRuong_Struct ) public DanhSachNhatKyDongRuong;\n\n    uint maxLength = 0;\n\n    //-------event-------//\n    event SuKienThemNhatKyDongRuong(\n        uint    id_XaVien,\n        uint    id_NhatKyDongRuong,\n        uint    id_LichMuaVu,\n        uint    id_ThuaDat,\n        uint    ThoiGian\n    );\n\n    //------modifier-----//\n    modifier KiemTraIdNhatKyDongRuong( uint id_NhatKyDongRuong ) {\n\n        require(\n            DanhSachNhatKyDongRuong[ id_NhatKyDongRuong ].id_NhatKyDongRuong == 0,\n            \"Id nhat ky dong ruong phai la duy nhat\"\n        );\n        \n        _;\n    }\n\n    //-------handle------//\n    function ThemNhatKyDongRuong (\n        uint            id_XaVien,\n        uint            id_NhatKyDongRuong,\n        uint            id_LichMuaVu,\n        uint            id_ThuaDat,\n        uint            ThoiGian\n    )\n    public\n    KiemTraIdNhatKyDongRuong( id_NhatKyDongRuong )\n    returns ( bool ) {\n        NhatKyDongRuong_Struct memory NhatKyDongRuongMemory;\n        NhatKyDongRuongMemory = NhatKyDongRuong_Struct(\n            id_XaVien,\n            id_NhatKyDongRuong,\n            id_LichMuaVu,\n            id_ThuaDat,\n            ThoiGian\n        );\n\n        DanhSachNhatKyDongRuong[ id_NhatKyDongRuong ] = NhatKyDongRuongMemory;\n        maxLength = maxLength + 1;\n\n        emit SuKienThemNhatKyDongRuong(\n            id_XaVien,\n            id_NhatKyDongRuong,\n            id_LichMuaVu,\n            id_ThuaDat,\n            ThoiGian\n        );\n\n        return true;\n    }\n\n\n    function LayNhatKyDongRuong(\n        uint id_NhatKyDongRuong\n    ) \n    external\n    view\n    returns (NhatKyDongRuong_Struct memory) \n    {\n        return DanhSachNhatKyDongRuong[ id_NhatKyDongRuong ];\n    }\n}",
  "sourcePath": "/Users/trongnhan/Dev/supply-chain-for-agriculture/blockchain/contracts/nhatkydongruong.sol",
  "compiler": {
    "name": "solc",
    "version": "0.8.13+commit.abaa5c0e.Emscripten.clang"
  },
  "schemaVersion": "3.4.7",
  "updatedAt": "2022-08-20T06:35:12.129Z",
  "networkType": "ethereum",
  "devdoc": {
    "kind": "dev",
    "methods": {},
    "version": 1
  },
  "userdoc": {
    "kind": "user",
    "methods": {},
    "version": 1
  }
}