{
  "contractName": "VatTuSuDung",
  "abi": [
    {
      "anonymous": false,
      "inputs": [
        {
          "indexed": false,
          "internalType": "uint256",
          "name": "id_HoatDongNhatKy",
          "type": "uint256"
        },
        {
          "indexed": false,
          "internalType": "uint256",
          "name": "id_VatTu",
          "type": "uint256"
        },
        {
          "indexed": false,
          "internalType": "uint256",
          "name": "SoLuong",
          "type": "uint256"
        }
      ],
      "name": "SuKienThemVatTuNongNghiep",
      "type": "event"
    },
    {
      "inputs": [
        {
          "internalType": "uint256",
          "name": "",
          "type": "uint256"
        }
      ],
      "name": "DanhSachVatTuSuDung",
      "outputs": [
        {
          "internalType": "uint256",
          "name": "id_HoatDongNhatKy",
          "type": "uint256"
        },
        {
          "internalType": "uint256",
          "name": "id_VatTu",
          "type": "uint256"
        },
        {
          "internalType": "uint256",
          "name": "SoLuong",
          "type": "uint256"
        }
      ],
      "stateMutability": "view",
      "type": "function"
    },
    {
      "inputs": [
        {
          "internalType": "uint256",
          "name": "id_HoatDongNhatKy",
          "type": "uint256"
        },
        {
          "internalType": "uint256",
          "name": "id_VatTu",
          "type": "uint256"
        },
        {
          "internalType": "uint256",
          "name": "SoLuong",
          "type": "uint256"
        }
      ],
      "name": "ThemVatTuNongNghiep",
      "outputs": [
        {
          "internalType": "bool",
          "name": "",
          "type": "bool"
        }
      ],
      "stateMutability": "nonpayable",
      "type": "function"
    }
  ],
  "bytecode": "0x6080604052600060015534801561001557600080fd5b50610454806100256000396000f3fe608060405234801561001057600080fd5b50600436106100365760003560e01c8063458512021461003b578063aab2e75a1461006d575b600080fd5b61005560048036038101906100509190610220565b61009d565b6040516100649392919061025c565b60405180910390f35b61008760048036038101906100829190610293565b6100c7565b6040516100949190610301565b60405180910390f35b60006020528060005260406000206000915090508060000154908060010154908060020154905083565b6000816000811161010d576040517f08c379a000000000000000000000000000000000000000000000000000000000815260040161010490610379565b60405180910390fd5b6101156101c4565b60405180606001604052808781526020018681526020018581525090508060008060015481526020019081526020016000206000820151816000015560208201518160010155604082015181600201559050506001805461017691906103c8565b6001819055507f8d02f0f8af96ad38a0b5f30f77cec99b3c89e0d80557a12fc0896ac122d8768f8686866040516101af9392919061025c565b60405180910390a16001925050509392505050565b60405180606001604052806000815260200160008152602001600081525090565b600080fd5b6000819050919050565b6101fd816101ea565b811461020857600080fd5b50565b60008135905061021a816101f4565b92915050565b600060208284031215610236576102356101e5565b5b60006102448482850161020b565b91505092915050565b610256816101ea565b82525050565b6000606082019050610271600083018661024d565b61027e602083018561024d565b61028b604083018461024d565b949350505050565b6000806000606084860312156102ac576102ab6101e5565b5b60006102ba8682870161020b565b93505060206102cb8682870161020b565b92505060406102dc8682870161020b565b9150509250925092565b60008115159050919050565b6102fb816102e6565b82525050565b600060208201905061031660008301846102f2565b92915050565b600082825260208201905092915050565b7f536f206c756f6e672070686169206c6f6e20686f6e2030000000000000000000600082015250565b600061036360178361031c565b915061036e8261032d565b602082019050919050565b6000602082019050818103600083015261039281610356565b9050919050565b7f4e487b7100000000000000000000000000000000000000000000000000000000600052601160045260246000fd5b60006103d3826101ea565b91506103de836101ea565b9250827fffffffffffffffffffffffffffffffffffffffffffffffffffffffffffffffff0382111561041357610412610399565b5b82820190509291505056fea264697066735822122033de45ee3872f44a3d8f3f4814dd0d033f4e8a68c63f81d0f2176574ab47324864736f6c634300080d0033",
  "immutableReferences": {},
  "source": "// SPDX-License-Identifier: MIT\npragma solidity >=0.5.16 <0.9.0;\n\ncontract VatTuSuDung {\n    //--------data-------//\n    struct VatTuSuDung_Struct {\n        uint id_HoatDongNhatKy;\n        uint id_VatTu;\n        uint SoLuong;\n    }\n\n    mapping( uint => VatTuSuDung_Struct )\n    public DanhSachVatTuSuDung;\n\n    uint maxLength = 0;\n\n    //-------event-------//\n    event SuKienThemVatTuNongNghiep (\n        uint id_HoatDongNhatKy,\n        uint id_VatTu,\n        uint SoLuong\n    );\n\n    //------modifier-----//\n    modifier KiemTraSoLuong ( uint SoLuong ) {\n        require( \n            SoLuong > 0,\n            \"So luong phai lon hon 0\"\n        );\n\n        _;\n    }\n\n    //-------handle------//\n    function ThemVatTuNongNghiep (\n        uint id_HoatDongNhatKy,\n        uint id_VatTu,\n        uint SoLuong\n    )\n    public\n    KiemTraSoLuong( SoLuong )\n    returns (bool)\n    {\n        VatTuSuDung_Struct memory VatTuSuDungMemory;\n        VatTuSuDungMemory = VatTuSuDung_Struct(\n            id_HoatDongNhatKy,\n            id_VatTu,\n            SoLuong\n        );\n\n        DanhSachVatTuSuDung[maxLength] = VatTuSuDungMemory;\n        maxLength = maxLength + 1;\n\n        emit SuKienThemVatTuNongNghiep(\n            id_HoatDongNhatKy,\n            id_VatTu,\n            SoLuong\n        );\n\n        return true;\n    }\n\n}",
  "sourcePath": "/Users/trongnhan/Dev/supply-chain-for-agriculture/blockchain/contracts/VatTuSuDung.sol",
  "compiler": {
    "name": "solc",
    "version": "0.8.13+commit.abaa5c0e.Emscripten.clang"
  },
  "schemaVersion": "3.4.7",
  "updatedAt": "2022-07-05T13:54:33.903Z",
  "devdoc": {
    "kind": "dev",
    "methods": {},
    "version": 1
  },
  "userdoc": {
    "kind": "user",
    "methods": {},
    "version": 1
  }
}