{
  "contractName": "VatTuSuDung",
  "abi": [
    {
      "anonymous": false,
      "inputs": [
        {
          "indexed": false,
          "internalType": "uint256",
          "name": "id_HoatDongNhatKy",
          "type": "uint256"
        },
        {
          "indexed": false,
          "internalType": "uint256",
          "name": "id_VatTu",
          "type": "uint256"
        },
        {
          "indexed": false,
          "internalType": "uint256",
          "name": "id_LoHangVatTu",
          "type": "uint256"
        },
        {
          "indexed": false,
          "internalType": "uint256",
          "name": "SoLuong",
          "type": "uint256"
        },
        {
          "indexed": false,
          "internalType": "string",
          "name": "ThongTinKhac",
          "type": "string"
        }
      ],
      "name": "SuKienThemVatTuNongNghiep",
      "type": "event"
    },
    {
      "inputs": [
        {
          "internalType": "uint256",
          "name": "",
          "type": "uint256"
        }
      ],
      "name": "DanhSachVatTuSuDung",
      "outputs": [
        {
          "internalType": "uint256",
          "name": "id_HoatDongNhatKy",
          "type": "uint256"
        },
        {
          "internalType": "uint256",
          "name": "id_VatTu",
          "type": "uint256"
        },
        {
          "internalType": "uint256",
          "name": "id_LoHangVatTu",
          "type": "uint256"
        },
        {
          "internalType": "uint256",
          "name": "SoLuong",
          "type": "uint256"
        },
        {
          "internalType": "string",
          "name": "ThongTinKhac",
          "type": "string"
        }
      ],
      "stateMutability": "view",
      "type": "function",
      "constant": true
    },
    {
      "inputs": [
        {
          "internalType": "uint256",
          "name": "id_HoatDongNhatKy",
          "type": "uint256"
        },
        {
          "internalType": "uint256",
          "name": "id_VatTu",
          "type": "uint256"
        },
        {
          "internalType": "uint256",
          "name": "id_LoHangVatTu",
          "type": "uint256"
        },
        {
          "internalType": "uint256",
          "name": "SoLuong",
          "type": "uint256"
        },
        {
          "internalType": "string",
          "name": "ThongTinKhac",
          "type": "string"
        }
      ],
      "name": "ThemVatTuNongNghiep",
      "outputs": [
        {
          "internalType": "bool",
          "name": "",
          "type": "bool"
        }
      ],
      "stateMutability": "nonpayable",
      "type": "function"
    }
  ],
  "bytecode": "0x6080604052600060015534801561001557600080fd5b50610c12806100256000396000f3fe608060405234801561001057600080fd5b50600436106100365760003560e01c8063458512021461003b57806398e227d91461006f575b600080fd5b6100556004803603810190610050919061050c565b61009f565b6040516100669594939291906105e1565b60405180910390f35b61008960048036038101906100849190610770565b61015d565b6040516100969190610822565b60405180910390f35b60006020528060005260406000206000915090508060000154908060010154908060020154908060030154908060040180546100da9061086c565b80601f01602080910402602001604051908101604052809291908181526020018280546101069061086c565b80156101535780601f1061012857610100808354040283529160200191610153565b820191906000526020600020905b81548152906001019060200180831161013657829003601f168201915b5050505050905085565b60008584600080600190506000600190505b6001548310156101ce5784600080858152602001908152602001600020600001540361019a57600091505b8360008085815260200190815260200160002060020154036101bb57600090505b82806101c6906108cc565b93505061016f565b81806101d75750805b6040516020016101e690610a03565b60405160208183030381529060405290610236576040517f08c379a000000000000000000000000000000000000000000000000000000000815260040161022d9190610a23565b60405180910390fd5b5081610277576040517f08c379a000000000000000000000000000000000000000000000000000000000815260040161026e90610ab7565b60405180910390fd5b806102b7576040517f08c379a00000000000000000000000000000000000000000000000000000000081526004016102ae90610afa565b60405180910390fd5b87600081116102fb576040517f08c379a00000000000000000000000000000000000000000000000000000000081526004016102f290610b66565b60405180910390fd5b6103036103f0565b6040518060a001604052808e81526020018d81526020018c81526020018b81526020018a815250905080600080600154815260200190815260200160002060008201518160000155602082015181600101556040820151816002015560608201518160030155608082015181600401908051906020019061038592919061041f565b50905050600180546103979190610b86565b6001819055507fffa359f07299821a028d708d7239b8ea16637a0002391d09340d07c238fd91478d8d8d8d8d6040516103d49594939291906105e1565b60405180910390a1600197505050505050505095945050505050565b6040518060a0016040528060008152602001600081526020016000815260200160008152602001606081525090565b82805461042b9061086c565b90600052602060002090601f01602090048101928261044d5760008555610494565b82601f1061046657805160ff1916838001178555610494565b82800160010185558215610494579182015b82811115610493578251825591602001919060010190610478565b5b5090506104a191906104a5565b5090565b5b808211156104be5760008160009055506001016104a6565b5090565b6000604051905090565b600080fd5b600080fd5b6000819050919050565b6104e9816104d6565b81146104f457600080fd5b50565b600081359050610506816104e0565b92915050565b600060208284031215610522576105216104cc565b5b6000610530848285016104f7565b91505092915050565b610542816104d6565b82525050565b600081519050919050565b600082825260208201905092915050565b60005b83811015610582578082015181840152602081019050610567565b83811115610591576000848401525b50505050565b6000601f19601f8301169050919050565b60006105b382610548565b6105bd8185610553565b93506105cd818560208601610564565b6105d681610597565b840191505092915050565b600060a0820190506105f66000830188610539565b6106036020830187610539565b6106106040830186610539565b61061d6060830185610539565b818103608083015261062f81846105a8565b90509695505050505050565b600080fd5b600080fd5b7f4e487b7100000000000000000000000000000000000000000000000000000000600052604160045260246000fd5b61067d82610597565b810181811067ffffffffffffffff8211171561069c5761069b610645565b5b80604052505050565b60006106af6104c2565b90506106bb8282610674565b919050565b600067ffffffffffffffff8211156106db576106da610645565b5b6106e482610597565b9050602081019050919050565b82818337600083830152505050565b600061071361070e846106c0565b6106a5565b90508281526020810184848401111561072f5761072e610640565b5b61073a8482856106f1565b509392505050565b600082601f8301126107575761075661063b565b5b8135610767848260208601610700565b91505092915050565b600080600080600060a0868803121561078c5761078b6104cc565b5b600061079a888289016104f7565b95505060206107ab888289016104f7565b94505060406107bc888289016104f7565b93505060606107cd888289016104f7565b925050608086013567ffffffffffffffff8111156107ee576107ed6104d1565b5b6107fa88828901610742565b9150509295509295909350565b60008115159050919050565b61081c81610807565b82525050565b60006020820190506108376000830184610813565b92915050565b7f4e487b7100000000000000000000000000000000000000000000000000000000600052602260045260246000fd5b6000600282049050600182168061088457607f821691505b6020821081036108975761089661083d565b5b50919050565b7f4e487b7100000000000000000000000000000000000000000000000000000000600052601160045260246000fd5b60006108d7826104d6565b91507fffffffffffffffffffffffffffffffffffffffffffffffffffffffffffffffff82036109095761090861089d565b5b600182019050919050565b600081905092915050565b7f494420686f617420646f6e67206e686174206b792070686169206c612064757960008201527f206e686174200000000000000000000000000000000000000000000000000000602082015250565b600061097b602683610914565b91506109868261091f565b602682019050919050565b7f4944206c6f2068616e67207661742074752070686169206c6120647579206e6860008201527f6174000000000000000000000000000000000000000000000000000000000000602082015250565b60006109ed602283610914565b91506109f882610991565b602282019050919050565b6000610a0e8261096e565b9150610a19826109e0565b9150819050919050565b60006020820190508181036000830152610a3d81846105a8565b905092915050565b7f494420686f617420646f6e67206e686174206b792070686169206c612064757960008201527f206e686174000000000000000000000000000000000000000000000000000000602082015250565b6000610aa1602583610553565b9150610aac82610a45565b604082019050919050565b60006020820190508181036000830152610ad081610a94565b9050919050565b6000610ae4602283610553565b9150610aef82610991565b604082019050919050565b60006020820190508181036000830152610b1381610ad7565b9050919050565b7f536f206c756f6e672070686169206c6f6e20686f6e2030000000000000000000600082015250565b6000610b50601783610553565b9150610b5b82610b1a565b602082019050919050565b60006020820190508181036000830152610b7f81610b43565b9050919050565b6000610b91826104d6565b9150610b9c836104d6565b9250827fffffffffffffffffffffffffffffffffffffffffffffffffffffffffffffffff03821115610bd157610bd061089d565b5b82820190509291505056fea26469706673582212201b51da3b7fb40be20e4cc983f120192926bbc5a89ecfc0371837839f47d35cb464736f6c634300080d0033",
  "immutableReferences": {},
  "source": "// SPDX-License-Identifier: MIT\npragma solidity >=0.5.16 <0.9.0;\n\ncontract VatTuSuDung {\n    //--------data-------//\n    struct VatTuSuDung_Struct {\n        uint    id_HoatDongNhatKy;\n        uint    id_VatTu;\n        uint    id_LoHangVatTu;\n        uint    SoLuong;\n        string  ThongTinKhac;\n    }\n     /* \n        ThongTinKhac {\n            ThoiGian\n            TenVatTu\n        }\n    */\n\n    mapping( uint => VatTuSuDung_Struct )\n    public DanhSachVatTuSuDung;\n\n    uint maxLength = 0;\n\n    //-------event-------//\n    event SuKienThemVatTuNongNghiep (\n        uint    id_HoatDongNhatKy,\n        uint    id_VatTu,\n        uint    id_LoHangVatTu,\n        uint    SoLuong,\n        string  ThongTinKhac\n    );\n\n    //------modifier-----//\n    modifier KiemTraSoLuong ( uint SoLuong ) {\n        require( \n            SoLuong > 0,\n            \"So luong phai lon hon 0\"\n        );\n\n        _;\n    }\n\n    modifier KiemTraVatTuSuDung( \n        uint id_HoatDongNhatKy, \n        uint id_LoHangVatTu \n    ) {\n        uint index                  = 0;\n        bool checkIdHoatDongNhatKy = true;\n        bool checkIdLoHangVatTu  = true;\n\n        for ( index; index < maxLength; index ++ ) {\n            if ( DanhSachVatTuSuDung[ index ].id_HoatDongNhatKy \n                 == id_HoatDongNhatKy \n            ) {\n                checkIdHoatDongNhatKy = false;\n            }\n\n            if ( DanhSachVatTuSuDung[ index ].id_LoHangVatTu \n                 == id_LoHangVatTu \n            ) {\n                checkIdLoHangVatTu = false;\n            }\n        }\n\n        require(\n            checkIdHoatDongNhatKy || checkIdLoHangVatTu,\n            string.concat(\n                \"ID hoat dong nhat ky phai la duy nhat \",\n                \"ID lo hang vat tu phai la duy nhat\"\n            )\n        );\n\n        require (\n            checkIdHoatDongNhatKy,\n            \"ID hoat dong nhat ky phai la duy nhat\"\n        );\n\n        require(\n            checkIdLoHangVatTu,\n            \"ID lo hang vat tu phai la duy nhat\"\n        );\n        \n        _;\n    }\n\n    //-------handle------//\n    function ThemVatTuNongNghiep (\n        uint            id_HoatDongNhatKy,\n        uint            id_VatTu,\n        uint            id_LoHangVatTu,\n        uint            SoLuong,\n        string memory   ThongTinKhac\n    )\n    public\n    KiemTraVatTuSuDung ( id_HoatDongNhatKy, id_LoHangVatTu  )\n    KiemTraSoLuong( SoLuong )\n    returns (bool)\n    {\n        VatTuSuDung_Struct memory VatTuSuDungMemory;\n        VatTuSuDungMemory = VatTuSuDung_Struct(\n            id_HoatDongNhatKy,\n            id_VatTu,\n            id_LoHangVatTu,\n            SoLuong,\n            ThongTinKhac\n        );\n\n        DanhSachVatTuSuDung[maxLength] = VatTuSuDungMemory;\n        maxLength = maxLength + 1;\n\n        emit SuKienThemVatTuNongNghiep(\n            id_HoatDongNhatKy,\n            id_VatTu,\n            id_LoHangVatTu,\n            SoLuong,\n            ThongTinKhac\n        );\n\n        return true;\n    }\n\n}",
  "sourcePath": "/Users/trongnhan/Dev/supply-chain-for-agriculture/blockchain/contracts/VatTuSuDung.sol",
  "compiler": {
    "name": "solc",
    "version": "0.8.13+commit.abaa5c0e.Emscripten.clang"
  },
  "schemaVersion": "3.4.7",
  "updatedAt": "2022-07-10T03:37:53.106Z",
  "networkType": "ethereum",
  "devdoc": {
    "kind": "dev",
    "methods": {},
    "version": 1
  },
  "userdoc": {
    "kind": "user",
    "methods": {},
    "version": 1
  }
}