{
  "contractName": "VatTuSuDung",
  "abi": [
    {
      "anonymous": false,
      "inputs": [
        {
          "indexed": false,
          "internalType": "uint256",
          "name": "id_VatTuSuDung",
          "type": "uint256"
        },
        {
          "indexed": false,
          "internalType": "uint256",
          "name": "id_HoatDongNhatKy",
          "type": "uint256"
        },
        {
          "indexed": false,
          "internalType": "uint256",
          "name": "id_VatTu",
          "type": "uint256"
        },
        {
          "indexed": false,
          "internalType": "uint256",
          "name": "id_LoHangVatTu",
          "type": "uint256"
        },
        {
          "indexed": false,
          "internalType": "uint256",
          "name": "ThoiGianVatTu",
          "type": "uint256"
        },
        {
          "indexed": false,
          "internalType": "string",
          "name": "TenVatTu",
          "type": "string"
        }
      ],
      "name": "SuKienThemVatTuNongNghiep",
      "type": "event"
    },
    {
      "inputs": [
        {
          "internalType": "uint256",
          "name": "",
          "type": "uint256"
        }
      ],
      "name": "DanhSachVatTuSuDung",
      "outputs": [
        {
          "internalType": "uint256",
          "name": "id_VatTuSuDung",
          "type": "uint256"
        },
        {
          "internalType": "uint256",
          "name": "id_HoatDongNhatKy",
          "type": "uint256"
        },
        {
          "internalType": "uint256",
          "name": "id_VatTu",
          "type": "uint256"
        },
        {
          "internalType": "uint256",
          "name": "id_LoHangVatTu",
          "type": "uint256"
        },
        {
          "internalType": "uint256",
          "name": "ThoiGianVatTu",
          "type": "uint256"
        },
        {
          "internalType": "string",
          "name": "TenVatTu",
          "type": "string"
        }
      ],
      "stateMutability": "view",
      "type": "function",
      "constant": true
    },
    {
      "inputs": [
        {
          "internalType": "uint256[]",
          "name": "intProperties",
          "type": "uint256[]"
        },
        {
          "internalType": "string[]",
          "name": "stringProperties",
          "type": "string[]"
        },
        {
          "internalType": "address[]",
          "name": "addressProperties",
          "type": "address[]"
        }
      ],
      "name": "ThemVatTuNongNghiep",
      "outputs": [
        {
          "internalType": "bool",
          "name": "",
          "type": "bool"
        }
      ],
      "stateMutability": "nonpayable",
      "type": "function"
    }
  ],
  "bytecode": "0x6080604052600060015534801561001557600080fd5b5061102f806100256000396000f3fe608060405234801561001057600080fd5b50600436106100365760003560e01c8063458512021461003b578063aba622fa14610070575b600080fd5b61005560048036038101906100509190610645565b6100a0565b6040516100679695949392919061071a565b60405180910390f35b61008a60048036038101906100859190610b81565b610164565b6040516100979190610c43565b60405180910390f35b60006020528060005260406000206000915090508060000154908060010154908060020154908060030154908060040154908060050180546100e190610c8d565b80601f016020809104026020016040519081016040528092919081815260200182805461010d90610c8d565b801561015a5780601f1061012f5761010080835404028352916020019161015a565b820191906000526020600020905b81548152906001019060200180831161013d57829003601f168201915b5050505050905086565b60008360008151811061017a57610179610cbe565b5b6020026020010151600080600083815260200190815260200160002060000154146101da576040517f08c379a00000000000000000000000000000000000000000000000000000000081526004016101d190610d39565b60405180910390fd5b846003815181106101ee576101ed610cbe565b5b60200260200101518360008151811061020a57610209610cbe565b5b60200260200101516000819050828173ffffffffffffffffffffffffffffffffffffffff16630a313f5f856040518263ffffffff1660e01b81526004016102519190610d59565b600060405180830381865afa15801561026e573d6000803e3d6000fd5b505050506040513d6000823e3d601f19601f820116820180604052508101906102979190610ebf565b60000151146102db576040517f08c379a00000000000000000000000000000000000000000000000000000000081526004016102d290610f54565b60405180910390fd5b6102e3610522565b6040518060c001604052808a60008151811061030257610301610cbe565b5b602002602001015181526020018a60018151811061032357610322610cbe565b5b602002602001015181526020018a60028151811061034457610343610cbe565b5b602002602001015181526020018a60038151811061036557610364610cbe565b5b602002602001015181526020018a60048151811061038657610385610cbe565b5b60200260200101518152602001896000815181106103a7576103a6610cbe565b5b60200260200101518152509050806000806001548152602001908152602001600020600082015181600001556020820151816001015560408201518160020155606082015181600301556080820151816004015560a0820151816005019080519060200190610417929190610558565b50905050600180546104299190610fa3565b6001819055507f58ab53487abe867cc98fce9937a4da7673df3d9d75d2f55ae7cd94f22b5617d68960008151811061046457610463610cbe565b5b60200260200101518a6001815181106104805761047f610cbe565b5b60200260200101518b60028151811061049c5761049b610cbe565b5b60200260200101518c6003815181106104b8576104b7610cbe565b5b60200260200101518d6004815181106104d4576104d3610cbe565b5b60200260200101518d6000815181106104f0576104ef610cbe565b5b602002602001015160405161050a9695949392919061071a565b60405180910390a16001955050505050509392505050565b6040518060c001604052806000815260200160008152602001600081526020016000815260200160008152602001606081525090565b82805461056490610c8d565b90600052602060002090601f01602090048101928261058657600085556105cd565b82601f1061059f57805160ff19168380011785556105cd565b828001600101855582156105cd579182015b828111156105cc5782518255916020019190600101906105b1565b5b5090506105da91906105de565b5090565b5b808211156105f75760008160009055506001016105df565b5090565b6000604051905090565b600080fd5b600080fd5b6000819050919050565b6106228161060f565b811461062d57600080fd5b50565b60008135905061063f81610619565b92915050565b60006020828403121561065b5761065a610605565b5b600061066984828501610630565b91505092915050565b61067b8161060f565b82525050565b600081519050919050565b600082825260208201905092915050565b60005b838110156106bb5780820151818401526020810190506106a0565b838111156106ca576000848401525b50505050565b6000601f19601f8301169050919050565b60006106ec82610681565b6106f6818561068c565b935061070681856020860161069d565b61070f816106d0565b840191505092915050565b600060c08201905061072f6000830189610672565b61073c6020830188610672565b6107496040830187610672565b6107566060830186610672565b6107636080830185610672565b81810360a083015261077581846106e1565b9050979650505050505050565b600080fd5b7f4e487b7100000000000000000000000000000000000000000000000000000000600052604160045260246000fd5b6107bf826106d0565b810181811067ffffffffffffffff821117156107de576107dd610787565b5b80604052505050565b60006107f16105fb565b90506107fd82826107b6565b919050565b600067ffffffffffffffff82111561081d5761081c610787565b5b602082029050602081019050919050565b600080fd5b600061084661084184610802565b6107e7565b905080838252602082019050602084028301858111156108695761086861082e565b5b835b81811015610892578061087e8882610630565b84526020840193505060208101905061086b565b5050509392505050565b600082601f8301126108b1576108b0610782565b5b81356108c1848260208601610833565b91505092915050565b600067ffffffffffffffff8211156108e5576108e4610787565b5b602082029050602081019050919050565b600080fd5b600067ffffffffffffffff82111561091657610915610787565b5b61091f826106d0565b9050602081019050919050565b82818337600083830152505050565b600061094e610949846108fb565b6107e7565b90508281526020810184848401111561096a576109696108f6565b5b61097584828561092c565b509392505050565b600082601f83011261099257610991610782565b5b81356109a284826020860161093b565b91505092915050565b60006109be6109b9846108ca565b6107e7565b905080838252602082019050602084028301858111156109e1576109e061082e565b5b835b81811015610a2857803567ffffffffffffffff811115610a0657610a05610782565b5b808601610a13898261097d565b855260208501945050506020810190506109e3565b5050509392505050565b600082601f830112610a4757610a46610782565b5b8135610a578482602086016109ab565b91505092915050565b600067ffffffffffffffff821115610a7b57610a7a610787565b5b602082029050602081019050919050565b600073ffffffffffffffffffffffffffffffffffffffff82169050919050565b6000610ab782610a8c565b9050919050565b610ac781610aac565b8114610ad257600080fd5b50565b600081359050610ae481610abe565b92915050565b6000610afd610af884610a60565b6107e7565b90508083825260208201905060208402830185811115610b2057610b1f61082e565b5b835b81811015610b495780610b358882610ad5565b845260208401935050602081019050610b22565b5050509392505050565b600082601f830112610b6857610b67610782565b5b8135610b78848260208601610aea565b91505092915050565b600080600060608486031215610b9a57610b99610605565b5b600084013567ffffffffffffffff811115610bb857610bb761060a565b5b610bc48682870161089c565b935050602084013567ffffffffffffffff811115610be557610be461060a565b5b610bf186828701610a32565b925050604084013567ffffffffffffffff811115610c1257610c1161060a565b5b610c1e86828701610b53565b9150509250925092565b60008115159050919050565b610c3d81610c28565b82525050565b6000602082019050610c586000830184610c34565b92915050565b7f4e487b7100000000000000000000000000000000000000000000000000000000600052602260045260246000fd5b60006002820490506001821680610ca557607f821691505b602082108103610cb857610cb7610c5e565b5b50919050565b7f4e487b7100000000000000000000000000000000000000000000000000000000600052603260045260246000fd5b7f4944207661742074752073752064756e6720646120746f6e2074616900000000600082015250565b6000610d23601c8361068c565b9150610d2e82610ced565b602082019050919050565b60006020820190508181036000830152610d5281610d16565b9050919050565b6000602082019050610d6e6000830184610672565b92915050565b600080fd5b600080fd5b600081519050610d8d81610619565b92915050565b6000610da6610da1846108fb565b6107e7565b905082815260208101848484011115610dc257610dc16108f6565b5b610dcd84828561069d565b509392505050565b600082601f830112610dea57610de9610782565b5b8151610dfa848260208601610d93565b91505092915050565b600060c08284031215610e1957610e18610d74565b5b610e2360c06107e7565b90506000610e3384828501610d7e565b6000830152506020610e4784828501610d7e565b6020830152506040610e5b84828501610d7e565b6040830152506060610e6f84828501610d7e565b6060830152506080610e8384828501610d7e565b60808301525060a082015167ffffffffffffffff811115610ea757610ea6610d79565b5b610eb384828501610dd5565b60a08301525092915050565b600060208284031215610ed557610ed4610605565b5b600082015167ffffffffffffffff811115610ef357610ef261060a565b5b610eff84828501610e03565b91505092915050565b7f4c6f2068616e6720766174207475206368756120746f6e207461690000000000600082015250565b6000610f3e601b8361068c565b9150610f4982610f08565b602082019050919050565b60006020820190508181036000830152610f6d81610f31565b9050919050565b7f4e487b7100000000000000000000000000000000000000000000000000000000600052601160045260246000fd5b6000610fae8261060f565b9150610fb98361060f565b9250827fffffffffffffffffffffffffffffffffffffffffffffffffffffffffffffffff03821115610fee57610fed610f74565b5b82820190509291505056fea264697066735822122032e120a9c94fcea6b114141c96026de8bc9f8fddb6f5265d833802288c03fa9c64736f6c634300080d0033",
  "immutableReferences": {},
  "source": "// SPDX-License-Identifier: MIT\npragma solidity >=0.5.16 <0.9.0;\nimport \"./LoHangVatTu.sol\";\n\ncontract VatTuSuDung {\n    //--------data-------//\n    struct VatTuSuDung_Struct {\n        uint    id_VatTuSuDung;\n        uint    id_HoatDongNhatKy;\n        uint    id_VatTu;\n        uint    id_LoHangVatTu;\n        uint    ThoiGianVatTu;\n        string  TenVatTu;\n    }\n\n    mapping( uint => VatTuSuDung_Struct )\n    public DanhSachVatTuSuDung;\n\n    uint maxLength = 0;\n\n    //-------event-------//\n    event SuKienThemVatTuNongNghiep (\n        uint    id_VatTuSuDung,\n        uint    id_HoatDongNhatKy,\n        uint    id_VatTu,\n        uint    id_LoHangVatTu,\n        uint    ThoiGianVatTu,\n        string  TenVatTu\n    );\n\n    //------modifier-----//\n    modifier KiemTraIdVatTuSuDung( uint id_VatTuSuDung ) {\n        require( \n            DanhSachVatTuSuDung[ id_VatTuSuDung ].id_VatTuSuDung == 0,\n            \"ID vat tu su dung da ton tai\"\n        );\n        \n        _;\n    }\n\n    modifier KiemTraVatTuSuDung ( uint id_LoHangVatTu, address addr ) {\n        LoHangVatTu _loHangVatTu = LoHangVatTu(addr);\n        require(\n            _loHangVatTu.LayThongTinVatTu( id_LoHangVatTu ).id_LoHangVatTu == id_LoHangVatTu,\n            \"Lo hang vat tu chua ton tai\"\n        );\n        \n        _;\n    }\n\n    /*\n    intProperties [\n        0: uint            id_VatTuSuDung\n        1: uint            id_HoatDongNhatKy,\n        2: uint            id_VatTu,\n        3: uint            id_LoHangVatTu,\n        4: uint            ThoiGianVatTu\n    ]\n\n    stringProperties [\n        0: string memory   TenVatTu\n    ]\n\n    addressProperties [\n        0: address addContractGiaoDichMuaBanLua\n    ]\n    */\n\n    //-------handle------//\n    function ThemVatTuNongNghiep (\n       uint[]    memory intProperties,\n       string[]  memory stringProperties,\n       address[] memory addressProperties\n    )\n    public\n    KiemTraIdVatTuSuDung( intProperties[0] )\n    KiemTraVatTuSuDung( intProperties[3], addressProperties[0] )\n    returns (bool)\n    {\n        VatTuSuDung_Struct memory VatTuSuDungMemory;\n        VatTuSuDungMemory = VatTuSuDung_Struct(\n            intProperties[0],\n            intProperties[1],\n            intProperties[2],\n            intProperties[3],\n            intProperties[4],\n            stringProperties[0]\n        );\n\n        DanhSachVatTuSuDung[maxLength] = VatTuSuDungMemory;\n        maxLength = maxLength + 1;\n\n        emit SuKienThemVatTuNongNghiep(\n            intProperties[0],\n            intProperties[1],\n            intProperties[2],\n            intProperties[3],\n            intProperties[4],\n            stringProperties[0]\n        );\n\n        return true;\n    }\n\n}",
  "sourcePath": "/Users/trongnhan/Dev/supply-chain-for-agriculture/blockchain/contracts/VatTuSuDung.sol",
  "compiler": {
    "name": "solc",
    "version": "0.8.13+commit.abaa5c0e.Emscripten.clang"
  },
  "schemaVersion": "3.4.7",
  "updatedAt": "2022-07-10T17:07:26.176Z",
  "networkType": "ethereum",
  "devdoc": {
    "kind": "dev",
    "methods": {},
    "version": 1
  },
  "userdoc": {
    "kind": "user",
    "methods": {},
    "version": 1
  }
}